{
	"DegenToken/contracts/DegenToken.sol": {
		"DegenToken": {
			"abi": [
				{
					"inputs": [],
					"stateMutability": "nonpayable",
					"type": "constructor"
				},
				{
					"anonymous": false,
					"inputs": [
						{
							"indexed": true,
							"internalType": "address",
							"name": "owner",
							"type": "address"
						},
						{
							"indexed": true,
							"internalType": "address",
							"name": "spender",
							"type": "address"
						},
						{
							"indexed": false,
							"internalType": "uint256",
							"name": "value",
							"type": "uint256"
						}
					],
					"name": "Approval",
					"type": "event"
				},
				{
					"anonymous": false,
					"inputs": [
						{
							"indexed": true,
							"internalType": "address",
							"name": "previousOwner",
							"type": "address"
						},
						{
							"indexed": true,
							"internalType": "address",
							"name": "newOwner",
							"type": "address"
						}
					],
					"name": "OwnershipTransferred",
					"type": "event"
				},
				{
					"anonymous": false,
					"inputs": [
						{
							"indexed": true,
							"internalType": "address",
							"name": "from",
							"type": "address"
						},
						{
							"indexed": true,
							"internalType": "address",
							"name": "to",
							"type": "address"
						},
						{
							"indexed": false,
							"internalType": "uint256",
							"name": "value",
							"type": "uint256"
						}
					],
					"name": "Transfer",
					"type": "event"
				},
				{
					"inputs": [
						{
							"internalType": "address",
							"name": "owner",
							"type": "address"
						},
						{
							"internalType": "address",
							"name": "spender",
							"type": "address"
						}
					],
					"name": "allowance",
					"outputs": [
						{
							"internalType": "uint256",
							"name": "",
							"type": "uint256"
						}
					],
					"stateMutability": "view",
					"type": "function"
				},
				{
					"inputs": [
						{
							"internalType": "address",
							"name": "spender",
							"type": "address"
						},
						{
							"internalType": "uint256",
							"name": "amount",
							"type": "uint256"
						}
					],
					"name": "approve",
					"outputs": [
						{
							"internalType": "bool",
							"name": "",
							"type": "bool"
						}
					],
					"stateMutability": "nonpayable",
					"type": "function"
				},
				{
					"inputs": [
						{
							"internalType": "address",
							"name": "account",
							"type": "address"
						}
					],
					"name": "balanceOf",
					"outputs": [
						{
							"internalType": "uint256",
							"name": "",
							"type": "uint256"
						}
					],
					"stateMutability": "view",
					"type": "function"
				},
				{
					"inputs": [
						{
							"internalType": "uint256",
							"name": "amount",
							"type": "uint256"
						}
					],
					"name": "burn",
					"outputs": [],
					"stateMutability": "nonpayable",
					"type": "function"
				},
				{
					"inputs": [
						{
							"internalType": "address",
							"name": "account",
							"type": "address"
						},
						{
							"internalType": "uint256",
							"name": "amount",
							"type": "uint256"
						}
					],
					"name": "burnFrom",
					"outputs": [],
					"stateMutability": "nonpayable",
					"type": "function"
				},
				{
					"inputs": [
						{
							"internalType": "uint256",
							"name": "_value",
							"type": "uint256"
						}
					],
					"name": "burnTokens",
					"outputs": [],
					"stateMutability": "payable",
					"type": "function"
				},
				{
					"inputs": [],
					"name": "decimals",
					"outputs": [
						{
							"internalType": "uint8",
							"name": "",
							"type": "uint8"
						}
					],
					"stateMutability": "pure",
					"type": "function"
				},
				{
					"inputs": [
						{
							"internalType": "address",
							"name": "spender",
							"type": "address"
						},
						{
							"internalType": "uint256",
							"name": "subtractedValue",
							"type": "uint256"
						}
					],
					"name": "decreaseAllowance",
					"outputs": [
						{
							"internalType": "bool",
							"name": "",
							"type": "bool"
						}
					],
					"stateMutability": "nonpayable",
					"type": "function"
				},
				{
					"inputs": [],
					"name": "displayStoreItems",
					"outputs": [
						{
							"internalType": "string",
							"name": "",
							"type": "string"
						}
					],
					"stateMutability": "pure",
					"type": "function"
				},
				{
					"inputs": [],
					"name": "getBalance",
					"outputs": [
						{
							"internalType": "uint256",
							"name": "",
							"type": "uint256"
						}
					],
					"stateMutability": "view",
					"type": "function"
				},
				{
					"inputs": [
						{
							"internalType": "address",
							"name": "spender",
							"type": "address"
						},
						{
							"internalType": "uint256",
							"name": "addedValue",
							"type": "uint256"
						}
					],
					"name": "increaseAllowance",
					"outputs": [
						{
							"internalType": "bool",
							"name": "",
							"type": "bool"
						}
					],
					"stateMutability": "nonpayable",
					"type": "function"
				},
				{
					"inputs": [
						{
							"internalType": "address",
							"name": "to",
							"type": "address"
						},
						{
							"internalType": "uint256",
							"name": "amount",
							"type": "uint256"
						}
					],
					"name": "mint",
					"outputs": [],
					"stateMutability": "nonpayable",
					"type": "function"
				},
				{
					"inputs": [],
					"name": "name",
					"outputs": [
						{
							"internalType": "string",
							"name": "",
							"type": "string"
						}
					],
					"stateMutability": "view",
					"type": "function"
				},
				{
					"inputs": [],
					"name": "owner",
					"outputs": [
						{
							"internalType": "address",
							"name": "",
							"type": "address"
						}
					],
					"stateMutability": "view",
					"type": "function"
				},
				{
					"inputs": [
						{
							"internalType": "uint256",
							"name": "_option",
							"type": "uint256"
						}
					],
					"name": "redeemTokens",
					"outputs": [],
					"stateMutability": "payable",
					"type": "function"
				},
				{
					"inputs": [],
					"name": "renounceOwnership",
					"outputs": [],
					"stateMutability": "nonpayable",
					"type": "function"
				},
				{
					"inputs": [],
					"name": "symbol",
					"outputs": [
						{
							"internalType": "string",
							"name": "",
							"type": "string"
						}
					],
					"stateMutability": "view",
					"type": "function"
				},
				{
					"inputs": [],
					"name": "totalSupply",
					"outputs": [
						{
							"internalType": "uint256",
							"name": "",
							"type": "uint256"
						}
					],
					"stateMutability": "view",
					"type": "function"
				},
				{
					"inputs": [
						{
							"internalType": "address",
							"name": "to",
							"type": "address"
						},
						{
							"internalType": "uint256",
							"name": "amount",
							"type": "uint256"
						}
					],
					"name": "transfer",
					"outputs": [
						{
							"internalType": "bool",
							"name": "",
							"type": "bool"
						}
					],
					"stateMutability": "nonpayable",
					"type": "function"
				},
				{
					"inputs": [
						{
							"internalType": "address",
							"name": "from",
							"type": "address"
						},
						{
							"internalType": "address",
							"name": "to",
							"type": "address"
						},
						{
							"internalType": "uint256",
							"name": "amount",
							"type": "uint256"
						}
					],
					"name": "transferFrom",
					"outputs": [
						{
							"internalType": "bool",
							"name": "",
							"type": "bool"
						}
					],
					"stateMutability": "nonpayable",
					"type": "function"
				},
				{
					"inputs": [
						{
							"internalType": "address",
							"name": "newOwner",
							"type": "address"
						}
					],
					"name": "transferOwnership",
					"outputs": [],
					"stateMutability": "nonpayable",
					"type": "function"
				},
				{
					"inputs": [
						{
							"internalType": "address",
							"name": "_receiver",
							"type": "address"
						},
						{
							"internalType": "uint256",
							"name": "_value",
							"type": "uint256"
						}
					],
					"name": "transferTokens",
					"outputs": [],
					"stateMutability": "nonpayable",
					"type": "function"
				}
			],
			"devdoc": {
				"kind": "dev",
				"methods": {
					"allowance(address,address)": {
						"details": "See {IERC20-allowance}."
					},
					"approve(address,uint256)": {
						"details": "See {IERC20-approve}. NOTE: If `amount` is the maximum `uint256`, the allowance is not updated on `transferFrom`. This is semantically equivalent to an infinite approval. Requirements: - `spender` cannot be the zero address."
					},
					"balanceOf(address)": {
						"details": "See {IERC20-balanceOf}."
					},
					"burn(uint256)": {
						"details": "Destroys `amount` tokens from the caller. See {ERC20-_burn}."
					},
					"burnFrom(address,uint256)": {
						"details": "Destroys `amount` tokens from `account`, deducting from the caller's allowance. See {ERC20-_burn} and {ERC20-allowance}. Requirements: - the caller must have allowance for ``accounts``'s tokens of at least `amount`."
					},
					"decimals()": {
						"details": "Returns the number of decimals used to get its user representation. For example, if `decimals` equals `2`, a balance of `505` tokens should be displayed to a user as `5.05` (`505 / 10 ** 2`). Tokens usually opt for a value of 18, imitating the relationship between Ether and Wei. This is the value {ERC20} uses, unless this function is overridden; NOTE: This information is only used for _display_ purposes: it in no way affects any of the arithmetic of the contract, including {IERC20-balanceOf} and {IERC20-transfer}."
					},
					"decreaseAllowance(address,uint256)": {
						"details": "Atomically decreases the allowance granted to `spender` by the caller. This is an alternative to {approve} that can be used as a mitigation for problems described in {IERC20-approve}. Emits an {Approval} event indicating the updated allowance. Requirements: - `spender` cannot be the zero address. - `spender` must have allowance for the caller of at least `subtractedValue`."
					},
					"increaseAllowance(address,uint256)": {
						"details": "Atomically increases the allowance granted to `spender` by the caller. This is an alternative to {approve} that can be used as a mitigation for problems described in {IERC20-approve}. Emits an {Approval} event indicating the updated allowance. Requirements: - `spender` cannot be the zero address."
					},
					"name()": {
						"details": "Returns the name of the token."
					},
					"owner()": {
						"details": "Returns the address of the current owner."
					},
					"renounceOwnership()": {
						"details": "Leaves the contract without owner. It will not be possible to call `onlyOwner` functions anymore. Can only be called by the current owner. NOTE: Renouncing ownership will leave the contract without an owner, thereby removing any functionality that is only available to the owner."
					},
					"symbol()": {
						"details": "Returns the symbol of the token, usually a shorter version of the name."
					},
					"totalSupply()": {
						"details": "See {IERC20-totalSupply}."
					},
					"transfer(address,uint256)": {
						"details": "See {IERC20-transfer}. Requirements: - `to` cannot be the zero address. - the caller must have a balance of at least `amount`."
					},
					"transferFrom(address,address,uint256)": {
						"details": "See {IERC20-transferFrom}. Emits an {Approval} event indicating the updated allowance. This is not required by the EIP. See the note at the beginning of {ERC20}. NOTE: Does not update the allowance if the current allowance is the maximum `uint256`. Requirements: - `from` and `to` cannot be the zero address. - `from` must have a balance of at least `amount`. - the caller must have allowance for ``from``'s tokens of at least `amount`."
					},
					"transferOwnership(address)": {
						"details": "Transfers ownership of the contract to a new account (`newOwner`). Can only be called by the current owner."
					}
				},
				"version": 1
			},
			"evm": {
				"assembly": "    /* \"DegenToken/contracts/DegenToken.sol\":169:1968  contract DegenToken is ERC20, Ownable, ERC20Burnable {... */\n  mstore(0x40, 0x80)\n    /* \"DegenToken/contracts/DegenToken.sol\":229:267  constructor() ERC20(\"Degen\", \"DGN\") {} */\n  callvalue\n  dup1\n  iszero\n  tag_1\n  jumpi\n  0x00\n  dup1\n  revert\ntag_1:\n  pop\n    /* \"DegenToken/ERC20.sol\":1955:2068  constructor(string memory name_, string memory symbol_) {... */\n  mload(0x40)\n  dup1\n  0x40\n  add\n  0x40\n  mstore\n  dup1\n  0x05\n  dup2\n  mstore\n  0x20\n  add\n  0x446567656e000000000000000000000000000000000000000000000000000000\n  dup2\n  mstore\n  pop\n  mload(0x40)\n  dup1\n  0x40\n  add\n  0x40\n  mstore\n  dup1\n  0x03\n  dup2\n  mstore\n  0x20\n  add\n  0x44474e0000000000000000000000000000000000000000000000000000000000\n  dup2\n  mstore\n  pop\n    /* \"DegenToken/ERC20.sol\":2029:2034  name_ */\n  dup2\n    /* \"DegenToken/ERC20.sol\":2021:2026  _name */\n  0x03\n    /* \"DegenToken/ERC20.sol\":2021:2034  _name = name_ */\n  swap1\n  dup1\n  mload\n  swap1\n  0x20\n  add\n  swap1\n  tag_6\n  swap3\n  swap2\n  swap1\n  tag_7\n  jump\t// in\ntag_6:\n  pop\n    /* \"DegenToken/ERC20.sol\":2054:2061  symbol_ */\n  dup1\n    /* \"DegenToken/ERC20.sol\":2044:2051  _symbol */\n  0x04\n    /* \"DegenToken/ERC20.sol\":2044:2061  _symbol = symbol_ */\n  swap1\n  dup1\n  mload\n  swap1\n  0x20\n  add\n  swap1\n  tag_8\n  swap3\n  swap2\n  swap1\n  tag_7\n  jump\t// in\ntag_8:\n  pop\n    /* \"DegenToken/ERC20.sol\":1955:2068  constructor(string memory name_, string memory symbol_) {... */\n  pop\n  pop\n    /* \"DegenToken/Ownable.sol\":929:961  _transferOwnership(_msgSender()) */\n  tag_10\n    /* \"DegenToken/Ownable.sol\":948:960  _msgSender() */\n  tag_11\n    /* \"DegenToken/Ownable.sol\":948:958  _msgSender */\n  shl(0x20, tag_12)\n    /* \"DegenToken/Ownable.sol\":948:960  _msgSender() */\n  0x20\n  shr\n  jump\t// in\ntag_11:\n    /* \"DegenToken/Ownable.sol\":929:947  _transferOwnership */\n  shl(0x20, tag_13)\n    /* \"DegenToken/Ownable.sol\":929:961  _transferOwnership(_msgSender()) */\n  0x20\n  shr\n  jump\t// in\ntag_10:\n    /* \"DegenToken/contracts/DegenToken.sol\":169:1968  contract DegenToken is ERC20, Ownable, ERC20Burnable {... */\n  jump(tag_15)\n    /* \"DegenToken/Context.sol\":640:736  function _msgSender() internal view virtual returns (address) {... */\ntag_12:\n    /* \"DegenToken/Context.sol\":693:700  address */\n  0x00\n    /* \"DegenToken/Context.sol\":719:729  msg.sender */\n  caller\n    /* \"DegenToken/Context.sol\":712:729  return msg.sender */\n  swap1\n  pop\n    /* \"DegenToken/Context.sol\":640:736  function _msgSender() internal view virtual returns (address) {... */\n  swap1\n  jump\t// out\n    /* \"DegenToken/Ownable.sol\":2426:2613  function _transferOwnership(address newOwner) internal virtual {... */\ntag_13:\n    /* \"DegenToken/Ownable.sol\":2499:2515  address oldOwner */\n  0x00\n    /* \"DegenToken/Ownable.sol\":2518:2524  _owner */\n  0x05\n  0x00\n  swap1\n  sload\n  swap1\n  0x0100\n  exp\n  swap1\n  div\n  0xffffffffffffffffffffffffffffffffffffffff\n  and\n    /* \"DegenToken/Ownable.sol\":2499:2524  address oldOwner = _owner */\n  swap1\n  pop\n    /* \"DegenToken/Ownable.sol\":2543:2551  newOwner */\n  dup2\n    /* \"DegenToken/Ownable.sol\":2534:2540  _owner */\n  0x05\n  0x00\n    /* \"DegenToken/Ownable.sol\":2534:2551  _owner = newOwner */\n  0x0100\n  exp\n  dup2\n  sload\n  dup2\n  0xffffffffffffffffffffffffffffffffffffffff\n  mul\n  not\n  and\n  swap1\n  dup4\n  0xffffffffffffffffffffffffffffffffffffffff\n  and\n  mul\n  or\n  swap1\n  sstore\n  pop\n    /* \"DegenToken/Ownable.sol\":2597:2605  newOwner */\n  dup2\n    /* \"DegenToken/Ownable.sol\":2566:2606  OwnershipTransferred(oldOwner, newOwner) */\n  0xffffffffffffffffffffffffffffffffffffffff\n  and\n    /* \"DegenToken/Ownable.sol\":2587:2595  oldOwner */\n  dup2\n    /* \"DegenToken/Ownable.sol\":2566:2606  OwnershipTransferred(oldOwner, newOwner) */\n  0xffffffffffffffffffffffffffffffffffffffff\n  and\n  0x8be0079c531659141344cd1fd0a4f28419497f9722a3daafe3b4186f6b6457e0\n  mload(0x40)\n  mload(0x40)\n  dup1\n  swap2\n  sub\n  swap1\n  log3\n    /* \"DegenToken/Ownable.sol\":2489:2613  {... */\n  pop\n    /* \"DegenToken/Ownable.sol\":2426:2613  function _transferOwnership(address newOwner) internal virtual {... */\n  pop\n  jump\t// out\n    /* \"DegenToken/contracts/DegenToken.sol\":169:1968  contract DegenToken is ERC20, Ownable, ERC20Burnable {... */\ntag_7:\n  dup3\n  dup1\n  sload\n  tag_18\n  swap1\n  tag_19\n  jump\t// in\ntag_18:\n  swap1\n  0x00\n  mstore\n  keccak256(0x00, 0x20)\n  swap1\n  0x1f\n  add\n  0x20\n  swap1\n  div\n  dup2\n  add\n  swap3\n  dup3\n  tag_21\n  jumpi\n  0x00\n  dup6\n  sstore\n  jump(tag_20)\ntag_21:\n  dup3\n  0x1f\n  lt\n  tag_22\n  jumpi\n  dup1\n  mload\n  not(0xff)\n  and\n  dup4\n  dup1\n  add\n  or\n  dup6\n  sstore\n  jump(tag_20)\ntag_22:\n  dup3\n  dup1\n  add\n  0x01\n  add\n  dup6\n  sstore\n  dup3\n  iszero\n  tag_20\n  jumpi\n  swap2\n  dup3\n  add\ntag_23:\n  dup3\n  dup2\n  gt\n  iszero\n  tag_24\n  jumpi\n  dup3\n  mload\n  dup3\n  sstore\n  swap2\n  0x20\n  add\n  swap2\n  swap1\n  0x01\n  add\n  swap1\n  jump(tag_23)\ntag_24:\ntag_20:\n  pop\n  swap1\n  pop\n  tag_25\n  swap2\n  swap1\n  tag_26\n  jump\t// in\ntag_25:\n  pop\n  swap1\n  jump\t// out\ntag_26:\ntag_27:\n  dup1\n  dup3\n  gt\n  iszero\n  tag_28\n  jumpi\n  0x00\n  dup2\n  0x00\n  swap1\n  sstore\n  pop\n  0x01\n  add\n  jump(tag_27)\ntag_28:\n  pop\n  swap1\n  jump\t// out\n    /* \"#utility.yul\":7:187   */\ntag_29:\n    /* \"#utility.yul\":55:132   */\n  0x4e487b7100000000000000000000000000000000000000000000000000000000\n    /* \"#utility.yul\":52:53   */\n  0x00\n    /* \"#utility.yul\":45:133   */\n  mstore\n    /* \"#utility.yul\":152:156   */\n  0x22\n    /* \"#utility.yul\":149:150   */\n  0x04\n    /* \"#utility.yul\":142:157   */\n  mstore\n    /* \"#utility.yul\":176:180   */\n  0x24\n    /* \"#utility.yul\":173:174   */\n  0x00\n    /* \"#utility.yul\":166:181   */\n  revert\n    /* \"#utility.yul\":193:513   */\ntag_19:\n    /* \"#utility.yul\":237:243   */\n  0x00\n    /* \"#utility.yul\":274:275   */\n  0x02\n    /* \"#utility.yul\":268:272   */\n  dup3\n    /* \"#utility.yul\":264:276   */\n  div\n    /* \"#utility.yul\":254:276   */\n  swap1\n  pop\n    /* \"#utility.yul\":321:322   */\n  0x01\n    /* \"#utility.yul\":315:319   */\n  dup3\n    /* \"#utility.yul\":311:323   */\n  and\n    /* \"#utility.yul\":342:360   */\n  dup1\n    /* \"#utility.yul\":332:413   */\n  tag_33\n  jumpi\n    /* \"#utility.yul\":398:402   */\n  0x7f\n    /* \"#utility.yul\":390:396   */\n  dup3\n    /* \"#utility.yul\":386:403   */\n  and\n    /* \"#utility.yul\":376:403   */\n  swap2\n  pop\n    /* \"#utility.yul\":332:413   */\ntag_33:\n    /* \"#utility.yul\":460:462   */\n  0x20\n    /* \"#utility.yul\":452:458   */\n  dup3\n    /* \"#utility.yul\":449:463   */\n  lt\n    /* \"#utility.yul\":429:447   */\n  dup2\n    /* \"#utility.yul\":426:464   */\n  eq\n    /* \"#utility.yul\":423:507   */\n  iszero\n  tag_34\n  jumpi\n    /* \"#utility.yul\":479:497   */\n  tag_35\n  tag_29\n  jump\t// in\ntag_35:\n    /* \"#utility.yul\":423:507   */\ntag_34:\n    /* \"#utility.yul\":244:513   */\n  pop\n    /* \"#utility.yul\":193:513   */\n  swap2\n  swap1\n  pop\n  jump\t// out\n    /* \"DegenToken/contracts/DegenToken.sol\":169:1968  contract DegenToken is ERC20, Ownable, ERC20Burnable {... */\ntag_15:\n  dataSize(sub_0)\n  dup1\n  dataOffset(sub_0)\n  0x00\n  codecopy\n  0x00\n  return\nstop\n\nsub_0: assembly {\n        /* \"DegenToken/contracts/DegenToken.sol\":169:1968  contract DegenToken is ERC20, Ownable, ERC20Burnable {... */\n      mstore(0x40, 0x80)\n      jumpi(tag_1, lt(calldatasize, 0x04))\n      shr(0xe0, calldataload(0x00))\n      dup1\n      0x70a08231\n      gt\n      tag_24\n      jumpi\n      dup1\n      0xa457c2d7\n      gt\n      tag_25\n      jumpi\n      dup1\n      0xa457c2d7\n      eq\n      tag_18\n      jumpi\n      dup1\n      0xa6e158f8\n      eq\n      tag_19\n      jumpi\n      dup1\n      0xa9059cbb\n      eq\n      tag_20\n      jumpi\n      dup1\n      0xbec3fa17\n      eq\n      tag_21\n      jumpi\n      dup1\n      0xdd62ed3e\n      eq\n      tag_22\n      jumpi\n      dup1\n      0xf2fde38b\n      eq\n      tag_23\n      jumpi\n      jump(tag_1)\n    tag_25:\n      dup1\n      0x70a08231\n      eq\n      tag_13\n      jumpi\n      dup1\n      0x715018a6\n      eq\n      tag_14\n      jumpi\n      dup1\n      0x79cc6790\n      eq\n      tag_15\n      jumpi\n      dup1\n      0x8da5cb5b\n      eq\n      tag_16\n      jumpi\n      dup1\n      0x95d89b41\n      eq\n      tag_17\n      jumpi\n      jump(tag_1)\n    tag_24:\n      dup1\n      0x23b872dd\n      gt\n      tag_26\n      jumpi\n      dup1\n      0x23b872dd\n      eq\n      tag_7\n      jumpi\n      dup1\n      0x313ce567\n      eq\n      tag_8\n      jumpi\n      dup1\n      0x39509351\n      eq\n      tag_9\n      jumpi\n      dup1\n      0x40c10f19\n      eq\n      tag_10\n      jumpi\n      dup1\n      0x42966c68\n      eq\n      tag_11\n      jumpi\n      dup1\n      0x6d1b229d\n      eq\n      tag_12\n      jumpi\n      jump(tag_1)\n    tag_26:\n      dup1\n      0x06fdde03\n      eq\n      tag_2\n      jumpi\n      dup1\n      0x095ea7b3\n      eq\n      tag_3\n      jumpi\n      dup1\n      0x12065fe0\n      eq\n      tag_4\n      jumpi\n      dup1\n      0x178fb088\n      eq\n      tag_5\n      jumpi\n      dup1\n      0x18160ddd\n      eq\n      tag_6\n      jumpi\n    tag_1:\n      0x00\n      dup1\n      revert\n        /* \"DegenToken/ERC20.sol\":2133:2231  function name() public view virtual override returns (string memory) {... */\n    tag_2:\n      callvalue\n      dup1\n      iszero\n      tag_27\n      jumpi\n      0x00\n      dup1\n      revert\n    tag_27:\n      pop\n      tag_28\n      tag_29\n      jump\t// in\n    tag_28:\n      mload(0x40)\n      tag_30\n      swap2\n      swap1\n      tag_31\n      jump\t// in\n    tag_30:\n      mload(0x40)\n      dup1\n      swap2\n      sub\n      swap1\n      return\n        /* \"DegenToken/ERC20.sol\":4410:4607  function approve(address spender, uint256 amount) public virtual override returns (bool) {... */\n    tag_3:\n      callvalue\n      dup1\n      iszero\n      tag_32\n      jumpi\n      0x00\n      dup1\n      revert\n    tag_32:\n      pop\n      tag_33\n      0x04\n      dup1\n      calldatasize\n      sub\n      dup2\n      add\n      swap1\n      tag_34\n      swap2\n      swap1\n      tag_35\n      jump\t// in\n    tag_34:\n      tag_36\n      jump\t// in\n    tag_33:\n      mload(0x40)\n      tag_37\n      swap2\n      swap1\n      tag_38\n      jump\t// in\n    tag_37:\n      mload(0x40)\n      dup1\n      swap2\n      sub\n      swap1\n      return\n        /* \"DegenToken/contracts/DegenToken.sol\":464:567  function getBalance() external view returns (uint256){... */\n    tag_4:\n      callvalue\n      dup1\n      iszero\n      tag_39\n      jumpi\n      0x00\n      dup1\n      revert\n    tag_39:\n      pop\n      tag_40\n      tag_41\n      jump\t// in\n    tag_40:\n      mload(0x40)\n      tag_42\n      swap2\n      swap1\n      tag_43\n      jump\t// in\n    tag_42:\n      mload(0x40)\n      dup1\n      swap2\n      sub\n      swap1\n      return\n        /* \"DegenToken/contracts/DegenToken.sol\":1058:1238  function displayStoreItems() external pure returns (string memory) {... */\n    tag_5:\n      callvalue\n      dup1\n      iszero\n      tag_44\n      jumpi\n      0x00\n      dup1\n      revert\n    tag_44:\n      pop\n      tag_45\n      tag_46\n      jump\t// in\n    tag_45:\n      mload(0x40)\n      tag_47\n      swap2\n      swap1\n      tag_31\n      jump\t// in\n    tag_47:\n      mload(0x40)\n      dup1\n      swap2\n      sub\n      swap1\n      return\n        /* \"DegenToken/ERC20.sol\":3221:3327  function totalSupply() public view virtual override returns (uint256) {... */\n    tag_6:\n      callvalue\n      dup1\n      iszero\n      tag_48\n      jumpi\n      0x00\n      dup1\n      revert\n    tag_48:\n      pop\n      tag_49\n      tag_50\n      jump\t// in\n    tag_49:\n      mload(0x40)\n      tag_51\n      swap2\n      swap1\n      tag_43\n      jump\t// in\n    tag_51:\n      mload(0x40)\n      dup1\n      swap2\n      sub\n      swap1\n      return\n        /* \"DegenToken/ERC20.sol\":5169:5455  function transferFrom(... */\n    tag_7:\n      callvalue\n      dup1\n      iszero\n      tag_52\n      jumpi\n      0x00\n      dup1\n      revert\n    tag_52:\n      pop\n      tag_53\n      0x04\n      dup1\n      calldatasize\n      sub\n      dup2\n      add\n      swap1\n      tag_54\n      swap2\n      swap1\n      tag_55\n      jump\t// in\n    tag_54:\n      tag_56\n      jump\t// in\n    tag_53:\n      mload(0x40)\n      tag_57\n      swap2\n      swap1\n      tag_38\n      jump\t// in\n    tag_57:\n      mload(0x40)\n      dup1\n      swap2\n      sub\n      swap1\n      return\n        /* \"DegenToken/contracts/DegenToken.sol\":376:458  function decimals() override  public pure returns (uint8){... */\n    tag_8:\n      callvalue\n      dup1\n      iszero\n      tag_58\n      jumpi\n      0x00\n      dup1\n      revert\n    tag_58:\n      pop\n      tag_59\n      tag_60\n      jump\t// in\n    tag_59:\n      mload(0x40)\n      tag_61\n      swap2\n      swap1\n      tag_62\n      jump\t// in\n    tag_61:\n      mload(0x40)\n      dup1\n      swap2\n      sub\n      swap1\n      return\n        /* \"DegenToken/ERC20.sol\":5850:6084  function increaseAllowance(address spender, uint256 addedValue) public virtual returns (bool) {... */\n    tag_9:\n      callvalue\n      dup1\n      iszero\n      tag_63\n      jumpi\n      0x00\n      dup1\n      revert\n    tag_63:\n      pop\n      tag_64\n      0x04\n      dup1\n      calldatasize\n      sub\n      dup2\n      add\n      swap1\n      tag_65\n      swap2\n      swap1\n      tag_35\n      jump\t// in\n    tag_65:\n      tag_66\n      jump\t// in\n    tag_64:\n      mload(0x40)\n      tag_67\n      swap2\n      swap1\n      tag_38\n      jump\t// in\n    tag_67:\n      mload(0x40)\n      dup1\n      swap2\n      sub\n      swap1\n      return\n        /* \"DegenToken/contracts/DegenToken.sol\":277:370  function mint(address to, uint256 amount) public onlyOwner {... */\n    tag_10:\n      callvalue\n      dup1\n      iszero\n      tag_68\n      jumpi\n      0x00\n      dup1\n      revert\n    tag_68:\n      pop\n      tag_69\n      0x04\n      dup1\n      calldatasize\n      sub\n      dup2\n      add\n      swap1\n      tag_70\n      swap2\n      swap1\n      tag_35\n      jump\t// in\n    tag_70:\n      tag_71\n      jump\t// in\n    tag_69:\n      stop\n        /* \"DegenToken/ERC20Burnable.sol\":564:653  function burn(uint256 amount) public virtual {... */\n    tag_11:\n      callvalue\n      dup1\n      iszero\n      tag_72\n      jumpi\n      0x00\n      dup1\n      revert\n    tag_72:\n      pop\n      tag_73\n      0x04\n      dup1\n      calldatasize\n      sub\n      dup2\n      add\n      swap1\n      tag_74\n      swap2\n      swap1\n      tag_75\n      jump\t// in\n    tag_74:\n      tag_76\n      jump\t// in\n    tag_73:\n      stop\n        /* \"DegenToken/contracts/DegenToken.sol\":830:1052  function burnTokens(uint256 _value) public payable {... */\n    tag_12:\n      tag_77\n      0x04\n      dup1\n      calldatasize\n      sub\n      dup2\n      add\n      swap1\n      tag_78\n      swap2\n      swap1\n      tag_75\n      jump\t// in\n    tag_78:\n      tag_79\n      jump\t// in\n    tag_77:\n      stop\n        /* \"DegenToken/ERC20.sol\":3385:3510  function balanceOf(address account) public view virtual override returns (uint256) {... */\n    tag_13:\n      callvalue\n      dup1\n      iszero\n      tag_80\n      jumpi\n      0x00\n      dup1\n      revert\n    tag_80:\n      pop\n      tag_81\n      0x04\n      dup1\n      calldatasize\n      sub\n      dup2\n      add\n      swap1\n      tag_82\n      swap2\n      swap1\n      tag_83\n      jump\t// in\n    tag_82:\n      tag_84\n      jump\t// in\n    tag_81:\n      mload(0x40)\n      tag_85\n      swap2\n      swap1\n      tag_43\n      jump\t// in\n    tag_85:\n      mload(0x40)\n      dup1\n      swap2\n      sub\n      swap1\n      return\n        /* \"DegenToken/Ownable.sol\":1824:1925  function renounceOwnership() public virtual onlyOwner {... */\n    tag_14:\n      callvalue\n      dup1\n      iszero\n      tag_86\n      jumpi\n      0x00\n      dup1\n      revert\n    tag_86:\n      pop\n      tag_87\n      tag_88\n      jump\t// in\n    tag_87:\n      stop\n        /* \"DegenToken/ERC20Burnable.sol\":959:1120  function burnFrom(address account, uint256 amount) public virtual {... */\n    tag_15:\n      callvalue\n      dup1\n      iszero\n      tag_89\n      jumpi\n      0x00\n      dup1\n      revert\n    tag_89:\n      pop\n      tag_90\n      0x04\n      dup1\n      calldatasize\n      sub\n      dup2\n      add\n      swap1\n      tag_91\n      swap2\n      swap1\n      tag_35\n      jump\t// in\n    tag_91:\n      tag_92\n      jump\t// in\n    tag_90:\n      stop\n        /* \"DegenToken/Ownable.sol\":1194:1279  function owner() public view virtual returns (address) {... */\n    tag_16:\n      callvalue\n      dup1\n      iszero\n      tag_93\n      jumpi\n      0x00\n      dup1\n      revert\n    tag_93:\n      pop\n      tag_94\n      tag_95\n      jump\t// in\n    tag_94:\n      mload(0x40)\n      tag_96\n      swap2\n      swap1\n      tag_97\n      jump\t// in\n    tag_96:\n      mload(0x40)\n      dup1\n      swap2\n      sub\n      swap1\n      return\n        /* \"DegenToken/ERC20.sol\":2344:2446  function symbol() public view virtual override returns (string memory) {... */\n    tag_17:\n      callvalue\n      dup1\n      iszero\n      tag_98\n      jumpi\n      0x00\n      dup1\n      revert\n    tag_98:\n      pop\n      tag_99\n      tag_100\n      jump\t// in\n    tag_99:\n      mload(0x40)\n      tag_101\n      swap2\n      swap1\n      tag_31\n      jump\t// in\n    tag_101:\n      mload(0x40)\n      dup1\n      swap2\n      sub\n      swap1\n      return\n        /* \"DegenToken/ERC20.sol\":6571:6998  function decreaseAllowance(address spender, uint256 subtractedValue) public virtual returns (bool) {... */\n    tag_18:\n      callvalue\n      dup1\n      iszero\n      tag_102\n      jumpi\n      0x00\n      dup1\n      revert\n    tag_102:\n      pop\n      tag_103\n      0x04\n      dup1\n      calldatasize\n      sub\n      dup2\n      add\n      swap1\n      tag_104\n      swap2\n      swap1\n      tag_35\n      jump\t// in\n    tag_104:\n      tag_105\n      jump\t// in\n    tag_103:\n      mload(0x40)\n      tag_106\n      swap2\n      swap1\n      tag_38\n      jump\t// in\n    tag_106:\n      mload(0x40)\n      dup1\n      swap2\n      sub\n      swap1\n      return\n        /* \"DegenToken/contracts/DegenToken.sol\":1347:1966  function redeemTokens(uint _option) public payable {... */\n    tag_19:\n      tag_107\n      0x04\n      dup1\n      calldatasize\n      sub\n      dup2\n      add\n      swap1\n      tag_108\n      swap2\n      swap1\n      tag_75\n      jump\t// in\n    tag_108:\n      tag_109\n      jump\t// in\n    tag_107:\n      stop\n        /* \"DegenToken/ERC20.sol\":3706:3895  function transfer(address to, uint256 amount) public virtual override returns (bool) {... */\n    tag_20:\n      callvalue\n      dup1\n      iszero\n      tag_110\n      jumpi\n      0x00\n      dup1\n      revert\n    tag_110:\n      pop\n      tag_111\n      0x04\n      dup1\n      calldatasize\n      sub\n      dup2\n      add\n      swap1\n      tag_112\n      swap2\n      swap1\n      tag_35\n      jump\t// in\n    tag_112:\n      tag_113\n      jump\t// in\n    tag_111:\n      mload(0x40)\n      tag_114\n      swap2\n      swap1\n      tag_38\n      jump\t// in\n    tag_114:\n      mload(0x40)\n      dup1\n      swap2\n      sub\n      swap1\n      return\n        /* \"DegenToken/contracts/DegenToken.sol\":573:824  function transferTokens(address _receiver, uint _value) external {... */\n    tag_21:\n      callvalue\n      dup1\n      iszero\n      tag_115\n      jumpi\n      0x00\n      dup1\n      revert\n    tag_115:\n      pop\n      tag_116\n      0x04\n      dup1\n      calldatasize\n      sub\n      dup2\n      add\n      swap1\n      tag_117\n      swap2\n      swap1\n      tag_35\n      jump\t// in\n    tag_117:\n      tag_118\n      jump\t// in\n    tag_116:\n      stop\n        /* \"DegenToken/ERC20.sol\":3953:4102  function allowance(address owner, address spender) public view virtual override returns (uint256) {... */\n    tag_22:\n      callvalue\n      dup1\n      iszero\n      tag_119\n      jumpi\n      0x00\n      dup1\n      revert\n    tag_119:\n      pop\n      tag_120\n      0x04\n      dup1\n      calldatasize\n      sub\n      dup2\n      add\n      swap1\n      tag_121\n      swap2\n      swap1\n      tag_122\n      jump\t// in\n    tag_121:\n      tag_123\n      jump\t// in\n    tag_120:\n      mload(0x40)\n      tag_124\n      swap2\n      swap1\n      tag_43\n      jump\t// in\n    tag_124:\n      mload(0x40)\n      dup1\n      swap2\n      sub\n      swap1\n      return\n        /* \"DegenToken/Ownable.sol\":2074:2272  function transferOwnership(address newOwner) public virtual onlyOwner {... */\n    tag_23:\n      callvalue\n      dup1\n      iszero\n      tag_125\n      jumpi\n      0x00\n      dup1\n      revert\n    tag_125:\n      pop\n      tag_126\n      0x04\n      dup1\n      calldatasize\n      sub\n      dup2\n      add\n      swap1\n      tag_127\n      swap2\n      swap1\n      tag_83\n      jump\t// in\n    tag_127:\n      tag_128\n      jump\t// in\n    tag_126:\n      stop\n        /* \"DegenToken/ERC20.sol\":2133:2231  function name() public view virtual override returns (string memory) {... */\n    tag_29:\n        /* \"DegenToken/ERC20.sol\":2187:2200  string memory */\n      0x60\n        /* \"DegenToken/ERC20.sol\":2219:2224  _name */\n      0x03\n        /* \"DegenToken/ERC20.sol\":2212:2224  return _name */\n      dup1\n      sload\n      tag_130\n      swap1\n      tag_131\n      jump\t// in\n    tag_130:\n      dup1\n      0x1f\n      add\n      0x20\n      dup1\n      swap2\n      div\n      mul\n      0x20\n      add\n      mload(0x40)\n      swap1\n      dup2\n      add\n      0x40\n      mstore\n      dup1\n      swap3\n      swap2\n      swap1\n      dup2\n      dup2\n      mstore\n      0x20\n      add\n      dup3\n      dup1\n      sload\n      tag_132\n      swap1\n      tag_131\n      jump\t// in\n    tag_132:\n      dup1\n      iszero\n      tag_133\n      jumpi\n      dup1\n      0x1f\n      lt\n      tag_134\n      jumpi\n      0x0100\n      dup1\n      dup4\n      sload\n      div\n      mul\n      dup4\n      mstore\n      swap2\n      0x20\n      add\n      swap2\n      jump(tag_133)\n    tag_134:\n      dup3\n      add\n      swap2\n      swap1\n      0x00\n      mstore\n      keccak256(0x00, 0x20)\n      swap1\n    tag_135:\n      dup2\n      sload\n      dup2\n      mstore\n      swap1\n      0x01\n      add\n      swap1\n      0x20\n      add\n      dup1\n      dup4\n      gt\n      tag_135\n      jumpi\n      dup3\n      swap1\n      sub\n      0x1f\n      and\n      dup3\n      add\n      swap2\n    tag_133:\n      pop\n      pop\n      pop\n      pop\n      pop\n      swap1\n      pop\n        /* \"DegenToken/ERC20.sol\":2133:2231  function name() public view virtual override returns (string memory) {... */\n      swap1\n      jump\t// out\n        /* \"DegenToken/ERC20.sol\":4410:4607  function approve(address spender, uint256 amount) public virtual override returns (bool) {... */\n    tag_36:\n        /* \"DegenToken/ERC20.sol\":4493:4497  bool */\n      0x00\n        /* \"DegenToken/ERC20.sol\":4509:4522  address owner */\n      dup1\n        /* \"DegenToken/ERC20.sol\":4525:4537  _msgSender() */\n      tag_137\n        /* \"DegenToken/ERC20.sol\":4525:4535  _msgSender */\n      tag_138\n        /* \"DegenToken/ERC20.sol\":4525:4537  _msgSender() */\n      jump\t// in\n    tag_137:\n        /* \"DegenToken/ERC20.sol\":4509:4537  address owner = _msgSender() */\n      swap1\n      pop\n        /* \"DegenToken/ERC20.sol\":4547:4579  _approve(owner, spender, amount) */\n      tag_139\n        /* \"DegenToken/ERC20.sol\":4556:4561  owner */\n      dup2\n        /* \"DegenToken/ERC20.sol\":4563:4570  spender */\n      dup6\n        /* \"DegenToken/ERC20.sol\":4572:4578  amount */\n      dup6\n        /* \"DegenToken/ERC20.sol\":4547:4555  _approve */\n      tag_140\n        /* \"DegenToken/ERC20.sol\":4547:4579  _approve(owner, spender, amount) */\n      jump\t// in\n    tag_139:\n        /* \"DegenToken/ERC20.sol\":4596:4600  true */\n      0x01\n        /* \"DegenToken/ERC20.sol\":4589:4600  return true */\n      swap2\n      pop\n      pop\n        /* \"DegenToken/ERC20.sol\":4410:4607  function approve(address spender, uint256 amount) public virtual override returns (bool) {... */\n      swap3\n      swap2\n      pop\n      pop\n      jump\t// out\n        /* \"DegenToken/contracts/DegenToken.sol\":464:567  function getBalance() external view returns (uint256){... */\n    tag_41:\n        /* \"DegenToken/contracts/DegenToken.sol\":509:516  uint256 */\n      0x00\n        /* \"DegenToken/contracts/DegenToken.sol\":534:538  this */\n      address\n        /* \"DegenToken/contracts/DegenToken.sol\":534:548  this.balanceOf */\n      0xffffffffffffffffffffffffffffffffffffffff\n      and\n      0x70a08231\n        /* \"DegenToken/contracts/DegenToken.sol\":549:559  msg.sender */\n      caller\n        /* \"DegenToken/contracts/DegenToken.sol\":534:560  this.balanceOf(msg.sender) */\n      mload(0x40)\n      dup3\n      0xffffffff\n      and\n      0xe0\n      shl\n      dup2\n      mstore\n      0x04\n      add\n      tag_142\n      swap2\n      swap1\n      tag_97\n      jump\t// in\n    tag_142:\n      0x20\n      mload(0x40)\n      dup1\n      dup4\n      sub\n      dup2\n      dup7\n      dup1\n      extcodesize\n      iszero\n      dup1\n      iszero\n      tag_143\n      jumpi\n      0x00\n      dup1\n      revert\n    tag_143:\n      pop\n      gas\n      staticcall\n      iszero\n      dup1\n      iszero\n      tag_145\n      jumpi\n      returndatasize\n      0x00\n      dup1\n      returndatacopy\n      revert(0x00, returndatasize)\n    tag_145:\n      pop\n      pop\n      pop\n      pop\n      mload(0x40)\n      returndatasize\n      not(0x1f)\n      0x1f\n      dup3\n      add\n      and\n      dup3\n      add\n      dup1\n      0x40\n      mstore\n      pop\n      dup2\n      add\n      swap1\n      tag_146\n      swap2\n      swap1\n      tag_147\n      jump\t// in\n    tag_146:\n        /* \"DegenToken/contracts/DegenToken.sol\":527:560  return this.balanceOf(msg.sender) */\n      swap1\n      pop\n        /* \"DegenToken/contracts/DegenToken.sol\":464:567  function getBalance() external view returns (uint256){... */\n      swap1\n      jump\t// out\n        /* \"DegenToken/contracts/DegenToken.sol\":1058:1238  function displayStoreItems() external pure returns (string memory) {... */\n    tag_46:\n        /* \"DegenToken/contracts/DegenToken.sol\":1110:1123  string memory */\n      0x60\n        /* \"DegenToken/contracts/DegenToken.sol\":1135:1231  return \"Option 1: Madona NFT \\n Option 2: Miraculous Medal \\n Option 3: Portrait of Hilder Baci\" */\n      mload(0x40)\n      dup1\n      0x80\n      add\n      0x40\n      mstore\n      dup1\n      0x55\n      dup2\n      mstore\n      0x20\n      add\n      data_f1d326546201e743ef8317bdbbc1f0e72bcbd05fa2c8856d9bd72e8c6d1dc583\n      0x55\n      swap2\n      codecopy\n      swap1\n      pop\n        /* \"DegenToken/contracts/DegenToken.sol\":1058:1238  function displayStoreItems() external pure returns (string memory) {... */\n      swap1\n      jump\t// out\n        /* \"DegenToken/ERC20.sol\":3221:3327  function totalSupply() public view virtual override returns (uint256) {... */\n    tag_50:\n        /* \"DegenToken/ERC20.sol\":3282:3289  uint256 */\n      0x00\n        /* \"DegenToken/ERC20.sol\":3308:3320  _totalSupply */\n      sload(0x02)\n        /* \"DegenToken/ERC20.sol\":3301:3320  return _totalSupply */\n      swap1\n      pop\n        /* \"DegenToken/ERC20.sol\":3221:3327  function totalSupply() public view virtual override returns (uint256) {... */\n      swap1\n      jump\t// out\n        /* \"DegenToken/ERC20.sol\":5169:5455  function transferFrom(... */\n    tag_56:\n        /* \"DegenToken/ERC20.sol\":5296:5300  bool */\n      0x00\n        /* \"DegenToken/ERC20.sol\":5312:5327  address spender */\n      dup1\n        /* \"DegenToken/ERC20.sol\":5330:5342  _msgSender() */\n      tag_151\n        /* \"DegenToken/ERC20.sol\":5330:5340  _msgSender */\n      tag_138\n        /* \"DegenToken/ERC20.sol\":5330:5342  _msgSender() */\n      jump\t// in\n    tag_151:\n        /* \"DegenToken/ERC20.sol\":5312:5342  address spender = _msgSender() */\n      swap1\n      pop\n        /* \"DegenToken/ERC20.sol\":5352:5390  _spendAllowance(from, spender, amount) */\n      tag_152\n        /* \"DegenToken/ERC20.sol\":5368:5372  from */\n      dup6\n        /* \"DegenToken/ERC20.sol\":5374:5381  spender */\n      dup3\n        /* \"DegenToken/ERC20.sol\":5383:5389  amount */\n      dup6\n        /* \"DegenToken/ERC20.sol\":5352:5367  _spendAllowance */\n      tag_153\n        /* \"DegenToken/ERC20.sol\":5352:5390  _spendAllowance(from, spender, amount) */\n      jump\t// in\n    tag_152:\n        /* \"DegenToken/ERC20.sol\":5400:5427  _transfer(from, to, amount) */\n      tag_154\n        /* \"DegenToken/ERC20.sol\":5410:5414  from */\n      dup6\n        /* \"DegenToken/ERC20.sol\":5416:5418  to */\n      dup6\n        /* \"DegenToken/ERC20.sol\":5420:5426  amount */\n      dup6\n        /* \"DegenToken/ERC20.sol\":5400:5409  _transfer */\n      tag_155\n        /* \"DegenToken/ERC20.sol\":5400:5427  _transfer(from, to, amount) */\n      jump\t// in\n    tag_154:\n        /* \"DegenToken/ERC20.sol\":5444:5448  true */\n      0x01\n        /* \"DegenToken/ERC20.sol\":5437:5448  return true */\n      swap2\n      pop\n      pop\n        /* \"DegenToken/ERC20.sol\":5169:5455  function transferFrom(... */\n      swap4\n      swap3\n      pop\n      pop\n      pop\n      jump\t// out\n        /* \"DegenToken/contracts/DegenToken.sol\":376:458  function decimals() override  public pure returns (uint8){... */\n    tag_60:\n        /* \"DegenToken/contracts/DegenToken.sol\":427:432  uint8 */\n      0x00\n        /* \"DegenToken/contracts/DegenToken.sol\":376:458  function decimals() override  public pure returns (uint8){... */\n      swap1\n      jump\t// out\n        /* \"DegenToken/ERC20.sol\":5850:6084  function increaseAllowance(address spender, uint256 addedValue) public virtual returns (bool) {... */\n    tag_66:\n        /* \"DegenToken/ERC20.sol\":5938:5942  bool */\n      0x00\n        /* \"DegenToken/ERC20.sol\":5954:5967  address owner */\n      dup1\n        /* \"DegenToken/ERC20.sol\":5970:5982  _msgSender() */\n      tag_158\n        /* \"DegenToken/ERC20.sol\":5970:5980  _msgSender */\n      tag_138\n        /* \"DegenToken/ERC20.sol\":5970:5982  _msgSender() */\n      jump\t// in\n    tag_158:\n        /* \"DegenToken/ERC20.sol\":5954:5982  address owner = _msgSender() */\n      swap1\n      pop\n        /* \"DegenToken/ERC20.sol\":5992:6056  _approve(owner, spender, allowance(owner, spender) + addedValue) */\n      tag_159\n        /* \"DegenToken/ERC20.sol\":6001:6006  owner */\n      dup2\n        /* \"DegenToken/ERC20.sol\":6008:6015  spender */\n      dup6\n        /* \"DegenToken/ERC20.sol\":6045:6055  addedValue */\n      dup6\n        /* \"DegenToken/ERC20.sol\":6017:6042  allowance(owner, spender) */\n      tag_160\n        /* \"DegenToken/ERC20.sol\":6027:6032  owner */\n      dup6\n        /* \"DegenToken/ERC20.sol\":6034:6041  spender */\n      dup10\n        /* \"DegenToken/ERC20.sol\":6017:6026  allowance */\n      tag_123\n        /* \"DegenToken/ERC20.sol\":6017:6042  allowance(owner, spender) */\n      jump\t// in\n    tag_160:\n        /* \"DegenToken/ERC20.sol\":6017:6055  allowance(owner, spender) + addedValue */\n      tag_161\n      swap2\n      swap1\n      tag_162\n      jump\t// in\n    tag_161:\n        /* \"DegenToken/ERC20.sol\":5992:6000  _approve */\n      tag_140\n        /* \"DegenToken/ERC20.sol\":5992:6056  _approve(owner, spender, allowance(owner, spender) + addedValue) */\n      jump\t// in\n    tag_159:\n        /* \"DegenToken/ERC20.sol\":6073:6077  true */\n      0x01\n        /* \"DegenToken/ERC20.sol\":6066:6077  return true */\n      swap2\n      pop\n      pop\n        /* \"DegenToken/ERC20.sol\":5850:6084  function increaseAllowance(address spender, uint256 addedValue) public virtual returns (bool) {... */\n      swap3\n      swap2\n      pop\n      pop\n      jump\t// out\n        /* \"DegenToken/contracts/DegenToken.sol\":277:370  function mint(address to, uint256 amount) public onlyOwner {... */\n    tag_71:\n        /* \"DegenToken/Ownable.sol\":1087:1100  _checkOwner() */\n      tag_164\n        /* \"DegenToken/Ownable.sol\":1087:1098  _checkOwner */\n      tag_165\n        /* \"DegenToken/Ownable.sol\":1087:1100  _checkOwner() */\n      jump\t// in\n    tag_164:\n        /* \"DegenToken/contracts/DegenToken.sol\":346:363  _mint(to, amount) */\n      tag_167\n        /* \"DegenToken/contracts/DegenToken.sol\":352:354  to */\n      dup3\n        /* \"DegenToken/contracts/DegenToken.sol\":356:362  amount */\n      dup3\n        /* \"DegenToken/contracts/DegenToken.sol\":346:351  _mint */\n      tag_168\n        /* \"DegenToken/contracts/DegenToken.sol\":346:363  _mint(to, amount) */\n      jump\t// in\n    tag_167:\n        /* \"DegenToken/contracts/DegenToken.sol\":277:370  function mint(address to, uint256 amount) public onlyOwner {... */\n      pop\n      pop\n      jump\t// out\n        /* \"DegenToken/ERC20Burnable.sol\":564:653  function burn(uint256 amount) public virtual {... */\n    tag_76:\n        /* \"DegenToken/ERC20Burnable.sol\":619:646  _burn(_msgSender(), amount) */\n      tag_170\n        /* \"DegenToken/ERC20Burnable.sol\":625:637  _msgSender() */\n      tag_171\n        /* \"DegenToken/ERC20Burnable.sol\":625:635  _msgSender */\n      tag_138\n        /* \"DegenToken/ERC20Burnable.sol\":625:637  _msgSender() */\n      jump\t// in\n    tag_171:\n        /* \"DegenToken/ERC20Burnable.sol\":639:645  amount */\n      dup3\n        /* \"DegenToken/ERC20Burnable.sol\":619:624  _burn */\n      tag_172\n        /* \"DegenToken/ERC20Burnable.sol\":619:646  _burn(_msgSender(), amount) */\n      jump\t// in\n    tag_170:\n        /* \"DegenToken/ERC20Burnable.sol\":564:653  function burn(uint256 amount) public virtual {... */\n      pop\n      jump\t// out\n        /* \"DegenToken/contracts/DegenToken.sol\":830:1052  function burnTokens(uint256 _value) public payable {... */\n    tag_79:\n        /* \"DegenToken/contracts/DegenToken.sol\":924:930  _value */\n      dup1\n        /* \"DegenToken/contracts/DegenToken.sol\":899:920  balanceOf(msg.sender) */\n      tag_174\n        /* \"DegenToken/contracts/DegenToken.sol\":909:919  msg.sender */\n      caller\n        /* \"DegenToken/contracts/DegenToken.sol\":899:908  balanceOf */\n      tag_84\n        /* \"DegenToken/contracts/DegenToken.sol\":899:920  balanceOf(msg.sender) */\n      jump\t// in\n    tag_174:\n        /* \"DegenToken/contracts/DegenToken.sol\":899:930  balanceOf(msg.sender) >= _value */\n      lt\n      iszero\n        /* \"DegenToken/contracts/DegenToken.sol\":891:970  require(balanceOf(msg.sender) >= _value, \"You do not have enough Degen Tokens\") */\n      tag_175\n      jumpi\n      mload(0x40)\n      0x08c379a000000000000000000000000000000000000000000000000000000000\n      dup2\n      mstore\n      0x04\n      add\n      tag_176\n      swap1\n      tag_177\n      jump\t// in\n    tag_176:\n      mload(0x40)\n      dup1\n      swap2\n      sub\n      swap1\n      revert\n    tag_175:\n        /* \"DegenToken/contracts/DegenToken.sol\":980:1007  approve(msg.sender, _value) */\n      tag_178\n        /* \"DegenToken/contracts/DegenToken.sol\":988:998  msg.sender */\n      caller\n        /* \"DegenToken/contracts/DegenToken.sol\":1000:1006  _value */\n      dup3\n        /* \"DegenToken/contracts/DegenToken.sol\":980:987  approve */\n      tag_36\n        /* \"DegenToken/contracts/DegenToken.sol\":980:1007  approve(msg.sender, _value) */\n      jump\t// in\n    tag_178:\n      pop\n        /* \"DegenToken/contracts/DegenToken.sol\":1017:1045  burnFrom(msg.sender, _value) */\n      tag_179\n        /* \"DegenToken/contracts/DegenToken.sol\":1026:1036  msg.sender */\n      caller\n        /* \"DegenToken/contracts/DegenToken.sol\":1038:1044  _value */\n      dup3\n        /* \"DegenToken/contracts/DegenToken.sol\":1017:1025  burnFrom */\n      tag_92\n        /* \"DegenToken/contracts/DegenToken.sol\":1017:1045  burnFrom(msg.sender, _value) */\n      jump\t// in\n    tag_179:\n        /* \"DegenToken/contracts/DegenToken.sol\":830:1052  function burnTokens(uint256 _value) public payable {... */\n      pop\n      jump\t// out\n        /* \"DegenToken/ERC20.sol\":3385:3510  function balanceOf(address account) public view virtual override returns (uint256) {... */\n    tag_84:\n        /* \"DegenToken/ERC20.sol\":3459:3466  uint256 */\n      0x00\n        /* \"DegenToken/ERC20.sol\":3485:3494  _balances */\n      dup1\n        /* \"DegenToken/ERC20.sol\":3485:3503  _balances[account] */\n      0x00\n        /* \"DegenToken/ERC20.sol\":3495:3502  account */\n      dup4\n        /* \"DegenToken/ERC20.sol\":3485:3503  _balances[account] */\n      0xffffffffffffffffffffffffffffffffffffffff\n      and\n      0xffffffffffffffffffffffffffffffffffffffff\n      and\n      dup2\n      mstore\n      0x20\n      add\n      swap1\n      dup2\n      mstore\n      0x20\n      add\n      0x00\n      keccak256\n      sload\n        /* \"DegenToken/ERC20.sol\":3478:3503  return _balances[account] */\n      swap1\n      pop\n        /* \"DegenToken/ERC20.sol\":3385:3510  function balanceOf(address account) public view virtual override returns (uint256) {... */\n      swap2\n      swap1\n      pop\n      jump\t// out\n        /* \"DegenToken/Ownable.sol\":1824:1925  function renounceOwnership() public virtual onlyOwner {... */\n    tag_88:\n        /* \"DegenToken/Ownable.sol\":1087:1100  _checkOwner() */\n      tag_182\n        /* \"DegenToken/Ownable.sol\":1087:1098  _checkOwner */\n      tag_165\n        /* \"DegenToken/Ownable.sol\":1087:1100  _checkOwner() */\n      jump\t// in\n    tag_182:\n        /* \"DegenToken/Ownable.sol\":1888:1918  _transferOwnership(address(0)) */\n      tag_184\n        /* \"DegenToken/Ownable.sol\":1915:1916  0 */\n      0x00\n        /* \"DegenToken/Ownable.sol\":1888:1906  _transferOwnership */\n      tag_185\n        /* \"DegenToken/Ownable.sol\":1888:1918  _transferOwnership(address(0)) */\n      jump\t// in\n    tag_184:\n        /* \"DegenToken/Ownable.sol\":1824:1925  function renounceOwnership() public virtual onlyOwner {... */\n      jump\t// out\n        /* \"DegenToken/ERC20Burnable.sol\":959:1120  function burnFrom(address account, uint256 amount) public virtual {... */\n    tag_92:\n        /* \"DegenToken/ERC20Burnable.sol\":1035:1081  _spendAllowance(account, _msgSender(), amount) */\n      tag_187\n        /* \"DegenToken/ERC20Burnable.sol\":1051:1058  account */\n      dup3\n        /* \"DegenToken/ERC20Burnable.sol\":1060:1072  _msgSender() */\n      tag_188\n        /* \"DegenToken/ERC20Burnable.sol\":1060:1070  _msgSender */\n      tag_138\n        /* \"DegenToken/ERC20Burnable.sol\":1060:1072  _msgSender() */\n      jump\t// in\n    tag_188:\n        /* \"DegenToken/ERC20Burnable.sol\":1074:1080  amount */\n      dup4\n        /* \"DegenToken/ERC20Burnable.sol\":1035:1050  _spendAllowance */\n      tag_153\n        /* \"DegenToken/ERC20Burnable.sol\":1035:1081  _spendAllowance(account, _msgSender(), amount) */\n      jump\t// in\n    tag_187:\n        /* \"DegenToken/ERC20Burnable.sol\":1091:1113  _burn(account, amount) */\n      tag_189\n        /* \"DegenToken/ERC20Burnable.sol\":1097:1104  account */\n      dup3\n        /* \"DegenToken/ERC20Burnable.sol\":1106:1112  amount */\n      dup3\n        /* \"DegenToken/ERC20Burnable.sol\":1091:1096  _burn */\n      tag_172\n        /* \"DegenToken/ERC20Burnable.sol\":1091:1113  _burn(account, amount) */\n      jump\t// in\n    tag_189:\n        /* \"DegenToken/ERC20Burnable.sol\":959:1120  function burnFrom(address account, uint256 amount) public virtual {... */\n      pop\n      pop\n      jump\t// out\n        /* \"DegenToken/Ownable.sol\":1194:1279  function owner() public view virtual returns (address) {... */\n    tag_95:\n        /* \"DegenToken/Ownable.sol\":1240:1247  address */\n      0x00\n        /* \"DegenToken/Ownable.sol\":1266:1272  _owner */\n      0x05\n      0x00\n      swap1\n      sload\n      swap1\n      0x0100\n      exp\n      swap1\n      div\n      0xffffffffffffffffffffffffffffffffffffffff\n      and\n        /* \"DegenToken/Ownable.sol\":1259:1272  return _owner */\n      swap1\n      pop\n        /* \"DegenToken/Ownable.sol\":1194:1279  function owner() public view virtual returns (address) {... */\n      swap1\n      jump\t// out\n        /* \"DegenToken/ERC20.sol\":2344:2446  function symbol() public view virtual override returns (string memory) {... */\n    tag_100:\n        /* \"DegenToken/ERC20.sol\":2400:2413  string memory */\n      0x60\n        /* \"DegenToken/ERC20.sol\":2432:2439  _symbol */\n      0x04\n        /* \"DegenToken/ERC20.sol\":2425:2439  return _symbol */\n      dup1\n      sload\n      tag_192\n      swap1\n      tag_131\n      jump\t// in\n    tag_192:\n      dup1\n      0x1f\n      add\n      0x20\n      dup1\n      swap2\n      div\n      mul\n      0x20\n      add\n      mload(0x40)\n      swap1\n      dup2\n      add\n      0x40\n      mstore\n      dup1\n      swap3\n      swap2\n      swap1\n      dup2\n      dup2\n      mstore\n      0x20\n      add\n      dup3\n      dup1\n      sload\n      tag_193\n      swap1\n      tag_131\n      jump\t// in\n    tag_193:\n      dup1\n      iszero\n      tag_194\n      jumpi\n      dup1\n      0x1f\n      lt\n      tag_195\n      jumpi\n      0x0100\n      dup1\n      dup4\n      sload\n      div\n      mul\n      dup4\n      mstore\n      swap2\n      0x20\n      add\n      swap2\n      jump(tag_194)\n    tag_195:\n      dup3\n      add\n      swap2\n      swap1\n      0x00\n      mstore\n      keccak256(0x00, 0x20)\n      swap1\n    tag_196:\n      dup2\n      sload\n      dup2\n      mstore\n      swap1\n      0x01\n      add\n      swap1\n      0x20\n      add\n      dup1\n      dup4\n      gt\n      tag_196\n      jumpi\n      dup3\n      swap1\n      sub\n      0x1f\n      and\n      dup3\n      add\n      swap2\n    tag_194:\n      pop\n      pop\n      pop\n      pop\n      pop\n      swap1\n      pop\n        /* \"DegenToken/ERC20.sol\":2344:2446  function symbol() public view virtual override returns (string memory) {... */\n      swap1\n      jump\t// out\n        /* \"DegenToken/ERC20.sol\":6571:6998  function decreaseAllowance(address spender, uint256 subtractedValue) public virtual returns (bool) {... */\n    tag_105:\n        /* \"DegenToken/ERC20.sol\":6664:6668  bool */\n      0x00\n        /* \"DegenToken/ERC20.sol\":6680:6693  address owner */\n      dup1\n        /* \"DegenToken/ERC20.sol\":6696:6708  _msgSender() */\n      tag_198\n        /* \"DegenToken/ERC20.sol\":6696:6706  _msgSender */\n      tag_138\n        /* \"DegenToken/ERC20.sol\":6696:6708  _msgSender() */\n      jump\t// in\n    tag_198:\n        /* \"DegenToken/ERC20.sol\":6680:6708  address owner = _msgSender() */\n      swap1\n      pop\n        /* \"DegenToken/ERC20.sol\":6718:6742  uint256 currentAllowance */\n      0x00\n        /* \"DegenToken/ERC20.sol\":6745:6770  allowance(owner, spender) */\n      tag_199\n        /* \"DegenToken/ERC20.sol\":6755:6760  owner */\n      dup3\n        /* \"DegenToken/ERC20.sol\":6762:6769  spender */\n      dup7\n        /* \"DegenToken/ERC20.sol\":6745:6754  allowance */\n      tag_123\n        /* \"DegenToken/ERC20.sol\":6745:6770  allowance(owner, spender) */\n      jump\t// in\n    tag_199:\n        /* \"DegenToken/ERC20.sol\":6718:6770  uint256 currentAllowance = allowance(owner, spender) */\n      swap1\n      pop\n        /* \"DegenToken/ERC20.sol\":6808:6823  subtractedValue */\n      dup4\n        /* \"DegenToken/ERC20.sol\":6788:6804  currentAllowance */\n      dup2\n        /* \"DegenToken/ERC20.sol\":6788:6823  currentAllowance >= subtractedValue */\n      lt\n      iszero\n        /* \"DegenToken/ERC20.sol\":6780:6865  require(currentAllowance >= subtractedValue, \"ERC20: decreased allowance below zero\") */\n      tag_200\n      jumpi\n      mload(0x40)\n      0x08c379a000000000000000000000000000000000000000000000000000000000\n      dup2\n      mstore\n      0x04\n      add\n      tag_201\n      swap1\n      tag_202\n      jump\t// in\n    tag_201:\n      mload(0x40)\n      dup1\n      swap2\n      sub\n      swap1\n      revert\n    tag_200:\n        /* \"DegenToken/ERC20.sol\":6899:6959  _approve(owner, spender, currentAllowance - subtractedValue) */\n      tag_203\n        /* \"DegenToken/ERC20.sol\":6908:6913  owner */\n      dup3\n        /* \"DegenToken/ERC20.sol\":6915:6922  spender */\n      dup7\n        /* \"DegenToken/ERC20.sol\":6943:6958  subtractedValue */\n      dup7\n        /* \"DegenToken/ERC20.sol\":6924:6940  currentAllowance */\n      dup5\n        /* \"DegenToken/ERC20.sol\":6924:6958  currentAllowance - subtractedValue */\n      sub\n        /* \"DegenToken/ERC20.sol\":6899:6907  _approve */\n      tag_140\n        /* \"DegenToken/ERC20.sol\":6899:6959  _approve(owner, spender, currentAllowance - subtractedValue) */\n      jump\t// in\n    tag_203:\n        /* \"DegenToken/ERC20.sol\":6987:6991  true */\n      0x01\n        /* \"DegenToken/ERC20.sol\":6980:6991  return true */\n      swap3\n      pop\n      pop\n      pop\n        /* \"DegenToken/ERC20.sol\":6571:6998  function decreaseAllowance(address spender, uint256 subtractedValue) public virtual returns (bool) {... */\n      swap3\n      swap2\n      pop\n      pop\n      jump\t// out\n        /* \"DegenToken/contracts/DegenToken.sol\":1347:1966  function redeemTokens(uint _option) public payable {... */\n    tag_109:\n        /* \"DegenToken/contracts/DegenToken.sol\":1427:1428  1 */\n      0x01\n        /* \"DegenToken/contracts/DegenToken.sol\":1416:1423  _option */\n      dup2\n        /* \"DegenToken/contracts/DegenToken.sol\":1416:1428  _option == 1 */\n      eq\n        /* \"DegenToken/contracts/DegenToken.sol\":1416:1444  _option == 1 || _option == 2 */\n      dup1\n      tag_205\n      jumpi\n      pop\n        /* \"DegenToken/contracts/DegenToken.sol\":1443:1444  2 */\n      0x02\n        /* \"DegenToken/contracts/DegenToken.sol\":1432:1439  _option */\n      dup2\n        /* \"DegenToken/contracts/DegenToken.sol\":1432:1444  _option == 2 */\n      eq\n        /* \"DegenToken/contracts/DegenToken.sol\":1416:1444  _option == 1 || _option == 2 */\n    tag_205:\n        /* \"DegenToken/contracts/DegenToken.sol\":1416:1460  _option == 1 || _option == 2 || _option == 3 */\n      dup1\n      tag_206\n      jumpi\n      pop\n        /* \"DegenToken/contracts/DegenToken.sol\":1459:1460  3 */\n      0x03\n        /* \"DegenToken/contracts/DegenToken.sol\":1448:1455  _option */\n      dup2\n        /* \"DegenToken/contracts/DegenToken.sol\":1448:1460  _option == 3 */\n      eq\n        /* \"DegenToken/contracts/DegenToken.sol\":1416:1460  _option == 1 || _option == 2 || _option == 3 */\n    tag_206:\n        /* \"DegenToken/contracts/DegenToken.sol\":1408:1543  require(_option == 1 || _option == 2 || _option == 3,... */\n      tag_207\n      jumpi\n      mload(0x40)\n      0x08c379a000000000000000000000000000000000000000000000000000000000\n      dup2\n      mstore\n      0x04\n      add\n      tag_208\n      swap1\n      tag_209\n      jump\t// in\n    tag_208:\n      mload(0x40)\n      dup1\n      swap2\n      sub\n      swap1\n      revert\n    tag_207:\n        /* \"DegenToken/contracts/DegenToken.sol\":1553:1563  uint value */\n      0x00\n        /* \"DegenToken/contracts/DegenToken.sol\":1587:1588  1 */\n      0x01\n        /* \"DegenToken/contracts/DegenToken.sol\":1576:1583  _option */\n      dup3\n        /* \"DegenToken/contracts/DegenToken.sol\":1576:1588  _option == 1 */\n      eq\n        /* \"DegenToken/contracts/DegenToken.sol\":1573:1720  if(_option == 1){... */\n      iszero\n      tag_210\n      jumpi\n        /* \"DegenToken/contracts/DegenToken.sol\":1611:1613  50 */\n      0x32\n        /* \"DegenToken/contracts/DegenToken.sol\":1603:1613  value = 50 */\n      swap1\n      pop\n        /* \"DegenToken/contracts/DegenToken.sol\":1573:1720  if(_option == 1){... */\n      jump(tag_211)\n    tag_210:\n        /* \"DegenToken/contracts/DegenToken.sol\":1643:1644  2 */\n      0x02\n        /* \"DegenToken/contracts/DegenToken.sol\":1632:1639  _option */\n      dup3\n        /* \"DegenToken/contracts/DegenToken.sol\":1632:1644  _option == 2 */\n      eq\n        /* \"DegenToken/contracts/DegenToken.sol\":1629:1720  if(_option == 2){... */\n      iszero\n      tag_212\n      jumpi\n        /* \"DegenToken/contracts/DegenToken.sol\":1667:1669  40 */\n      0x28\n        /* \"DegenToken/contracts/DegenToken.sol\":1659:1669  value = 40 */\n      swap1\n      pop\n        /* \"DegenToken/contracts/DegenToken.sol\":1629:1720  if(_option == 2){... */\n      jump(tag_213)\n    tag_212:\n        /* \"DegenToken/contracts/DegenToken.sol\":1707:1709  30 */\n      0x1e\n        /* \"DegenToken/contracts/DegenToken.sol\":1699:1709  value = 30 */\n      swap1\n      pop\n        /* \"DegenToken/contracts/DegenToken.sol\":1629:1720  if(_option == 2){... */\n    tag_213:\n        /* \"DegenToken/contracts/DegenToken.sol\":1573:1720  if(_option == 1){... */\n    tag_211:\n        /* \"DegenToken/contracts/DegenToken.sol\":1729:1742  address store */\n      0x00\n        /* \"DegenToken/contracts/DegenToken.sol\":1745:1787  0x70997970C51812dc3A010C7d01b50e0d17dc79C8 */\n      0x70997970c51812dc3a010c7d01b50e0d17dc79c8\n        /* \"DegenToken/contracts/DegenToken.sol\":1729:1787  address store = 0x70997970C51812dc3A010C7d01b50e0d17dc79C8 */\n      swap1\n      pop\n        /* \"DegenToken/contracts/DegenToken.sol\":1830:1835  value */\n      dup2\n        /* \"DegenToken/contracts/DegenToken.sol\":1805:1826  balanceOf(msg.sender) */\n      tag_214\n        /* \"DegenToken/contracts/DegenToken.sol\":1815:1825  msg.sender */\n      caller\n        /* \"DegenToken/contracts/DegenToken.sol\":1805:1814  balanceOf */\n      tag_84\n        /* \"DegenToken/contracts/DegenToken.sol\":1805:1826  balanceOf(msg.sender) */\n      jump\t// in\n    tag_214:\n        /* \"DegenToken/contracts/DegenToken.sol\":1805:1835  balanceOf(msg.sender) >= value */\n      lt\n      iszero\n        /* \"DegenToken/contracts/DegenToken.sol\":1797:1875  require(balanceOf(msg.sender) >= value, \"You do not have enough Degen Tokens\") */\n      tag_215\n      jumpi\n      mload(0x40)\n      0x08c379a000000000000000000000000000000000000000000000000000000000\n      dup2\n      mstore\n      0x04\n      add\n      tag_216\n      swap1\n      tag_177\n      jump\t// in\n    tag_216:\n      mload(0x40)\n      dup1\n      swap2\n      sub\n      swap1\n      revert\n    tag_215:\n        /* \"DegenToken/contracts/DegenToken.sol\":1885:1911  approve(msg.sender, value) */\n      tag_217\n        /* \"DegenToken/contracts/DegenToken.sol\":1893:1903  msg.sender */\n      caller\n        /* \"DegenToken/contracts/DegenToken.sol\":1905:1910  value */\n      dup4\n        /* \"DegenToken/contracts/DegenToken.sol\":1885:1892  approve */\n      tag_36\n        /* \"DegenToken/contracts/DegenToken.sol\":1885:1911  approve(msg.sender, value) */\n      jump\t// in\n    tag_217:\n      pop\n        /* \"DegenToken/contracts/DegenToken.sol\":1921:1959  transferFrom(msg.sender, store, value) */\n      tag_218\n        /* \"DegenToken/contracts/DegenToken.sol\":1934:1944  msg.sender */\n      caller\n        /* \"DegenToken/contracts/DegenToken.sol\":1946:1951  store */\n      dup3\n        /* \"DegenToken/contracts/DegenToken.sol\":1953:1958  value */\n      dup5\n        /* \"DegenToken/contracts/DegenToken.sol\":1921:1933  transferFrom */\n      tag_56\n        /* \"DegenToken/contracts/DegenToken.sol\":1921:1959  transferFrom(msg.sender, store, value) */\n      jump\t// in\n    tag_218:\n      pop\n        /* \"DegenToken/contracts/DegenToken.sol\":1398:1966  {... */\n      pop\n      pop\n        /* \"DegenToken/contracts/DegenToken.sol\":1347:1966  function redeemTokens(uint _option) public payable {... */\n      pop\n      jump\t// out\n        /* \"DegenToken/ERC20.sol\":3706:3895  function transfer(address to, uint256 amount) public virtual override returns (bool) {... */\n    tag_113:\n        /* \"DegenToken/ERC20.sol\":3785:3789  bool */\n      0x00\n        /* \"DegenToken/ERC20.sol\":3801:3814  address owner */\n      dup1\n        /* \"DegenToken/ERC20.sol\":3817:3829  _msgSender() */\n      tag_220\n        /* \"DegenToken/ERC20.sol\":3817:3827  _msgSender */\n      tag_138\n        /* \"DegenToken/ERC20.sol\":3817:3829  _msgSender() */\n      jump\t// in\n    tag_220:\n        /* \"DegenToken/ERC20.sol\":3801:3829  address owner = _msgSender() */\n      swap1\n      pop\n        /* \"DegenToken/ERC20.sol\":3839:3867  _transfer(owner, to, amount) */\n      tag_221\n        /* \"DegenToken/ERC20.sol\":3849:3854  owner */\n      dup2\n        /* \"DegenToken/ERC20.sol\":3856:3858  to */\n      dup6\n        /* \"DegenToken/ERC20.sol\":3860:3866  amount */\n      dup6\n        /* \"DegenToken/ERC20.sol\":3839:3848  _transfer */\n      tag_155\n        /* \"DegenToken/ERC20.sol\":3839:3867  _transfer(owner, to, amount) */\n      jump\t// in\n    tag_221:\n        /* \"DegenToken/ERC20.sol\":3884:3888  true */\n      0x01\n        /* \"DegenToken/ERC20.sol\":3877:3888  return true */\n      swap2\n      pop\n      pop\n        /* \"DegenToken/ERC20.sol\":3706:3895  function transfer(address to, uint256 amount) public virtual override returns (bool) {... */\n      swap3\n      swap2\n      pop\n      pop\n      jump\t// out\n        /* \"DegenToken/contracts/DegenToken.sol\":573:824  function transferTokens(address _receiver, uint _value) external {... */\n    tag_118:\n        /* \"DegenToken/contracts/DegenToken.sol\":681:687  _value */\n      dup1\n        /* \"DegenToken/contracts/DegenToken.sol\":656:677  balanceOf(msg.sender) */\n      tag_223\n        /* \"DegenToken/contracts/DegenToken.sol\":666:676  msg.sender */\n      caller\n        /* \"DegenToken/contracts/DegenToken.sol\":656:665  balanceOf */\n      tag_84\n        /* \"DegenToken/contracts/DegenToken.sol\":656:677  balanceOf(msg.sender) */\n      jump\t// in\n    tag_223:\n        /* \"DegenToken/contracts/DegenToken.sol\":656:687  balanceOf(msg.sender) >= _value */\n      lt\n      iszero\n        /* \"DegenToken/contracts/DegenToken.sol\":648:727  require(balanceOf(msg.sender) >= _value, \"You do not have enough Degen Tokens\") */\n      tag_224\n      jumpi\n      mload(0x40)\n      0x08c379a000000000000000000000000000000000000000000000000000000000\n      dup2\n      mstore\n      0x04\n      add\n      tag_225\n      swap1\n      tag_177\n      jump\t// in\n    tag_225:\n      mload(0x40)\n      dup1\n      swap2\n      sub\n      swap1\n      revert\n    tag_224:\n        /* \"DegenToken/contracts/DegenToken.sol\":737:764  approve(msg.sender, _value) */\n      tag_226\n        /* \"DegenToken/contracts/DegenToken.sol\":745:755  msg.sender */\n      caller\n        /* \"DegenToken/contracts/DegenToken.sol\":757:763  _value */\n      dup3\n        /* \"DegenToken/contracts/DegenToken.sol\":737:744  approve */\n      tag_36\n        /* \"DegenToken/contracts/DegenToken.sol\":737:764  approve(msg.sender, _value) */\n      jump\t// in\n    tag_226:\n      pop\n        /* \"DegenToken/contracts/DegenToken.sol\":774:817  transferFrom(msg.sender, _receiver, _value) */\n      tag_227\n        /* \"DegenToken/contracts/DegenToken.sol\":787:797  msg.sender */\n      caller\n        /* \"DegenToken/contracts/DegenToken.sol\":799:808  _receiver */\n      dup4\n        /* \"DegenToken/contracts/DegenToken.sol\":810:816  _value */\n      dup4\n        /* \"DegenToken/contracts/DegenToken.sol\":774:786  transferFrom */\n      tag_56\n        /* \"DegenToken/contracts/DegenToken.sol\":774:817  transferFrom(msg.sender, _receiver, _value) */\n      jump\t// in\n    tag_227:\n      pop\n        /* \"DegenToken/contracts/DegenToken.sol\":573:824  function transferTokens(address _receiver, uint _value) external {... */\n      pop\n      pop\n      jump\t// out\n        /* \"DegenToken/ERC20.sol\":3953:4102  function allowance(address owner, address spender) public view virtual override returns (uint256) {... */\n    tag_123:\n        /* \"DegenToken/ERC20.sol\":4042:4049  uint256 */\n      0x00\n        /* \"DegenToken/ERC20.sol\":4068:4079  _allowances */\n      0x01\n        /* \"DegenToken/ERC20.sol\":4068:4086  _allowances[owner] */\n      0x00\n        /* \"DegenToken/ERC20.sol\":4080:4085  owner */\n      dup5\n        /* \"DegenToken/ERC20.sol\":4068:4086  _allowances[owner] */\n      0xffffffffffffffffffffffffffffffffffffffff\n      and\n      0xffffffffffffffffffffffffffffffffffffffff\n      and\n      dup2\n      mstore\n      0x20\n      add\n      swap1\n      dup2\n      mstore\n      0x20\n      add\n      0x00\n      keccak256\n        /* \"DegenToken/ERC20.sol\":4068:4095  _allowances[owner][spender] */\n      0x00\n        /* \"DegenToken/ERC20.sol\":4087:4094  spender */\n      dup4\n        /* \"DegenToken/ERC20.sol\":4068:4095  _allowances[owner][spender] */\n      0xffffffffffffffffffffffffffffffffffffffff\n      and\n      0xffffffffffffffffffffffffffffffffffffffff\n      and\n      dup2\n      mstore\n      0x20\n      add\n      swap1\n      dup2\n      mstore\n      0x20\n      add\n      0x00\n      keccak256\n      sload\n        /* \"DegenToken/ERC20.sol\":4061:4095  return _allowances[owner][spender] */\n      swap1\n      pop\n        /* \"DegenToken/ERC20.sol\":3953:4102  function allowance(address owner, address spender) public view virtual override returns (uint256) {... */\n      swap3\n      swap2\n      pop\n      pop\n      jump\t// out\n        /* \"DegenToken/Ownable.sol\":2074:2272  function transferOwnership(address newOwner) public virtual onlyOwner {... */\n    tag_128:\n        /* \"DegenToken/Ownable.sol\":1087:1100  _checkOwner() */\n      tag_230\n        /* \"DegenToken/Ownable.sol\":1087:1098  _checkOwner */\n      tag_165\n        /* \"DegenToken/Ownable.sol\":1087:1100  _checkOwner() */\n      jump\t// in\n    tag_230:\n        /* \"DegenToken/Ownable.sol\":2182:2183  0 */\n      0x00\n        /* \"DegenToken/Ownable.sol\":2162:2184  newOwner != address(0) */\n      0xffffffffffffffffffffffffffffffffffffffff\n      and\n        /* \"DegenToken/Ownable.sol\":2162:2170  newOwner */\n      dup2\n        /* \"DegenToken/Ownable.sol\":2162:2184  newOwner != address(0) */\n      0xffffffffffffffffffffffffffffffffffffffff\n      and\n      eq\n      iszero\n        /* \"DegenToken/Ownable.sol\":2154:2227  require(newOwner != address(0), \"Ownable: new owner is the zero address\") */\n      tag_232\n      jumpi\n      mload(0x40)\n      0x08c379a000000000000000000000000000000000000000000000000000000000\n      dup2\n      mstore\n      0x04\n      add\n      tag_233\n      swap1\n      tag_234\n      jump\t// in\n    tag_233:\n      mload(0x40)\n      dup1\n      swap2\n      sub\n      swap1\n      revert\n    tag_232:\n        /* \"DegenToken/Ownable.sol\":2237:2265  _transferOwnership(newOwner) */\n      tag_235\n        /* \"DegenToken/Ownable.sol\":2256:2264  newOwner */\n      dup2\n        /* \"DegenToken/Ownable.sol\":2237:2255  _transferOwnership */\n      tag_185\n        /* \"DegenToken/Ownable.sol\":2237:2265  _transferOwnership(newOwner) */\n      jump\t// in\n    tag_235:\n        /* \"DegenToken/Ownable.sol\":2074:2272  function transferOwnership(address newOwner) public virtual onlyOwner {... */\n      pop\n      jump\t// out\n        /* \"DegenToken/Context.sol\":640:736  function _msgSender() internal view virtual returns (address) {... */\n    tag_138:\n        /* \"DegenToken/Context.sol\":693:700  address */\n      0x00\n        /* \"DegenToken/Context.sol\":719:729  msg.sender */\n      caller\n        /* \"DegenToken/Context.sol\":712:729  return msg.sender */\n      swap1\n      pop\n        /* \"DegenToken/Context.sol\":640:736  function _msgSender() internal view virtual returns (address) {... */\n      swap1\n      jump\t// out\n        /* \"DegenToken/ERC20.sol\":10483:10853  function _approve(... */\n    tag_140:\n        /* \"DegenToken/ERC20.sol\":10631:10632  0 */\n      0x00\n        /* \"DegenToken/ERC20.sol\":10614:10633  owner != address(0) */\n      0xffffffffffffffffffffffffffffffffffffffff\n      and\n        /* \"DegenToken/ERC20.sol\":10614:10619  owner */\n      dup4\n        /* \"DegenToken/ERC20.sol\":10614:10633  owner != address(0) */\n      0xffffffffffffffffffffffffffffffffffffffff\n      and\n      eq\n      iszero\n        /* \"DegenToken/ERC20.sol\":10606:10674  require(owner != address(0), \"ERC20: approve from the zero address\") */\n      tag_238\n      jumpi\n      mload(0x40)\n      0x08c379a000000000000000000000000000000000000000000000000000000000\n      dup2\n      mstore\n      0x04\n      add\n      tag_239\n      swap1\n      tag_240\n      jump\t// in\n    tag_239:\n      mload(0x40)\n      dup1\n      swap2\n      sub\n      swap1\n      revert\n    tag_238:\n        /* \"DegenToken/ERC20.sol\":10711:10712  0 */\n      0x00\n        /* \"DegenToken/ERC20.sol\":10692:10713  spender != address(0) */\n      0xffffffffffffffffffffffffffffffffffffffff\n      and\n        /* \"DegenToken/ERC20.sol\":10692:10699  spender */\n      dup3\n        /* \"DegenToken/ERC20.sol\":10692:10713  spender != address(0) */\n      0xffffffffffffffffffffffffffffffffffffffff\n      and\n      eq\n      iszero\n        /* \"DegenToken/ERC20.sol\":10684:10752  require(spender != address(0), \"ERC20: approve to the zero address\") */\n      tag_241\n      jumpi\n      mload(0x40)\n      0x08c379a000000000000000000000000000000000000000000000000000000000\n      dup2\n      mstore\n      0x04\n      add\n      tag_242\n      swap1\n      tag_243\n      jump\t// in\n    tag_242:\n      mload(0x40)\n      dup1\n      swap2\n      sub\n      swap1\n      revert\n    tag_241:\n        /* \"DegenToken/ERC20.sol\":10793:10799  amount */\n      dup1\n        /* \"DegenToken/ERC20.sol\":10763:10774  _allowances */\n      0x01\n        /* \"DegenToken/ERC20.sol\":10763:10781  _allowances[owner] */\n      0x00\n        /* \"DegenToken/ERC20.sol\":10775:10780  owner */\n      dup6\n        /* \"DegenToken/ERC20.sol\":10763:10781  _allowances[owner] */\n      0xffffffffffffffffffffffffffffffffffffffff\n      and\n      0xffffffffffffffffffffffffffffffffffffffff\n      and\n      dup2\n      mstore\n      0x20\n      add\n      swap1\n      dup2\n      mstore\n      0x20\n      add\n      0x00\n      keccak256\n        /* \"DegenToken/ERC20.sol\":10763:10790  _allowances[owner][spender] */\n      0x00\n        /* \"DegenToken/ERC20.sol\":10782:10789  spender */\n      dup5\n        /* \"DegenToken/ERC20.sol\":10763:10790  _allowances[owner][spender] */\n      0xffffffffffffffffffffffffffffffffffffffff\n      and\n      0xffffffffffffffffffffffffffffffffffffffff\n      and\n      dup2\n      mstore\n      0x20\n      add\n      swap1\n      dup2\n      mstore\n      0x20\n      add\n      0x00\n      keccak256\n        /* \"DegenToken/ERC20.sol\":10763:10799  _allowances[owner][spender] = amount */\n      dup2\n      swap1\n      sstore\n      pop\n        /* \"DegenToken/ERC20.sol\":10830:10837  spender */\n      dup2\n        /* \"DegenToken/ERC20.sol\":10814:10846  Approval(owner, spender, amount) */\n      0xffffffffffffffffffffffffffffffffffffffff\n      and\n        /* \"DegenToken/ERC20.sol\":10823:10828  owner */\n      dup4\n        /* \"DegenToken/ERC20.sol\":10814:10846  Approval(owner, spender, amount) */\n      0xffffffffffffffffffffffffffffffffffffffff\n      and\n      0x8c5be1e5ebec7d5bd14f71427d1e84f3dd0314c0f7b2291e5b200ac8c7c3b925\n        /* \"DegenToken/ERC20.sol\":10839:10845  amount */\n      dup4\n        /* \"DegenToken/ERC20.sol\":10814:10846  Approval(owner, spender, amount) */\n      mload(0x40)\n      tag_244\n      swap2\n      swap1\n      tag_43\n      jump\t// in\n    tag_244:\n      mload(0x40)\n      dup1\n      swap2\n      sub\n      swap1\n      log3\n        /* \"DegenToken/ERC20.sol\":10483:10853  function _approve(... */\n      pop\n      pop\n      pop\n      jump\t// out\n        /* \"DegenToken/ERC20.sol\":11134:11575  function _spendAllowance(... */\n    tag_153:\n        /* \"DegenToken/ERC20.sol\":11264:11288  uint256 currentAllowance */\n      0x00\n        /* \"DegenToken/ERC20.sol\":11291:11316  allowance(owner, spender) */\n      tag_246\n        /* \"DegenToken/ERC20.sol\":11301:11306  owner */\n      dup5\n        /* \"DegenToken/ERC20.sol\":11308:11315  spender */\n      dup5\n        /* \"DegenToken/ERC20.sol\":11291:11300  allowance */\n      tag_123\n        /* \"DegenToken/ERC20.sol\":11291:11316  allowance(owner, spender) */\n      jump\t// in\n    tag_246:\n        /* \"DegenToken/ERC20.sol\":11264:11316  uint256 currentAllowance = allowance(owner, spender) */\n      swap1\n      pop\n        /* \"DegenToken/ERC20.sol\":11350:11367  type(uint256).max */\n      0xffffffffffffffffffffffffffffffffffffffffffffffffffffffffffffffff\n        /* \"DegenToken/ERC20.sol\":11330:11346  currentAllowance */\n      dup2\n        /* \"DegenToken/ERC20.sol\":11330:11367  currentAllowance != type(uint256).max */\n      eq\n        /* \"DegenToken/ERC20.sol\":11326:11569  if (currentAllowance != type(uint256).max) {... */\n      tag_247\n      jumpi\n        /* \"DegenToken/ERC20.sol\":11411:11417  amount */\n      dup2\n        /* \"DegenToken/ERC20.sol\":11391:11407  currentAllowance */\n      dup2\n        /* \"DegenToken/ERC20.sol\":11391:11417  currentAllowance >= amount */\n      lt\n      iszero\n        /* \"DegenToken/ERC20.sol\":11383:11451  require(currentAllowance >= amount, \"ERC20: insufficient allowance\") */\n      tag_248\n      jumpi\n      mload(0x40)\n      0x08c379a000000000000000000000000000000000000000000000000000000000\n      dup2\n      mstore\n      0x04\n      add\n      tag_249\n      swap1\n      tag_250\n      jump\t// in\n    tag_249:\n      mload(0x40)\n      dup1\n      swap2\n      sub\n      swap1\n      revert\n    tag_248:\n        /* \"DegenToken/ERC20.sol\":11493:11544  _approve(owner, spender, currentAllowance - amount) */\n      tag_251\n        /* \"DegenToken/ERC20.sol\":11502:11507  owner */\n      dup5\n        /* \"DegenToken/ERC20.sol\":11509:11516  spender */\n      dup5\n        /* \"DegenToken/ERC20.sol\":11537:11543  amount */\n      dup5\n        /* \"DegenToken/ERC20.sol\":11518:11534  currentAllowance */\n      dup5\n        /* \"DegenToken/ERC20.sol\":11518:11543  currentAllowance - amount */\n      sub\n        /* \"DegenToken/ERC20.sol\":11493:11501  _approve */\n      tag_140\n        /* \"DegenToken/ERC20.sol\":11493:11544  _approve(owner, spender, currentAllowance - amount) */\n      jump\t// in\n    tag_251:\n        /* \"DegenToken/ERC20.sol\":11326:11569  if (currentAllowance != type(uint256).max) {... */\n    tag_247:\n        /* \"DegenToken/ERC20.sol\":11254:11575  {... */\n      pop\n        /* \"DegenToken/ERC20.sol\":11134:11575  function _spendAllowance(... */\n      pop\n      pop\n      pop\n      jump\t// out\n        /* \"DegenToken/ERC20.sol\":7452:8270  function _transfer(... */\n    tag_155:\n        /* \"DegenToken/ERC20.sol\":7594:7595  0 */\n      0x00\n        /* \"DegenToken/ERC20.sol\":7578:7596  from != address(0) */\n      0xffffffffffffffffffffffffffffffffffffffff\n      and\n        /* \"DegenToken/ERC20.sol\":7578:7582  from */\n      dup4\n        /* \"DegenToken/ERC20.sol\":7578:7596  from != address(0) */\n      0xffffffffffffffffffffffffffffffffffffffff\n      and\n      eq\n      iszero\n        /* \"DegenToken/ERC20.sol\":7570:7638  require(from != address(0), \"ERC20: transfer from the zero address\") */\n      tag_253\n      jumpi\n      mload(0x40)\n      0x08c379a000000000000000000000000000000000000000000000000000000000\n      dup2\n      mstore\n      0x04\n      add\n      tag_254\n      swap1\n      tag_255\n      jump\t// in\n    tag_254:\n      mload(0x40)\n      dup1\n      swap2\n      sub\n      swap1\n      revert\n    tag_253:\n        /* \"DegenToken/ERC20.sol\":7670:7671  0 */\n      0x00\n        /* \"DegenToken/ERC20.sol\":7656:7672  to != address(0) */\n      0xffffffffffffffffffffffffffffffffffffffff\n      and\n        /* \"DegenToken/ERC20.sol\":7656:7658  to */\n      dup3\n        /* \"DegenToken/ERC20.sol\":7656:7672  to != address(0) */\n      0xffffffffffffffffffffffffffffffffffffffff\n      and\n      eq\n      iszero\n        /* \"DegenToken/ERC20.sol\":7648:7712  require(to != address(0), \"ERC20: transfer to the zero address\") */\n      tag_256\n      jumpi\n      mload(0x40)\n      0x08c379a000000000000000000000000000000000000000000000000000000000\n      dup2\n      mstore\n      0x04\n      add\n      tag_257\n      swap1\n      tag_258\n      jump\t// in\n    tag_257:\n      mload(0x40)\n      dup1\n      swap2\n      sub\n      swap1\n      revert\n    tag_256:\n        /* \"DegenToken/ERC20.sol\":7723:7761  _beforeTokenTransfer(from, to, amount) */\n      tag_259\n        /* \"DegenToken/ERC20.sol\":7744:7748  from */\n      dup4\n        /* \"DegenToken/ERC20.sol\":7750:7752  to */\n      dup4\n        /* \"DegenToken/ERC20.sol\":7754:7760  amount */\n      dup4\n        /* \"DegenToken/ERC20.sol\":7723:7743  _beforeTokenTransfer */\n      tag_260\n        /* \"DegenToken/ERC20.sol\":7723:7761  _beforeTokenTransfer(from, to, amount) */\n      jump\t// in\n    tag_259:\n        /* \"DegenToken/ERC20.sol\":7772:7791  uint256 fromBalance */\n      0x00\n        /* \"DegenToken/ERC20.sol\":7794:7803  _balances */\n      dup1\n        /* \"DegenToken/ERC20.sol\":7794:7809  _balances[from] */\n      0x00\n        /* \"DegenToken/ERC20.sol\":7804:7808  from */\n      dup6\n        /* \"DegenToken/ERC20.sol\":7794:7809  _balances[from] */\n      0xffffffffffffffffffffffffffffffffffffffff\n      and\n      0xffffffffffffffffffffffffffffffffffffffff\n      and\n      dup2\n      mstore\n      0x20\n      add\n      swap1\n      dup2\n      mstore\n      0x20\n      add\n      0x00\n      keccak256\n      sload\n        /* \"DegenToken/ERC20.sol\":7772:7809  uint256 fromBalance = _balances[from] */\n      swap1\n      pop\n        /* \"DegenToken/ERC20.sol\":7842:7848  amount */\n      dup2\n        /* \"DegenToken/ERC20.sol\":7827:7838  fromBalance */\n      dup2\n        /* \"DegenToken/ERC20.sol\":7827:7848  fromBalance >= amount */\n      lt\n      iszero\n        /* \"DegenToken/ERC20.sol\":7819:7891  require(fromBalance >= amount, \"ERC20: transfer amount exceeds balance\") */\n      tag_261\n      jumpi\n      mload(0x40)\n      0x08c379a000000000000000000000000000000000000000000000000000000000\n      dup2\n      mstore\n      0x04\n      add\n      tag_262\n      swap1\n      tag_263\n      jump\t// in\n    tag_262:\n      mload(0x40)\n      dup1\n      swap2\n      sub\n      swap1\n      revert\n    tag_261:\n        /* \"DegenToken/ERC20.sol\":7957:7963  amount */\n      dup2\n        /* \"DegenToken/ERC20.sol\":7943:7954  fromBalance */\n      dup2\n        /* \"DegenToken/ERC20.sol\":7943:7963  fromBalance - amount */\n      sub\n        /* \"DegenToken/ERC20.sol\":7925:7934  _balances */\n      0x00\n        /* \"DegenToken/ERC20.sol\":7925:7940  _balances[from] */\n      dup1\n        /* \"DegenToken/ERC20.sol\":7935:7939  from */\n      dup7\n        /* \"DegenToken/ERC20.sol\":7925:7940  _balances[from] */\n      0xffffffffffffffffffffffffffffffffffffffff\n      and\n      0xffffffffffffffffffffffffffffffffffffffff\n      and\n      dup2\n      mstore\n      0x20\n      add\n      swap1\n      dup2\n      mstore\n      0x20\n      add\n      0x00\n      keccak256\n        /* \"DegenToken/ERC20.sol\":7925:7963  _balances[from] = fromBalance - amount */\n      dup2\n      swap1\n      sstore\n      pop\n        /* \"DegenToken/ERC20.sol\":8157:8163  amount */\n      dup2\n        /* \"DegenToken/ERC20.sol\":8140:8149  _balances */\n      0x00\n        /* \"DegenToken/ERC20.sol\":8140:8153  _balances[to] */\n      dup1\n        /* \"DegenToken/ERC20.sol\":8150:8152  to */\n      dup6\n        /* \"DegenToken/ERC20.sol\":8140:8153  _balances[to] */\n      0xffffffffffffffffffffffffffffffffffffffff\n      and\n      0xffffffffffffffffffffffffffffffffffffffff\n      and\n      dup2\n      mstore\n      0x20\n      add\n      swap1\n      dup2\n      mstore\n      0x20\n      add\n      0x00\n      keccak256\n      0x00\n        /* \"DegenToken/ERC20.sol\":8140:8163  _balances[to] += amount */\n      dup3\n      dup3\n      sload\n      add\n      swap3\n      pop\n      pop\n      dup2\n      swap1\n      sstore\n      pop\n        /* \"DegenToken/ERC20.sol\":8204:8206  to */\n      dup3\n        /* \"DegenToken/ERC20.sol\":8189:8215  Transfer(from, to, amount) */\n      0xffffffffffffffffffffffffffffffffffffffff\n      and\n        /* \"DegenToken/ERC20.sol\":8198:8202  from */\n      dup5\n        /* \"DegenToken/ERC20.sol\":8189:8215  Transfer(from, to, amount) */\n      0xffffffffffffffffffffffffffffffffffffffff\n      and\n      0xddf252ad1be2c89b69c2b068fc378daa952ba7f163c4a11628f55a4df523b3ef\n        /* \"DegenToken/ERC20.sol\":8208:8214  amount */\n      dup5\n        /* \"DegenToken/ERC20.sol\":8189:8215  Transfer(from, to, amount) */\n      mload(0x40)\n      tag_264\n      swap2\n      swap1\n      tag_43\n      jump\t// in\n    tag_264:\n      mload(0x40)\n      dup1\n      swap2\n      sub\n      swap1\n      log3\n        /* \"DegenToken/ERC20.sol\":8226:8263  _afterTokenTransfer(from, to, amount) */\n      tag_265\n        /* \"DegenToken/ERC20.sol\":8246:8250  from */\n      dup5\n        /* \"DegenToken/ERC20.sol\":8252:8254  to */\n      dup5\n        /* \"DegenToken/ERC20.sol\":8256:8262  amount */\n      dup5\n        /* \"DegenToken/ERC20.sol\":8226:8245  _afterTokenTransfer */\n      tag_266\n        /* \"DegenToken/ERC20.sol\":8226:8263  _afterTokenTransfer(from, to, amount) */\n      jump\t// in\n    tag_265:\n        /* \"DegenToken/ERC20.sol\":7560:8270  {... */\n      pop\n        /* \"DegenToken/ERC20.sol\":7452:8270  function _transfer(... */\n      pop\n      pop\n      pop\n      jump\t// out\n        /* \"DegenToken/Ownable.sol\":1352:1482  function _checkOwner() internal view virtual {... */\n    tag_165:\n        /* \"DegenToken/Ownable.sol\":1426:1438  _msgSender() */\n      tag_268\n        /* \"DegenToken/Ownable.sol\":1426:1436  _msgSender */\n      tag_138\n        /* \"DegenToken/Ownable.sol\":1426:1438  _msgSender() */\n      jump\t// in\n    tag_268:\n        /* \"DegenToken/Ownable.sol\":1415:1438  owner() == _msgSender() */\n      0xffffffffffffffffffffffffffffffffffffffff\n      and\n        /* \"DegenToken/Ownable.sol\":1415:1422  owner() */\n      tag_269\n        /* \"DegenToken/Ownable.sol\":1415:1420  owner */\n      tag_95\n        /* \"DegenToken/Ownable.sol\":1415:1422  owner() */\n      jump\t// in\n    tag_269:\n        /* \"DegenToken/Ownable.sol\":1415:1438  owner() == _msgSender() */\n      0xffffffffffffffffffffffffffffffffffffffff\n      and\n      eq\n        /* \"DegenToken/Ownable.sol\":1407:1475  require(owner() == _msgSender(), \"Ownable: caller is not the owner\") */\n      tag_270\n      jumpi\n      mload(0x40)\n      0x08c379a000000000000000000000000000000000000000000000000000000000\n      dup2\n      mstore\n      0x04\n      add\n      tag_271\n      swap1\n      tag_272\n      jump\t// in\n    tag_271:\n      mload(0x40)\n      dup1\n      swap2\n      sub\n      swap1\n      revert\n    tag_270:\n        /* \"DegenToken/Ownable.sol\":1352:1482  function _checkOwner() internal view virtual {... */\n      jump\t// out\n        /* \"DegenToken/ERC20.sol\":8546:9081  function _mint(address account, uint256 amount) internal virtual {... */\n    tag_168:\n        /* \"DegenToken/ERC20.sol\":8648:8649  0 */\n      0x00\n        /* \"DegenToken/ERC20.sol\":8629:8650  account != address(0) */\n      0xffffffffffffffffffffffffffffffffffffffff\n      and\n        /* \"DegenToken/ERC20.sol\":8629:8636  account */\n      dup3\n        /* \"DegenToken/ERC20.sol\":8629:8650  account != address(0) */\n      0xffffffffffffffffffffffffffffffffffffffff\n      and\n      eq\n      iszero\n        /* \"DegenToken/ERC20.sol\":8621:8686  require(account != address(0), \"ERC20: mint to the zero address\") */\n      tag_274\n      jumpi\n      mload(0x40)\n      0x08c379a000000000000000000000000000000000000000000000000000000000\n      dup2\n      mstore\n      0x04\n      add\n      tag_275\n      swap1\n      tag_276\n      jump\t// in\n    tag_275:\n      mload(0x40)\n      dup1\n      swap2\n      sub\n      swap1\n      revert\n    tag_274:\n        /* \"DegenToken/ERC20.sol\":8697:8746  _beforeTokenTransfer(address(0), account, amount) */\n      tag_277\n        /* \"DegenToken/ERC20.sol\":8726:8727  0 */\n      0x00\n        /* \"DegenToken/ERC20.sol\":8730:8737  account */\n      dup4\n        /* \"DegenToken/ERC20.sol\":8739:8745  amount */\n      dup4\n        /* \"DegenToken/ERC20.sol\":8697:8717  _beforeTokenTransfer */\n      tag_260\n        /* \"DegenToken/ERC20.sol\":8697:8746  _beforeTokenTransfer(address(0), account, amount) */\n      jump\t// in\n    tag_277:\n        /* \"DegenToken/ERC20.sol\":8773:8779  amount */\n      dup1\n        /* \"DegenToken/ERC20.sol\":8757:8769  _totalSupply */\n      0x02\n      0x00\n        /* \"DegenToken/ERC20.sol\":8757:8779  _totalSupply += amount */\n      dup3\n      dup3\n      sload\n      tag_278\n      swap2\n      swap1\n      tag_162\n      jump\t// in\n    tag_278:\n      swap3\n      pop\n      pop\n      dup2\n      swap1\n      sstore\n      pop\n        /* \"DegenToken/ERC20.sol\":8947:8953  amount */\n      dup1\n        /* \"DegenToken/ERC20.sol\":8925:8934  _balances */\n      0x00\n        /* \"DegenToken/ERC20.sol\":8925:8943  _balances[account] */\n      dup1\n        /* \"DegenToken/ERC20.sol\":8935:8942  account */\n      dup5\n        /* \"DegenToken/ERC20.sol\":8925:8943  _balances[account] */\n      0xffffffffffffffffffffffffffffffffffffffff\n      and\n      0xffffffffffffffffffffffffffffffffffffffff\n      and\n      dup2\n      mstore\n      0x20\n      add\n      swap1\n      dup2\n      mstore\n      0x20\n      add\n      0x00\n      keccak256\n      0x00\n        /* \"DegenToken/ERC20.sol\":8925:8953  _balances[account] += amount */\n      dup3\n      dup3\n      sload\n      add\n      swap3\n      pop\n      pop\n      dup2\n      swap1\n      sstore\n      pop\n        /* \"DegenToken/ERC20.sol\":8999:9006  account */\n      dup2\n        /* \"DegenToken/ERC20.sol\":8978:9015  Transfer(address(0), account, amount) */\n      0xffffffffffffffffffffffffffffffffffffffff\n      and\n        /* \"DegenToken/ERC20.sol\":8995:8996  0 */\n      0x00\n        /* \"DegenToken/ERC20.sol\":8978:9015  Transfer(address(0), account, amount) */\n      0xffffffffffffffffffffffffffffffffffffffff\n      and\n      0xddf252ad1be2c89b69c2b068fc378daa952ba7f163c4a11628f55a4df523b3ef\n        /* \"DegenToken/ERC20.sol\":9008:9014  amount */\n      dup4\n        /* \"DegenToken/ERC20.sol\":8978:9015  Transfer(address(0), account, amount) */\n      mload(0x40)\n      tag_279\n      swap2\n      swap1\n      tag_43\n      jump\t// in\n    tag_279:\n      mload(0x40)\n      dup1\n      swap2\n      sub\n      swap1\n      log3\n        /* \"DegenToken/ERC20.sol\":9026:9074  _afterTokenTransfer(address(0), account, amount) */\n      tag_280\n        /* \"DegenToken/ERC20.sol\":9054:9055  0 */\n      0x00\n        /* \"DegenToken/ERC20.sol\":9058:9065  account */\n      dup4\n        /* \"DegenToken/ERC20.sol\":9067:9073  amount */\n      dup4\n        /* \"DegenToken/ERC20.sol\":9026:9045  _afterTokenTransfer */\n      tag_266\n        /* \"DegenToken/ERC20.sol\":9026:9074  _afterTokenTransfer(address(0), account, amount) */\n      jump\t// in\n    tag_280:\n        /* \"DegenToken/ERC20.sol\":8546:9081  function _mint(address account, uint256 amount) internal virtual {... */\n      pop\n      pop\n      jump\t// out\n        /* \"DegenToken/ERC20.sol\":9401:10060  function _burn(address account, uint256 amount) internal virtual {... */\n    tag_172:\n        /* \"DegenToken/ERC20.sol\":9503:9504  0 */\n      0x00\n        /* \"DegenToken/ERC20.sol\":9484:9505  account != address(0) */\n      0xffffffffffffffffffffffffffffffffffffffff\n      and\n        /* \"DegenToken/ERC20.sol\":9484:9491  account */\n      dup3\n        /* \"DegenToken/ERC20.sol\":9484:9505  account != address(0) */\n      0xffffffffffffffffffffffffffffffffffffffff\n      and\n      eq\n      iszero\n        /* \"DegenToken/ERC20.sol\":9476:9543  require(account != address(0), \"ERC20: burn from the zero address\") */\n      tag_282\n      jumpi\n      mload(0x40)\n      0x08c379a000000000000000000000000000000000000000000000000000000000\n      dup2\n      mstore\n      0x04\n      add\n      tag_283\n      swap1\n      tag_284\n      jump\t// in\n    tag_283:\n      mload(0x40)\n      dup1\n      swap2\n      sub\n      swap1\n      revert\n    tag_282:\n        /* \"DegenToken/ERC20.sol\":9554:9603  _beforeTokenTransfer(account, address(0), amount) */\n      tag_285\n        /* \"DegenToken/ERC20.sol\":9575:9582  account */\n      dup3\n        /* \"DegenToken/ERC20.sol\":9592:9593  0 */\n      0x00\n        /* \"DegenToken/ERC20.sol\":9596:9602  amount */\n      dup4\n        /* \"DegenToken/ERC20.sol\":9554:9574  _beforeTokenTransfer */\n      tag_260\n        /* \"DegenToken/ERC20.sol\":9554:9603  _beforeTokenTransfer(account, address(0), amount) */\n      jump\t// in\n    tag_285:\n        /* \"DegenToken/ERC20.sol\":9614:9636  uint256 accountBalance */\n      0x00\n        /* \"DegenToken/ERC20.sol\":9639:9648  _balances */\n      dup1\n        /* \"DegenToken/ERC20.sol\":9639:9657  _balances[account] */\n      0x00\n        /* \"DegenToken/ERC20.sol\":9649:9656  account */\n      dup5\n        /* \"DegenToken/ERC20.sol\":9639:9657  _balances[account] */\n      0xffffffffffffffffffffffffffffffffffffffff\n      and\n      0xffffffffffffffffffffffffffffffffffffffff\n      and\n      dup2\n      mstore\n      0x20\n      add\n      swap1\n      dup2\n      mstore\n      0x20\n      add\n      0x00\n      keccak256\n      sload\n        /* \"DegenToken/ERC20.sol\":9614:9657  uint256 accountBalance = _balances[account] */\n      swap1\n      pop\n        /* \"DegenToken/ERC20.sol\":9693:9699  amount */\n      dup2\n        /* \"DegenToken/ERC20.sol\":9675:9689  accountBalance */\n      dup2\n        /* \"DegenToken/ERC20.sol\":9675:9699  accountBalance >= amount */\n      lt\n      iszero\n        /* \"DegenToken/ERC20.sol\":9667:9738  require(accountBalance >= amount, \"ERC20: burn amount exceeds balance\") */\n      tag_286\n      jumpi\n      mload(0x40)\n      0x08c379a000000000000000000000000000000000000000000000000000000000\n      dup2\n      mstore\n      0x04\n      add\n      tag_287\n      swap1\n      tag_288\n      jump\t// in\n    tag_287:\n      mload(0x40)\n      dup1\n      swap2\n      sub\n      swap1\n      revert\n    tag_286:\n        /* \"DegenToken/ERC20.sol\":9810:9816  amount */\n      dup2\n        /* \"DegenToken/ERC20.sol\":9793:9807  accountBalance */\n      dup2\n        /* \"DegenToken/ERC20.sol\":9793:9816  accountBalance - amount */\n      sub\n        /* \"DegenToken/ERC20.sol\":9772:9781  _balances */\n      0x00\n        /* \"DegenToken/ERC20.sol\":9772:9790  _balances[account] */\n      dup1\n        /* \"DegenToken/ERC20.sol\":9782:9789  account */\n      dup6\n        /* \"DegenToken/ERC20.sol\":9772:9790  _balances[account] */\n      0xffffffffffffffffffffffffffffffffffffffff\n      and\n      0xffffffffffffffffffffffffffffffffffffffff\n      and\n      dup2\n      mstore\n      0x20\n      add\n      swap1\n      dup2\n      mstore\n      0x20\n      add\n      0x00\n      keccak256\n        /* \"DegenToken/ERC20.sol\":9772:9816  _balances[account] = accountBalance - amount */\n      dup2\n      swap1\n      sstore\n      pop\n        /* \"DegenToken/ERC20.sol\":9925:9931  amount */\n      dup2\n        /* \"DegenToken/ERC20.sol\":9909:9921  _totalSupply */\n      0x02\n      0x00\n        /* \"DegenToken/ERC20.sol\":9909:9931  _totalSupply -= amount */\n      dup3\n      dup3\n      sload\n      sub\n      swap3\n      pop\n      pop\n      dup2\n      swap1\n      sstore\n      pop\n        /* \"DegenToken/ERC20.sol\":9983:9984  0 */\n      0x00\n        /* \"DegenToken/ERC20.sol\":9957:9994  Transfer(account, address(0), amount) */\n      0xffffffffffffffffffffffffffffffffffffffff\n      and\n        /* \"DegenToken/ERC20.sol\":9966:9973  account */\n      dup4\n        /* \"DegenToken/ERC20.sol\":9957:9994  Transfer(account, address(0), amount) */\n      0xffffffffffffffffffffffffffffffffffffffff\n      and\n      0xddf252ad1be2c89b69c2b068fc378daa952ba7f163c4a11628f55a4df523b3ef\n        /* \"DegenToken/ERC20.sol\":9987:9993  amount */\n      dup5\n        /* \"DegenToken/ERC20.sol\":9957:9994  Transfer(account, address(0), amount) */\n      mload(0x40)\n      tag_289\n      swap2\n      swap1\n      tag_43\n      jump\t// in\n    tag_289:\n      mload(0x40)\n      dup1\n      swap2\n      sub\n      swap1\n      log3\n        /* \"DegenToken/ERC20.sol\":10005:10053  _afterTokenTransfer(account, address(0), amount) */\n      tag_290\n        /* \"DegenToken/ERC20.sol\":10025:10032  account */\n      dup4\n        /* \"DegenToken/ERC20.sol\":10042:10043  0 */\n      0x00\n        /* \"DegenToken/ERC20.sol\":10046:10052  amount */\n      dup5\n        /* \"DegenToken/ERC20.sol\":10005:10024  _afterTokenTransfer */\n      tag_266\n        /* \"DegenToken/ERC20.sol\":10005:10053  _afterTokenTransfer(account, address(0), amount) */\n      jump\t// in\n    tag_290:\n        /* \"DegenToken/ERC20.sol\":9466:10060  {... */\n      pop\n        /* \"DegenToken/ERC20.sol\":9401:10060  function _burn(address account, uint256 amount) internal virtual {... */\n      pop\n      pop\n      jump\t// out\n        /* \"DegenToken/Ownable.sol\":2426:2613  function _transferOwnership(address newOwner) internal virtual {... */\n    tag_185:\n        /* \"DegenToken/Ownable.sol\":2499:2515  address oldOwner */\n      0x00\n        /* \"DegenToken/Ownable.sol\":2518:2524  _owner */\n      0x05\n      0x00\n      swap1\n      sload\n      swap1\n      0x0100\n      exp\n      swap1\n      div\n      0xffffffffffffffffffffffffffffffffffffffff\n      and\n        /* \"DegenToken/Ownable.sol\":2499:2524  address oldOwner = _owner */\n      swap1\n      pop\n        /* \"DegenToken/Ownable.sol\":2543:2551  newOwner */\n      dup2\n        /* \"DegenToken/Ownable.sol\":2534:2540  _owner */\n      0x05\n      0x00\n        /* \"DegenToken/Ownable.sol\":2534:2551  _owner = newOwner */\n      0x0100\n      exp\n      dup2\n      sload\n      dup2\n      0xffffffffffffffffffffffffffffffffffffffff\n      mul\n      not\n      and\n      swap1\n      dup4\n      0xffffffffffffffffffffffffffffffffffffffff\n      and\n      mul\n      or\n      swap1\n      sstore\n      pop\n        /* \"DegenToken/Ownable.sol\":2597:2605  newOwner */\n      dup2\n        /* \"DegenToken/Ownable.sol\":2566:2606  OwnershipTransferred(oldOwner, newOwner) */\n      0xffffffffffffffffffffffffffffffffffffffff\n      and\n        /* \"DegenToken/Ownable.sol\":2587:2595  oldOwner */\n      dup2\n        /* \"DegenToken/Ownable.sol\":2566:2606  OwnershipTransferred(oldOwner, newOwner) */\n      0xffffffffffffffffffffffffffffffffffffffff\n      and\n      0x8be0079c531659141344cd1fd0a4f28419497f9722a3daafe3b4186f6b6457e0\n      mload(0x40)\n      mload(0x40)\n      dup1\n      swap2\n      sub\n      swap1\n      log3\n        /* \"DegenToken/Ownable.sol\":2489:2613  {... */\n      pop\n        /* \"DegenToken/Ownable.sol\":2426:2613  function _transferOwnership(address newOwner) internal virtual {... */\n      pop\n      jump\t// out\n        /* \"DegenToken/ERC20.sol\":12159:12280  function _beforeTokenTransfer(... */\n    tag_260:\n      pop\n      pop\n      pop\n      jump\t// out\n        /* \"DegenToken/ERC20.sol\":12868:12988  function _afterTokenTransfer(... */\n    tag_266:\n      pop\n      pop\n      pop\n      jump\t// out\n        /* \"#utility.yul\":7:106   */\n    tag_294:\n        /* \"#utility.yul\":59:65   */\n      0x00\n        /* \"#utility.yul\":93:98   */\n      dup2\n        /* \"#utility.yul\":87:99   */\n      mload\n        /* \"#utility.yul\":77:99   */\n      swap1\n      pop\n        /* \"#utility.yul\":7:106   */\n      swap2\n      swap1\n      pop\n      jump\t// out\n        /* \"#utility.yul\":112:281   */\n    tag_295:\n        /* \"#utility.yul\":196:207   */\n      0x00\n        /* \"#utility.yul\":230:236   */\n      dup3\n        /* \"#utility.yul\":225:228   */\n      dup3\n        /* \"#utility.yul\":218:237   */\n      mstore\n        /* \"#utility.yul\":270:274   */\n      0x20\n        /* \"#utility.yul\":265:268   */\n      dup3\n        /* \"#utility.yul\":261:275   */\n      add\n        /* \"#utility.yul\":246:275   */\n      swap1\n      pop\n        /* \"#utility.yul\":112:281   */\n      swap3\n      swap2\n      pop\n      pop\n      jump\t// out\n        /* \"#utility.yul\":287:594   */\n    tag_296:\n        /* \"#utility.yul\":355:356   */\n      0x00\n        /* \"#utility.yul\":365:478   */\n    tag_350:\n        /* \"#utility.yul\":379:385   */\n      dup4\n        /* \"#utility.yul\":376:377   */\n      dup2\n        /* \"#utility.yul\":373:386   */\n      lt\n        /* \"#utility.yul\":365:478   */\n      iszero\n      tag_352\n      jumpi\n        /* \"#utility.yul\":464:465   */\n      dup1\n        /* \"#utility.yul\":459:462   */\n      dup3\n        /* \"#utility.yul\":455:466   */\n      add\n        /* \"#utility.yul\":449:467   */\n      mload\n        /* \"#utility.yul\":445:446   */\n      dup2\n        /* \"#utility.yul\":440:443   */\n      dup5\n        /* \"#utility.yul\":436:447   */\n      add\n        /* \"#utility.yul\":429:468   */\n      mstore\n        /* \"#utility.yul\":401:403   */\n      0x20\n        /* \"#utility.yul\":398:399   */\n      dup2\n        /* \"#utility.yul\":394:404   */\n      add\n        /* \"#utility.yul\":389:404   */\n      swap1\n      pop\n        /* \"#utility.yul\":365:478   */\n      jump(tag_350)\n    tag_352:\n        /* \"#utility.yul\":496:502   */\n      dup4\n        /* \"#utility.yul\":493:494   */\n      dup2\n        /* \"#utility.yul\":490:503   */\n      gt\n        /* \"#utility.yul\":487:588   */\n      iszero\n      tag_353\n      jumpi\n        /* \"#utility.yul\":576:577   */\n      0x00\n        /* \"#utility.yul\":567:573   */\n      dup5\n        /* \"#utility.yul\":562:565   */\n      dup5\n        /* \"#utility.yul\":558:574   */\n      add\n        /* \"#utility.yul\":551:578   */\n      mstore\n        /* \"#utility.yul\":487:588   */\n    tag_353:\n        /* \"#utility.yul\":336:594   */\n      pop\n        /* \"#utility.yul\":287:594   */\n      pop\n      pop\n      pop\n      jump\t// out\n        /* \"#utility.yul\":600:702   */\n    tag_297:\n        /* \"#utility.yul\":641:647   */\n      0x00\n        /* \"#utility.yul\":692:694   */\n      0x1f\n        /* \"#utility.yul\":688:695   */\n      not\n        /* \"#utility.yul\":683:685   */\n      0x1f\n        /* \"#utility.yul\":676:681   */\n      dup4\n        /* \"#utility.yul\":672:686   */\n      add\n        /* \"#utility.yul\":668:696   */\n      and\n        /* \"#utility.yul\":658:696   */\n      swap1\n      pop\n        /* \"#utility.yul\":600:702   */\n      swap2\n      swap1\n      pop\n      jump\t// out\n        /* \"#utility.yul\":708:1072   */\n    tag_298:\n        /* \"#utility.yul\":796:799   */\n      0x00\n        /* \"#utility.yul\":824:863   */\n      tag_356\n        /* \"#utility.yul\":857:862   */\n      dup3\n        /* \"#utility.yul\":824:863   */\n      tag_294\n      jump\t// in\n    tag_356:\n        /* \"#utility.yul\":879:950   */\n      tag_357\n        /* \"#utility.yul\":943:949   */\n      dup2\n        /* \"#utility.yul\":938:941   */\n      dup6\n        /* \"#utility.yul\":879:950   */\n      tag_295\n      jump\t// in\n    tag_357:\n        /* \"#utility.yul\":872:950   */\n      swap4\n      pop\n        /* \"#utility.yul\":959:1011   */\n      tag_358\n        /* \"#utility.yul\":1004:1010   */\n      dup2\n        /* \"#utility.yul\":999:1002   */\n      dup6\n        /* \"#utility.yul\":992:996   */\n      0x20\n        /* \"#utility.yul\":985:990   */\n      dup7\n        /* \"#utility.yul\":981:997   */\n      add\n        /* \"#utility.yul\":959:1011   */\n      tag_296\n      jump\t// in\n    tag_358:\n        /* \"#utility.yul\":1036:1065   */\n      tag_359\n        /* \"#utility.yul\":1058:1064   */\n      dup2\n        /* \"#utility.yul\":1036:1065   */\n      tag_297\n      jump\t// in\n    tag_359:\n        /* \"#utility.yul\":1031:1034   */\n      dup5\n        /* \"#utility.yul\":1027:1066   */\n      add\n        /* \"#utility.yul\":1020:1066   */\n      swap2\n      pop\n        /* \"#utility.yul\":800:1072   */\n      pop\n        /* \"#utility.yul\":708:1072   */\n      swap3\n      swap2\n      pop\n      pop\n      jump\t// out\n        /* \"#utility.yul\":1078:1391   */\n    tag_31:\n        /* \"#utility.yul\":1191:1195   */\n      0x00\n        /* \"#utility.yul\":1229:1231   */\n      0x20\n        /* \"#utility.yul\":1218:1227   */\n      dup3\n        /* \"#utility.yul\":1214:1232   */\n      add\n        /* \"#utility.yul\":1206:1232   */\n      swap1\n      pop\n        /* \"#utility.yul\":1278:1287   */\n      dup2\n        /* \"#utility.yul\":1272:1276   */\n      dup2\n        /* \"#utility.yul\":1268:1288   */\n      sub\n        /* \"#utility.yul\":1264:1265   */\n      0x00\n        /* \"#utility.yul\":1253:1262   */\n      dup4\n        /* \"#utility.yul\":1249:1266   */\n      add\n        /* \"#utility.yul\":1242:1289   */\n      mstore\n        /* \"#utility.yul\":1306:1384   */\n      tag_361\n        /* \"#utility.yul\":1379:1383   */\n      dup2\n        /* \"#utility.yul\":1370:1376   */\n      dup5\n        /* \"#utility.yul\":1306:1384   */\n      tag_298\n      jump\t// in\n    tag_361:\n        /* \"#utility.yul\":1298:1384   */\n      swap1\n      pop\n        /* \"#utility.yul\":1078:1391   */\n      swap3\n      swap2\n      pop\n      pop\n      jump\t// out\n        /* \"#utility.yul\":1478:1595   */\n    tag_300:\n        /* \"#utility.yul\":1587:1588   */\n      0x00\n        /* \"#utility.yul\":1584:1585   */\n      dup1\n        /* \"#utility.yul\":1577:1589   */\n      revert\n        /* \"#utility.yul\":1724:1850   */\n    tag_302:\n        /* \"#utility.yul\":1761:1768   */\n      0x00\n        /* \"#utility.yul\":1801:1843   */\n      0xffffffffffffffffffffffffffffffffffffffff\n        /* \"#utility.yul\":1794:1799   */\n      dup3\n        /* \"#utility.yul\":1790:1844   */\n      and\n        /* \"#utility.yul\":1779:1844   */\n      swap1\n      pop\n        /* \"#utility.yul\":1724:1850   */\n      swap2\n      swap1\n      pop\n      jump\t// out\n        /* \"#utility.yul\":1856:1952   */\n    tag_303:\n        /* \"#utility.yul\":1893:1900   */\n      0x00\n        /* \"#utility.yul\":1922:1946   */\n      tag_367\n        /* \"#utility.yul\":1940:1945   */\n      dup3\n        /* \"#utility.yul\":1922:1946   */\n      tag_302\n      jump\t// in\n    tag_367:\n        /* \"#utility.yul\":1911:1946   */\n      swap1\n      pop\n        /* \"#utility.yul\":1856:1952   */\n      swap2\n      swap1\n      pop\n      jump\t// out\n        /* \"#utility.yul\":1958:2080   */\n    tag_304:\n        /* \"#utility.yul\":2031:2055   */\n      tag_369\n        /* \"#utility.yul\":2049:2054   */\n      dup2\n        /* \"#utility.yul\":2031:2055   */\n      tag_303\n      jump\t// in\n    tag_369:\n        /* \"#utility.yul\":2024:2029   */\n      dup2\n        /* \"#utility.yul\":2021:2056   */\n      eq\n        /* \"#utility.yul\":2011:2074   */\n      tag_370\n      jumpi\n        /* \"#utility.yul\":2070:2071   */\n      0x00\n        /* \"#utility.yul\":2067:2068   */\n      dup1\n        /* \"#utility.yul\":2060:2072   */\n      revert\n        /* \"#utility.yul\":2011:2074   */\n    tag_370:\n        /* \"#utility.yul\":1958:2080   */\n      pop\n      jump\t// out\n        /* \"#utility.yul\":2086:2225   */\n    tag_305:\n        /* \"#utility.yul\":2132:2137   */\n      0x00\n        /* \"#utility.yul\":2170:2176   */\n      dup2\n        /* \"#utility.yul\":2157:2177   */\n      calldataload\n        /* \"#utility.yul\":2148:2177   */\n      swap1\n      pop\n        /* \"#utility.yul\":2186:2219   */\n      tag_372\n        /* \"#utility.yul\":2213:2218   */\n      dup2\n        /* \"#utility.yul\":2186:2219   */\n      tag_304\n      jump\t// in\n    tag_372:\n        /* \"#utility.yul\":2086:2225   */\n      swap3\n      swap2\n      pop\n      pop\n      jump\t// out\n        /* \"#utility.yul\":2231:2308   */\n    tag_306:\n        /* \"#utility.yul\":2268:2275   */\n      0x00\n        /* \"#utility.yul\":2297:2302   */\n      dup2\n        /* \"#utility.yul\":2286:2302   */\n      swap1\n      pop\n        /* \"#utility.yul\":2231:2308   */\n      swap2\n      swap1\n      pop\n      jump\t// out\n        /* \"#utility.yul\":2314:2436   */\n    tag_307:\n        /* \"#utility.yul\":2387:2411   */\n      tag_375\n        /* \"#utility.yul\":2405:2410   */\n      dup2\n        /* \"#utility.yul\":2387:2411   */\n      tag_306\n      jump\t// in\n    tag_375:\n        /* \"#utility.yul\":2380:2385   */\n      dup2\n        /* \"#utility.yul\":2377:2412   */\n      eq\n        /* \"#utility.yul\":2367:2430   */\n      tag_376\n      jumpi\n        /* \"#utility.yul\":2426:2427   */\n      0x00\n        /* \"#utility.yul\":2423:2424   */\n      dup1\n        /* \"#utility.yul\":2416:2428   */\n      revert\n        /* \"#utility.yul\":2367:2430   */\n    tag_376:\n        /* \"#utility.yul\":2314:2436   */\n      pop\n      jump\t// out\n        /* \"#utility.yul\":2442:2581   */\n    tag_308:\n        /* \"#utility.yul\":2488:2493   */\n      0x00\n        /* \"#utility.yul\":2526:2532   */\n      dup2\n        /* \"#utility.yul\":2513:2533   */\n      calldataload\n        /* \"#utility.yul\":2504:2533   */\n      swap1\n      pop\n        /* \"#utility.yul\":2542:2575   */\n      tag_378\n        /* \"#utility.yul\":2569:2574   */\n      dup2\n        /* \"#utility.yul\":2542:2575   */\n      tag_307\n      jump\t// in\n    tag_378:\n        /* \"#utility.yul\":2442:2581   */\n      swap3\n      swap2\n      pop\n      pop\n      jump\t// out\n        /* \"#utility.yul\":2587:3061   */\n    tag_35:\n        /* \"#utility.yul\":2655:2661   */\n      0x00\n        /* \"#utility.yul\":2663:2669   */\n      dup1\n        /* \"#utility.yul\":2712:2714   */\n      0x40\n        /* \"#utility.yul\":2700:2709   */\n      dup4\n        /* \"#utility.yul\":2691:2698   */\n      dup6\n        /* \"#utility.yul\":2687:2710   */\n      sub\n        /* \"#utility.yul\":2683:2715   */\n      slt\n        /* \"#utility.yul\":2680:2799   */\n      iszero\n      tag_380\n      jumpi\n        /* \"#utility.yul\":2718:2797   */\n      tag_381\n      tag_300\n      jump\t// in\n    tag_381:\n        /* \"#utility.yul\":2680:2799   */\n    tag_380:\n        /* \"#utility.yul\":2838:2839   */\n      0x00\n        /* \"#utility.yul\":2863:2916   */\n      tag_382\n        /* \"#utility.yul\":2908:2915   */\n      dup6\n        /* \"#utility.yul\":2899:2905   */\n      dup3\n        /* \"#utility.yul\":2888:2897   */\n      dup7\n        /* \"#utility.yul\":2884:2906   */\n      add\n        /* \"#utility.yul\":2863:2916   */\n      tag_305\n      jump\t// in\n    tag_382:\n        /* \"#utility.yul\":2853:2916   */\n      swap3\n      pop\n        /* \"#utility.yul\":2809:2926   */\n      pop\n        /* \"#utility.yul\":2965:2967   */\n      0x20\n        /* \"#utility.yul\":2991:3044   */\n      tag_383\n        /* \"#utility.yul\":3036:3043   */\n      dup6\n        /* \"#utility.yul\":3027:3033   */\n      dup3\n        /* \"#utility.yul\":3016:3025   */\n      dup7\n        /* \"#utility.yul\":3012:3034   */\n      add\n        /* \"#utility.yul\":2991:3044   */\n      tag_308\n      jump\t// in\n    tag_383:\n        /* \"#utility.yul\":2981:3044   */\n      swap2\n      pop\n        /* \"#utility.yul\":2936:3054   */\n      pop\n        /* \"#utility.yul\":2587:3061   */\n      swap3\n      pop\n      swap3\n      swap1\n      pop\n      jump\t// out\n        /* \"#utility.yul\":3067:3157   */\n    tag_309:\n        /* \"#utility.yul\":3101:3108   */\n      0x00\n        /* \"#utility.yul\":3144:3149   */\n      dup2\n        /* \"#utility.yul\":3137:3150   */\n      iszero\n        /* \"#utility.yul\":3130:3151   */\n      iszero\n        /* \"#utility.yul\":3119:3151   */\n      swap1\n      pop\n        /* \"#utility.yul\":3067:3157   */\n      swap2\n      swap1\n      pop\n      jump\t// out\n        /* \"#utility.yul\":3163:3272   */\n    tag_310:\n        /* \"#utility.yul\":3244:3265   */\n      tag_386\n        /* \"#utility.yul\":3259:3264   */\n      dup2\n        /* \"#utility.yul\":3244:3265   */\n      tag_309\n      jump\t// in\n    tag_386:\n        /* \"#utility.yul\":3239:3242   */\n      dup3\n        /* \"#utility.yul\":3232:3266   */\n      mstore\n        /* \"#utility.yul\":3163:3272   */\n      pop\n      pop\n      jump\t// out\n        /* \"#utility.yul\":3278:3488   */\n    tag_38:\n        /* \"#utility.yul\":3365:3369   */\n      0x00\n        /* \"#utility.yul\":3403:3405   */\n      0x20\n        /* \"#utility.yul\":3392:3401   */\n      dup3\n        /* \"#utility.yul\":3388:3406   */\n      add\n        /* \"#utility.yul\":3380:3406   */\n      swap1\n      pop\n        /* \"#utility.yul\":3416:3481   */\n      tag_388\n        /* \"#utility.yul\":3478:3479   */\n      0x00\n        /* \"#utility.yul\":3467:3476   */\n      dup4\n        /* \"#utility.yul\":3463:3480   */\n      add\n        /* \"#utility.yul\":3454:3460   */\n      dup5\n        /* \"#utility.yul\":3416:3481   */\n      tag_310\n      jump\t// in\n    tag_388:\n        /* \"#utility.yul\":3278:3488   */\n      swap3\n      swap2\n      pop\n      pop\n      jump\t// out\n        /* \"#utility.yul\":3494:3612   */\n    tag_311:\n        /* \"#utility.yul\":3581:3605   */\n      tag_390\n        /* \"#utility.yul\":3599:3604   */\n      dup2\n        /* \"#utility.yul\":3581:3605   */\n      tag_306\n      jump\t// in\n    tag_390:\n        /* \"#utility.yul\":3576:3579   */\n      dup3\n        /* \"#utility.yul\":3569:3606   */\n      mstore\n        /* \"#utility.yul\":3494:3612   */\n      pop\n      pop\n      jump\t// out\n        /* \"#utility.yul\":3618:3840   */\n    tag_43:\n        /* \"#utility.yul\":3711:3715   */\n      0x00\n        /* \"#utility.yul\":3749:3751   */\n      0x20\n        /* \"#utility.yul\":3738:3747   */\n      dup3\n        /* \"#utility.yul\":3734:3752   */\n      add\n        /* \"#utility.yul\":3726:3752   */\n      swap1\n      pop\n        /* \"#utility.yul\":3762:3833   */\n      tag_392\n        /* \"#utility.yul\":3830:3831   */\n      0x00\n        /* \"#utility.yul\":3819:3828   */\n      dup4\n        /* \"#utility.yul\":3815:3832   */\n      add\n        /* \"#utility.yul\":3806:3812   */\n      dup5\n        /* \"#utility.yul\":3762:3833   */\n      tag_311\n      jump\t// in\n    tag_392:\n        /* \"#utility.yul\":3618:3840   */\n      swap3\n      swap2\n      pop\n      pop\n      jump\t// out\n        /* \"#utility.yul\":3846:4465   */\n    tag_55:\n        /* \"#utility.yul\":3923:3929   */\n      0x00\n        /* \"#utility.yul\":3931:3937   */\n      dup1\n        /* \"#utility.yul\":3939:3945   */\n      0x00\n        /* \"#utility.yul\":3988:3990   */\n      0x60\n        /* \"#utility.yul\":3976:3985   */\n      dup5\n        /* \"#utility.yul\":3967:3974   */\n      dup7\n        /* \"#utility.yul\":3963:3986   */\n      sub\n        /* \"#utility.yul\":3959:3991   */\n      slt\n        /* \"#utility.yul\":3956:4075   */\n      iszero\n      tag_394\n      jumpi\n        /* \"#utility.yul\":3994:4073   */\n      tag_395\n      tag_300\n      jump\t// in\n    tag_395:\n        /* \"#utility.yul\":3956:4075   */\n    tag_394:\n        /* \"#utility.yul\":4114:4115   */\n      0x00\n        /* \"#utility.yul\":4139:4192   */\n      tag_396\n        /* \"#utility.yul\":4184:4191   */\n      dup7\n        /* \"#utility.yul\":4175:4181   */\n      dup3\n        /* \"#utility.yul\":4164:4173   */\n      dup8\n        /* \"#utility.yul\":4160:4182   */\n      add\n        /* \"#utility.yul\":4139:4192   */\n      tag_305\n      jump\t// in\n    tag_396:\n        /* \"#utility.yul\":4129:4192   */\n      swap4\n      pop\n        /* \"#utility.yul\":4085:4202   */\n      pop\n        /* \"#utility.yul\":4241:4243   */\n      0x20\n        /* \"#utility.yul\":4267:4320   */\n      tag_397\n        /* \"#utility.yul\":4312:4319   */\n      dup7\n        /* \"#utility.yul\":4303:4309   */\n      dup3\n        /* \"#utility.yul\":4292:4301   */\n      dup8\n        /* \"#utility.yul\":4288:4310   */\n      add\n        /* \"#utility.yul\":4267:4320   */\n      tag_305\n      jump\t// in\n    tag_397:\n        /* \"#utility.yul\":4257:4320   */\n      swap3\n      pop\n        /* \"#utility.yul\":4212:4330   */\n      pop\n        /* \"#utility.yul\":4369:4371   */\n      0x40\n        /* \"#utility.yul\":4395:4448   */\n      tag_398\n        /* \"#utility.yul\":4440:4447   */\n      dup7\n        /* \"#utility.yul\":4431:4437   */\n      dup3\n        /* \"#utility.yul\":4420:4429   */\n      dup8\n        /* \"#utility.yul\":4416:4438   */\n      add\n        /* \"#utility.yul\":4395:4448   */\n      tag_308\n      jump\t// in\n    tag_398:\n        /* \"#utility.yul\":4385:4448   */\n      swap2\n      pop\n        /* \"#utility.yul\":4340:4458   */\n      pop\n        /* \"#utility.yul\":3846:4465   */\n      swap3\n      pop\n      swap3\n      pop\n      swap3\n      jump\t// out\n        /* \"#utility.yul\":4471:4557   */\n    tag_312:\n        /* \"#utility.yul\":4506:4513   */\n      0x00\n        /* \"#utility.yul\":4546:4550   */\n      0xff\n        /* \"#utility.yul\":4539:4544   */\n      dup3\n        /* \"#utility.yul\":4535:4551   */\n      and\n        /* \"#utility.yul\":4524:4551   */\n      swap1\n      pop\n        /* \"#utility.yul\":4471:4557   */\n      swap2\n      swap1\n      pop\n      jump\t// out\n        /* \"#utility.yul\":4563:4675   */\n    tag_313:\n        /* \"#utility.yul\":4646:4668   */\n      tag_401\n        /* \"#utility.yul\":4662:4667   */\n      dup2\n        /* \"#utility.yul\":4646:4668   */\n      tag_312\n      jump\t// in\n    tag_401:\n        /* \"#utility.yul\":4641:4644   */\n      dup3\n        /* \"#utility.yul\":4634:4669   */\n      mstore\n        /* \"#utility.yul\":4563:4675   */\n      pop\n      pop\n      jump\t// out\n        /* \"#utility.yul\":4681:4895   */\n    tag_62:\n        /* \"#utility.yul\":4770:4774   */\n      0x00\n        /* \"#utility.yul\":4808:4810   */\n      0x20\n        /* \"#utility.yul\":4797:4806   */\n      dup3\n        /* \"#utility.yul\":4793:4811   */\n      add\n        /* \"#utility.yul\":4785:4811   */\n      swap1\n      pop\n        /* \"#utility.yul\":4821:4888   */\n      tag_403\n        /* \"#utility.yul\":4885:4886   */\n      0x00\n        /* \"#utility.yul\":4874:4883   */\n      dup4\n        /* \"#utility.yul\":4870:4887   */\n      add\n        /* \"#utility.yul\":4861:4867   */\n      dup5\n        /* \"#utility.yul\":4821:4888   */\n      tag_313\n      jump\t// in\n    tag_403:\n        /* \"#utility.yul\":4681:4895   */\n      swap3\n      swap2\n      pop\n      pop\n      jump\t// out\n        /* \"#utility.yul\":4901:5230   */\n    tag_75:\n        /* \"#utility.yul\":4960:4966   */\n      0x00\n        /* \"#utility.yul\":5009:5011   */\n      0x20\n        /* \"#utility.yul\":4997:5006   */\n      dup3\n        /* \"#utility.yul\":4988:4995   */\n      dup5\n        /* \"#utility.yul\":4984:5007   */\n      sub\n        /* \"#utility.yul\":4980:5012   */\n      slt\n        /* \"#utility.yul\":4977:5096   */\n      iszero\n      tag_405\n      jumpi\n        /* \"#utility.yul\":5015:5094   */\n      tag_406\n      tag_300\n      jump\t// in\n    tag_406:\n        /* \"#utility.yul\":4977:5096   */\n    tag_405:\n        /* \"#utility.yul\":5135:5136   */\n      0x00\n        /* \"#utility.yul\":5160:5213   */\n      tag_407\n        /* \"#utility.yul\":5205:5212   */\n      dup5\n        /* \"#utility.yul\":5196:5202   */\n      dup3\n        /* \"#utility.yul\":5185:5194   */\n      dup6\n        /* \"#utility.yul\":5181:5203   */\n      add\n        /* \"#utility.yul\":5160:5213   */\n      tag_308\n      jump\t// in\n    tag_407:\n        /* \"#utility.yul\":5150:5213   */\n      swap2\n      pop\n        /* \"#utility.yul\":5106:5223   */\n      pop\n        /* \"#utility.yul\":4901:5230   */\n      swap3\n      swap2\n      pop\n      pop\n      jump\t// out\n        /* \"#utility.yul\":5236:5565   */\n    tag_83:\n        /* \"#utility.yul\":5295:5301   */\n      0x00\n        /* \"#utility.yul\":5344:5346   */\n      0x20\n        /* \"#utility.yul\":5332:5341   */\n      dup3\n        /* \"#utility.yul\":5323:5330   */\n      dup5\n        /* \"#utility.yul\":5319:5342   */\n      sub\n        /* \"#utility.yul\":5315:5347   */\n      slt\n        /* \"#utility.yul\":5312:5431   */\n      iszero\n      tag_409\n      jumpi\n        /* \"#utility.yul\":5350:5429   */\n      tag_410\n      tag_300\n      jump\t// in\n    tag_410:\n        /* \"#utility.yul\":5312:5431   */\n    tag_409:\n        /* \"#utility.yul\":5470:5471   */\n      0x00\n        /* \"#utility.yul\":5495:5548   */\n      tag_411\n        /* \"#utility.yul\":5540:5547   */\n      dup5\n        /* \"#utility.yul\":5531:5537   */\n      dup3\n        /* \"#utility.yul\":5520:5529   */\n      dup6\n        /* \"#utility.yul\":5516:5538   */\n      add\n        /* \"#utility.yul\":5495:5548   */\n      tag_305\n      jump\t// in\n    tag_411:\n        /* \"#utility.yul\":5485:5548   */\n      swap2\n      pop\n        /* \"#utility.yul\":5441:5558   */\n      pop\n        /* \"#utility.yul\":5236:5565   */\n      swap3\n      swap2\n      pop\n      pop\n      jump\t// out\n        /* \"#utility.yul\":5571:5689   */\n    tag_314:\n        /* \"#utility.yul\":5658:5682   */\n      tag_413\n        /* \"#utility.yul\":5676:5681   */\n      dup2\n        /* \"#utility.yul\":5658:5682   */\n      tag_303\n      jump\t// in\n    tag_413:\n        /* \"#utility.yul\":5653:5656   */\n      dup3\n        /* \"#utility.yul\":5646:5683   */\n      mstore\n        /* \"#utility.yul\":5571:5689   */\n      pop\n      pop\n      jump\t// out\n        /* \"#utility.yul\":5695:5917   */\n    tag_97:\n        /* \"#utility.yul\":5788:5792   */\n      0x00\n        /* \"#utility.yul\":5826:5828   */\n      0x20\n        /* \"#utility.yul\":5815:5824   */\n      dup3\n        /* \"#utility.yul\":5811:5829   */\n      add\n        /* \"#utility.yul\":5803:5829   */\n      swap1\n      pop\n        /* \"#utility.yul\":5839:5910   */\n      tag_415\n        /* \"#utility.yul\":5907:5908   */\n      0x00\n        /* \"#utility.yul\":5896:5905   */\n      dup4\n        /* \"#utility.yul\":5892:5909   */\n      add\n        /* \"#utility.yul\":5883:5889   */\n      dup5\n        /* \"#utility.yul\":5839:5910   */\n      tag_314\n      jump\t// in\n    tag_415:\n        /* \"#utility.yul\":5695:5917   */\n      swap3\n      swap2\n      pop\n      pop\n      jump\t// out\n        /* \"#utility.yul\":5923:6397   */\n    tag_122:\n        /* \"#utility.yul\":5991:5997   */\n      0x00\n        /* \"#utility.yul\":5999:6005   */\n      dup1\n        /* \"#utility.yul\":6048:6050   */\n      0x40\n        /* \"#utility.yul\":6036:6045   */\n      dup4\n        /* \"#utility.yul\":6027:6034   */\n      dup6\n        /* \"#utility.yul\":6023:6046   */\n      sub\n        /* \"#utility.yul\":6019:6051   */\n      slt\n        /* \"#utility.yul\":6016:6135   */\n      iszero\n      tag_417\n      jumpi\n        /* \"#utility.yul\":6054:6133   */\n      tag_418\n      tag_300\n      jump\t// in\n    tag_418:\n        /* \"#utility.yul\":6016:6135   */\n    tag_417:\n        /* \"#utility.yul\":6174:6175   */\n      0x00\n        /* \"#utility.yul\":6199:6252   */\n      tag_419\n        /* \"#utility.yul\":6244:6251   */\n      dup6\n        /* \"#utility.yul\":6235:6241   */\n      dup3\n        /* \"#utility.yul\":6224:6233   */\n      dup7\n        /* \"#utility.yul\":6220:6242   */\n      add\n        /* \"#utility.yul\":6199:6252   */\n      tag_305\n      jump\t// in\n    tag_419:\n        /* \"#utility.yul\":6189:6252   */\n      swap3\n      pop\n        /* \"#utility.yul\":6145:6262   */\n      pop\n        /* \"#utility.yul\":6301:6303   */\n      0x20\n        /* \"#utility.yul\":6327:6380   */\n      tag_420\n        /* \"#utility.yul\":6372:6379   */\n      dup6\n        /* \"#utility.yul\":6363:6369   */\n      dup3\n        /* \"#utility.yul\":6352:6361   */\n      dup7\n        /* \"#utility.yul\":6348:6370   */\n      add\n        /* \"#utility.yul\":6327:6380   */\n      tag_305\n      jump\t// in\n    tag_420:\n        /* \"#utility.yul\":6317:6380   */\n      swap2\n      pop\n        /* \"#utility.yul\":6272:6390   */\n      pop\n        /* \"#utility.yul\":5923:6397   */\n      swap3\n      pop\n      swap3\n      swap1\n      pop\n      jump\t// out\n        /* \"#utility.yul\":6403:6583   */\n    tag_315:\n        /* \"#utility.yul\":6451:6528   */\n      0x4e487b7100000000000000000000000000000000000000000000000000000000\n        /* \"#utility.yul\":6448:6449   */\n      0x00\n        /* \"#utility.yul\":6441:6529   */\n      mstore\n        /* \"#utility.yul\":6548:6552   */\n      0x22\n        /* \"#utility.yul\":6545:6546   */\n      0x04\n        /* \"#utility.yul\":6538:6553   */\n      mstore\n        /* \"#utility.yul\":6572:6576   */\n      0x24\n        /* \"#utility.yul\":6569:6570   */\n      0x00\n        /* \"#utility.yul\":6562:6577   */\n      revert\n        /* \"#utility.yul\":6589:6909   */\n    tag_131:\n        /* \"#utility.yul\":6633:6639   */\n      0x00\n        /* \"#utility.yul\":6670:6671   */\n      0x02\n        /* \"#utility.yul\":6664:6668   */\n      dup3\n        /* \"#utility.yul\":6660:6672   */\n      div\n        /* \"#utility.yul\":6650:6672   */\n      swap1\n      pop\n        /* \"#utility.yul\":6717:6718   */\n      0x01\n        /* \"#utility.yul\":6711:6715   */\n      dup3\n        /* \"#utility.yul\":6707:6719   */\n      and\n        /* \"#utility.yul\":6738:6756   */\n      dup1\n        /* \"#utility.yul\":6728:6809   */\n      tag_423\n      jumpi\n        /* \"#utility.yul\":6794:6798   */\n      0x7f\n        /* \"#utility.yul\":6786:6792   */\n      dup3\n        /* \"#utility.yul\":6782:6799   */\n      and\n        /* \"#utility.yul\":6772:6799   */\n      swap2\n      pop\n        /* \"#utility.yul\":6728:6809   */\n    tag_423:\n        /* \"#utility.yul\":6856:6858   */\n      0x20\n        /* \"#utility.yul\":6848:6854   */\n      dup3\n        /* \"#utility.yul\":6845:6859   */\n      lt\n        /* \"#utility.yul\":6825:6843   */\n      dup2\n        /* \"#utility.yul\":6822:6860   */\n      eq\n        /* \"#utility.yul\":6819:6903   */\n      iszero\n      tag_424\n      jumpi\n        /* \"#utility.yul\":6875:6893   */\n      tag_425\n      tag_315\n      jump\t// in\n    tag_425:\n        /* \"#utility.yul\":6819:6903   */\n    tag_424:\n        /* \"#utility.yul\":6640:6909   */\n      pop\n        /* \"#utility.yul\":6589:6909   */\n      swap2\n      swap1\n      pop\n      jump\t// out\n        /* \"#utility.yul\":6915:7058   */\n    tag_316:\n        /* \"#utility.yul\":6972:6977   */\n      0x00\n        /* \"#utility.yul\":7003:7009   */\n      dup2\n        /* \"#utility.yul\":6997:7010   */\n      mload\n        /* \"#utility.yul\":6988:7010   */\n      swap1\n      pop\n        /* \"#utility.yul\":7019:7052   */\n      tag_427\n        /* \"#utility.yul\":7046:7051   */\n      dup2\n        /* \"#utility.yul\":7019:7052   */\n      tag_307\n      jump\t// in\n    tag_427:\n        /* \"#utility.yul\":6915:7058   */\n      swap3\n      swap2\n      pop\n      pop\n      jump\t// out\n        /* \"#utility.yul\":7064:7415   */\n    tag_147:\n        /* \"#utility.yul\":7134:7140   */\n      0x00\n        /* \"#utility.yul\":7183:7185   */\n      0x20\n        /* \"#utility.yul\":7171:7180   */\n      dup3\n        /* \"#utility.yul\":7162:7169   */\n      dup5\n        /* \"#utility.yul\":7158:7181   */\n      sub\n        /* \"#utility.yul\":7154:7186   */\n      slt\n        /* \"#utility.yul\":7151:7270   */\n      iszero\n      tag_429\n      jumpi\n        /* \"#utility.yul\":7189:7268   */\n      tag_430\n      tag_300\n      jump\t// in\n    tag_430:\n        /* \"#utility.yul\":7151:7270   */\n    tag_429:\n        /* \"#utility.yul\":7309:7310   */\n      0x00\n        /* \"#utility.yul\":7334:7398   */\n      tag_431\n        /* \"#utility.yul\":7390:7397   */\n      dup5\n        /* \"#utility.yul\":7381:7387   */\n      dup3\n        /* \"#utility.yul\":7370:7379   */\n      dup6\n        /* \"#utility.yul\":7366:7388   */\n      add\n        /* \"#utility.yul\":7334:7398   */\n      tag_316\n      jump\t// in\n    tag_431:\n        /* \"#utility.yul\":7324:7398   */\n      swap2\n      pop\n        /* \"#utility.yul\":7280:7408   */\n      pop\n        /* \"#utility.yul\":7064:7415   */\n      swap3\n      swap2\n      pop\n      pop\n      jump\t// out\n        /* \"#utility.yul\":7421:7601   */\n    tag_317:\n        /* \"#utility.yul\":7469:7546   */\n      0x4e487b7100000000000000000000000000000000000000000000000000000000\n        /* \"#utility.yul\":7466:7467   */\n      0x00\n        /* \"#utility.yul\":7459:7547   */\n      mstore\n        /* \"#utility.yul\":7566:7570   */\n      0x11\n        /* \"#utility.yul\":7563:7564   */\n      0x04\n        /* \"#utility.yul\":7556:7571   */\n      mstore\n        /* \"#utility.yul\":7590:7594   */\n      0x24\n        /* \"#utility.yul\":7587:7588   */\n      0x00\n        /* \"#utility.yul\":7580:7595   */\n      revert\n        /* \"#utility.yul\":7607:7912   */\n    tag_162:\n        /* \"#utility.yul\":7647:7650   */\n      0x00\n        /* \"#utility.yul\":7666:7686   */\n      tag_434\n        /* \"#utility.yul\":7684:7685   */\n      dup3\n        /* \"#utility.yul\":7666:7686   */\n      tag_306\n      jump\t// in\n    tag_434:\n        /* \"#utility.yul\":7661:7686   */\n      swap2\n      pop\n        /* \"#utility.yul\":7700:7720   */\n      tag_435\n        /* \"#utility.yul\":7718:7719   */\n      dup4\n        /* \"#utility.yul\":7700:7720   */\n      tag_306\n      jump\t// in\n    tag_435:\n        /* \"#utility.yul\":7695:7720   */\n      swap3\n      pop\n        /* \"#utility.yul\":7854:7855   */\n      dup3\n        /* \"#utility.yul\":7786:7852   */\n      0xffffffffffffffffffffffffffffffffffffffffffffffffffffffffffffffff\n        /* \"#utility.yul\":7782:7856   */\n      sub\n        /* \"#utility.yul\":7779:7780   */\n      dup3\n        /* \"#utility.yul\":7776:7857   */\n      gt\n        /* \"#utility.yul\":7773:7880   */\n      iszero\n      tag_436\n      jumpi\n        /* \"#utility.yul\":7860:7878   */\n      tag_437\n      tag_317\n      jump\t// in\n    tag_437:\n        /* \"#utility.yul\":7773:7880   */\n    tag_436:\n        /* \"#utility.yul\":7904:7905   */\n      dup3\n        /* \"#utility.yul\":7901:7902   */\n      dup3\n        /* \"#utility.yul\":7897:7906   */\n      add\n        /* \"#utility.yul\":7890:7906   */\n      swap1\n      pop\n        /* \"#utility.yul\":7607:7912   */\n      swap3\n      swap2\n      pop\n      pop\n      jump\t// out\n        /* \"#utility.yul\":7918:8140   */\n    tag_318:\n        /* \"#utility.yul\":8058:8092   */\n      0x596f7520646f206e6f74206861766520656e6f75676820446567656e20546f6b\n        /* \"#utility.yul\":8054:8055   */\n      0x00\n        /* \"#utility.yul\":8046:8052   */\n      dup3\n        /* \"#utility.yul\":8042:8056   */\n      add\n        /* \"#utility.yul\":8035:8093   */\n      mstore\n        /* \"#utility.yul\":8127:8132   */\n      0x656e730000000000000000000000000000000000000000000000000000000000\n        /* \"#utility.yul\":8122:8124   */\n      0x20\n        /* \"#utility.yul\":8114:8120   */\n      dup3\n        /* \"#utility.yul\":8110:8125   */\n      add\n        /* \"#utility.yul\":8103:8133   */\n      mstore\n        /* \"#utility.yul\":7918:8140   */\n      pop\n      jump\t// out\n        /* \"#utility.yul\":8146:8512   */\n    tag_319:\n        /* \"#utility.yul\":8288:8291   */\n      0x00\n        /* \"#utility.yul\":8309:8376   */\n      tag_440\n        /* \"#utility.yul\":8373:8375   */\n      0x23\n        /* \"#utility.yul\":8368:8371   */\n      dup4\n        /* \"#utility.yul\":8309:8376   */\n      tag_295\n      jump\t// in\n    tag_440:\n        /* \"#utility.yul\":8302:8376   */\n      swap2\n      pop\n        /* \"#utility.yul\":8385:8478   */\n      tag_441\n        /* \"#utility.yul\":8474:8477   */\n      dup3\n        /* \"#utility.yul\":8385:8478   */\n      tag_318\n      jump\t// in\n    tag_441:\n        /* \"#utility.yul\":8503:8505   */\n      0x40\n        /* \"#utility.yul\":8498:8501   */\n      dup3\n        /* \"#utility.yul\":8494:8506   */\n      add\n        /* \"#utility.yul\":8487:8506   */\n      swap1\n      pop\n        /* \"#utility.yul\":8146:8512   */\n      swap2\n      swap1\n      pop\n      jump\t// out\n        /* \"#utility.yul\":8518:8937   */\n    tag_177:\n        /* \"#utility.yul\":8684:8688   */\n      0x00\n        /* \"#utility.yul\":8722:8724   */\n      0x20\n        /* \"#utility.yul\":8711:8720   */\n      dup3\n        /* \"#utility.yul\":8707:8725   */\n      add\n        /* \"#utility.yul\":8699:8725   */\n      swap1\n      pop\n        /* \"#utility.yul\":8771:8780   */\n      dup2\n        /* \"#utility.yul\":8765:8769   */\n      dup2\n        /* \"#utility.yul\":8761:8781   */\n      sub\n        /* \"#utility.yul\":8757:8758   */\n      0x00\n        /* \"#utility.yul\":8746:8755   */\n      dup4\n        /* \"#utility.yul\":8742:8759   */\n      add\n        /* \"#utility.yul\":8735:8782   */\n      mstore\n        /* \"#utility.yul\":8799:8930   */\n      tag_443\n        /* \"#utility.yul\":8925:8929   */\n      dup2\n        /* \"#utility.yul\":8799:8930   */\n      tag_319\n      jump\t// in\n    tag_443:\n        /* \"#utility.yul\":8791:8930   */\n      swap1\n      pop\n        /* \"#utility.yul\":8518:8937   */\n      swap2\n      swap1\n      pop\n      jump\t// out\n        /* \"#utility.yul\":8943:9167   */\n    tag_320:\n        /* \"#utility.yul\":9083:9117   */\n      0x45524332303a2064656372656173656420616c6c6f77616e63652062656c6f77\n        /* \"#utility.yul\":9079:9080   */\n      0x00\n        /* \"#utility.yul\":9071:9077   */\n      dup3\n        /* \"#utility.yul\":9067:9081   */\n      add\n        /* \"#utility.yul\":9060:9118   */\n      mstore\n        /* \"#utility.yul\":9152:9159   */\n      0x207a65726f000000000000000000000000000000000000000000000000000000\n        /* \"#utility.yul\":9147:9149   */\n      0x20\n        /* \"#utility.yul\":9139:9145   */\n      dup3\n        /* \"#utility.yul\":9135:9150   */\n      add\n        /* \"#utility.yul\":9128:9160   */\n      mstore\n        /* \"#utility.yul\":8943:9167   */\n      pop\n      jump\t// out\n        /* \"#utility.yul\":9173:9539   */\n    tag_321:\n        /* \"#utility.yul\":9315:9318   */\n      0x00\n        /* \"#utility.yul\":9336:9403   */\n      tag_446\n        /* \"#utility.yul\":9400:9402   */\n      0x25\n        /* \"#utility.yul\":9395:9398   */\n      dup4\n        /* \"#utility.yul\":9336:9403   */\n      tag_295\n      jump\t// in\n    tag_446:\n        /* \"#utility.yul\":9329:9403   */\n      swap2\n      pop\n        /* \"#utility.yul\":9412:9505   */\n      tag_447\n        /* \"#utility.yul\":9501:9504   */\n      dup3\n        /* \"#utility.yul\":9412:9505   */\n      tag_320\n      jump\t// in\n    tag_447:\n        /* \"#utility.yul\":9530:9532   */\n      0x40\n        /* \"#utility.yul\":9525:9528   */\n      dup3\n        /* \"#utility.yul\":9521:9533   */\n      add\n        /* \"#utility.yul\":9514:9533   */\n      swap1\n      pop\n        /* \"#utility.yul\":9173:9539   */\n      swap2\n      swap1\n      pop\n      jump\t// out\n        /* \"#utility.yul\":9545:9964   */\n    tag_202:\n        /* \"#utility.yul\":9711:9715   */\n      0x00\n        /* \"#utility.yul\":9749:9751   */\n      0x20\n        /* \"#utility.yul\":9738:9747   */\n      dup3\n        /* \"#utility.yul\":9734:9752   */\n      add\n        /* \"#utility.yul\":9726:9752   */\n      swap1\n      pop\n        /* \"#utility.yul\":9798:9807   */\n      dup2\n        /* \"#utility.yul\":9792:9796   */\n      dup2\n        /* \"#utility.yul\":9788:9808   */\n      sub\n        /* \"#utility.yul\":9784:9785   */\n      0x00\n        /* \"#utility.yul\":9773:9782   */\n      dup4\n        /* \"#utility.yul\":9769:9786   */\n      add\n        /* \"#utility.yul\":9762:9809   */\n      mstore\n        /* \"#utility.yul\":9826:9957   */\n      tag_449\n        /* \"#utility.yul\":9952:9956   */\n      dup2\n        /* \"#utility.yul\":9826:9957   */\n      tag_321\n      jump\t// in\n    tag_449:\n        /* \"#utility.yul\":9818:9957   */\n      swap1\n      pop\n        /* \"#utility.yul\":9545:9964   */\n      swap2\n      swap1\n      pop\n      jump\t// out\n        /* \"#utility.yul\":9970:10260   */\n    tag_322:\n        /* \"#utility.yul\":10110:10144   */\n      0x53656c656374696f6e206f7574206f6620626f756e64732e20506c6561736520\n        /* \"#utility.yul\":10106:10107   */\n      0x00\n        /* \"#utility.yul\":10098:10104   */\n      dup3\n        /* \"#utility.yul\":10094:10108   */\n      add\n        /* \"#utility.yul\":10087:10145   */\n      mstore\n        /* \"#utility.yul\":10179:10213   */\n      0x73656c6563742077697468696e2074686520617070726f766564206f7074696f\n        /* \"#utility.yul\":10174:10176   */\n      0x20\n        /* \"#utility.yul\":10166:10172   */\n      dup3\n        /* \"#utility.yul\":10162:10177   */\n      add\n        /* \"#utility.yul\":10155:10214   */\n      mstore\n        /* \"#utility.yul\":10248:10252   */\n      0x6e73000000000000000000000000000000000000000000000000000000000000\n        /* \"#utility.yul\":10243:10245   */\n      0x40\n        /* \"#utility.yul\":10235:10241   */\n      dup3\n        /* \"#utility.yul\":10231:10246   */\n      add\n        /* \"#utility.yul\":10224:10253   */\n      mstore\n        /* \"#utility.yul\":9970:10260   */\n      pop\n      jump\t// out\n        /* \"#utility.yul\":10266:10632   */\n    tag_323:\n        /* \"#utility.yul\":10408:10411   */\n      0x00\n        /* \"#utility.yul\":10429:10496   */\n      tag_452\n        /* \"#utility.yul\":10493:10495   */\n      0x42\n        /* \"#utility.yul\":10488:10491   */\n      dup4\n        /* \"#utility.yul\":10429:10496   */\n      tag_295\n      jump\t// in\n    tag_452:\n        /* \"#utility.yul\":10422:10496   */\n      swap2\n      pop\n        /* \"#utility.yul\":10505:10598   */\n      tag_453\n        /* \"#utility.yul\":10594:10597   */\n      dup3\n        /* \"#utility.yul\":10505:10598   */\n      tag_322\n      jump\t// in\n    tag_453:\n        /* \"#utility.yul\":10623:10625   */\n      0x60\n        /* \"#utility.yul\":10618:10621   */\n      dup3\n        /* \"#utility.yul\":10614:10626   */\n      add\n        /* \"#utility.yul\":10607:10626   */\n      swap1\n      pop\n        /* \"#utility.yul\":10266:10632   */\n      swap2\n      swap1\n      pop\n      jump\t// out\n        /* \"#utility.yul\":10638:11057   */\n    tag_209:\n        /* \"#utility.yul\":10804:10808   */\n      0x00\n        /* \"#utility.yul\":10842:10844   */\n      0x20\n        /* \"#utility.yul\":10831:10840   */\n      dup3\n        /* \"#utility.yul\":10827:10845   */\n      add\n        /* \"#utility.yul\":10819:10845   */\n      swap1\n      pop\n        /* \"#utility.yul\":10891:10900   */\n      dup2\n        /* \"#utility.yul\":10885:10889   */\n      dup2\n        /* \"#utility.yul\":10881:10901   */\n      sub\n        /* \"#utility.yul\":10877:10878   */\n      0x00\n        /* \"#utility.yul\":10866:10875   */\n      dup4\n        /* \"#utility.yul\":10862:10879   */\n      add\n        /* \"#utility.yul\":10855:10902   */\n      mstore\n        /* \"#utility.yul\":10919:11050   */\n      tag_455\n        /* \"#utility.yul\":11045:11049   */\n      dup2\n        /* \"#utility.yul\":10919:11050   */\n      tag_323\n      jump\t// in\n    tag_455:\n        /* \"#utility.yul\":10911:11050   */\n      swap1\n      pop\n        /* \"#utility.yul\":10638:11057   */\n      swap2\n      swap1\n      pop\n      jump\t// out\n        /* \"#utility.yul\":11063:11288   */\n    tag_324:\n        /* \"#utility.yul\":11203:11237   */\n      0x4f776e61626c653a206e6577206f776e657220697320746865207a65726f2061\n        /* \"#utility.yul\":11199:11200   */\n      0x00\n        /* \"#utility.yul\":11191:11197   */\n      dup3\n        /* \"#utility.yul\":11187:11201   */\n      add\n        /* \"#utility.yul\":11180:11238   */\n      mstore\n        /* \"#utility.yul\":11272:11280   */\n      0x6464726573730000000000000000000000000000000000000000000000000000\n        /* \"#utility.yul\":11267:11269   */\n      0x20\n        /* \"#utility.yul\":11259:11265   */\n      dup3\n        /* \"#utility.yul\":11255:11270   */\n      add\n        /* \"#utility.yul\":11248:11281   */\n      mstore\n        /* \"#utility.yul\":11063:11288   */\n      pop\n      jump\t// out\n        /* \"#utility.yul\":11294:11660   */\n    tag_325:\n        /* \"#utility.yul\":11436:11439   */\n      0x00\n        /* \"#utility.yul\":11457:11524   */\n      tag_458\n        /* \"#utility.yul\":11521:11523   */\n      0x26\n        /* \"#utility.yul\":11516:11519   */\n      dup4\n        /* \"#utility.yul\":11457:11524   */\n      tag_295\n      jump\t// in\n    tag_458:\n        /* \"#utility.yul\":11450:11524   */\n      swap2\n      pop\n        /* \"#utility.yul\":11533:11626   */\n      tag_459\n        /* \"#utility.yul\":11622:11625   */\n      dup3\n        /* \"#utility.yul\":11533:11626   */\n      tag_324\n      jump\t// in\n    tag_459:\n        /* \"#utility.yul\":11651:11653   */\n      0x40\n        /* \"#utility.yul\":11646:11649   */\n      dup3\n        /* \"#utility.yul\":11642:11654   */\n      add\n        /* \"#utility.yul\":11635:11654   */\n      swap1\n      pop\n        /* \"#utility.yul\":11294:11660   */\n      swap2\n      swap1\n      pop\n      jump\t// out\n        /* \"#utility.yul\":11666:12085   */\n    tag_234:\n        /* \"#utility.yul\":11832:11836   */\n      0x00\n        /* \"#utility.yul\":11870:11872   */\n      0x20\n        /* \"#utility.yul\":11859:11868   */\n      dup3\n        /* \"#utility.yul\":11855:11873   */\n      add\n        /* \"#utility.yul\":11847:11873   */\n      swap1\n      pop\n        /* \"#utility.yul\":11919:11928   */\n      dup2\n        /* \"#utility.yul\":11913:11917   */\n      dup2\n        /* \"#utility.yul\":11909:11929   */\n      sub\n        /* \"#utility.yul\":11905:11906   */\n      0x00\n        /* \"#utility.yul\":11894:11903   */\n      dup4\n        /* \"#utility.yul\":11890:11907   */\n      add\n        /* \"#utility.yul\":11883:11930   */\n      mstore\n        /* \"#utility.yul\":11947:12078   */\n      tag_461\n        /* \"#utility.yul\":12073:12077   */\n      dup2\n        /* \"#utility.yul\":11947:12078   */\n      tag_325\n      jump\t// in\n    tag_461:\n        /* \"#utility.yul\":11939:12078   */\n      swap1\n      pop\n        /* \"#utility.yul\":11666:12085   */\n      swap2\n      swap1\n      pop\n      jump\t// out\n        /* \"#utility.yul\":12091:12314   */\n    tag_326:\n        /* \"#utility.yul\":12231:12265   */\n      0x45524332303a20617070726f76652066726f6d20746865207a65726f20616464\n        /* \"#utility.yul\":12227:12228   */\n      0x00\n        /* \"#utility.yul\":12219:12225   */\n      dup3\n        /* \"#utility.yul\":12215:12229   */\n      add\n        /* \"#utility.yul\":12208:12266   */\n      mstore\n        /* \"#utility.yul\":12300:12306   */\n      0x7265737300000000000000000000000000000000000000000000000000000000\n        /* \"#utility.yul\":12295:12297   */\n      0x20\n        /* \"#utility.yul\":12287:12293   */\n      dup3\n        /* \"#utility.yul\":12283:12298   */\n      add\n        /* \"#utility.yul\":12276:12307   */\n      mstore\n        /* \"#utility.yul\":12091:12314   */\n      pop\n      jump\t// out\n        /* \"#utility.yul\":12320:12686   */\n    tag_327:\n        /* \"#utility.yul\":12462:12465   */\n      0x00\n        /* \"#utility.yul\":12483:12550   */\n      tag_464\n        /* \"#utility.yul\":12547:12549   */\n      0x24\n        /* \"#utility.yul\":12542:12545   */\n      dup4\n        /* \"#utility.yul\":12483:12550   */\n      tag_295\n      jump\t// in\n    tag_464:\n        /* \"#utility.yul\":12476:12550   */\n      swap2\n      pop\n        /* \"#utility.yul\":12559:12652   */\n      tag_465\n        /* \"#utility.yul\":12648:12651   */\n      dup3\n        /* \"#utility.yul\":12559:12652   */\n      tag_326\n      jump\t// in\n    tag_465:\n        /* \"#utility.yul\":12677:12679   */\n      0x40\n        /* \"#utility.yul\":12672:12675   */\n      dup3\n        /* \"#utility.yul\":12668:12680   */\n      add\n        /* \"#utility.yul\":12661:12680   */\n      swap1\n      pop\n        /* \"#utility.yul\":12320:12686   */\n      swap2\n      swap1\n      pop\n      jump\t// out\n        /* \"#utility.yul\":12692:13111   */\n    tag_240:\n        /* \"#utility.yul\":12858:12862   */\n      0x00\n        /* \"#utility.yul\":12896:12898   */\n      0x20\n        /* \"#utility.yul\":12885:12894   */\n      dup3\n        /* \"#utility.yul\":12881:12899   */\n      add\n        /* \"#utility.yul\":12873:12899   */\n      swap1\n      pop\n        /* \"#utility.yul\":12945:12954   */\n      dup2\n        /* \"#utility.yul\":12939:12943   */\n      dup2\n        /* \"#utility.yul\":12935:12955   */\n      sub\n        /* \"#utility.yul\":12931:12932   */\n      0x00\n        /* \"#utility.yul\":12920:12929   */\n      dup4\n        /* \"#utility.yul\":12916:12933   */\n      add\n        /* \"#utility.yul\":12909:12956   */\n      mstore\n        /* \"#utility.yul\":12973:13104   */\n      tag_467\n        /* \"#utility.yul\":13099:13103   */\n      dup2\n        /* \"#utility.yul\":12973:13104   */\n      tag_327\n      jump\t// in\n    tag_467:\n        /* \"#utility.yul\":12965:13104   */\n      swap1\n      pop\n        /* \"#utility.yul\":12692:13111   */\n      swap2\n      swap1\n      pop\n      jump\t// out\n        /* \"#utility.yul\":13117:13338   */\n    tag_328:\n        /* \"#utility.yul\":13257:13291   */\n      0x45524332303a20617070726f766520746f20746865207a65726f206164647265\n        /* \"#utility.yul\":13253:13254   */\n      0x00\n        /* \"#utility.yul\":13245:13251   */\n      dup3\n        /* \"#utility.yul\":13241:13255   */\n      add\n        /* \"#utility.yul\":13234:13292   */\n      mstore\n        /* \"#utility.yul\":13326:13330   */\n      0x7373000000000000000000000000000000000000000000000000000000000000\n        /* \"#utility.yul\":13321:13323   */\n      0x20\n        /* \"#utility.yul\":13313:13319   */\n      dup3\n        /* \"#utility.yul\":13309:13324   */\n      add\n        /* \"#utility.yul\":13302:13331   */\n      mstore\n        /* \"#utility.yul\":13117:13338   */\n      pop\n      jump\t// out\n        /* \"#utility.yul\":13344:13710   */\n    tag_329:\n        /* \"#utility.yul\":13486:13489   */\n      0x00\n        /* \"#utility.yul\":13507:13574   */\n      tag_470\n        /* \"#utility.yul\":13571:13573   */\n      0x22\n        /* \"#utility.yul\":13566:13569   */\n      dup4\n        /* \"#utility.yul\":13507:13574   */\n      tag_295\n      jump\t// in\n    tag_470:\n        /* \"#utility.yul\":13500:13574   */\n      swap2\n      pop\n        /* \"#utility.yul\":13583:13676   */\n      tag_471\n        /* \"#utility.yul\":13672:13675   */\n      dup3\n        /* \"#utility.yul\":13583:13676   */\n      tag_328\n      jump\t// in\n    tag_471:\n        /* \"#utility.yul\":13701:13703   */\n      0x40\n        /* \"#utility.yul\":13696:13699   */\n      dup3\n        /* \"#utility.yul\":13692:13704   */\n      add\n        /* \"#utility.yul\":13685:13704   */\n      swap1\n      pop\n        /* \"#utility.yul\":13344:13710   */\n      swap2\n      swap1\n      pop\n      jump\t// out\n        /* \"#utility.yul\":13716:14135   */\n    tag_243:\n        /* \"#utility.yul\":13882:13886   */\n      0x00\n        /* \"#utility.yul\":13920:13922   */\n      0x20\n        /* \"#utility.yul\":13909:13918   */\n      dup3\n        /* \"#utility.yul\":13905:13923   */\n      add\n        /* \"#utility.yul\":13897:13923   */\n      swap1\n      pop\n        /* \"#utility.yul\":13969:13978   */\n      dup2\n        /* \"#utility.yul\":13963:13967   */\n      dup2\n        /* \"#utility.yul\":13959:13979   */\n      sub\n        /* \"#utility.yul\":13955:13956   */\n      0x00\n        /* \"#utility.yul\":13944:13953   */\n      dup4\n        /* \"#utility.yul\":13940:13957   */\n      add\n        /* \"#utility.yul\":13933:13980   */\n      mstore\n        /* \"#utility.yul\":13997:14128   */\n      tag_473\n        /* \"#utility.yul\":14123:14127   */\n      dup2\n        /* \"#utility.yul\":13997:14128   */\n      tag_329\n      jump\t// in\n    tag_473:\n        /* \"#utility.yul\":13989:14128   */\n      swap1\n      pop\n        /* \"#utility.yul\":13716:14135   */\n      swap2\n      swap1\n      pop\n      jump\t// out\n        /* \"#utility.yul\":14141:14320   */\n    tag_330:\n        /* \"#utility.yul\":14281:14312   */\n      0x45524332303a20696e73756666696369656e7420616c6c6f77616e6365000000\n        /* \"#utility.yul\":14277:14278   */\n      0x00\n        /* \"#utility.yul\":14269:14275   */\n      dup3\n        /* \"#utility.yul\":14265:14279   */\n      add\n        /* \"#utility.yul\":14258:14313   */\n      mstore\n        /* \"#utility.yul\":14141:14320   */\n      pop\n      jump\t// out\n        /* \"#utility.yul\":14326:14692   */\n    tag_331:\n        /* \"#utility.yul\":14468:14471   */\n      0x00\n        /* \"#utility.yul\":14489:14556   */\n      tag_476\n        /* \"#utility.yul\":14553:14555   */\n      0x1d\n        /* \"#utility.yul\":14548:14551   */\n      dup4\n        /* \"#utility.yul\":14489:14556   */\n      tag_295\n      jump\t// in\n    tag_476:\n        /* \"#utility.yul\":14482:14556   */\n      swap2\n      pop\n        /* \"#utility.yul\":14565:14658   */\n      tag_477\n        /* \"#utility.yul\":14654:14657   */\n      dup3\n        /* \"#utility.yul\":14565:14658   */\n      tag_330\n      jump\t// in\n    tag_477:\n        /* \"#utility.yul\":14683:14685   */\n      0x20\n        /* \"#utility.yul\":14678:14681   */\n      dup3\n        /* \"#utility.yul\":14674:14686   */\n      add\n        /* \"#utility.yul\":14667:14686   */\n      swap1\n      pop\n        /* \"#utility.yul\":14326:14692   */\n      swap2\n      swap1\n      pop\n      jump\t// out\n        /* \"#utility.yul\":14698:15117   */\n    tag_250:\n        /* \"#utility.yul\":14864:14868   */\n      0x00\n        /* \"#utility.yul\":14902:14904   */\n      0x20\n        /* \"#utility.yul\":14891:14900   */\n      dup3\n        /* \"#utility.yul\":14887:14905   */\n      add\n        /* \"#utility.yul\":14879:14905   */\n      swap1\n      pop\n        /* \"#utility.yul\":14951:14960   */\n      dup2\n        /* \"#utility.yul\":14945:14949   */\n      dup2\n        /* \"#utility.yul\":14941:14961   */\n      sub\n        /* \"#utility.yul\":14937:14938   */\n      0x00\n        /* \"#utility.yul\":14926:14935   */\n      dup4\n        /* \"#utility.yul\":14922:14939   */\n      add\n        /* \"#utility.yul\":14915:14962   */\n      mstore\n        /* \"#utility.yul\":14979:15110   */\n      tag_479\n        /* \"#utility.yul\":15105:15109   */\n      dup2\n        /* \"#utility.yul\":14979:15110   */\n      tag_331\n      jump\t// in\n    tag_479:\n        /* \"#utility.yul\":14971:15110   */\n      swap1\n      pop\n        /* \"#utility.yul\":14698:15117   */\n      swap2\n      swap1\n      pop\n      jump\t// out\n        /* \"#utility.yul\":15123:15347   */\n    tag_332:\n        /* \"#utility.yul\":15263:15297   */\n      0x45524332303a207472616e736665722066726f6d20746865207a65726f206164\n        /* \"#utility.yul\":15259:15260   */\n      0x00\n        /* \"#utility.yul\":15251:15257   */\n      dup3\n        /* \"#utility.yul\":15247:15261   */\n      add\n        /* \"#utility.yul\":15240:15298   */\n      mstore\n        /* \"#utility.yul\":15332:15339   */\n      0x6472657373000000000000000000000000000000000000000000000000000000\n        /* \"#utility.yul\":15327:15329   */\n      0x20\n        /* \"#utility.yul\":15319:15325   */\n      dup3\n        /* \"#utility.yul\":15315:15330   */\n      add\n        /* \"#utility.yul\":15308:15340   */\n      mstore\n        /* \"#utility.yul\":15123:15347   */\n      pop\n      jump\t// out\n        /* \"#utility.yul\":15353:15719   */\n    tag_333:\n        /* \"#utility.yul\":15495:15498   */\n      0x00\n        /* \"#utility.yul\":15516:15583   */\n      tag_482\n        /* \"#utility.yul\":15580:15582   */\n      0x25\n        /* \"#utility.yul\":15575:15578   */\n      dup4\n        /* \"#utility.yul\":15516:15583   */\n      tag_295\n      jump\t// in\n    tag_482:\n        /* \"#utility.yul\":15509:15583   */\n      swap2\n      pop\n        /* \"#utility.yul\":15592:15685   */\n      tag_483\n        /* \"#utility.yul\":15681:15684   */\n      dup3\n        /* \"#utility.yul\":15592:15685   */\n      tag_332\n      jump\t// in\n    tag_483:\n        /* \"#utility.yul\":15710:15712   */\n      0x40\n        /* \"#utility.yul\":15705:15708   */\n      dup3\n        /* \"#utility.yul\":15701:15713   */\n      add\n        /* \"#utility.yul\":15694:15713   */\n      swap1\n      pop\n        /* \"#utility.yul\":15353:15719   */\n      swap2\n      swap1\n      pop\n      jump\t// out\n        /* \"#utility.yul\":15725:16144   */\n    tag_255:\n        /* \"#utility.yul\":15891:15895   */\n      0x00\n        /* \"#utility.yul\":15929:15931   */\n      0x20\n        /* \"#utility.yul\":15918:15927   */\n      dup3\n        /* \"#utility.yul\":15914:15932   */\n      add\n        /* \"#utility.yul\":15906:15932   */\n      swap1\n      pop\n        /* \"#utility.yul\":15978:15987   */\n      dup2\n        /* \"#utility.yul\":15972:15976   */\n      dup2\n        /* \"#utility.yul\":15968:15988   */\n      sub\n        /* \"#utility.yul\":15964:15965   */\n      0x00\n        /* \"#utility.yul\":15953:15962   */\n      dup4\n        /* \"#utility.yul\":15949:15966   */\n      add\n        /* \"#utility.yul\":15942:15989   */\n      mstore\n        /* \"#utility.yul\":16006:16137   */\n      tag_485\n        /* \"#utility.yul\":16132:16136   */\n      dup2\n        /* \"#utility.yul\":16006:16137   */\n      tag_333\n      jump\t// in\n    tag_485:\n        /* \"#utility.yul\":15998:16137   */\n      swap1\n      pop\n        /* \"#utility.yul\":15725:16144   */\n      swap2\n      swap1\n      pop\n      jump\t// out\n        /* \"#utility.yul\":16150:16372   */\n    tag_334:\n        /* \"#utility.yul\":16290:16324   */\n      0x45524332303a207472616e7366657220746f20746865207a65726f2061646472\n        /* \"#utility.yul\":16286:16287   */\n      0x00\n        /* \"#utility.yul\":16278:16284   */\n      dup3\n        /* \"#utility.yul\":16274:16288   */\n      add\n        /* \"#utility.yul\":16267:16325   */\n      mstore\n        /* \"#utility.yul\":16359:16364   */\n      0x6573730000000000000000000000000000000000000000000000000000000000\n        /* \"#utility.yul\":16354:16356   */\n      0x20\n        /* \"#utility.yul\":16346:16352   */\n      dup3\n        /* \"#utility.yul\":16342:16357   */\n      add\n        /* \"#utility.yul\":16335:16365   */\n      mstore\n        /* \"#utility.yul\":16150:16372   */\n      pop\n      jump\t// out\n        /* \"#utility.yul\":16378:16744   */\n    tag_335:\n        /* \"#utility.yul\":16520:16523   */\n      0x00\n        /* \"#utility.yul\":16541:16608   */\n      tag_488\n        /* \"#utility.yul\":16605:16607   */\n      0x23\n        /* \"#utility.yul\":16600:16603   */\n      dup4\n        /* \"#utility.yul\":16541:16608   */\n      tag_295\n      jump\t// in\n    tag_488:\n        /* \"#utility.yul\":16534:16608   */\n      swap2\n      pop\n        /* \"#utility.yul\":16617:16710   */\n      tag_489\n        /* \"#utility.yul\":16706:16709   */\n      dup3\n        /* \"#utility.yul\":16617:16710   */\n      tag_334\n      jump\t// in\n    tag_489:\n        /* \"#utility.yul\":16735:16737   */\n      0x40\n        /* \"#utility.yul\":16730:16733   */\n      dup3\n        /* \"#utility.yul\":16726:16738   */\n      add\n        /* \"#utility.yul\":16719:16738   */\n      swap1\n      pop\n        /* \"#utility.yul\":16378:16744   */\n      swap2\n      swap1\n      pop\n      jump\t// out\n        /* \"#utility.yul\":16750:17169   */\n    tag_258:\n        /* \"#utility.yul\":16916:16920   */\n      0x00\n        /* \"#utility.yul\":16954:16956   */\n      0x20\n        /* \"#utility.yul\":16943:16952   */\n      dup3\n        /* \"#utility.yul\":16939:16957   */\n      add\n        /* \"#utility.yul\":16931:16957   */\n      swap1\n      pop\n        /* \"#utility.yul\":17003:17012   */\n      dup2\n        /* \"#utility.yul\":16997:17001   */\n      dup2\n        /* \"#utility.yul\":16993:17013   */\n      sub\n        /* \"#utility.yul\":16989:16990   */\n      0x00\n        /* \"#utility.yul\":16978:16987   */\n      dup4\n        /* \"#utility.yul\":16974:16991   */\n      add\n        /* \"#utility.yul\":16967:17014   */\n      mstore\n        /* \"#utility.yul\":17031:17162   */\n      tag_491\n        /* \"#utility.yul\":17157:17161   */\n      dup2\n        /* \"#utility.yul\":17031:17162   */\n      tag_335\n      jump\t// in\n    tag_491:\n        /* \"#utility.yul\":17023:17162   */\n      swap1\n      pop\n        /* \"#utility.yul\":16750:17169   */\n      swap2\n      swap1\n      pop\n      jump\t// out\n        /* \"#utility.yul\":17175:17400   */\n    tag_336:\n        /* \"#utility.yul\":17315:17349   */\n      0x45524332303a207472616e7366657220616d6f756e7420657863656564732062\n        /* \"#utility.yul\":17311:17312   */\n      0x00\n        /* \"#utility.yul\":17303:17309   */\n      dup3\n        /* \"#utility.yul\":17299:17313   */\n      add\n        /* \"#utility.yul\":17292:17350   */\n      mstore\n        /* \"#utility.yul\":17384:17392   */\n      0x616c616e63650000000000000000000000000000000000000000000000000000\n        /* \"#utility.yul\":17379:17381   */\n      0x20\n        /* \"#utility.yul\":17371:17377   */\n      dup3\n        /* \"#utility.yul\":17367:17382   */\n      add\n        /* \"#utility.yul\":17360:17393   */\n      mstore\n        /* \"#utility.yul\":17175:17400   */\n      pop\n      jump\t// out\n        /* \"#utility.yul\":17406:17772   */\n    tag_337:\n        /* \"#utility.yul\":17548:17551   */\n      0x00\n        /* \"#utility.yul\":17569:17636   */\n      tag_494\n        /* \"#utility.yul\":17633:17635   */\n      0x26\n        /* \"#utility.yul\":17628:17631   */\n      dup4\n        /* \"#utility.yul\":17569:17636   */\n      tag_295\n      jump\t// in\n    tag_494:\n        /* \"#utility.yul\":17562:17636   */\n      swap2\n      pop\n        /* \"#utility.yul\":17645:17738   */\n      tag_495\n        /* \"#utility.yul\":17734:17737   */\n      dup3\n        /* \"#utility.yul\":17645:17738   */\n      tag_336\n      jump\t// in\n    tag_495:\n        /* \"#utility.yul\":17763:17765   */\n      0x40\n        /* \"#utility.yul\":17758:17761   */\n      dup3\n        /* \"#utility.yul\":17754:17766   */\n      add\n        /* \"#utility.yul\":17747:17766   */\n      swap1\n      pop\n        /* \"#utility.yul\":17406:17772   */\n      swap2\n      swap1\n      pop\n      jump\t// out\n        /* \"#utility.yul\":17778:18197   */\n    tag_263:\n        /* \"#utility.yul\":17944:17948   */\n      0x00\n        /* \"#utility.yul\":17982:17984   */\n      0x20\n        /* \"#utility.yul\":17971:17980   */\n      dup3\n        /* \"#utility.yul\":17967:17985   */\n      add\n        /* \"#utility.yul\":17959:17985   */\n      swap1\n      pop\n        /* \"#utility.yul\":18031:18040   */\n      dup2\n        /* \"#utility.yul\":18025:18029   */\n      dup2\n        /* \"#utility.yul\":18021:18041   */\n      sub\n        /* \"#utility.yul\":18017:18018   */\n      0x00\n        /* \"#utility.yul\":18006:18015   */\n      dup4\n        /* \"#utility.yul\":18002:18019   */\n      add\n        /* \"#utility.yul\":17995:18042   */\n      mstore\n        /* \"#utility.yul\":18059:18190   */\n      tag_497\n        /* \"#utility.yul\":18185:18189   */\n      dup2\n        /* \"#utility.yul\":18059:18190   */\n      tag_337\n      jump\t// in\n    tag_497:\n        /* \"#utility.yul\":18051:18190   */\n      swap1\n      pop\n        /* \"#utility.yul\":17778:18197   */\n      swap2\n      swap1\n      pop\n      jump\t// out\n        /* \"#utility.yul\":18203:18385   */\n    tag_338:\n        /* \"#utility.yul\":18343:18377   */\n      0x4f776e61626c653a2063616c6c6572206973206e6f7420746865206f776e6572\n        /* \"#utility.yul\":18339:18340   */\n      0x00\n        /* \"#utility.yul\":18331:18337   */\n      dup3\n        /* \"#utility.yul\":18327:18341   */\n      add\n        /* \"#utility.yul\":18320:18378   */\n      mstore\n        /* \"#utility.yul\":18203:18385   */\n      pop\n      jump\t// out\n        /* \"#utility.yul\":18391:18757   */\n    tag_339:\n        /* \"#utility.yul\":18533:18536   */\n      0x00\n        /* \"#utility.yul\":18554:18621   */\n      tag_500\n        /* \"#utility.yul\":18618:18620   */\n      0x20\n        /* \"#utility.yul\":18613:18616   */\n      dup4\n        /* \"#utility.yul\":18554:18621   */\n      tag_295\n      jump\t// in\n    tag_500:\n        /* \"#utility.yul\":18547:18621   */\n      swap2\n      pop\n        /* \"#utility.yul\":18630:18723   */\n      tag_501\n        /* \"#utility.yul\":18719:18722   */\n      dup3\n        /* \"#utility.yul\":18630:18723   */\n      tag_338\n      jump\t// in\n    tag_501:\n        /* \"#utility.yul\":18748:18750   */\n      0x20\n        /* \"#utility.yul\":18743:18746   */\n      dup3\n        /* \"#utility.yul\":18739:18751   */\n      add\n        /* \"#utility.yul\":18732:18751   */\n      swap1\n      pop\n        /* \"#utility.yul\":18391:18757   */\n      swap2\n      swap1\n      pop\n      jump\t// out\n        /* \"#utility.yul\":18763:19182   */\n    tag_272:\n        /* \"#utility.yul\":18929:18933   */\n      0x00\n        /* \"#utility.yul\":18967:18969   */\n      0x20\n        /* \"#utility.yul\":18956:18965   */\n      dup3\n        /* \"#utility.yul\":18952:18970   */\n      add\n        /* \"#utility.yul\":18944:18970   */\n      swap1\n      pop\n        /* \"#utility.yul\":19016:19025   */\n      dup2\n        /* \"#utility.yul\":19010:19014   */\n      dup2\n        /* \"#utility.yul\":19006:19026   */\n      sub\n        /* \"#utility.yul\":19002:19003   */\n      0x00\n        /* \"#utility.yul\":18991:19000   */\n      dup4\n        /* \"#utility.yul\":18987:19004   */\n      add\n        /* \"#utility.yul\":18980:19027   */\n      mstore\n        /* \"#utility.yul\":19044:19175   */\n      tag_503\n        /* \"#utility.yul\":19170:19174   */\n      dup2\n        /* \"#utility.yul\":19044:19175   */\n      tag_339\n      jump\t// in\n    tag_503:\n        /* \"#utility.yul\":19036:19175   */\n      swap1\n      pop\n        /* \"#utility.yul\":18763:19182   */\n      swap2\n      swap1\n      pop\n      jump\t// out\n        /* \"#utility.yul\":19188:19369   */\n    tag_340:\n        /* \"#utility.yul\":19328:19361   */\n      0x45524332303a206d696e7420746f20746865207a65726f206164647265737300\n        /* \"#utility.yul\":19324:19325   */\n      0x00\n        /* \"#utility.yul\":19316:19322   */\n      dup3\n        /* \"#utility.yul\":19312:19326   */\n      add\n        /* \"#utility.yul\":19305:19362   */\n      mstore\n        /* \"#utility.yul\":19188:19369   */\n      pop\n      jump\t// out\n        /* \"#utility.yul\":19375:19741   */\n    tag_341:\n        /* \"#utility.yul\":19517:19520   */\n      0x00\n        /* \"#utility.yul\":19538:19605   */\n      tag_506\n        /* \"#utility.yul\":19602:19604   */\n      0x1f\n        /* \"#utility.yul\":19597:19600   */\n      dup4\n        /* \"#utility.yul\":19538:19605   */\n      tag_295\n      jump\t// in\n    tag_506:\n        /* \"#utility.yul\":19531:19605   */\n      swap2\n      pop\n        /* \"#utility.yul\":19614:19707   */\n      tag_507\n        /* \"#utility.yul\":19703:19706   */\n      dup3\n        /* \"#utility.yul\":19614:19707   */\n      tag_340\n      jump\t// in\n    tag_507:\n        /* \"#utility.yul\":19732:19734   */\n      0x20\n        /* \"#utility.yul\":19727:19730   */\n      dup3\n        /* \"#utility.yul\":19723:19735   */\n      add\n        /* \"#utility.yul\":19716:19735   */\n      swap1\n      pop\n        /* \"#utility.yul\":19375:19741   */\n      swap2\n      swap1\n      pop\n      jump\t// out\n        /* \"#utility.yul\":19747:20166   */\n    tag_276:\n        /* \"#utility.yul\":19913:19917   */\n      0x00\n        /* \"#utility.yul\":19951:19953   */\n      0x20\n        /* \"#utility.yul\":19940:19949   */\n      dup3\n        /* \"#utility.yul\":19936:19954   */\n      add\n        /* \"#utility.yul\":19928:19954   */\n      swap1\n      pop\n        /* \"#utility.yul\":20000:20009   */\n      dup2\n        /* \"#utility.yul\":19994:19998   */\n      dup2\n        /* \"#utility.yul\":19990:20010   */\n      sub\n        /* \"#utility.yul\":19986:19987   */\n      0x00\n        /* \"#utility.yul\":19975:19984   */\n      dup4\n        /* \"#utility.yul\":19971:19988   */\n      add\n        /* \"#utility.yul\":19964:20011   */\n      mstore\n        /* \"#utility.yul\":20028:20159   */\n      tag_509\n        /* \"#utility.yul\":20154:20158   */\n      dup2\n        /* \"#utility.yul\":20028:20159   */\n      tag_341\n      jump\t// in\n    tag_509:\n        /* \"#utility.yul\":20020:20159   */\n      swap1\n      pop\n        /* \"#utility.yul\":19747:20166   */\n      swap2\n      swap1\n      pop\n      jump\t// out\n        /* \"#utility.yul\":20172:20392   */\n    tag_342:\n        /* \"#utility.yul\":20312:20346   */\n      0x45524332303a206275726e2066726f6d20746865207a65726f20616464726573\n        /* \"#utility.yul\":20308:20309   */\n      0x00\n        /* \"#utility.yul\":20300:20306   */\n      dup3\n        /* \"#utility.yul\":20296:20310   */\n      add\n        /* \"#utility.yul\":20289:20347   */\n      mstore\n        /* \"#utility.yul\":20381:20384   */\n      0x7300000000000000000000000000000000000000000000000000000000000000\n        /* \"#utility.yul\":20376:20378   */\n      0x20\n        /* \"#utility.yul\":20368:20374   */\n      dup3\n        /* \"#utility.yul\":20364:20379   */\n      add\n        /* \"#utility.yul\":20357:20385   */\n      mstore\n        /* \"#utility.yul\":20172:20392   */\n      pop\n      jump\t// out\n        /* \"#utility.yul\":20398:20764   */\n    tag_343:\n        /* \"#utility.yul\":20540:20543   */\n      0x00\n        /* \"#utility.yul\":20561:20628   */\n      tag_512\n        /* \"#utility.yul\":20625:20627   */\n      0x21\n        /* \"#utility.yul\":20620:20623   */\n      dup4\n        /* \"#utility.yul\":20561:20628   */\n      tag_295\n      jump\t// in\n    tag_512:\n        /* \"#utility.yul\":20554:20628   */\n      swap2\n      pop\n        /* \"#utility.yul\":20637:20730   */\n      tag_513\n        /* \"#utility.yul\":20726:20729   */\n      dup3\n        /* \"#utility.yul\":20637:20730   */\n      tag_342\n      jump\t// in\n    tag_513:\n        /* \"#utility.yul\":20755:20757   */\n      0x40\n        /* \"#utility.yul\":20750:20753   */\n      dup3\n        /* \"#utility.yul\":20746:20758   */\n      add\n        /* \"#utility.yul\":20739:20758   */\n      swap1\n      pop\n        /* \"#utility.yul\":20398:20764   */\n      swap2\n      swap1\n      pop\n      jump\t// out\n        /* \"#utility.yul\":20770:21189   */\n    tag_284:\n        /* \"#utility.yul\":20936:20940   */\n      0x00\n        /* \"#utility.yul\":20974:20976   */\n      0x20\n        /* \"#utility.yul\":20963:20972   */\n      dup3\n        /* \"#utility.yul\":20959:20977   */\n      add\n        /* \"#utility.yul\":20951:20977   */\n      swap1\n      pop\n        /* \"#utility.yul\":21023:21032   */\n      dup2\n        /* \"#utility.yul\":21017:21021   */\n      dup2\n        /* \"#utility.yul\":21013:21033   */\n      sub\n        /* \"#utility.yul\":21009:21010   */\n      0x00\n        /* \"#utility.yul\":20998:21007   */\n      dup4\n        /* \"#utility.yul\":20994:21011   */\n      add\n        /* \"#utility.yul\":20987:21034   */\n      mstore\n        /* \"#utility.yul\":21051:21182   */\n      tag_515\n        /* \"#utility.yul\":21177:21181   */\n      dup2\n        /* \"#utility.yul\":21051:21182   */\n      tag_343\n      jump\t// in\n    tag_515:\n        /* \"#utility.yul\":21043:21182   */\n      swap1\n      pop\n        /* \"#utility.yul\":20770:21189   */\n      swap2\n      swap1\n      pop\n      jump\t// out\n        /* \"#utility.yul\":21195:21416   */\n    tag_344:\n        /* \"#utility.yul\":21335:21369   */\n      0x45524332303a206275726e20616d6f756e7420657863656564732062616c616e\n        /* \"#utility.yul\":21331:21332   */\n      0x00\n        /* \"#utility.yul\":21323:21329   */\n      dup3\n        /* \"#utility.yul\":21319:21333   */\n      add\n        /* \"#utility.yul\":21312:21370   */\n      mstore\n        /* \"#utility.yul\":21404:21408   */\n      0x6365000000000000000000000000000000000000000000000000000000000000\n        /* \"#utility.yul\":21399:21401   */\n      0x20\n        /* \"#utility.yul\":21391:21397   */\n      dup3\n        /* \"#utility.yul\":21387:21402   */\n      add\n        /* \"#utility.yul\":21380:21409   */\n      mstore\n        /* \"#utility.yul\":21195:21416   */\n      pop\n      jump\t// out\n        /* \"#utility.yul\":21422:21788   */\n    tag_345:\n        /* \"#utility.yul\":21564:21567   */\n      0x00\n        /* \"#utility.yul\":21585:21652   */\n      tag_518\n        /* \"#utility.yul\":21649:21651   */\n      0x22\n        /* \"#utility.yul\":21644:21647   */\n      dup4\n        /* \"#utility.yul\":21585:21652   */\n      tag_295\n      jump\t// in\n    tag_518:\n        /* \"#utility.yul\":21578:21652   */\n      swap2\n      pop\n        /* \"#utility.yul\":21661:21754   */\n      tag_519\n        /* \"#utility.yul\":21750:21753   */\n      dup3\n        /* \"#utility.yul\":21661:21754   */\n      tag_344\n      jump\t// in\n    tag_519:\n        /* \"#utility.yul\":21779:21781   */\n      0x40\n        /* \"#utility.yul\":21774:21777   */\n      dup3\n        /* \"#utility.yul\":21770:21782   */\n      add\n        /* \"#utility.yul\":21763:21782   */\n      swap1\n      pop\n        /* \"#utility.yul\":21422:21788   */\n      swap2\n      swap1\n      pop\n      jump\t// out\n        /* \"#utility.yul\":21794:22213   */\n    tag_288:\n        /* \"#utility.yul\":21960:21964   */\n      0x00\n        /* \"#utility.yul\":21998:22000   */\n      0x20\n        /* \"#utility.yul\":21987:21996   */\n      dup3\n        /* \"#utility.yul\":21983:22001   */\n      add\n        /* \"#utility.yul\":21975:22001   */\n      swap1\n      pop\n        /* \"#utility.yul\":22047:22056   */\n      dup2\n        /* \"#utility.yul\":22041:22045   */\n      dup2\n        /* \"#utility.yul\":22037:22057   */\n      sub\n        /* \"#utility.yul\":22033:22034   */\n      0x00\n        /* \"#utility.yul\":22022:22031   */\n      dup4\n        /* \"#utility.yul\":22018:22035   */\n      add\n        /* \"#utility.yul\":22011:22058   */\n      mstore\n        /* \"#utility.yul\":22075:22206   */\n      tag_521\n        /* \"#utility.yul\":22201:22205   */\n      dup2\n        /* \"#utility.yul\":22075:22206   */\n      tag_345\n      jump\t// in\n    tag_521:\n        /* \"#utility.yul\":22067:22206   */\n      swap1\n      pop\n        /* \"#utility.yul\":21794:22213   */\n      swap2\n      swap1\n      pop\n      jump\t// out\n    stop\n    data_f1d326546201e743ef8317bdbbc1f0e72bcbd05fa2c8856d9bd72e8c6d1dc583 4f7074696f6e20313a204d61646f6e61204e4654200a204f7074696f6e20323a204d69726163756c6f7573204d6564616c200a204f7074696f6e20333a20506f727472616974206f662048696c6465722042616369\n\n    auxdata: 0xa26469706673582212209b6700b2affa0fa2bcf18986a57f272219aebf7a80af39131b5010dad8dc776964736f6c63430008090033\n}\n",
				"bytecode": {
					"linkReferences": {},
					"object": "60806040523480156200001157600080fd5b506040518060400160405280600581526020017f446567656e0000000000000000000000000000000000000000000000000000008152506040518060400160405280600381526020017f44474e0000000000000000000000000000000000000000000000000000000000815250816003908051906020019062000096929190620001a6565b508060049080519060200190620000af929190620001a6565b505050620000d2620000c6620000d860201b60201c565b620000e060201b60201c565b620002bb565b600033905090565b6000600560009054906101000a900473ffffffffffffffffffffffffffffffffffffffff16905081600560006101000a81548173ffffffffffffffffffffffffffffffffffffffff021916908373ffffffffffffffffffffffffffffffffffffffff1602179055508173ffffffffffffffffffffffffffffffffffffffff168173ffffffffffffffffffffffffffffffffffffffff167f8be0079c531659141344cd1fd0a4f28419497f9722a3daafe3b4186f6b6457e060405160405180910390a35050565b828054620001b49062000285565b90600052602060002090601f016020900481019282620001d8576000855562000224565b82601f10620001f357805160ff191683800117855562000224565b8280016001018555821562000224579182015b828111156200022357825182559160200191906001019062000206565b5b50905062000233919062000237565b5090565b5b808211156200025257600081600090555060010162000238565b5090565b7f4e487b7100000000000000000000000000000000000000000000000000000000600052602260045260246000fd5b600060028204905060018216806200029e57607f821691505b60208210811415620002b557620002b462000256565b5b50919050565b6121cc80620002cb6000396000f3fe6080604052600436106101355760003560e01c806370a08231116100ab578063a457c2d71161006f578063a457c2d714610409578063a6e158f814610446578063a9059cbb14610462578063bec3fa171461049f578063dd62ed3e146104c8578063f2fde38b1461050557610135565b806370a0823114610336578063715018a61461037357806379cc67901461038a5780638da5cb5b146103b357806395d89b41146103de57610135565b806323b872dd116100fd57806323b872dd14610223578063313ce56714610260578063395093511461028b57806340c10f19146102c857806342966c68146102f15780636d1b229d1461031a57610135565b806306fdde031461013a578063095ea7b31461016557806312065fe0146101a2578063178fb088146101cd57806318160ddd146101f8575b600080fd5b34801561014657600080fd5b5061014f61052e565b60405161015c91906115c0565b60405180910390f35b34801561017157600080fd5b5061018c6004803603810190610187919061167b565b6105c0565b60405161019991906116d6565b60405180910390f35b3480156101ae57600080fd5b506101b76105e3565b6040516101c49190611700565b60405180910390f35b3480156101d957600080fd5b506101e2610673565b6040516101ef91906115c0565b60405180910390f35b34801561020457600080fd5b5061020d610693565b60405161021a9190611700565b60405180910390f35b34801561022f57600080fd5b5061024a6004803603810190610245919061171b565b61069d565b60405161025791906116d6565b60405180910390f35b34801561026c57600080fd5b506102756106cc565b604051610282919061178a565b60405180910390f35b34801561029757600080fd5b506102b260048036038101906102ad919061167b565b6106d1565b6040516102bf91906116d6565b60405180910390f35b3480156102d457600080fd5b506102ef60048036038101906102ea919061167b565b610708565b005b3480156102fd57600080fd5b50610318600480360381019061031391906117a5565b61071e565b005b610334600480360381019061032f91906117a5565b610732565b005b34801561034257600080fd5b5061035d600480360381019061035891906117d2565b610795565b60405161036a9190611700565b60405180910390f35b34801561037f57600080fd5b506103886107dd565b005b34801561039657600080fd5b506103b160048036038101906103ac919061167b565b6107f1565b005b3480156103bf57600080fd5b506103c8610811565b6040516103d5919061180e565b60405180910390f35b3480156103ea57600080fd5b506103f361083b565b60405161040091906115c0565b60405180910390f35b34801561041557600080fd5b50610430600480360381019061042b919061167b565b6108cd565b60405161043d91906116d6565b60405180910390f35b610460600480360381019061045b91906117a5565b610944565b005b34801561046e57600080fd5b506104896004803603810190610484919061167b565b610a49565b60405161049691906116d6565b60405180910390f35b3480156104ab57600080fd5b506104c660048036038101906104c1919061167b565b610a6c565b005b3480156104d457600080fd5b506104ef60048036038101906104ea9190611829565b610ad2565b6040516104fc9190611700565b60405180910390f35b34801561051157600080fd5b5061052c600480360381019061052791906117d2565b610b59565b005b60606003805461053d90611898565b80601f016020809104026020016040519081016040528092919081815260200182805461056990611898565b80156105b65780601f1061058b576101008083540402835291602001916105b6565b820191906000526020600020905b81548152906001019060200180831161059957829003601f168201915b5050505050905090565b6000806105cb610bdd565b90506105d8818585610be5565b600191505092915050565b60003073ffffffffffffffffffffffffffffffffffffffff166370a08231336040518263ffffffff1660e01b815260040161061e919061180e565b60206040518083038186803b15801561063657600080fd5b505afa15801561064a573d6000803e3d6000fd5b505050506040513d601f19601f8201168201806040525081019061066e91906118df565b905090565b606060405180608001604052806055815260200161214260559139905090565b6000600254905090565b6000806106a8610bdd565b90506106b5858285610db0565b6106c0858585610e3c565b60019150509392505050565b600090565b6000806106dc610bdd565b90506106fd8185856106ee8589610ad2565b6106f8919061193b565b610be5565b600191505092915050565b6107106110b4565b61071a8282611132565b5050565b61072f610729610bdd565b82611289565b50565b8061073c33610795565b101561077d576040517f08c379a000000000000000000000000000000000000000000000000000000000815260040161077490611a03565b60405180910390fd5b61078733826105c0565b5061079233826107f1565b50565b60008060008373ffffffffffffffffffffffffffffffffffffffff1673ffffffffffffffffffffffffffffffffffffffff168152602001908152602001600020549050919050565b6107e56110b4565b6107ef6000611457565b565b610803826107fd610bdd565b83610db0565b61080d8282611289565b5050565b6000600560009054906101000a900473ffffffffffffffffffffffffffffffffffffffff16905090565b60606004805461084a90611898565b80601f016020809104026020016040519081016040528092919081815260200182805461087690611898565b80156108c35780601f10610898576101008083540402835291602001916108c3565b820191906000526020600020905b8154815290600101906020018083116108a657829003601f168201915b5050505050905090565b6000806108d8610bdd565b905060006108e68286610ad2565b90508381101561092b576040517f08c379a000000000000000000000000000000000000000000000000000000000815260040161092290611a95565b60405180910390fd5b6109388286868403610be5565b60019250505092915050565b60018114806109535750600281145b8061095e5750600381145b61099d576040517f08c379a000000000000000000000000000000000000000000000000000000000815260040161099490611b4d565b60405180910390fd5b600060018214156109b157603290506109c9565b60028214156109c357602890506109c8565b601e90505b5b60007370997970c51812dc3a010c7d01b50e0d17dc79c89050816109ec33610795565b1015610a2d576040517f08c379a0000000000000000000000000000000000000000000000000000000008152600401610a2490611a03565b60405180910390fd5b610a3733836105c0565b50610a4333828461069d565b50505050565b600080610a54610bdd565b9050610a61818585610e3c565b600191505092915050565b80610a7633610795565b1015610ab7576040517f08c379a0000000000000000000000000000000000000000000000000000000008152600401610aae90611a03565b60405180910390fd5b610ac133826105c0565b50610acd33838361069d565b505050565b6000600160008473ffffffffffffffffffffffffffffffffffffffff1673ffffffffffffffffffffffffffffffffffffffff16815260200190815260200160002060008373ffffffffffffffffffffffffffffffffffffffff1673ffffffffffffffffffffffffffffffffffffffff16815260200190815260200160002054905092915050565b610b616110b4565b600073ffffffffffffffffffffffffffffffffffffffff168173ffffffffffffffffffffffffffffffffffffffff161415610bd1576040517f08c379a0000000000000000000000000000000000000000000000000000000008152600401610bc890611bdf565b60405180910390fd5b610bda81611457565b50565b600033905090565b600073ffffffffffffffffffffffffffffffffffffffff168373ffffffffffffffffffffffffffffffffffffffff161415610c55576040517f08c379a0000000000000000000000000000000000000000000000000000000008152600401610c4c90611c71565b60405180910390fd5b600073ffffffffffffffffffffffffffffffffffffffff168273ffffffffffffffffffffffffffffffffffffffff161415610cc5576040517f08c379a0000000000000000000000000000000000000000000000000000000008152600401610cbc90611d03565b60405180910390fd5b80600160008573ffffffffffffffffffffffffffffffffffffffff1673ffffffffffffffffffffffffffffffffffffffff16815260200190815260200160002060008473ffffffffffffffffffffffffffffffffffffffff1673ffffffffffffffffffffffffffffffffffffffff168152602001908152602001600020819055508173ffffffffffffffffffffffffffffffffffffffff168373ffffffffffffffffffffffffffffffffffffffff167f8c5be1e5ebec7d5bd14f71427d1e84f3dd0314c0f7b2291e5b200ac8c7c3b92583604051610da39190611700565b60405180910390a3505050565b6000610dbc8484610ad2565b90507fffffffffffffffffffffffffffffffffffffffffffffffffffffffffffffffff8114610e365781811015610e28576040517f08c379a0000000000000000000000000000000000000000000000000000000008152600401610e1f90611d6f565b60405180910390fd5b610e358484848403610be5565b5b50505050565b600073ffffffffffffffffffffffffffffffffffffffff168373ffffffffffffffffffffffffffffffffffffffff161415610eac576040517f08c379a0000000000000000000000000000000000000000000000000000000008152600401610ea390611e01565b60405180910390fd5b600073ffffffffffffffffffffffffffffffffffffffff168273ffffffffffffffffffffffffffffffffffffffff161415610f1c576040517f08c379a0000000000000000000000000000000000000000000000000000000008152600401610f1390611e93565b60405180910390fd5b610f2783838361151d565b60008060008573ffffffffffffffffffffffffffffffffffffffff1673ffffffffffffffffffffffffffffffffffffffff16815260200190815260200160002054905081811015610fad576040517f08c379a0000000000000000000000000000000000000000000000000000000008152600401610fa490611f25565b60405180910390fd5b8181036000808673ffffffffffffffffffffffffffffffffffffffff1673ffffffffffffffffffffffffffffffffffffffff16815260200190815260200160002081905550816000808573ffffffffffffffffffffffffffffffffffffffff1673ffffffffffffffffffffffffffffffffffffffff168152602001908152602001600020600082825401925050819055508273ffffffffffffffffffffffffffffffffffffffff168473ffffffffffffffffffffffffffffffffffffffff167fddf252ad1be2c89b69c2b068fc378daa952ba7f163c4a11628f55a4df523b3ef8460405161109b9190611700565b60405180910390a36110ae848484611522565b50505050565b6110bc610bdd565b73ffffffffffffffffffffffffffffffffffffffff166110da610811565b73ffffffffffffffffffffffffffffffffffffffff1614611130576040517f08c379a000000000000000000000000000000000000000000000000000000000815260040161112790611f91565b60405180910390fd5b565b600073ffffffffffffffffffffffffffffffffffffffff168273ffffffffffffffffffffffffffffffffffffffff1614156111a2576040517f08c379a000000000000000000000000000000000000000000000000000000000815260040161119990611ffd565b60405180910390fd5b6111ae6000838361151d565b80600260008282546111c0919061193b565b92505081905550806000808473ffffffffffffffffffffffffffffffffffffffff1673ffffffffffffffffffffffffffffffffffffffff168152602001908152602001600020600082825401925050819055508173ffffffffffffffffffffffffffffffffffffffff16600073ffffffffffffffffffffffffffffffffffffffff167fddf252ad1be2c89b69c2b068fc378daa952ba7f163c4a11628f55a4df523b3ef836040516112719190611700565b60405180910390a361128560008383611522565b5050565b600073ffffffffffffffffffffffffffffffffffffffff168273ffffffffffffffffffffffffffffffffffffffff1614156112f9576040517f08c379a00000000000000000000000000000000000000000000000000000000081526004016112f09061208f565b60405180910390fd5b6113058260008361151d565b60008060008473ffffffffffffffffffffffffffffffffffffffff1673ffffffffffffffffffffffffffffffffffffffff1681526020019081526020016000205490508181101561138b576040517f08c379a000000000000000000000000000000000000000000000000000000000815260040161138290612121565b60405180910390fd5b8181036000808573ffffffffffffffffffffffffffffffffffffffff1673ffffffffffffffffffffffffffffffffffffffff1681526020019081526020016000208190555081600260008282540392505081905550600073ffffffffffffffffffffffffffffffffffffffff168373ffffffffffffffffffffffffffffffffffffffff167fddf252ad1be2c89b69c2b068fc378daa952ba7f163c4a11628f55a4df523b3ef8460405161143e9190611700565b60405180910390a361145283600084611522565b505050565b6000600560009054906101000a900473ffffffffffffffffffffffffffffffffffffffff16905081600560006101000a81548173ffffffffffffffffffffffffffffffffffffffff021916908373ffffffffffffffffffffffffffffffffffffffff1602179055508173ffffffffffffffffffffffffffffffffffffffff168173ffffffffffffffffffffffffffffffffffffffff167f8be0079c531659141344cd1fd0a4f28419497f9722a3daafe3b4186f6b6457e060405160405180910390a35050565b505050565b505050565b600081519050919050565b600082825260208201905092915050565b60005b83811015611561578082015181840152602081019050611546565b83811115611570576000848401525b50505050565b6000601f19601f8301169050919050565b600061159282611527565b61159c8185611532565b93506115ac818560208601611543565b6115b581611576565b840191505092915050565b600060208201905081810360008301526115da8184611587565b905092915050565b600080fd5b600073ffffffffffffffffffffffffffffffffffffffff82169050919050565b6000611612826115e7565b9050919050565b61162281611607565b811461162d57600080fd5b50565b60008135905061163f81611619565b92915050565b6000819050919050565b61165881611645565b811461166357600080fd5b50565b6000813590506116758161164f565b92915050565b60008060408385031215611692576116916115e2565b5b60006116a085828601611630565b92505060206116b185828601611666565b9150509250929050565b60008115159050919050565b6116d0816116bb565b82525050565b60006020820190506116eb60008301846116c7565b92915050565b6116fa81611645565b82525050565b600060208201905061171560008301846116f1565b92915050565b600080600060608486031215611734576117336115e2565b5b600061174286828701611630565b935050602061175386828701611630565b925050604061176486828701611666565b9150509250925092565b600060ff82169050919050565b6117848161176e565b82525050565b600060208201905061179f600083018461177b565b92915050565b6000602082840312156117bb576117ba6115e2565b5b60006117c984828501611666565b91505092915050565b6000602082840312156117e8576117e76115e2565b5b60006117f684828501611630565b91505092915050565b61180881611607565b82525050565b600060208201905061182360008301846117ff565b92915050565b600080604083850312156118405761183f6115e2565b5b600061184e85828601611630565b925050602061185f85828601611630565b9150509250929050565b7f4e487b7100000000000000000000000000000000000000000000000000000000600052602260045260246000fd5b600060028204905060018216806118b057607f821691505b602082108114156118c4576118c3611869565b5b50919050565b6000815190506118d98161164f565b92915050565b6000602082840312156118f5576118f46115e2565b5b6000611903848285016118ca565b91505092915050565b7f4e487b7100000000000000000000000000000000000000000000000000000000600052601160045260246000fd5b600061194682611645565b915061195183611645565b9250827fffffffffffffffffffffffffffffffffffffffffffffffffffffffffffffffff038211156119865761198561190c565b5b828201905092915050565b7f596f7520646f206e6f74206861766520656e6f75676820446567656e20546f6b60008201527f656e730000000000000000000000000000000000000000000000000000000000602082015250565b60006119ed602383611532565b91506119f882611991565b604082019050919050565b60006020820190508181036000830152611a1c816119e0565b9050919050565b7f45524332303a2064656372656173656420616c6c6f77616e63652062656c6f7760008201527f207a65726f000000000000000000000000000000000000000000000000000000602082015250565b6000611a7f602583611532565b9150611a8a82611a23565b604082019050919050565b60006020820190508181036000830152611aae81611a72565b9050919050565b7f53656c656374696f6e206f7574206f6620626f756e64732e20506c656173652060008201527f73656c6563742077697468696e2074686520617070726f766564206f7074696f60208201527f6e73000000000000000000000000000000000000000000000000000000000000604082015250565b6000611b37604283611532565b9150611b4282611ab5565b606082019050919050565b60006020820190508181036000830152611b6681611b2a565b9050919050565b7f4f776e61626c653a206e6577206f776e657220697320746865207a65726f206160008201527f6464726573730000000000000000000000000000000000000000000000000000602082015250565b6000611bc9602683611532565b9150611bd482611b6d565b604082019050919050565b60006020820190508181036000830152611bf881611bbc565b9050919050565b7f45524332303a20617070726f76652066726f6d20746865207a65726f2061646460008201527f7265737300000000000000000000000000000000000000000000000000000000602082015250565b6000611c5b602483611532565b9150611c6682611bff565b604082019050919050565b60006020820190508181036000830152611c8a81611c4e565b9050919050565b7f45524332303a20617070726f766520746f20746865207a65726f20616464726560008201527f7373000000000000000000000000000000000000000000000000000000000000602082015250565b6000611ced602283611532565b9150611cf882611c91565b604082019050919050565b60006020820190508181036000830152611d1c81611ce0565b9050919050565b7f45524332303a20696e73756666696369656e7420616c6c6f77616e6365000000600082015250565b6000611d59601d83611532565b9150611d6482611d23565b602082019050919050565b60006020820190508181036000830152611d8881611d4c565b9050919050565b7f45524332303a207472616e736665722066726f6d20746865207a65726f20616460008201527f6472657373000000000000000000000000000000000000000000000000000000602082015250565b6000611deb602583611532565b9150611df682611d8f565b604082019050919050565b60006020820190508181036000830152611e1a81611dde565b9050919050565b7f45524332303a207472616e7366657220746f20746865207a65726f206164647260008201527f6573730000000000000000000000000000000000000000000000000000000000602082015250565b6000611e7d602383611532565b9150611e8882611e21565b604082019050919050565b60006020820190508181036000830152611eac81611e70565b9050919050565b7f45524332303a207472616e7366657220616d6f756e742065786365656473206260008201527f616c616e63650000000000000000000000000000000000000000000000000000602082015250565b6000611f0f602683611532565b9150611f1a82611eb3565b604082019050919050565b60006020820190508181036000830152611f3e81611f02565b9050919050565b7f4f776e61626c653a2063616c6c6572206973206e6f7420746865206f776e6572600082015250565b6000611f7b602083611532565b9150611f8682611f45565b602082019050919050565b60006020820190508181036000830152611faa81611f6e565b9050919050565b7f45524332303a206d696e7420746f20746865207a65726f206164647265737300600082015250565b6000611fe7601f83611532565b9150611ff282611fb1565b602082019050919050565b6000602082019050818103600083015261201681611fda565b9050919050565b7f45524332303a206275726e2066726f6d20746865207a65726f2061646472657360008201527f7300000000000000000000000000000000000000000000000000000000000000602082015250565b6000612079602183611532565b91506120848261201d565b604082019050919050565b600060208201905081810360008301526120a88161206c565b9050919050565b7f45524332303a206275726e20616d6f756e7420657863656564732062616c616e60008201527f6365000000000000000000000000000000000000000000000000000000000000602082015250565b600061210b602283611532565b9150612116826120af565b604082019050919050565b6000602082019050818103600083015261213a816120fe565b905091905056fe4f7074696f6e20313a204d61646f6e61204e4654200a204f7074696f6e20323a204d69726163756c6f7573204d6564616c200a204f7074696f6e20333a20506f727472616974206f662048696c6465722042616369a26469706673582212209b6700b2affa0fa2bcf18986a57f272219aebf7a80af39131b5010dad8dc776964736f6c63430008090033",
					"opcodes": "PUSH1 0x80 PUSH1 0x40 MSTORE CALLVALUE DUP1 ISZERO PUSH3 0x11 JUMPI PUSH1 0x0 DUP1 REVERT JUMPDEST POP PUSH1 0x40 MLOAD DUP1 PUSH1 0x40 ADD PUSH1 0x40 MSTORE DUP1 PUSH1 0x5 DUP2 MSTORE PUSH1 0x20 ADD PUSH32 0x446567656E000000000000000000000000000000000000000000000000000000 DUP2 MSTORE POP PUSH1 0x40 MLOAD DUP1 PUSH1 0x40 ADD PUSH1 0x40 MSTORE DUP1 PUSH1 0x3 DUP2 MSTORE PUSH1 0x20 ADD PUSH32 0x44474E0000000000000000000000000000000000000000000000000000000000 DUP2 MSTORE POP DUP2 PUSH1 0x3 SWAP1 DUP1 MLOAD SWAP1 PUSH1 0x20 ADD SWAP1 PUSH3 0x96 SWAP3 SWAP2 SWAP1 PUSH3 0x1A6 JUMP JUMPDEST POP DUP1 PUSH1 0x4 SWAP1 DUP1 MLOAD SWAP1 PUSH1 0x20 ADD SWAP1 PUSH3 0xAF SWAP3 SWAP2 SWAP1 PUSH3 0x1A6 JUMP JUMPDEST POP POP POP PUSH3 0xD2 PUSH3 0xC6 PUSH3 0xD8 PUSH1 0x20 SHL PUSH1 0x20 SHR JUMP JUMPDEST PUSH3 0xE0 PUSH1 0x20 SHL PUSH1 0x20 SHR JUMP JUMPDEST PUSH3 0x2BB JUMP JUMPDEST PUSH1 0x0 CALLER SWAP1 POP SWAP1 JUMP JUMPDEST PUSH1 0x0 PUSH1 0x5 PUSH1 0x0 SWAP1 SLOAD SWAP1 PUSH2 0x100 EXP SWAP1 DIV PUSH20 0xFFFFFFFFFFFFFFFFFFFFFFFFFFFFFFFFFFFFFFFF AND SWAP1 POP DUP2 PUSH1 0x5 PUSH1 0x0 PUSH2 0x100 EXP DUP2 SLOAD DUP2 PUSH20 0xFFFFFFFFFFFFFFFFFFFFFFFFFFFFFFFFFFFFFFFF MUL NOT AND SWAP1 DUP4 PUSH20 0xFFFFFFFFFFFFFFFFFFFFFFFFFFFFFFFFFFFFFFFF AND MUL OR SWAP1 SSTORE POP DUP2 PUSH20 0xFFFFFFFFFFFFFFFFFFFFFFFFFFFFFFFFFFFFFFFF AND DUP2 PUSH20 0xFFFFFFFFFFFFFFFFFFFFFFFFFFFFFFFFFFFFFFFF AND PUSH32 0x8BE0079C531659141344CD1FD0A4F28419497F9722A3DAAFE3B4186F6B6457E0 PUSH1 0x40 MLOAD PUSH1 0x40 MLOAD DUP1 SWAP2 SUB SWAP1 LOG3 POP POP JUMP JUMPDEST DUP3 DUP1 SLOAD PUSH3 0x1B4 SWAP1 PUSH3 0x285 JUMP JUMPDEST SWAP1 PUSH1 0x0 MSTORE PUSH1 0x20 PUSH1 0x0 KECCAK256 SWAP1 PUSH1 0x1F ADD PUSH1 0x20 SWAP1 DIV DUP2 ADD SWAP3 DUP3 PUSH3 0x1D8 JUMPI PUSH1 0x0 DUP6 SSTORE PUSH3 0x224 JUMP JUMPDEST DUP3 PUSH1 0x1F LT PUSH3 0x1F3 JUMPI DUP1 MLOAD PUSH1 0xFF NOT AND DUP4 DUP1 ADD OR DUP6 SSTORE PUSH3 0x224 JUMP JUMPDEST DUP3 DUP1 ADD PUSH1 0x1 ADD DUP6 SSTORE DUP3 ISZERO PUSH3 0x224 JUMPI SWAP2 DUP3 ADD JUMPDEST DUP3 DUP2 GT ISZERO PUSH3 0x223 JUMPI DUP3 MLOAD DUP3 SSTORE SWAP2 PUSH1 0x20 ADD SWAP2 SWAP1 PUSH1 0x1 ADD SWAP1 PUSH3 0x206 JUMP JUMPDEST JUMPDEST POP SWAP1 POP PUSH3 0x233 SWAP2 SWAP1 PUSH3 0x237 JUMP JUMPDEST POP SWAP1 JUMP JUMPDEST JUMPDEST DUP1 DUP3 GT ISZERO PUSH3 0x252 JUMPI PUSH1 0x0 DUP2 PUSH1 0x0 SWAP1 SSTORE POP PUSH1 0x1 ADD PUSH3 0x238 JUMP JUMPDEST POP SWAP1 JUMP JUMPDEST PUSH32 0x4E487B7100000000000000000000000000000000000000000000000000000000 PUSH1 0x0 MSTORE PUSH1 0x22 PUSH1 0x4 MSTORE PUSH1 0x24 PUSH1 0x0 REVERT JUMPDEST PUSH1 0x0 PUSH1 0x2 DUP3 DIV SWAP1 POP PUSH1 0x1 DUP3 AND DUP1 PUSH3 0x29E JUMPI PUSH1 0x7F DUP3 AND SWAP2 POP JUMPDEST PUSH1 0x20 DUP3 LT DUP2 EQ ISZERO PUSH3 0x2B5 JUMPI PUSH3 0x2B4 PUSH3 0x256 JUMP JUMPDEST JUMPDEST POP SWAP2 SWAP1 POP JUMP JUMPDEST PUSH2 0x21CC DUP1 PUSH3 0x2CB PUSH1 0x0 CODECOPY PUSH1 0x0 RETURN INVALID PUSH1 0x80 PUSH1 0x40 MSTORE PUSH1 0x4 CALLDATASIZE LT PUSH2 0x135 JUMPI PUSH1 0x0 CALLDATALOAD PUSH1 0xE0 SHR DUP1 PUSH4 0x70A08231 GT PUSH2 0xAB JUMPI DUP1 PUSH4 0xA457C2D7 GT PUSH2 0x6F JUMPI DUP1 PUSH4 0xA457C2D7 EQ PUSH2 0x409 JUMPI DUP1 PUSH4 0xA6E158F8 EQ PUSH2 0x446 JUMPI DUP1 PUSH4 0xA9059CBB EQ PUSH2 0x462 JUMPI DUP1 PUSH4 0xBEC3FA17 EQ PUSH2 0x49F JUMPI DUP1 PUSH4 0xDD62ED3E EQ PUSH2 0x4C8 JUMPI DUP1 PUSH4 0xF2FDE38B EQ PUSH2 0x505 JUMPI PUSH2 0x135 JUMP JUMPDEST DUP1 PUSH4 0x70A08231 EQ PUSH2 0x336 JUMPI DUP1 PUSH4 0x715018A6 EQ PUSH2 0x373 JUMPI DUP1 PUSH4 0x79CC6790 EQ PUSH2 0x38A JUMPI DUP1 PUSH4 0x8DA5CB5B EQ PUSH2 0x3B3 JUMPI DUP1 PUSH4 0x95D89B41 EQ PUSH2 0x3DE JUMPI PUSH2 0x135 JUMP JUMPDEST DUP1 PUSH4 0x23B872DD GT PUSH2 0xFD JUMPI DUP1 PUSH4 0x23B872DD EQ PUSH2 0x223 JUMPI DUP1 PUSH4 0x313CE567 EQ PUSH2 0x260 JUMPI DUP1 PUSH4 0x39509351 EQ PUSH2 0x28B JUMPI DUP1 PUSH4 0x40C10F19 EQ PUSH2 0x2C8 JUMPI DUP1 PUSH4 0x42966C68 EQ PUSH2 0x2F1 JUMPI DUP1 PUSH4 0x6D1B229D EQ PUSH2 0x31A JUMPI PUSH2 0x135 JUMP JUMPDEST DUP1 PUSH4 0x6FDDE03 EQ PUSH2 0x13A JUMPI DUP1 PUSH4 0x95EA7B3 EQ PUSH2 0x165 JUMPI DUP1 PUSH4 0x12065FE0 EQ PUSH2 0x1A2 JUMPI DUP1 PUSH4 0x178FB088 EQ PUSH2 0x1CD JUMPI DUP1 PUSH4 0x18160DDD EQ PUSH2 0x1F8 JUMPI JUMPDEST PUSH1 0x0 DUP1 REVERT JUMPDEST CALLVALUE DUP1 ISZERO PUSH2 0x146 JUMPI PUSH1 0x0 DUP1 REVERT JUMPDEST POP PUSH2 0x14F PUSH2 0x52E JUMP JUMPDEST PUSH1 0x40 MLOAD PUSH2 0x15C SWAP2 SWAP1 PUSH2 0x15C0 JUMP JUMPDEST PUSH1 0x40 MLOAD DUP1 SWAP2 SUB SWAP1 RETURN JUMPDEST CALLVALUE DUP1 ISZERO PUSH2 0x171 JUMPI PUSH1 0x0 DUP1 REVERT JUMPDEST POP PUSH2 0x18C PUSH1 0x4 DUP1 CALLDATASIZE SUB DUP2 ADD SWAP1 PUSH2 0x187 SWAP2 SWAP1 PUSH2 0x167B JUMP JUMPDEST PUSH2 0x5C0 JUMP JUMPDEST PUSH1 0x40 MLOAD PUSH2 0x199 SWAP2 SWAP1 PUSH2 0x16D6 JUMP JUMPDEST PUSH1 0x40 MLOAD DUP1 SWAP2 SUB SWAP1 RETURN JUMPDEST CALLVALUE DUP1 ISZERO PUSH2 0x1AE JUMPI PUSH1 0x0 DUP1 REVERT JUMPDEST POP PUSH2 0x1B7 PUSH2 0x5E3 JUMP JUMPDEST PUSH1 0x40 MLOAD PUSH2 0x1C4 SWAP2 SWAP1 PUSH2 0x1700 JUMP JUMPDEST PUSH1 0x40 MLOAD DUP1 SWAP2 SUB SWAP1 RETURN JUMPDEST CALLVALUE DUP1 ISZERO PUSH2 0x1D9 JUMPI PUSH1 0x0 DUP1 REVERT JUMPDEST POP PUSH2 0x1E2 PUSH2 0x673 JUMP JUMPDEST PUSH1 0x40 MLOAD PUSH2 0x1EF SWAP2 SWAP1 PUSH2 0x15C0 JUMP JUMPDEST PUSH1 0x40 MLOAD DUP1 SWAP2 SUB SWAP1 RETURN JUMPDEST CALLVALUE DUP1 ISZERO PUSH2 0x204 JUMPI PUSH1 0x0 DUP1 REVERT JUMPDEST POP PUSH2 0x20D PUSH2 0x693 JUMP JUMPDEST PUSH1 0x40 MLOAD PUSH2 0x21A SWAP2 SWAP1 PUSH2 0x1700 JUMP JUMPDEST PUSH1 0x40 MLOAD DUP1 SWAP2 SUB SWAP1 RETURN JUMPDEST CALLVALUE DUP1 ISZERO PUSH2 0x22F JUMPI PUSH1 0x0 DUP1 REVERT JUMPDEST POP PUSH2 0x24A PUSH1 0x4 DUP1 CALLDATASIZE SUB DUP2 ADD SWAP1 PUSH2 0x245 SWAP2 SWAP1 PUSH2 0x171B JUMP JUMPDEST PUSH2 0x69D JUMP JUMPDEST PUSH1 0x40 MLOAD PUSH2 0x257 SWAP2 SWAP1 PUSH2 0x16D6 JUMP JUMPDEST PUSH1 0x40 MLOAD DUP1 SWAP2 SUB SWAP1 RETURN JUMPDEST CALLVALUE DUP1 ISZERO PUSH2 0x26C JUMPI PUSH1 0x0 DUP1 REVERT JUMPDEST POP PUSH2 0x275 PUSH2 0x6CC JUMP JUMPDEST PUSH1 0x40 MLOAD PUSH2 0x282 SWAP2 SWAP1 PUSH2 0x178A JUMP JUMPDEST PUSH1 0x40 MLOAD DUP1 SWAP2 SUB SWAP1 RETURN JUMPDEST CALLVALUE DUP1 ISZERO PUSH2 0x297 JUMPI PUSH1 0x0 DUP1 REVERT JUMPDEST POP PUSH2 0x2B2 PUSH1 0x4 DUP1 CALLDATASIZE SUB DUP2 ADD SWAP1 PUSH2 0x2AD SWAP2 SWAP1 PUSH2 0x167B JUMP JUMPDEST PUSH2 0x6D1 JUMP JUMPDEST PUSH1 0x40 MLOAD PUSH2 0x2BF SWAP2 SWAP1 PUSH2 0x16D6 JUMP JUMPDEST PUSH1 0x40 MLOAD DUP1 SWAP2 SUB SWAP1 RETURN JUMPDEST CALLVALUE DUP1 ISZERO PUSH2 0x2D4 JUMPI PUSH1 0x0 DUP1 REVERT JUMPDEST POP PUSH2 0x2EF PUSH1 0x4 DUP1 CALLDATASIZE SUB DUP2 ADD SWAP1 PUSH2 0x2EA SWAP2 SWAP1 PUSH2 0x167B JUMP JUMPDEST PUSH2 0x708 JUMP JUMPDEST STOP JUMPDEST CALLVALUE DUP1 ISZERO PUSH2 0x2FD JUMPI PUSH1 0x0 DUP1 REVERT JUMPDEST POP PUSH2 0x318 PUSH1 0x4 DUP1 CALLDATASIZE SUB DUP2 ADD SWAP1 PUSH2 0x313 SWAP2 SWAP1 PUSH2 0x17A5 JUMP JUMPDEST PUSH2 0x71E JUMP JUMPDEST STOP JUMPDEST PUSH2 0x334 PUSH1 0x4 DUP1 CALLDATASIZE SUB DUP2 ADD SWAP1 PUSH2 0x32F SWAP2 SWAP1 PUSH2 0x17A5 JUMP JUMPDEST PUSH2 0x732 JUMP JUMPDEST STOP JUMPDEST CALLVALUE DUP1 ISZERO PUSH2 0x342 JUMPI PUSH1 0x0 DUP1 REVERT JUMPDEST POP PUSH2 0x35D PUSH1 0x4 DUP1 CALLDATASIZE SUB DUP2 ADD SWAP1 PUSH2 0x358 SWAP2 SWAP1 PUSH2 0x17D2 JUMP JUMPDEST PUSH2 0x795 JUMP JUMPDEST PUSH1 0x40 MLOAD PUSH2 0x36A SWAP2 SWAP1 PUSH2 0x1700 JUMP JUMPDEST PUSH1 0x40 MLOAD DUP1 SWAP2 SUB SWAP1 RETURN JUMPDEST CALLVALUE DUP1 ISZERO PUSH2 0x37F JUMPI PUSH1 0x0 DUP1 REVERT JUMPDEST POP PUSH2 0x388 PUSH2 0x7DD JUMP JUMPDEST STOP JUMPDEST CALLVALUE DUP1 ISZERO PUSH2 0x396 JUMPI PUSH1 0x0 DUP1 REVERT JUMPDEST POP PUSH2 0x3B1 PUSH1 0x4 DUP1 CALLDATASIZE SUB DUP2 ADD SWAP1 PUSH2 0x3AC SWAP2 SWAP1 PUSH2 0x167B JUMP JUMPDEST PUSH2 0x7F1 JUMP JUMPDEST STOP JUMPDEST CALLVALUE DUP1 ISZERO PUSH2 0x3BF JUMPI PUSH1 0x0 DUP1 REVERT JUMPDEST POP PUSH2 0x3C8 PUSH2 0x811 JUMP JUMPDEST PUSH1 0x40 MLOAD PUSH2 0x3D5 SWAP2 SWAP1 PUSH2 0x180E JUMP JUMPDEST PUSH1 0x40 MLOAD DUP1 SWAP2 SUB SWAP1 RETURN JUMPDEST CALLVALUE DUP1 ISZERO PUSH2 0x3EA JUMPI PUSH1 0x0 DUP1 REVERT JUMPDEST POP PUSH2 0x3F3 PUSH2 0x83B JUMP JUMPDEST PUSH1 0x40 MLOAD PUSH2 0x400 SWAP2 SWAP1 PUSH2 0x15C0 JUMP JUMPDEST PUSH1 0x40 MLOAD DUP1 SWAP2 SUB SWAP1 RETURN JUMPDEST CALLVALUE DUP1 ISZERO PUSH2 0x415 JUMPI PUSH1 0x0 DUP1 REVERT JUMPDEST POP PUSH2 0x430 PUSH1 0x4 DUP1 CALLDATASIZE SUB DUP2 ADD SWAP1 PUSH2 0x42B SWAP2 SWAP1 PUSH2 0x167B JUMP JUMPDEST PUSH2 0x8CD JUMP JUMPDEST PUSH1 0x40 MLOAD PUSH2 0x43D SWAP2 SWAP1 PUSH2 0x16D6 JUMP JUMPDEST PUSH1 0x40 MLOAD DUP1 SWAP2 SUB SWAP1 RETURN JUMPDEST PUSH2 0x460 PUSH1 0x4 DUP1 CALLDATASIZE SUB DUP2 ADD SWAP1 PUSH2 0x45B SWAP2 SWAP1 PUSH2 0x17A5 JUMP JUMPDEST PUSH2 0x944 JUMP JUMPDEST STOP JUMPDEST CALLVALUE DUP1 ISZERO PUSH2 0x46E JUMPI PUSH1 0x0 DUP1 REVERT JUMPDEST POP PUSH2 0x489 PUSH1 0x4 DUP1 CALLDATASIZE SUB DUP2 ADD SWAP1 PUSH2 0x484 SWAP2 SWAP1 PUSH2 0x167B JUMP JUMPDEST PUSH2 0xA49 JUMP JUMPDEST PUSH1 0x40 MLOAD PUSH2 0x496 SWAP2 SWAP1 PUSH2 0x16D6 JUMP JUMPDEST PUSH1 0x40 MLOAD DUP1 SWAP2 SUB SWAP1 RETURN JUMPDEST CALLVALUE DUP1 ISZERO PUSH2 0x4AB JUMPI PUSH1 0x0 DUP1 REVERT JUMPDEST POP PUSH2 0x4C6 PUSH1 0x4 DUP1 CALLDATASIZE SUB DUP2 ADD SWAP1 PUSH2 0x4C1 SWAP2 SWAP1 PUSH2 0x167B JUMP JUMPDEST PUSH2 0xA6C JUMP JUMPDEST STOP JUMPDEST CALLVALUE DUP1 ISZERO PUSH2 0x4D4 JUMPI PUSH1 0x0 DUP1 REVERT JUMPDEST POP PUSH2 0x4EF PUSH1 0x4 DUP1 CALLDATASIZE SUB DUP2 ADD SWAP1 PUSH2 0x4EA SWAP2 SWAP1 PUSH2 0x1829 JUMP JUMPDEST PUSH2 0xAD2 JUMP JUMPDEST PUSH1 0x40 MLOAD PUSH2 0x4FC SWAP2 SWAP1 PUSH2 0x1700 JUMP JUMPDEST PUSH1 0x40 MLOAD DUP1 SWAP2 SUB SWAP1 RETURN JUMPDEST CALLVALUE DUP1 ISZERO PUSH2 0x511 JUMPI PUSH1 0x0 DUP1 REVERT JUMPDEST POP PUSH2 0x52C PUSH1 0x4 DUP1 CALLDATASIZE SUB DUP2 ADD SWAP1 PUSH2 0x527 SWAP2 SWAP1 PUSH2 0x17D2 JUMP JUMPDEST PUSH2 0xB59 JUMP JUMPDEST STOP JUMPDEST PUSH1 0x60 PUSH1 0x3 DUP1 SLOAD PUSH2 0x53D SWAP1 PUSH2 0x1898 JUMP JUMPDEST DUP1 PUSH1 0x1F ADD PUSH1 0x20 DUP1 SWAP2 DIV MUL PUSH1 0x20 ADD PUSH1 0x40 MLOAD SWAP1 DUP2 ADD PUSH1 0x40 MSTORE DUP1 SWAP3 SWAP2 SWAP1 DUP2 DUP2 MSTORE PUSH1 0x20 ADD DUP3 DUP1 SLOAD PUSH2 0x569 SWAP1 PUSH2 0x1898 JUMP JUMPDEST DUP1 ISZERO PUSH2 0x5B6 JUMPI DUP1 PUSH1 0x1F LT PUSH2 0x58B JUMPI PUSH2 0x100 DUP1 DUP4 SLOAD DIV MUL DUP4 MSTORE SWAP2 PUSH1 0x20 ADD SWAP2 PUSH2 0x5B6 JUMP JUMPDEST DUP3 ADD SWAP2 SWAP1 PUSH1 0x0 MSTORE PUSH1 0x20 PUSH1 0x0 KECCAK256 SWAP1 JUMPDEST DUP2 SLOAD DUP2 MSTORE SWAP1 PUSH1 0x1 ADD SWAP1 PUSH1 0x20 ADD DUP1 DUP4 GT PUSH2 0x599 JUMPI DUP3 SWAP1 SUB PUSH1 0x1F AND DUP3 ADD SWAP2 JUMPDEST POP POP POP POP POP SWAP1 POP SWAP1 JUMP JUMPDEST PUSH1 0x0 DUP1 PUSH2 0x5CB PUSH2 0xBDD JUMP JUMPDEST SWAP1 POP PUSH2 0x5D8 DUP2 DUP6 DUP6 PUSH2 0xBE5 JUMP JUMPDEST PUSH1 0x1 SWAP2 POP POP SWAP3 SWAP2 POP POP JUMP JUMPDEST PUSH1 0x0 ADDRESS PUSH20 0xFFFFFFFFFFFFFFFFFFFFFFFFFFFFFFFFFFFFFFFF AND PUSH4 0x70A08231 CALLER PUSH1 0x40 MLOAD DUP3 PUSH4 0xFFFFFFFF AND PUSH1 0xE0 SHL DUP2 MSTORE PUSH1 0x4 ADD PUSH2 0x61E SWAP2 SWAP1 PUSH2 0x180E JUMP JUMPDEST PUSH1 0x20 PUSH1 0x40 MLOAD DUP1 DUP4 SUB DUP2 DUP7 DUP1 EXTCODESIZE ISZERO DUP1 ISZERO PUSH2 0x636 JUMPI PUSH1 0x0 DUP1 REVERT JUMPDEST POP GAS STATICCALL ISZERO DUP1 ISZERO PUSH2 0x64A JUMPI RETURNDATASIZE PUSH1 0x0 DUP1 RETURNDATACOPY RETURNDATASIZE PUSH1 0x0 REVERT JUMPDEST POP POP POP POP PUSH1 0x40 MLOAD RETURNDATASIZE PUSH1 0x1F NOT PUSH1 0x1F DUP3 ADD AND DUP3 ADD DUP1 PUSH1 0x40 MSTORE POP DUP2 ADD SWAP1 PUSH2 0x66E SWAP2 SWAP1 PUSH2 0x18DF JUMP JUMPDEST SWAP1 POP SWAP1 JUMP JUMPDEST PUSH1 0x60 PUSH1 0x40 MLOAD DUP1 PUSH1 0x80 ADD PUSH1 0x40 MSTORE DUP1 PUSH1 0x55 DUP2 MSTORE PUSH1 0x20 ADD PUSH2 0x2142 PUSH1 0x55 SWAP2 CODECOPY SWAP1 POP SWAP1 JUMP JUMPDEST PUSH1 0x0 PUSH1 0x2 SLOAD SWAP1 POP SWAP1 JUMP JUMPDEST PUSH1 0x0 DUP1 PUSH2 0x6A8 PUSH2 0xBDD JUMP JUMPDEST SWAP1 POP PUSH2 0x6B5 DUP6 DUP3 DUP6 PUSH2 0xDB0 JUMP JUMPDEST PUSH2 0x6C0 DUP6 DUP6 DUP6 PUSH2 0xE3C JUMP JUMPDEST PUSH1 0x1 SWAP2 POP POP SWAP4 SWAP3 POP POP POP JUMP JUMPDEST PUSH1 0x0 SWAP1 JUMP JUMPDEST PUSH1 0x0 DUP1 PUSH2 0x6DC PUSH2 0xBDD JUMP JUMPDEST SWAP1 POP PUSH2 0x6FD DUP2 DUP6 DUP6 PUSH2 0x6EE DUP6 DUP10 PUSH2 0xAD2 JUMP JUMPDEST PUSH2 0x6F8 SWAP2 SWAP1 PUSH2 0x193B JUMP JUMPDEST PUSH2 0xBE5 JUMP JUMPDEST PUSH1 0x1 SWAP2 POP POP SWAP3 SWAP2 POP POP JUMP JUMPDEST PUSH2 0x710 PUSH2 0x10B4 JUMP JUMPDEST PUSH2 0x71A DUP3 DUP3 PUSH2 0x1132 JUMP JUMPDEST POP POP JUMP JUMPDEST PUSH2 0x72F PUSH2 0x729 PUSH2 0xBDD JUMP JUMPDEST DUP3 PUSH2 0x1289 JUMP JUMPDEST POP JUMP JUMPDEST DUP1 PUSH2 0x73C CALLER PUSH2 0x795 JUMP JUMPDEST LT ISZERO PUSH2 0x77D JUMPI PUSH1 0x40 MLOAD PUSH32 0x8C379A000000000000000000000000000000000000000000000000000000000 DUP2 MSTORE PUSH1 0x4 ADD PUSH2 0x774 SWAP1 PUSH2 0x1A03 JUMP JUMPDEST PUSH1 0x40 MLOAD DUP1 SWAP2 SUB SWAP1 REVERT JUMPDEST PUSH2 0x787 CALLER DUP3 PUSH2 0x5C0 JUMP JUMPDEST POP PUSH2 0x792 CALLER DUP3 PUSH2 0x7F1 JUMP JUMPDEST POP JUMP JUMPDEST PUSH1 0x0 DUP1 PUSH1 0x0 DUP4 PUSH20 0xFFFFFFFFFFFFFFFFFFFFFFFFFFFFFFFFFFFFFFFF AND PUSH20 0xFFFFFFFFFFFFFFFFFFFFFFFFFFFFFFFFFFFFFFFF AND DUP2 MSTORE PUSH1 0x20 ADD SWAP1 DUP2 MSTORE PUSH1 0x20 ADD PUSH1 0x0 KECCAK256 SLOAD SWAP1 POP SWAP2 SWAP1 POP JUMP JUMPDEST PUSH2 0x7E5 PUSH2 0x10B4 JUMP JUMPDEST PUSH2 0x7EF PUSH1 0x0 PUSH2 0x1457 JUMP JUMPDEST JUMP JUMPDEST PUSH2 0x803 DUP3 PUSH2 0x7FD PUSH2 0xBDD JUMP JUMPDEST DUP4 PUSH2 0xDB0 JUMP JUMPDEST PUSH2 0x80D DUP3 DUP3 PUSH2 0x1289 JUMP JUMPDEST POP POP JUMP JUMPDEST PUSH1 0x0 PUSH1 0x5 PUSH1 0x0 SWAP1 SLOAD SWAP1 PUSH2 0x100 EXP SWAP1 DIV PUSH20 0xFFFFFFFFFFFFFFFFFFFFFFFFFFFFFFFFFFFFFFFF AND SWAP1 POP SWAP1 JUMP JUMPDEST PUSH1 0x60 PUSH1 0x4 DUP1 SLOAD PUSH2 0x84A SWAP1 PUSH2 0x1898 JUMP JUMPDEST DUP1 PUSH1 0x1F ADD PUSH1 0x20 DUP1 SWAP2 DIV MUL PUSH1 0x20 ADD PUSH1 0x40 MLOAD SWAP1 DUP2 ADD PUSH1 0x40 MSTORE DUP1 SWAP3 SWAP2 SWAP1 DUP2 DUP2 MSTORE PUSH1 0x20 ADD DUP3 DUP1 SLOAD PUSH2 0x876 SWAP1 PUSH2 0x1898 JUMP JUMPDEST DUP1 ISZERO PUSH2 0x8C3 JUMPI DUP1 PUSH1 0x1F LT PUSH2 0x898 JUMPI PUSH2 0x100 DUP1 DUP4 SLOAD DIV MUL DUP4 MSTORE SWAP2 PUSH1 0x20 ADD SWAP2 PUSH2 0x8C3 JUMP JUMPDEST DUP3 ADD SWAP2 SWAP1 PUSH1 0x0 MSTORE PUSH1 0x20 PUSH1 0x0 KECCAK256 SWAP1 JUMPDEST DUP2 SLOAD DUP2 MSTORE SWAP1 PUSH1 0x1 ADD SWAP1 PUSH1 0x20 ADD DUP1 DUP4 GT PUSH2 0x8A6 JUMPI DUP3 SWAP1 SUB PUSH1 0x1F AND DUP3 ADD SWAP2 JUMPDEST POP POP POP POP POP SWAP1 POP SWAP1 JUMP JUMPDEST PUSH1 0x0 DUP1 PUSH2 0x8D8 PUSH2 0xBDD JUMP JUMPDEST SWAP1 POP PUSH1 0x0 PUSH2 0x8E6 DUP3 DUP7 PUSH2 0xAD2 JUMP JUMPDEST SWAP1 POP DUP4 DUP2 LT ISZERO PUSH2 0x92B JUMPI PUSH1 0x40 MLOAD PUSH32 0x8C379A000000000000000000000000000000000000000000000000000000000 DUP2 MSTORE PUSH1 0x4 ADD PUSH2 0x922 SWAP1 PUSH2 0x1A95 JUMP JUMPDEST PUSH1 0x40 MLOAD DUP1 SWAP2 SUB SWAP1 REVERT JUMPDEST PUSH2 0x938 DUP3 DUP7 DUP7 DUP5 SUB PUSH2 0xBE5 JUMP JUMPDEST PUSH1 0x1 SWAP3 POP POP POP SWAP3 SWAP2 POP POP JUMP JUMPDEST PUSH1 0x1 DUP2 EQ DUP1 PUSH2 0x953 JUMPI POP PUSH1 0x2 DUP2 EQ JUMPDEST DUP1 PUSH2 0x95E JUMPI POP PUSH1 0x3 DUP2 EQ JUMPDEST PUSH2 0x99D JUMPI PUSH1 0x40 MLOAD PUSH32 0x8C379A000000000000000000000000000000000000000000000000000000000 DUP2 MSTORE PUSH1 0x4 ADD PUSH2 0x994 SWAP1 PUSH2 0x1B4D JUMP JUMPDEST PUSH1 0x40 MLOAD DUP1 SWAP2 SUB SWAP1 REVERT JUMPDEST PUSH1 0x0 PUSH1 0x1 DUP3 EQ ISZERO PUSH2 0x9B1 JUMPI PUSH1 0x32 SWAP1 POP PUSH2 0x9C9 JUMP JUMPDEST PUSH1 0x2 DUP3 EQ ISZERO PUSH2 0x9C3 JUMPI PUSH1 0x28 SWAP1 POP PUSH2 0x9C8 JUMP JUMPDEST PUSH1 0x1E SWAP1 POP JUMPDEST JUMPDEST PUSH1 0x0 PUSH20 0x70997970C51812DC3A010C7D01B50E0D17DC79C8 SWAP1 POP DUP2 PUSH2 0x9EC CALLER PUSH2 0x795 JUMP JUMPDEST LT ISZERO PUSH2 0xA2D JUMPI PUSH1 0x40 MLOAD PUSH32 0x8C379A000000000000000000000000000000000000000000000000000000000 DUP2 MSTORE PUSH1 0x4 ADD PUSH2 0xA24 SWAP1 PUSH2 0x1A03 JUMP JUMPDEST PUSH1 0x40 MLOAD DUP1 SWAP2 SUB SWAP1 REVERT JUMPDEST PUSH2 0xA37 CALLER DUP4 PUSH2 0x5C0 JUMP JUMPDEST POP PUSH2 0xA43 CALLER DUP3 DUP5 PUSH2 0x69D JUMP JUMPDEST POP POP POP POP JUMP JUMPDEST PUSH1 0x0 DUP1 PUSH2 0xA54 PUSH2 0xBDD JUMP JUMPDEST SWAP1 POP PUSH2 0xA61 DUP2 DUP6 DUP6 PUSH2 0xE3C JUMP JUMPDEST PUSH1 0x1 SWAP2 POP POP SWAP3 SWAP2 POP POP JUMP JUMPDEST DUP1 PUSH2 0xA76 CALLER PUSH2 0x795 JUMP JUMPDEST LT ISZERO PUSH2 0xAB7 JUMPI PUSH1 0x40 MLOAD PUSH32 0x8C379A000000000000000000000000000000000000000000000000000000000 DUP2 MSTORE PUSH1 0x4 ADD PUSH2 0xAAE SWAP1 PUSH2 0x1A03 JUMP JUMPDEST PUSH1 0x40 MLOAD DUP1 SWAP2 SUB SWAP1 REVERT JUMPDEST PUSH2 0xAC1 CALLER DUP3 PUSH2 0x5C0 JUMP JUMPDEST POP PUSH2 0xACD CALLER DUP4 DUP4 PUSH2 0x69D JUMP JUMPDEST POP POP POP JUMP JUMPDEST PUSH1 0x0 PUSH1 0x1 PUSH1 0x0 DUP5 PUSH20 0xFFFFFFFFFFFFFFFFFFFFFFFFFFFFFFFFFFFFFFFF AND PUSH20 0xFFFFFFFFFFFFFFFFFFFFFFFFFFFFFFFFFFFFFFFF AND DUP2 MSTORE PUSH1 0x20 ADD SWAP1 DUP2 MSTORE PUSH1 0x20 ADD PUSH1 0x0 KECCAK256 PUSH1 0x0 DUP4 PUSH20 0xFFFFFFFFFFFFFFFFFFFFFFFFFFFFFFFFFFFFFFFF AND PUSH20 0xFFFFFFFFFFFFFFFFFFFFFFFFFFFFFFFFFFFFFFFF AND DUP2 MSTORE PUSH1 0x20 ADD SWAP1 DUP2 MSTORE PUSH1 0x20 ADD PUSH1 0x0 KECCAK256 SLOAD SWAP1 POP SWAP3 SWAP2 POP POP JUMP JUMPDEST PUSH2 0xB61 PUSH2 0x10B4 JUMP JUMPDEST PUSH1 0x0 PUSH20 0xFFFFFFFFFFFFFFFFFFFFFFFFFFFFFFFFFFFFFFFF AND DUP2 PUSH20 0xFFFFFFFFFFFFFFFFFFFFFFFFFFFFFFFFFFFFFFFF AND EQ ISZERO PUSH2 0xBD1 JUMPI PUSH1 0x40 MLOAD PUSH32 0x8C379A000000000000000000000000000000000000000000000000000000000 DUP2 MSTORE PUSH1 0x4 ADD PUSH2 0xBC8 SWAP1 PUSH2 0x1BDF JUMP JUMPDEST PUSH1 0x40 MLOAD DUP1 SWAP2 SUB SWAP1 REVERT JUMPDEST PUSH2 0xBDA DUP2 PUSH2 0x1457 JUMP JUMPDEST POP JUMP JUMPDEST PUSH1 0x0 CALLER SWAP1 POP SWAP1 JUMP JUMPDEST PUSH1 0x0 PUSH20 0xFFFFFFFFFFFFFFFFFFFFFFFFFFFFFFFFFFFFFFFF AND DUP4 PUSH20 0xFFFFFFFFFFFFFFFFFFFFFFFFFFFFFFFFFFFFFFFF AND EQ ISZERO PUSH2 0xC55 JUMPI PUSH1 0x40 MLOAD PUSH32 0x8C379A000000000000000000000000000000000000000000000000000000000 DUP2 MSTORE PUSH1 0x4 ADD PUSH2 0xC4C SWAP1 PUSH2 0x1C71 JUMP JUMPDEST PUSH1 0x40 MLOAD DUP1 SWAP2 SUB SWAP1 REVERT JUMPDEST PUSH1 0x0 PUSH20 0xFFFFFFFFFFFFFFFFFFFFFFFFFFFFFFFFFFFFFFFF AND DUP3 PUSH20 0xFFFFFFFFFFFFFFFFFFFFFFFFFFFFFFFFFFFFFFFF AND EQ ISZERO PUSH2 0xCC5 JUMPI PUSH1 0x40 MLOAD PUSH32 0x8C379A000000000000000000000000000000000000000000000000000000000 DUP2 MSTORE PUSH1 0x4 ADD PUSH2 0xCBC SWAP1 PUSH2 0x1D03 JUMP JUMPDEST PUSH1 0x40 MLOAD DUP1 SWAP2 SUB SWAP1 REVERT JUMPDEST DUP1 PUSH1 0x1 PUSH1 0x0 DUP6 PUSH20 0xFFFFFFFFFFFFFFFFFFFFFFFFFFFFFFFFFFFFFFFF AND PUSH20 0xFFFFFFFFFFFFFFFFFFFFFFFFFFFFFFFFFFFFFFFF AND DUP2 MSTORE PUSH1 0x20 ADD SWAP1 DUP2 MSTORE PUSH1 0x20 ADD PUSH1 0x0 KECCAK256 PUSH1 0x0 DUP5 PUSH20 0xFFFFFFFFFFFFFFFFFFFFFFFFFFFFFFFFFFFFFFFF AND PUSH20 0xFFFFFFFFFFFFFFFFFFFFFFFFFFFFFFFFFFFFFFFF AND DUP2 MSTORE PUSH1 0x20 ADD SWAP1 DUP2 MSTORE PUSH1 0x20 ADD PUSH1 0x0 KECCAK256 DUP2 SWAP1 SSTORE POP DUP2 PUSH20 0xFFFFFFFFFFFFFFFFFFFFFFFFFFFFFFFFFFFFFFFF AND DUP4 PUSH20 0xFFFFFFFFFFFFFFFFFFFFFFFFFFFFFFFFFFFFFFFF AND PUSH32 0x8C5BE1E5EBEC7D5BD14F71427D1E84F3DD0314C0F7B2291E5B200AC8C7C3B925 DUP4 PUSH1 0x40 MLOAD PUSH2 0xDA3 SWAP2 SWAP1 PUSH2 0x1700 JUMP JUMPDEST PUSH1 0x40 MLOAD DUP1 SWAP2 SUB SWAP1 LOG3 POP POP POP JUMP JUMPDEST PUSH1 0x0 PUSH2 0xDBC DUP5 DUP5 PUSH2 0xAD2 JUMP JUMPDEST SWAP1 POP PUSH32 0xFFFFFFFFFFFFFFFFFFFFFFFFFFFFFFFFFFFFFFFFFFFFFFFFFFFFFFFFFFFFFFFF DUP2 EQ PUSH2 0xE36 JUMPI DUP2 DUP2 LT ISZERO PUSH2 0xE28 JUMPI PUSH1 0x40 MLOAD PUSH32 0x8C379A000000000000000000000000000000000000000000000000000000000 DUP2 MSTORE PUSH1 0x4 ADD PUSH2 0xE1F SWAP1 PUSH2 0x1D6F JUMP JUMPDEST PUSH1 0x40 MLOAD DUP1 SWAP2 SUB SWAP1 REVERT JUMPDEST PUSH2 0xE35 DUP5 DUP5 DUP5 DUP5 SUB PUSH2 0xBE5 JUMP JUMPDEST JUMPDEST POP POP POP POP JUMP JUMPDEST PUSH1 0x0 PUSH20 0xFFFFFFFFFFFFFFFFFFFFFFFFFFFFFFFFFFFFFFFF AND DUP4 PUSH20 0xFFFFFFFFFFFFFFFFFFFFFFFFFFFFFFFFFFFFFFFF AND EQ ISZERO PUSH2 0xEAC JUMPI PUSH1 0x40 MLOAD PUSH32 0x8C379A000000000000000000000000000000000000000000000000000000000 DUP2 MSTORE PUSH1 0x4 ADD PUSH2 0xEA3 SWAP1 PUSH2 0x1E01 JUMP JUMPDEST PUSH1 0x40 MLOAD DUP1 SWAP2 SUB SWAP1 REVERT JUMPDEST PUSH1 0x0 PUSH20 0xFFFFFFFFFFFFFFFFFFFFFFFFFFFFFFFFFFFFFFFF AND DUP3 PUSH20 0xFFFFFFFFFFFFFFFFFFFFFFFFFFFFFFFFFFFFFFFF AND EQ ISZERO PUSH2 0xF1C JUMPI PUSH1 0x40 MLOAD PUSH32 0x8C379A000000000000000000000000000000000000000000000000000000000 DUP2 MSTORE PUSH1 0x4 ADD PUSH2 0xF13 SWAP1 PUSH2 0x1E93 JUMP JUMPDEST PUSH1 0x40 MLOAD DUP1 SWAP2 SUB SWAP1 REVERT JUMPDEST PUSH2 0xF27 DUP4 DUP4 DUP4 PUSH2 0x151D JUMP JUMPDEST PUSH1 0x0 DUP1 PUSH1 0x0 DUP6 PUSH20 0xFFFFFFFFFFFFFFFFFFFFFFFFFFFFFFFFFFFFFFFF AND PUSH20 0xFFFFFFFFFFFFFFFFFFFFFFFFFFFFFFFFFFFFFFFF AND DUP2 MSTORE PUSH1 0x20 ADD SWAP1 DUP2 MSTORE PUSH1 0x20 ADD PUSH1 0x0 KECCAK256 SLOAD SWAP1 POP DUP2 DUP2 LT ISZERO PUSH2 0xFAD JUMPI PUSH1 0x40 MLOAD PUSH32 0x8C379A000000000000000000000000000000000000000000000000000000000 DUP2 MSTORE PUSH1 0x4 ADD PUSH2 0xFA4 SWAP1 PUSH2 0x1F25 JUMP JUMPDEST PUSH1 0x40 MLOAD DUP1 SWAP2 SUB SWAP1 REVERT JUMPDEST DUP2 DUP2 SUB PUSH1 0x0 DUP1 DUP7 PUSH20 0xFFFFFFFFFFFFFFFFFFFFFFFFFFFFFFFFFFFFFFFF AND PUSH20 0xFFFFFFFFFFFFFFFFFFFFFFFFFFFFFFFFFFFFFFFF AND DUP2 MSTORE PUSH1 0x20 ADD SWAP1 DUP2 MSTORE PUSH1 0x20 ADD PUSH1 0x0 KECCAK256 DUP2 SWAP1 SSTORE POP DUP2 PUSH1 0x0 DUP1 DUP6 PUSH20 0xFFFFFFFFFFFFFFFFFFFFFFFFFFFFFFFFFFFFFFFF AND PUSH20 0xFFFFFFFFFFFFFFFFFFFFFFFFFFFFFFFFFFFFFFFF AND DUP2 MSTORE PUSH1 0x20 ADD SWAP1 DUP2 MSTORE PUSH1 0x20 ADD PUSH1 0x0 KECCAK256 PUSH1 0x0 DUP3 DUP3 SLOAD ADD SWAP3 POP POP DUP2 SWAP1 SSTORE POP DUP3 PUSH20 0xFFFFFFFFFFFFFFFFFFFFFFFFFFFFFFFFFFFFFFFF AND DUP5 PUSH20 0xFFFFFFFFFFFFFFFFFFFFFFFFFFFFFFFFFFFFFFFF AND PUSH32 0xDDF252AD1BE2C89B69C2B068FC378DAA952BA7F163C4A11628F55A4DF523B3EF DUP5 PUSH1 0x40 MLOAD PUSH2 0x109B SWAP2 SWAP1 PUSH2 0x1700 JUMP JUMPDEST PUSH1 0x40 MLOAD DUP1 SWAP2 SUB SWAP1 LOG3 PUSH2 0x10AE DUP5 DUP5 DUP5 PUSH2 0x1522 JUMP JUMPDEST POP POP POP POP JUMP JUMPDEST PUSH2 0x10BC PUSH2 0xBDD JUMP JUMPDEST PUSH20 0xFFFFFFFFFFFFFFFFFFFFFFFFFFFFFFFFFFFFFFFF AND PUSH2 0x10DA PUSH2 0x811 JUMP JUMPDEST PUSH20 0xFFFFFFFFFFFFFFFFFFFFFFFFFFFFFFFFFFFFFFFF AND EQ PUSH2 0x1130 JUMPI PUSH1 0x40 MLOAD PUSH32 0x8C379A000000000000000000000000000000000000000000000000000000000 DUP2 MSTORE PUSH1 0x4 ADD PUSH2 0x1127 SWAP1 PUSH2 0x1F91 JUMP JUMPDEST PUSH1 0x40 MLOAD DUP1 SWAP2 SUB SWAP1 REVERT JUMPDEST JUMP JUMPDEST PUSH1 0x0 PUSH20 0xFFFFFFFFFFFFFFFFFFFFFFFFFFFFFFFFFFFFFFFF AND DUP3 PUSH20 0xFFFFFFFFFFFFFFFFFFFFFFFFFFFFFFFFFFFFFFFF AND EQ ISZERO PUSH2 0x11A2 JUMPI PUSH1 0x40 MLOAD PUSH32 0x8C379A000000000000000000000000000000000000000000000000000000000 DUP2 MSTORE PUSH1 0x4 ADD PUSH2 0x1199 SWAP1 PUSH2 0x1FFD JUMP JUMPDEST PUSH1 0x40 MLOAD DUP1 SWAP2 SUB SWAP1 REVERT JUMPDEST PUSH2 0x11AE PUSH1 0x0 DUP4 DUP4 PUSH2 0x151D JUMP JUMPDEST DUP1 PUSH1 0x2 PUSH1 0x0 DUP3 DUP3 SLOAD PUSH2 0x11C0 SWAP2 SWAP1 PUSH2 0x193B JUMP JUMPDEST SWAP3 POP POP DUP2 SWAP1 SSTORE POP DUP1 PUSH1 0x0 DUP1 DUP5 PUSH20 0xFFFFFFFFFFFFFFFFFFFFFFFFFFFFFFFFFFFFFFFF AND PUSH20 0xFFFFFFFFFFFFFFFFFFFFFFFFFFFFFFFFFFFFFFFF AND DUP2 MSTORE PUSH1 0x20 ADD SWAP1 DUP2 MSTORE PUSH1 0x20 ADD PUSH1 0x0 KECCAK256 PUSH1 0x0 DUP3 DUP3 SLOAD ADD SWAP3 POP POP DUP2 SWAP1 SSTORE POP DUP2 PUSH20 0xFFFFFFFFFFFFFFFFFFFFFFFFFFFFFFFFFFFFFFFF AND PUSH1 0x0 PUSH20 0xFFFFFFFFFFFFFFFFFFFFFFFFFFFFFFFFFFFFFFFF AND PUSH32 0xDDF252AD1BE2C89B69C2B068FC378DAA952BA7F163C4A11628F55A4DF523B3EF DUP4 PUSH1 0x40 MLOAD PUSH2 0x1271 SWAP2 SWAP1 PUSH2 0x1700 JUMP JUMPDEST PUSH1 0x40 MLOAD DUP1 SWAP2 SUB SWAP1 LOG3 PUSH2 0x1285 PUSH1 0x0 DUP4 DUP4 PUSH2 0x1522 JUMP JUMPDEST POP POP JUMP JUMPDEST PUSH1 0x0 PUSH20 0xFFFFFFFFFFFFFFFFFFFFFFFFFFFFFFFFFFFFFFFF AND DUP3 PUSH20 0xFFFFFFFFFFFFFFFFFFFFFFFFFFFFFFFFFFFFFFFF AND EQ ISZERO PUSH2 0x12F9 JUMPI PUSH1 0x40 MLOAD PUSH32 0x8C379A000000000000000000000000000000000000000000000000000000000 DUP2 MSTORE PUSH1 0x4 ADD PUSH2 0x12F0 SWAP1 PUSH2 0x208F JUMP JUMPDEST PUSH1 0x40 MLOAD DUP1 SWAP2 SUB SWAP1 REVERT JUMPDEST PUSH2 0x1305 DUP3 PUSH1 0x0 DUP4 PUSH2 0x151D JUMP JUMPDEST PUSH1 0x0 DUP1 PUSH1 0x0 DUP5 PUSH20 0xFFFFFFFFFFFFFFFFFFFFFFFFFFFFFFFFFFFFFFFF AND PUSH20 0xFFFFFFFFFFFFFFFFFFFFFFFFFFFFFFFFFFFFFFFF AND DUP2 MSTORE PUSH1 0x20 ADD SWAP1 DUP2 MSTORE PUSH1 0x20 ADD PUSH1 0x0 KECCAK256 SLOAD SWAP1 POP DUP2 DUP2 LT ISZERO PUSH2 0x138B JUMPI PUSH1 0x40 MLOAD PUSH32 0x8C379A000000000000000000000000000000000000000000000000000000000 DUP2 MSTORE PUSH1 0x4 ADD PUSH2 0x1382 SWAP1 PUSH2 0x2121 JUMP JUMPDEST PUSH1 0x40 MLOAD DUP1 SWAP2 SUB SWAP1 REVERT JUMPDEST DUP2 DUP2 SUB PUSH1 0x0 DUP1 DUP6 PUSH20 0xFFFFFFFFFFFFFFFFFFFFFFFFFFFFFFFFFFFFFFFF AND PUSH20 0xFFFFFFFFFFFFFFFFFFFFFFFFFFFFFFFFFFFFFFFF AND DUP2 MSTORE PUSH1 0x20 ADD SWAP1 DUP2 MSTORE PUSH1 0x20 ADD PUSH1 0x0 KECCAK256 DUP2 SWAP1 SSTORE POP DUP2 PUSH1 0x2 PUSH1 0x0 DUP3 DUP3 SLOAD SUB SWAP3 POP POP DUP2 SWAP1 SSTORE POP PUSH1 0x0 PUSH20 0xFFFFFFFFFFFFFFFFFFFFFFFFFFFFFFFFFFFFFFFF AND DUP4 PUSH20 0xFFFFFFFFFFFFFFFFFFFFFFFFFFFFFFFFFFFFFFFF AND PUSH32 0xDDF252AD1BE2C89B69C2B068FC378DAA952BA7F163C4A11628F55A4DF523B3EF DUP5 PUSH1 0x40 MLOAD PUSH2 0x143E SWAP2 SWAP1 PUSH2 0x1700 JUMP JUMPDEST PUSH1 0x40 MLOAD DUP1 SWAP2 SUB SWAP1 LOG3 PUSH2 0x1452 DUP4 PUSH1 0x0 DUP5 PUSH2 0x1522 JUMP JUMPDEST POP POP POP JUMP JUMPDEST PUSH1 0x0 PUSH1 0x5 PUSH1 0x0 SWAP1 SLOAD SWAP1 PUSH2 0x100 EXP SWAP1 DIV PUSH20 0xFFFFFFFFFFFFFFFFFFFFFFFFFFFFFFFFFFFFFFFF AND SWAP1 POP DUP2 PUSH1 0x5 PUSH1 0x0 PUSH2 0x100 EXP DUP2 SLOAD DUP2 PUSH20 0xFFFFFFFFFFFFFFFFFFFFFFFFFFFFFFFFFFFFFFFF MUL NOT AND SWAP1 DUP4 PUSH20 0xFFFFFFFFFFFFFFFFFFFFFFFFFFFFFFFFFFFFFFFF AND MUL OR SWAP1 SSTORE POP DUP2 PUSH20 0xFFFFFFFFFFFFFFFFFFFFFFFFFFFFFFFFFFFFFFFF AND DUP2 PUSH20 0xFFFFFFFFFFFFFFFFFFFFFFFFFFFFFFFFFFFFFFFF AND PUSH32 0x8BE0079C531659141344CD1FD0A4F28419497F9722A3DAAFE3B4186F6B6457E0 PUSH1 0x40 MLOAD PUSH1 0x40 MLOAD DUP1 SWAP2 SUB SWAP1 LOG3 POP POP JUMP JUMPDEST POP POP POP JUMP JUMPDEST POP POP POP JUMP JUMPDEST PUSH1 0x0 DUP2 MLOAD SWAP1 POP SWAP2 SWAP1 POP JUMP JUMPDEST PUSH1 0x0 DUP3 DUP3 MSTORE PUSH1 0x20 DUP3 ADD SWAP1 POP SWAP3 SWAP2 POP POP JUMP JUMPDEST PUSH1 0x0 JUMPDEST DUP4 DUP2 LT ISZERO PUSH2 0x1561 JUMPI DUP1 DUP3 ADD MLOAD DUP2 DUP5 ADD MSTORE PUSH1 0x20 DUP2 ADD SWAP1 POP PUSH2 0x1546 JUMP JUMPDEST DUP4 DUP2 GT ISZERO PUSH2 0x1570 JUMPI PUSH1 0x0 DUP5 DUP5 ADD MSTORE JUMPDEST POP POP POP POP JUMP JUMPDEST PUSH1 0x0 PUSH1 0x1F NOT PUSH1 0x1F DUP4 ADD AND SWAP1 POP SWAP2 SWAP1 POP JUMP JUMPDEST PUSH1 0x0 PUSH2 0x1592 DUP3 PUSH2 0x1527 JUMP JUMPDEST PUSH2 0x159C DUP2 DUP6 PUSH2 0x1532 JUMP JUMPDEST SWAP4 POP PUSH2 0x15AC DUP2 DUP6 PUSH1 0x20 DUP7 ADD PUSH2 0x1543 JUMP JUMPDEST PUSH2 0x15B5 DUP2 PUSH2 0x1576 JUMP JUMPDEST DUP5 ADD SWAP2 POP POP SWAP3 SWAP2 POP POP JUMP JUMPDEST PUSH1 0x0 PUSH1 0x20 DUP3 ADD SWAP1 POP DUP2 DUP2 SUB PUSH1 0x0 DUP4 ADD MSTORE PUSH2 0x15DA DUP2 DUP5 PUSH2 0x1587 JUMP JUMPDEST SWAP1 POP SWAP3 SWAP2 POP POP JUMP JUMPDEST PUSH1 0x0 DUP1 REVERT JUMPDEST PUSH1 0x0 PUSH20 0xFFFFFFFFFFFFFFFFFFFFFFFFFFFFFFFFFFFFFFFF DUP3 AND SWAP1 POP SWAP2 SWAP1 POP JUMP JUMPDEST PUSH1 0x0 PUSH2 0x1612 DUP3 PUSH2 0x15E7 JUMP JUMPDEST SWAP1 POP SWAP2 SWAP1 POP JUMP JUMPDEST PUSH2 0x1622 DUP2 PUSH2 0x1607 JUMP JUMPDEST DUP2 EQ PUSH2 0x162D JUMPI PUSH1 0x0 DUP1 REVERT JUMPDEST POP JUMP JUMPDEST PUSH1 0x0 DUP2 CALLDATALOAD SWAP1 POP PUSH2 0x163F DUP2 PUSH2 0x1619 JUMP JUMPDEST SWAP3 SWAP2 POP POP JUMP JUMPDEST PUSH1 0x0 DUP2 SWAP1 POP SWAP2 SWAP1 POP JUMP JUMPDEST PUSH2 0x1658 DUP2 PUSH2 0x1645 JUMP JUMPDEST DUP2 EQ PUSH2 0x1663 JUMPI PUSH1 0x0 DUP1 REVERT JUMPDEST POP JUMP JUMPDEST PUSH1 0x0 DUP2 CALLDATALOAD SWAP1 POP PUSH2 0x1675 DUP2 PUSH2 0x164F JUMP JUMPDEST SWAP3 SWAP2 POP POP JUMP JUMPDEST PUSH1 0x0 DUP1 PUSH1 0x40 DUP4 DUP6 SUB SLT ISZERO PUSH2 0x1692 JUMPI PUSH2 0x1691 PUSH2 0x15E2 JUMP JUMPDEST JUMPDEST PUSH1 0x0 PUSH2 0x16A0 DUP6 DUP3 DUP7 ADD PUSH2 0x1630 JUMP JUMPDEST SWAP3 POP POP PUSH1 0x20 PUSH2 0x16B1 DUP6 DUP3 DUP7 ADD PUSH2 0x1666 JUMP JUMPDEST SWAP2 POP POP SWAP3 POP SWAP3 SWAP1 POP JUMP JUMPDEST PUSH1 0x0 DUP2 ISZERO ISZERO SWAP1 POP SWAP2 SWAP1 POP JUMP JUMPDEST PUSH2 0x16D0 DUP2 PUSH2 0x16BB JUMP JUMPDEST DUP3 MSTORE POP POP JUMP JUMPDEST PUSH1 0x0 PUSH1 0x20 DUP3 ADD SWAP1 POP PUSH2 0x16EB PUSH1 0x0 DUP4 ADD DUP5 PUSH2 0x16C7 JUMP JUMPDEST SWAP3 SWAP2 POP POP JUMP JUMPDEST PUSH2 0x16FA DUP2 PUSH2 0x1645 JUMP JUMPDEST DUP3 MSTORE POP POP JUMP JUMPDEST PUSH1 0x0 PUSH1 0x20 DUP3 ADD SWAP1 POP PUSH2 0x1715 PUSH1 0x0 DUP4 ADD DUP5 PUSH2 0x16F1 JUMP JUMPDEST SWAP3 SWAP2 POP POP JUMP JUMPDEST PUSH1 0x0 DUP1 PUSH1 0x0 PUSH1 0x60 DUP5 DUP7 SUB SLT ISZERO PUSH2 0x1734 JUMPI PUSH2 0x1733 PUSH2 0x15E2 JUMP JUMPDEST JUMPDEST PUSH1 0x0 PUSH2 0x1742 DUP7 DUP3 DUP8 ADD PUSH2 0x1630 JUMP JUMPDEST SWAP4 POP POP PUSH1 0x20 PUSH2 0x1753 DUP7 DUP3 DUP8 ADD PUSH2 0x1630 JUMP JUMPDEST SWAP3 POP POP PUSH1 0x40 PUSH2 0x1764 DUP7 DUP3 DUP8 ADD PUSH2 0x1666 JUMP JUMPDEST SWAP2 POP POP SWAP3 POP SWAP3 POP SWAP3 JUMP JUMPDEST PUSH1 0x0 PUSH1 0xFF DUP3 AND SWAP1 POP SWAP2 SWAP1 POP JUMP JUMPDEST PUSH2 0x1784 DUP2 PUSH2 0x176E JUMP JUMPDEST DUP3 MSTORE POP POP JUMP JUMPDEST PUSH1 0x0 PUSH1 0x20 DUP3 ADD SWAP1 POP PUSH2 0x179F PUSH1 0x0 DUP4 ADD DUP5 PUSH2 0x177B JUMP JUMPDEST SWAP3 SWAP2 POP POP JUMP JUMPDEST PUSH1 0x0 PUSH1 0x20 DUP3 DUP5 SUB SLT ISZERO PUSH2 0x17BB JUMPI PUSH2 0x17BA PUSH2 0x15E2 JUMP JUMPDEST JUMPDEST PUSH1 0x0 PUSH2 0x17C9 DUP5 DUP3 DUP6 ADD PUSH2 0x1666 JUMP JUMPDEST SWAP2 POP POP SWAP3 SWAP2 POP POP JUMP JUMPDEST PUSH1 0x0 PUSH1 0x20 DUP3 DUP5 SUB SLT ISZERO PUSH2 0x17E8 JUMPI PUSH2 0x17E7 PUSH2 0x15E2 JUMP JUMPDEST JUMPDEST PUSH1 0x0 PUSH2 0x17F6 DUP5 DUP3 DUP6 ADD PUSH2 0x1630 JUMP JUMPDEST SWAP2 POP POP SWAP3 SWAP2 POP POP JUMP JUMPDEST PUSH2 0x1808 DUP2 PUSH2 0x1607 JUMP JUMPDEST DUP3 MSTORE POP POP JUMP JUMPDEST PUSH1 0x0 PUSH1 0x20 DUP3 ADD SWAP1 POP PUSH2 0x1823 PUSH1 0x0 DUP4 ADD DUP5 PUSH2 0x17FF JUMP JUMPDEST SWAP3 SWAP2 POP POP JUMP JUMPDEST PUSH1 0x0 DUP1 PUSH1 0x40 DUP4 DUP6 SUB SLT ISZERO PUSH2 0x1840 JUMPI PUSH2 0x183F PUSH2 0x15E2 JUMP JUMPDEST JUMPDEST PUSH1 0x0 PUSH2 0x184E DUP6 DUP3 DUP7 ADD PUSH2 0x1630 JUMP JUMPDEST SWAP3 POP POP PUSH1 0x20 PUSH2 0x185F DUP6 DUP3 DUP7 ADD PUSH2 0x1630 JUMP JUMPDEST SWAP2 POP POP SWAP3 POP SWAP3 SWAP1 POP JUMP JUMPDEST PUSH32 0x4E487B7100000000000000000000000000000000000000000000000000000000 PUSH1 0x0 MSTORE PUSH1 0x22 PUSH1 0x4 MSTORE PUSH1 0x24 PUSH1 0x0 REVERT JUMPDEST PUSH1 0x0 PUSH1 0x2 DUP3 DIV SWAP1 POP PUSH1 0x1 DUP3 AND DUP1 PUSH2 0x18B0 JUMPI PUSH1 0x7F DUP3 AND SWAP2 POP JUMPDEST PUSH1 0x20 DUP3 LT DUP2 EQ ISZERO PUSH2 0x18C4 JUMPI PUSH2 0x18C3 PUSH2 0x1869 JUMP JUMPDEST JUMPDEST POP SWAP2 SWAP1 POP JUMP JUMPDEST PUSH1 0x0 DUP2 MLOAD SWAP1 POP PUSH2 0x18D9 DUP2 PUSH2 0x164F JUMP JUMPDEST SWAP3 SWAP2 POP POP JUMP JUMPDEST PUSH1 0x0 PUSH1 0x20 DUP3 DUP5 SUB SLT ISZERO PUSH2 0x18F5 JUMPI PUSH2 0x18F4 PUSH2 0x15E2 JUMP JUMPDEST JUMPDEST PUSH1 0x0 PUSH2 0x1903 DUP5 DUP3 DUP6 ADD PUSH2 0x18CA JUMP JUMPDEST SWAP2 POP POP SWAP3 SWAP2 POP POP JUMP JUMPDEST PUSH32 0x4E487B7100000000000000000000000000000000000000000000000000000000 PUSH1 0x0 MSTORE PUSH1 0x11 PUSH1 0x4 MSTORE PUSH1 0x24 PUSH1 0x0 REVERT JUMPDEST PUSH1 0x0 PUSH2 0x1946 DUP3 PUSH2 0x1645 JUMP JUMPDEST SWAP2 POP PUSH2 0x1951 DUP4 PUSH2 0x1645 JUMP JUMPDEST SWAP3 POP DUP3 PUSH32 0xFFFFFFFFFFFFFFFFFFFFFFFFFFFFFFFFFFFFFFFFFFFFFFFFFFFFFFFFFFFFFFFF SUB DUP3 GT ISZERO PUSH2 0x1986 JUMPI PUSH2 0x1985 PUSH2 0x190C JUMP JUMPDEST JUMPDEST DUP3 DUP3 ADD SWAP1 POP SWAP3 SWAP2 POP POP JUMP JUMPDEST PUSH32 0x596F7520646F206E6F74206861766520656E6F75676820446567656E20546F6B PUSH1 0x0 DUP3 ADD MSTORE PUSH32 0x656E730000000000000000000000000000000000000000000000000000000000 PUSH1 0x20 DUP3 ADD MSTORE POP JUMP JUMPDEST PUSH1 0x0 PUSH2 0x19ED PUSH1 0x23 DUP4 PUSH2 0x1532 JUMP JUMPDEST SWAP2 POP PUSH2 0x19F8 DUP3 PUSH2 0x1991 JUMP JUMPDEST PUSH1 0x40 DUP3 ADD SWAP1 POP SWAP2 SWAP1 POP JUMP JUMPDEST PUSH1 0x0 PUSH1 0x20 DUP3 ADD SWAP1 POP DUP2 DUP2 SUB PUSH1 0x0 DUP4 ADD MSTORE PUSH2 0x1A1C DUP2 PUSH2 0x19E0 JUMP JUMPDEST SWAP1 POP SWAP2 SWAP1 POP JUMP JUMPDEST PUSH32 0x45524332303A2064656372656173656420616C6C6F77616E63652062656C6F77 PUSH1 0x0 DUP3 ADD MSTORE PUSH32 0x207A65726F000000000000000000000000000000000000000000000000000000 PUSH1 0x20 DUP3 ADD MSTORE POP JUMP JUMPDEST PUSH1 0x0 PUSH2 0x1A7F PUSH1 0x25 DUP4 PUSH2 0x1532 JUMP JUMPDEST SWAP2 POP PUSH2 0x1A8A DUP3 PUSH2 0x1A23 JUMP JUMPDEST PUSH1 0x40 DUP3 ADD SWAP1 POP SWAP2 SWAP1 POP JUMP JUMPDEST PUSH1 0x0 PUSH1 0x20 DUP3 ADD SWAP1 POP DUP2 DUP2 SUB PUSH1 0x0 DUP4 ADD MSTORE PUSH2 0x1AAE DUP2 PUSH2 0x1A72 JUMP JUMPDEST SWAP1 POP SWAP2 SWAP1 POP JUMP JUMPDEST PUSH32 0x53656C656374696F6E206F7574206F6620626F756E64732E20506C6561736520 PUSH1 0x0 DUP3 ADD MSTORE PUSH32 0x73656C6563742077697468696E2074686520617070726F766564206F7074696F PUSH1 0x20 DUP3 ADD MSTORE PUSH32 0x6E73000000000000000000000000000000000000000000000000000000000000 PUSH1 0x40 DUP3 ADD MSTORE POP JUMP JUMPDEST PUSH1 0x0 PUSH2 0x1B37 PUSH1 0x42 DUP4 PUSH2 0x1532 JUMP JUMPDEST SWAP2 POP PUSH2 0x1B42 DUP3 PUSH2 0x1AB5 JUMP JUMPDEST PUSH1 0x60 DUP3 ADD SWAP1 POP SWAP2 SWAP1 POP JUMP JUMPDEST PUSH1 0x0 PUSH1 0x20 DUP3 ADD SWAP1 POP DUP2 DUP2 SUB PUSH1 0x0 DUP4 ADD MSTORE PUSH2 0x1B66 DUP2 PUSH2 0x1B2A JUMP JUMPDEST SWAP1 POP SWAP2 SWAP1 POP JUMP JUMPDEST PUSH32 0x4F776E61626C653A206E6577206F776E657220697320746865207A65726F2061 PUSH1 0x0 DUP3 ADD MSTORE PUSH32 0x6464726573730000000000000000000000000000000000000000000000000000 PUSH1 0x20 DUP3 ADD MSTORE POP JUMP JUMPDEST PUSH1 0x0 PUSH2 0x1BC9 PUSH1 0x26 DUP4 PUSH2 0x1532 JUMP JUMPDEST SWAP2 POP PUSH2 0x1BD4 DUP3 PUSH2 0x1B6D JUMP JUMPDEST PUSH1 0x40 DUP3 ADD SWAP1 POP SWAP2 SWAP1 POP JUMP JUMPDEST PUSH1 0x0 PUSH1 0x20 DUP3 ADD SWAP1 POP DUP2 DUP2 SUB PUSH1 0x0 DUP4 ADD MSTORE PUSH2 0x1BF8 DUP2 PUSH2 0x1BBC JUMP JUMPDEST SWAP1 POP SWAP2 SWAP1 POP JUMP JUMPDEST PUSH32 0x45524332303A20617070726F76652066726F6D20746865207A65726F20616464 PUSH1 0x0 DUP3 ADD MSTORE PUSH32 0x7265737300000000000000000000000000000000000000000000000000000000 PUSH1 0x20 DUP3 ADD MSTORE POP JUMP JUMPDEST PUSH1 0x0 PUSH2 0x1C5B PUSH1 0x24 DUP4 PUSH2 0x1532 JUMP JUMPDEST SWAP2 POP PUSH2 0x1C66 DUP3 PUSH2 0x1BFF JUMP JUMPDEST PUSH1 0x40 DUP3 ADD SWAP1 POP SWAP2 SWAP1 POP JUMP JUMPDEST PUSH1 0x0 PUSH1 0x20 DUP3 ADD SWAP1 POP DUP2 DUP2 SUB PUSH1 0x0 DUP4 ADD MSTORE PUSH2 0x1C8A DUP2 PUSH2 0x1C4E JUMP JUMPDEST SWAP1 POP SWAP2 SWAP1 POP JUMP JUMPDEST PUSH32 0x45524332303A20617070726F766520746F20746865207A65726F206164647265 PUSH1 0x0 DUP3 ADD MSTORE PUSH32 0x7373000000000000000000000000000000000000000000000000000000000000 PUSH1 0x20 DUP3 ADD MSTORE POP JUMP JUMPDEST PUSH1 0x0 PUSH2 0x1CED PUSH1 0x22 DUP4 PUSH2 0x1532 JUMP JUMPDEST SWAP2 POP PUSH2 0x1CF8 DUP3 PUSH2 0x1C91 JUMP JUMPDEST PUSH1 0x40 DUP3 ADD SWAP1 POP SWAP2 SWAP1 POP JUMP JUMPDEST PUSH1 0x0 PUSH1 0x20 DUP3 ADD SWAP1 POP DUP2 DUP2 SUB PUSH1 0x0 DUP4 ADD MSTORE PUSH2 0x1D1C DUP2 PUSH2 0x1CE0 JUMP JUMPDEST SWAP1 POP SWAP2 SWAP1 POP JUMP JUMPDEST PUSH32 0x45524332303A20696E73756666696369656E7420616C6C6F77616E6365000000 PUSH1 0x0 DUP3 ADD MSTORE POP JUMP JUMPDEST PUSH1 0x0 PUSH2 0x1D59 PUSH1 0x1D DUP4 PUSH2 0x1532 JUMP JUMPDEST SWAP2 POP PUSH2 0x1D64 DUP3 PUSH2 0x1D23 JUMP JUMPDEST PUSH1 0x20 DUP3 ADD SWAP1 POP SWAP2 SWAP1 POP JUMP JUMPDEST PUSH1 0x0 PUSH1 0x20 DUP3 ADD SWAP1 POP DUP2 DUP2 SUB PUSH1 0x0 DUP4 ADD MSTORE PUSH2 0x1D88 DUP2 PUSH2 0x1D4C JUMP JUMPDEST SWAP1 POP SWAP2 SWAP1 POP JUMP JUMPDEST PUSH32 0x45524332303A207472616E736665722066726F6D20746865207A65726F206164 PUSH1 0x0 DUP3 ADD MSTORE PUSH32 0x6472657373000000000000000000000000000000000000000000000000000000 PUSH1 0x20 DUP3 ADD MSTORE POP JUMP JUMPDEST PUSH1 0x0 PUSH2 0x1DEB PUSH1 0x25 DUP4 PUSH2 0x1532 JUMP JUMPDEST SWAP2 POP PUSH2 0x1DF6 DUP3 PUSH2 0x1D8F JUMP JUMPDEST PUSH1 0x40 DUP3 ADD SWAP1 POP SWAP2 SWAP1 POP JUMP JUMPDEST PUSH1 0x0 PUSH1 0x20 DUP3 ADD SWAP1 POP DUP2 DUP2 SUB PUSH1 0x0 DUP4 ADD MSTORE PUSH2 0x1E1A DUP2 PUSH2 0x1DDE JUMP JUMPDEST SWAP1 POP SWAP2 SWAP1 POP JUMP JUMPDEST PUSH32 0x45524332303A207472616E7366657220746F20746865207A65726F2061646472 PUSH1 0x0 DUP3 ADD MSTORE PUSH32 0x6573730000000000000000000000000000000000000000000000000000000000 PUSH1 0x20 DUP3 ADD MSTORE POP JUMP JUMPDEST PUSH1 0x0 PUSH2 0x1E7D PUSH1 0x23 DUP4 PUSH2 0x1532 JUMP JUMPDEST SWAP2 POP PUSH2 0x1E88 DUP3 PUSH2 0x1E21 JUMP JUMPDEST PUSH1 0x40 DUP3 ADD SWAP1 POP SWAP2 SWAP1 POP JUMP JUMPDEST PUSH1 0x0 PUSH1 0x20 DUP3 ADD SWAP1 POP DUP2 DUP2 SUB PUSH1 0x0 DUP4 ADD MSTORE PUSH2 0x1EAC DUP2 PUSH2 0x1E70 JUMP JUMPDEST SWAP1 POP SWAP2 SWAP1 POP JUMP JUMPDEST PUSH32 0x45524332303A207472616E7366657220616D6F756E7420657863656564732062 PUSH1 0x0 DUP3 ADD MSTORE PUSH32 0x616C616E63650000000000000000000000000000000000000000000000000000 PUSH1 0x20 DUP3 ADD MSTORE POP JUMP JUMPDEST PUSH1 0x0 PUSH2 0x1F0F PUSH1 0x26 DUP4 PUSH2 0x1532 JUMP JUMPDEST SWAP2 POP PUSH2 0x1F1A DUP3 PUSH2 0x1EB3 JUMP JUMPDEST PUSH1 0x40 DUP3 ADD SWAP1 POP SWAP2 SWAP1 POP JUMP JUMPDEST PUSH1 0x0 PUSH1 0x20 DUP3 ADD SWAP1 POP DUP2 DUP2 SUB PUSH1 0x0 DUP4 ADD MSTORE PUSH2 0x1F3E DUP2 PUSH2 0x1F02 JUMP JUMPDEST SWAP1 POP SWAP2 SWAP1 POP JUMP JUMPDEST PUSH32 0x4F776E61626C653A2063616C6C6572206973206E6F7420746865206F776E6572 PUSH1 0x0 DUP3 ADD MSTORE POP JUMP JUMPDEST PUSH1 0x0 PUSH2 0x1F7B PUSH1 0x20 DUP4 PUSH2 0x1532 JUMP JUMPDEST SWAP2 POP PUSH2 0x1F86 DUP3 PUSH2 0x1F45 JUMP JUMPDEST PUSH1 0x20 DUP3 ADD SWAP1 POP SWAP2 SWAP1 POP JUMP JUMPDEST PUSH1 0x0 PUSH1 0x20 DUP3 ADD SWAP1 POP DUP2 DUP2 SUB PUSH1 0x0 DUP4 ADD MSTORE PUSH2 0x1FAA DUP2 PUSH2 0x1F6E JUMP JUMPDEST SWAP1 POP SWAP2 SWAP1 POP JUMP JUMPDEST PUSH32 0x45524332303A206D696E7420746F20746865207A65726F206164647265737300 PUSH1 0x0 DUP3 ADD MSTORE POP JUMP JUMPDEST PUSH1 0x0 PUSH2 0x1FE7 PUSH1 0x1F DUP4 PUSH2 0x1532 JUMP JUMPDEST SWAP2 POP PUSH2 0x1FF2 DUP3 PUSH2 0x1FB1 JUMP JUMPDEST PUSH1 0x20 DUP3 ADD SWAP1 POP SWAP2 SWAP1 POP JUMP JUMPDEST PUSH1 0x0 PUSH1 0x20 DUP3 ADD SWAP1 POP DUP2 DUP2 SUB PUSH1 0x0 DUP4 ADD MSTORE PUSH2 0x2016 DUP2 PUSH2 0x1FDA JUMP JUMPDEST SWAP1 POP SWAP2 SWAP1 POP JUMP JUMPDEST PUSH32 0x45524332303A206275726E2066726F6D20746865207A65726F20616464726573 PUSH1 0x0 DUP3 ADD MSTORE PUSH32 0x7300000000000000000000000000000000000000000000000000000000000000 PUSH1 0x20 DUP3 ADD MSTORE POP JUMP JUMPDEST PUSH1 0x0 PUSH2 0x2079 PUSH1 0x21 DUP4 PUSH2 0x1532 JUMP JUMPDEST SWAP2 POP PUSH2 0x2084 DUP3 PUSH2 0x201D JUMP JUMPDEST PUSH1 0x40 DUP3 ADD SWAP1 POP SWAP2 SWAP1 POP JUMP JUMPDEST PUSH1 0x0 PUSH1 0x20 DUP3 ADD SWAP1 POP DUP2 DUP2 SUB PUSH1 0x0 DUP4 ADD MSTORE PUSH2 0x20A8 DUP2 PUSH2 0x206C JUMP JUMPDEST SWAP1 POP SWAP2 SWAP1 POP JUMP JUMPDEST PUSH32 0x45524332303A206275726E20616D6F756E7420657863656564732062616C616E PUSH1 0x0 DUP3 ADD MSTORE PUSH32 0x6365000000000000000000000000000000000000000000000000000000000000 PUSH1 0x20 DUP3 ADD MSTORE POP JUMP JUMPDEST PUSH1 0x0 PUSH2 0x210B PUSH1 0x22 DUP4 PUSH2 0x1532 JUMP JUMPDEST SWAP2 POP PUSH2 0x2116 DUP3 PUSH2 0x20AF JUMP JUMPDEST PUSH1 0x40 DUP3 ADD SWAP1 POP SWAP2 SWAP1 POP JUMP JUMPDEST PUSH1 0x0 PUSH1 0x20 DUP3 ADD SWAP1 POP DUP2 DUP2 SUB PUSH1 0x0 DUP4 ADD MSTORE PUSH2 0x213A DUP2 PUSH2 0x20FE JUMP JUMPDEST SWAP1 POP SWAP2 SWAP1 POP JUMP INVALID 0x4F PUSH17 0x74696F6E20313A204D61646F6E61204E46 SLOAD KECCAK256 EXP KECCAK256 0x4F PUSH17 0x74696F6E20323A204D69726163756C6F75 PUSH20 0x204D6564616C200A204F7074696F6E20333A2050 PUSH16 0x727472616974206F662048696C646572 KECCAK256 TIMESTAMP PUSH2 0x6369 LOG2 PUSH5 0x6970667358 0x22 SLT KECCAK256 SWAP12 PUSH8 0xB2AFFA0FA2BCF1 DUP10 DUP7 0xA5 PUSH32 0x272219AEBF7A80AF39131B5010DAD8DC776964736F6C63430008090033000000 "
				},
				"gasEstimates": {
					"creation": {
						"codeDepositCost": "1730400",
						"executionCost": "infinite",
						"totalCost": "infinite"
					},
					"external": {
						"allowance(address,address)": "infinite",
						"approve(address,uint256)": "infinite",
						"balanceOf(address)": "2864",
						"burn(uint256)": "infinite",
						"burnFrom(address,uint256)": "infinite",
						"burnTokens(uint256)": "infinite",
						"decimals()": "380",
						"decreaseAllowance(address,uint256)": "infinite",
						"displayStoreItems()": "infinite",
						"getBalance()": "infinite",
						"increaseAllowance(address,uint256)": "infinite",
						"mint(address,uint256)": "infinite",
						"name()": "infinite",
						"owner()": "2611",
						"redeemTokens(uint256)": "infinite",
						"renounceOwnership()": "30443",
						"symbol()": "infinite",
						"totalSupply()": "2549",
						"transfer(address,uint256)": "infinite",
						"transferFrom(address,address,uint256)": "infinite",
						"transferOwnership(address)": "30879",
						"transferTokens(address,uint256)": "infinite"
					}
				},
				"methodIdentifiers": {
					"allowance(address,address)": "dd62ed3e",
					"approve(address,uint256)": "095ea7b3",
					"balanceOf(address)": "70a08231",
					"burn(uint256)": "42966c68",
					"burnFrom(address,uint256)": "79cc6790",
					"burnTokens(uint256)": "6d1b229d",
					"decimals()": "313ce567",
					"decreaseAllowance(address,uint256)": "a457c2d7",
					"displayStoreItems()": "178fb088",
					"getBalance()": "12065fe0",
					"increaseAllowance(address,uint256)": "39509351",
					"mint(address,uint256)": "40c10f19",
					"name()": "06fdde03",
					"owner()": "8da5cb5b",
					"redeemTokens(uint256)": "a6e158f8",
					"renounceOwnership()": "715018a6",
					"symbol()": "95d89b41",
					"totalSupply()": "18160ddd",
					"transfer(address,uint256)": "a9059cbb",
					"transferFrom(address,address,uint256)": "23b872dd",
					"transferOwnership(address)": "f2fde38b",
					"transferTokens(address,uint256)": "bec3fa17"
				}
			},
			"storageLayout": {
				"storage": [
					{
						"astId": 37,
						"contract": "DegenToken/contracts/DegenToken.sol:DegenToken",
						"label": "_balances",
						"offset": 0,
						"slot": "0",
						"type": "t_mapping(t_address,t_uint256)"
					},
					{
						"astId": 43,
						"contract": "DegenToken/contracts/DegenToken.sol:DegenToken",
						"label": "_allowances",
						"offset": 0,
						"slot": "1",
						"type": "t_mapping(t_address,t_mapping(t_address,t_uint256))"
					},
					{
						"astId": 45,
						"contract": "DegenToken/contracts/DegenToken.sol:DegenToken",
						"label": "_totalSupply",
						"offset": 0,
						"slot": "2",
						"type": "t_uint256"
					},
					{
						"astId": 47,
						"contract": "DegenToken/contracts/DegenToken.sol:DegenToken",
						"label": "_name",
						"offset": 0,
						"slot": "3",
						"type": "t_string_storage"
					},
					{
						"astId": 49,
						"contract": "DegenToken/contracts/DegenToken.sol:DegenToken",
						"label": "_symbol",
						"offset": 0,
						"slot": "4",
						"type": "t_string_storage"
					},
					{
						"astId": 763,
						"contract": "DegenToken/contracts/DegenToken.sol:DegenToken",
						"label": "_owner",
						"offset": 0,
						"slot": "5",
						"type": "t_address"
					}
				],
				"types": {
					"t_address": {
						"encoding": "inplace",
						"label": "address",
						"numberOfBytes": "20"
					},
					"t_mapping(t_address,t_mapping(t_address,t_uint256))": {
						"encoding": "mapping",
						"key": "t_address",
						"label": "mapping(address => mapping(address => uint256))",
						"numberOfBytes": "32",
						"value": "t_mapping(t_address,t_uint256)"
					},
					"t_mapping(t_address,t_uint256)": {
						"encoding": "mapping",
						"key": "t_address",
						"label": "mapping(address => uint256)",
						"numberOfBytes": "32",
						"value": "t_uint256"
					},
					"t_string_storage": {
						"encoding": "bytes",
						"label": "string",
						"numberOfBytes": "32"
					},
					"t_uint256": {
						"encoding": "inplace",
						"label": "uint256",
						"numberOfBytes": "32"
					}
				}
			},
			"userdoc": {
				"kind": "user",
				"methods": {},
				"version": 1
			}
		}
	}
}