{
	"DeFiInsurance/Insurance.sol": {
		"Insurance": {
			"abi": [
				{
					"inputs": [
						{
							"internalType": "string",
							"name": "_insuranceType",
							"type": "string"
						}
					],
					"name": "getInsuranceAmountPayable",
					"outputs": [
						{
							"internalType": "uint256",
							"name": "",
							"type": "uint256"
						}
					],
					"stateMutability": "view",
					"type": "function"
				},
				{
					"inputs": [
						{
							"internalType": "string",
							"name": "",
							"type": "string"
						}
					],
					"name": "insuranceAmountPayable",
					"outputs": [
						{
							"internalType": "uint256",
							"name": "",
							"type": "uint256"
						}
					],
					"stateMutability": "view",
					"type": "function"
				},
				{
					"inputs": [
						{
							"internalType": "string",
							"name": "_insuranceType",
							"type": "string"
						},
						{
							"internalType": "uint256",
							"name": "_amountPayable",
							"type": "uint256"
						}
					],
					"name": "setInsuranceType",
					"outputs": [],
					"stateMutability": "payable",
					"type": "function"
				}
			],
			"devdoc": {
				"kind": "dev",
				"methods": {},
				"version": 1
			},
			"evm": {
				"assembly": "    /* \"DeFiInsurance/Insurance.sol\":57:2482  contract Insurance{... */\n  mstore(0x40, 0x80)\n  callvalue\n  dup1\n  iszero\n  tag_1\n  jumpi\n  0x00\n  dup1\n  revert\ntag_1:\n  pop\n  dataSize(sub_0)\n  dup1\n  dataOffset(sub_0)\n  0x00\n  codecopy\n  0x00\n  return\nstop\n\nsub_0: assembly {\n        /* \"DeFiInsurance/Insurance.sol\":57:2482  contract Insurance{... */\n      mstore(0x40, 0x80)\n      jumpi(tag_1, lt(calldatasize, 0x04))\n      shr(0xe0, calldataload(0x00))\n      dup1\n      0x270e93e6\n      eq\n      tag_2\n      jumpi\n      dup1\n      0x2934eeea\n      eq\n      tag_3\n      jumpi\n      dup1\n      0xa1b92024\n      eq\n      tag_4\n      jumpi\n    tag_1:\n      0x00\n      dup1\n      revert\n        /* \"DeFiInsurance/Insurance.sol\":2313:2480  function getInsuranceAmountPayable(... */\n    tag_2:\n      callvalue\n      dup1\n      iszero\n      tag_5\n      jumpi\n      0x00\n      dup1\n      revert\n    tag_5:\n      pop\n      tag_6\n      0x04\n      dup1\n      calldatasize\n      sub\n      dup2\n      add\n      swap1\n      tag_7\n      swap2\n      swap1\n      tag_8\n      jump\t// in\n    tag_7:\n      tag_9\n      jump\t// in\n    tag_6:\n      mload(0x40)\n      tag_10\n      swap2\n      swap1\n      tag_11\n      jump\t// in\n    tag_10:\n      mload(0x40)\n      dup1\n      swap2\n      sub\n      swap1\n      return\n        /* \"DeFiInsurance/Insurance.sol\":1510:2237  function setInsuranceType(... */\n    tag_3:\n      tag_12\n      0x04\n      dup1\n      calldatasize\n      sub\n      dup2\n      add\n      swap1\n      tag_13\n      swap2\n      swap1\n      tag_14\n      jump\t// in\n    tag_13:\n      tag_15\n      jump\t// in\n    tag_12:\n      stop\n        /* \"DeFiInsurance/Insurance.sol\":337:391  mapping (string => uint) public insuranceAmountPayable */\n    tag_4:\n      callvalue\n      dup1\n      iszero\n      tag_16\n      jumpi\n      0x00\n      dup1\n      revert\n    tag_16:\n      pop\n      tag_17\n      0x04\n      dup1\n      calldatasize\n      sub\n      dup2\n      add\n      swap1\n      tag_18\n      swap2\n      swap1\n      tag_8\n      jump\t// in\n    tag_18:\n      tag_19\n      jump\t// in\n    tag_17:\n      mload(0x40)\n      tag_20\n      swap2\n      swap1\n      tag_11\n      jump\t// in\n    tag_20:\n      mload(0x40)\n      dup1\n      swap2\n      sub\n      swap1\n      return\n        /* \"DeFiInsurance/Insurance.sol\":2313:2480  function getInsuranceAmountPayable(... */\n    tag_9:\n        /* \"DeFiInsurance/Insurance.sol\":2413:2417  uint */\n      0x00\n        /* \"DeFiInsurance/Insurance.sol\":2435:2457  insuranceAmountPayable */\n      0x02\n        /* \"DeFiInsurance/Insurance.sol\":2458:2472  _insuranceType */\n      dup3\n        /* \"DeFiInsurance/Insurance.sol\":2435:2473  insuranceAmountPayable[_insuranceType] */\n      mload(0x40)\n      tag_22\n      swap2\n      swap1\n      tag_23\n      jump\t// in\n    tag_22:\n      swap1\n      dup2\n      mstore\n      0x20\n      add\n      mload(0x40)\n      dup1\n      swap2\n      sub\n      swap1\n      keccak256\n      sload\n        /* \"DeFiInsurance/Insurance.sol\":2428:2473  return insuranceAmountPayable[_insuranceType] */\n      swap1\n      pop\n        /* \"DeFiInsurance/Insurance.sol\":2313:2480  function getInsuranceAmountPayable(... */\n      swap2\n      swap1\n      pop\n      jump\t// out\n        /* \"DeFiInsurance/Insurance.sol\":1510:2237  function setInsuranceType(... */\n    tag_15:\n        /* \"DeFiInsurance/Insurance.sol\":1776:1817  isInsuranceTypeRegistered(_insuranceType) */\n      tag_25\n        /* \"DeFiInsurance/Insurance.sol\":1802:1816  _insuranceType */\n      dup3\n        /* \"DeFiInsurance/Insurance.sol\":1776:1801  isInsuranceTypeRegistered */\n      tag_26\n        /* \"DeFiInsurance/Insurance.sol\":1776:1817  isInsuranceTypeRegistered(_insuranceType) */\n      jump\t// in\n    tag_25:\n        /* \"DeFiInsurance/Insurance.sol\":1773:1889  if(isInsuranceTypeRegistered(_insuranceType)){... */\n      iszero\n      tag_27\n      jumpi\n        /* \"DeFiInsurance/Insurance.sol\":1832:1878  revert(\"Insurance Type is already registered\") */\n      mload(0x40)\n      0x08c379a000000000000000000000000000000000000000000000000000000000\n      dup2\n      mstore\n      0x04\n      add\n      tag_28\n      swap1\n      tag_29\n      jump\t// in\n    tag_28:\n      mload(0x40)\n      dup1\n      swap2\n      sub\n      swap1\n      revert\n        /* \"DeFiInsurance/Insurance.sol\":1773:1889  if(isInsuranceTypeRegistered(_insuranceType)){... */\n    tag_27:\n        /* \"DeFiInsurance/Insurance.sol\":1963:1977  insuranceTypes */\n      0x00\n        /* \"DeFiInsurance/Insurance.sol\":1983:1997  _insuranceType */\n      dup3\n        /* \"DeFiInsurance/Insurance.sol\":1963:1998  insuranceTypes.push(_insuranceType) */\n      swap1\n      dup1\n      0x01\n      dup2\n      sload\n      add\n      dup1\n      dup3\n      sstore\n      dup1\n      swap2\n      pop\n      pop\n      0x01\n      swap1\n      sub\n      swap1\n      0x00\n      mstore\n      keccak256(0x00, 0x20)\n      add\n      0x00\n      swap1\n      swap2\n      swap1\n      swap2\n      swap1\n      swap2\n      pop\n      swap1\n      dup2\n      tag_31\n      swap2\n      swap1\n      tag_32\n      jump\t// in\n    tag_31:\n      pop\n        /* \"DeFiInsurance/Insurance.sol\":2073:2087  amountsPayable */\n      0x01\n        /* \"DeFiInsurance/Insurance.sol\":2093:2107  _amountPayable */\n      dup2\n        /* \"DeFiInsurance/Insurance.sol\":2073:2108  amountsPayable.push(_amountPayable) */\n      swap1\n      dup1\n      0x01\n      dup2\n      sload\n      add\n      dup1\n      dup3\n      sstore\n      dup1\n      swap2\n      pop\n      pop\n      0x01\n      swap1\n      sub\n      swap1\n      0x00\n      mstore\n      keccak256(0x00, 0x20)\n      add\n      0x00\n      swap1\n      swap2\n      swap1\n      swap2\n      swap1\n      swap2\n      pop\n      sstore\n        /* \"DeFiInsurance/Insurance.sol\":2216:2230  _amountPayable */\n      dup1\n        /* \"DeFiInsurance/Insurance.sol\":2175:2197  insuranceAmountPayable */\n      0x02\n        /* \"DeFiInsurance/Insurance.sol\":2198:2212  _insuranceType */\n      dup4\n        /* \"DeFiInsurance/Insurance.sol\":2175:2213  insuranceAmountPayable[_insuranceType] */\n      mload(0x40)\n      tag_34\n      swap2\n      swap1\n      tag_23\n      jump\t// in\n    tag_34:\n      swap1\n      dup2\n      mstore\n      0x20\n      add\n      mload(0x40)\n      dup1\n      swap2\n      sub\n      swap1\n      keccak256\n        /* \"DeFiInsurance/Insurance.sol\":2175:2230  insuranceAmountPayable[_insuranceType] = _amountPayable */\n      dup2\n      swap1\n      sstore\n      pop\n        /* \"DeFiInsurance/Insurance.sol\":1510:2237  function setInsuranceType(... */\n      pop\n      pop\n      jump\t// out\n        /* \"DeFiInsurance/Insurance.sol\":337:391  mapping (string => uint) public insuranceAmountPayable */\n    tag_19:\n      0x02\n      dup2\n      dup1\n      mload\n      0x20\n      dup2\n      add\n      dup3\n      add\n      dup1\n      mload\n      dup5\n      dup3\n      mstore\n      0x20\n      dup4\n      add\n      0x20\n      dup6\n      add\n      keccak256\n      dup2\n      dup4\n      mstore\n      dup1\n      swap6\n      pop\n      pop\n      pop\n      pop\n      pop\n      pop\n      0x00\n      swap2\n      pop\n      swap1\n      pop\n      sload\n      dup2\n      jump\t// out\n        /* \"DeFiInsurance/Insurance.sol\":472:1454  function isInsuranceTypeRegistered(... */\n    tag_26:\n        /* \"DeFiInsurance/Insurance.sol\":573:577  bool */\n      0x00\n        /* \"DeFiInsurance/Insurance.sol\":644:672  bool insuranceTypeRegistered */\n      dup1\n        /* \"DeFiInsurance/Insurance.sol\":675:680  false */\n      0x00\n        /* \"DeFiInsurance/Insurance.sol\":644:680  bool insuranceTypeRegistered = false */\n      swap1\n      pop\n        /* \"DeFiInsurance/Insurance.sol\":831:837  uint i */\n      0x00\n        /* \"DeFiInsurance/Insurance.sol\":826:1408  for (uint i = 0; i < insuranceTypes.length; i++){... */\n    tag_36:\n        /* \"DeFiInsurance/Insurance.sol\":847:861  insuranceTypes */\n      0x00\n        /* \"DeFiInsurance/Insurance.sol\":847:868  insuranceTypes.length */\n      dup1\n      sload\n      swap1\n      pop\n        /* \"DeFiInsurance/Insurance.sol\":843:844  i */\n      dup2\n        /* \"DeFiInsurance/Insurance.sol\":843:868  i < insuranceTypes.length */\n      lt\n        /* \"DeFiInsurance/Insurance.sol\":826:1408  for (uint i = 0; i < insuranceTypes.length; i++){... */\n      iszero\n      tag_37\n      jumpi\n        /* \"DeFiInsurance/Insurance.sol\":1093:1107  insuranceTypes */\n      0x00\n        /* \"DeFiInsurance/Insurance.sol\":1108:1109  i */\n      dup2\n        /* \"DeFiInsurance/Insurance.sol\":1093:1110  insuranceTypes[i] */\n      dup2\n      sload\n      dup2\n      lt\n      tag_39\n      jumpi\n      tag_40\n      tag_41\n      jump\t// in\n    tag_40:\n    tag_39:\n      swap1\n      0x00\n      mstore\n      keccak256(0x00, 0x20)\n      add\n        /* \"DeFiInsurance/Insurance.sol\":1087:1118  bytes(insuranceTypes[i]).length */\n      dup1\n      sload\n      tag_43\n      swap1\n      tag_44\n      jump\t// in\n    tag_43:\n      swap1\n      pop\n        /* \"DeFiInsurance/Insurance.sol\":1061:1075  _insuranceType */\n      dup5\n        /* \"DeFiInsurance/Insurance.sol\":1055:1083  bytes(_insuranceType).length */\n      mload\n        /* \"DeFiInsurance/Insurance.sol\":1055:1118  bytes(_insuranceType).length == bytes(insuranceTypes[i]).length */\n      eq\n        /* \"DeFiInsurance/Insurance.sol\":1047:1119  require(bytes(_insuranceType).length == bytes(insuranceTypes[i]).length) */\n      tag_45\n      jumpi\n      0x00\n      dup1\n      revert\n    tag_45:\n        /* \"DeFiInsurance/Insurance.sol\":1257:1271  insuranceTypes */\n      0x00\n        /* \"DeFiInsurance/Insurance.sol\":1272:1273  i */\n      dup2\n        /* \"DeFiInsurance/Insurance.sol\":1257:1274  insuranceTypes[i] */\n      dup2\n      sload\n      dup2\n      lt\n      tag_46\n      jumpi\n      tag_47\n      tag_41\n      jump\t// in\n    tag_47:\n    tag_46:\n      swap1\n      0x00\n      mstore\n      keccak256(0x00, 0x20)\n      add\n        /* \"DeFiInsurance/Insurance.sol\":1240:1275  abi.encodePacked(insuranceTypes[i]) */\n      add(0x20, mload(0x40))\n      tag_49\n      swap2\n      swap1\n      tag_50\n      jump\t// in\n    tag_49:\n      mload(0x40)\n      0x20\n      dup2\n      dup4\n      sub\n      sub\n      dup2\n      mstore\n      swap1\n      0x40\n      mstore\n        /* \"DeFiInsurance/Insurance.sol\":1230:1276  keccak256(abi.encodePacked(insuranceTypes[i])) */\n      dup1\n      mload\n      swap1\n      0x20\n      add\n      keccak256\n        /* \"DeFiInsurance/Insurance.sol\":1189:1203  _insuranceType */\n      dup5\n        /* \"DeFiInsurance/Insurance.sol\":1172:1204  abi.encodePacked(_insuranceType) */\n      add(0x20, mload(0x40))\n      tag_51\n      swap2\n      swap1\n      tag_23\n      jump\t// in\n    tag_51:\n      mload(0x40)\n      0x20\n      dup2\n      dup4\n      sub\n      sub\n      dup2\n      mstore\n      swap1\n      0x40\n      mstore\n        /* \"DeFiInsurance/Insurance.sol\":1162:1205  keccak256(abi.encodePacked(_insuranceType)) */\n      dup1\n      mload\n      swap1\n      0x20\n      add\n      keccak256\n        /* \"DeFiInsurance/Insurance.sol\":1162:1276  keccak256(abi.encodePacked(_insuranceType)) == ... */\n      sub\n        /* \"DeFiInsurance/Insurance.sol\":1137:1394  if (... */\n      tag_52\n      jumpi\n        /* \"DeFiInsurance/Insurance.sol\":1343:1347  true */\n      0x01\n        /* \"DeFiInsurance/Insurance.sol\":1317:1347  insuranceTypeRegistered = true */\n      swap2\n      pop\n        /* \"DeFiInsurance/Insurance.sol\":1370:1375  break */\n      jump(tag_37)\n        /* \"DeFiInsurance/Insurance.sol\":1137:1394  if (... */\n    tag_52:\n        /* \"DeFiInsurance/Insurance.sol\":870:873  i++ */\n      dup1\n      dup1\n      0x01\n      add\n      swap2\n      pop\n      pop\n        /* \"DeFiInsurance/Insurance.sol\":826:1408  for (uint i = 0; i < insuranceTypes.length; i++){... */\n      jump(tag_36)\n    tag_37:\n      pop\n        /* \"DeFiInsurance/Insurance.sol\":1424:1447  insuranceTypeRegistered */\n      dup1\n        /* \"DeFiInsurance/Insurance.sol\":1417:1447  return insuranceTypeRegistered */\n      swap2\n      pop\n      pop\n        /* \"DeFiInsurance/Insurance.sol\":472:1454  function isInsuranceTypeRegistered(... */\n      swap2\n      swap1\n      pop\n      jump\t// out\n        /* \"#utility.yul\":7:82   */\n    tag_53:\n        /* \"#utility.yul\":40:46   */\n      0x00\n        /* \"#utility.yul\":73:75   */\n      0x40\n        /* \"#utility.yul\":67:76   */\n      mload\n        /* \"#utility.yul\":57:76   */\n      swap1\n      pop\n        /* \"#utility.yul\":7:82   */\n      swap1\n      jump\t// out\n        /* \"#utility.yul\":88:205   */\n    tag_54:\n        /* \"#utility.yul\":197:198   */\n      0x00\n        /* \"#utility.yul\":194:195   */\n      dup1\n        /* \"#utility.yul\":187:199   */\n      revert\n        /* \"#utility.yul\":211:328   */\n    tag_55:\n        /* \"#utility.yul\":320:321   */\n      0x00\n        /* \"#utility.yul\":317:318   */\n      dup1\n        /* \"#utility.yul\":310:322   */\n      revert\n        /* \"#utility.yul\":334:451   */\n    tag_56:\n        /* \"#utility.yul\":443:444   */\n      0x00\n        /* \"#utility.yul\":440:441   */\n      dup1\n        /* \"#utility.yul\":433:445   */\n      revert\n        /* \"#utility.yul\":457:574   */\n    tag_57:\n        /* \"#utility.yul\":566:567   */\n      0x00\n        /* \"#utility.yul\":563:564   */\n      dup1\n        /* \"#utility.yul\":556:568   */\n      revert\n        /* \"#utility.yul\":580:682   */\n    tag_58:\n        /* \"#utility.yul\":621:627   */\n      0x00\n        /* \"#utility.yul\":672:674   */\n      0x1f\n        /* \"#utility.yul\":668:675   */\n      not\n        /* \"#utility.yul\":663:665   */\n      0x1f\n        /* \"#utility.yul\":656:661   */\n      dup4\n        /* \"#utility.yul\":652:666   */\n      add\n        /* \"#utility.yul\":648:676   */\n      and\n        /* \"#utility.yul\":638:676   */\n      swap1\n      pop\n        /* \"#utility.yul\":580:682   */\n      swap2\n      swap1\n      pop\n      jump\t// out\n        /* \"#utility.yul\":688:868   */\n    tag_59:\n        /* \"#utility.yul\":736:813   */\n      0x4e487b7100000000000000000000000000000000000000000000000000000000\n        /* \"#utility.yul\":733:734   */\n      0x00\n        /* \"#utility.yul\":726:814   */\n      mstore\n        /* \"#utility.yul\":833:837   */\n      0x41\n        /* \"#utility.yul\":830:831   */\n      0x04\n        /* \"#utility.yul\":823:838   */\n      mstore\n        /* \"#utility.yul\":857:861   */\n      0x24\n        /* \"#utility.yul\":854:855   */\n      0x00\n        /* \"#utility.yul\":847:862   */\n      revert\n        /* \"#utility.yul\":874:1155   */\n    tag_60:\n        /* \"#utility.yul\":957:984   */\n      tag_103\n        /* \"#utility.yul\":979:983   */\n      dup3\n        /* \"#utility.yul\":957:984   */\n      tag_58\n      jump\t// in\n    tag_103:\n        /* \"#utility.yul\":949:955   */\n      dup2\n        /* \"#utility.yul\":945:985   */\n      add\n        /* \"#utility.yul\":1087:1093   */\n      dup2\n        /* \"#utility.yul\":1075:1085   */\n      dup2\n        /* \"#utility.yul\":1072:1094   */\n      lt\n        /* \"#utility.yul\":1051:1069   */\n      0xffffffffffffffff\n        /* \"#utility.yul\":1039:1049   */\n      dup3\n        /* \"#utility.yul\":1036:1070   */\n      gt\n        /* \"#utility.yul\":1033:1095   */\n      or\n        /* \"#utility.yul\":1030:1118   */\n      iszero\n      tag_104\n      jumpi\n        /* \"#utility.yul\":1098:1116   */\n      tag_105\n      tag_59\n      jump\t// in\n    tag_105:\n        /* \"#utility.yul\":1030:1118   */\n    tag_104:\n        /* \"#utility.yul\":1138:1148   */\n      dup1\n        /* \"#utility.yul\":1134:1136   */\n      0x40\n        /* \"#utility.yul\":1127:1149   */\n      mstore\n        /* \"#utility.yul\":917:1155   */\n      pop\n        /* \"#utility.yul\":874:1155   */\n      pop\n      pop\n      jump\t// out\n        /* \"#utility.yul\":1161:1290   */\n    tag_61:\n        /* \"#utility.yul\":1195:1201   */\n      0x00\n        /* \"#utility.yul\":1222:1242   */\n      tag_107\n      tag_53\n      jump\t// in\n    tag_107:\n        /* \"#utility.yul\":1212:1242   */\n      swap1\n      pop\n        /* \"#utility.yul\":1251:1284   */\n      tag_108\n        /* \"#utility.yul\":1279:1283   */\n      dup3\n        /* \"#utility.yul\":1271:1277   */\n      dup3\n        /* \"#utility.yul\":1251:1284   */\n      tag_60\n      jump\t// in\n    tag_108:\n        /* \"#utility.yul\":1161:1290   */\n      swap2\n      swap1\n      pop\n      jump\t// out\n        /* \"#utility.yul\":1296:1604   */\n    tag_62:\n        /* \"#utility.yul\":1358:1362   */\n      0x00\n        /* \"#utility.yul\":1448:1466   */\n      0xffffffffffffffff\n        /* \"#utility.yul\":1440:1446   */\n      dup3\n        /* \"#utility.yul\":1437:1467   */\n      gt\n        /* \"#utility.yul\":1434:1490   */\n      iszero\n      tag_110\n      jumpi\n        /* \"#utility.yul\":1470:1488   */\n      tag_111\n      tag_59\n      jump\t// in\n    tag_111:\n        /* \"#utility.yul\":1434:1490   */\n    tag_110:\n        /* \"#utility.yul\":1508:1537   */\n      tag_112\n        /* \"#utility.yul\":1530:1536   */\n      dup3\n        /* \"#utility.yul\":1508:1537   */\n      tag_58\n      jump\t// in\n    tag_112:\n        /* \"#utility.yul\":1500:1537   */\n      swap1\n      pop\n        /* \"#utility.yul\":1592:1596   */\n      0x20\n        /* \"#utility.yul\":1586:1590   */\n      dup2\n        /* \"#utility.yul\":1582:1597   */\n      add\n        /* \"#utility.yul\":1574:1597   */\n      swap1\n      pop\n        /* \"#utility.yul\":1296:1604   */\n      swap2\n      swap1\n      pop\n      jump\t// out\n        /* \"#utility.yul\":1610:1756   */\n    tag_63:\n        /* \"#utility.yul\":1707:1713   */\n      dup3\n        /* \"#utility.yul\":1702:1705   */\n      dup2\n        /* \"#utility.yul\":1697:1700   */\n      dup4\n        /* \"#utility.yul\":1684:1714   */\n      calldatacopy\n        /* \"#utility.yul\":1748:1749   */\n      0x00\n        /* \"#utility.yul\":1739:1745   */\n      dup4\n        /* \"#utility.yul\":1734:1737   */\n      dup4\n        /* \"#utility.yul\":1730:1746   */\n      add\n        /* \"#utility.yul\":1723:1750   */\n      mstore\n        /* \"#utility.yul\":1610:1756   */\n      pop\n      pop\n      pop\n      jump\t// out\n        /* \"#utility.yul\":1762:2187   */\n    tag_64:\n        /* \"#utility.yul\":1840:1845   */\n      0x00\n        /* \"#utility.yul\":1865:1931   */\n      tag_115\n        /* \"#utility.yul\":1881:1930   */\n      tag_116\n        /* \"#utility.yul\":1923:1929   */\n      dup5\n        /* \"#utility.yul\":1881:1930   */\n      tag_62\n      jump\t// in\n    tag_116:\n        /* \"#utility.yul\":1865:1931   */\n      tag_61\n      jump\t// in\n    tag_115:\n        /* \"#utility.yul\":1856:1931   */\n      swap1\n      pop\n        /* \"#utility.yul\":1954:1960   */\n      dup3\n        /* \"#utility.yul\":1947:1952   */\n      dup2\n        /* \"#utility.yul\":1940:1961   */\n      mstore\n        /* \"#utility.yul\":1992:1996   */\n      0x20\n        /* \"#utility.yul\":1985:1990   */\n      dup2\n        /* \"#utility.yul\":1981:1997   */\n      add\n        /* \"#utility.yul\":2030:2033   */\n      dup5\n        /* \"#utility.yul\":2021:2027   */\n      dup5\n        /* \"#utility.yul\":2016:2019   */\n      dup5\n        /* \"#utility.yul\":2012:2028   */\n      add\n        /* \"#utility.yul\":2009:2034   */\n      gt\n        /* \"#utility.yul\":2006:2118   */\n      iszero\n      tag_117\n      jumpi\n        /* \"#utility.yul\":2037:2116   */\n      tag_118\n      tag_57\n      jump\t// in\n    tag_118:\n        /* \"#utility.yul\":2006:2118   */\n    tag_117:\n        /* \"#utility.yul\":2127:2181   */\n      tag_119\n        /* \"#utility.yul\":2174:2180   */\n      dup5\n        /* \"#utility.yul\":2169:2172   */\n      dup3\n        /* \"#utility.yul\":2164:2167   */\n      dup6\n        /* \"#utility.yul\":2127:2181   */\n      tag_63\n      jump\t// in\n    tag_119:\n        /* \"#utility.yul\":1846:2187   */\n      pop\n        /* \"#utility.yul\":1762:2187   */\n      swap4\n      swap3\n      pop\n      pop\n      pop\n      jump\t// out\n        /* \"#utility.yul\":2207:2547   */\n    tag_65:\n        /* \"#utility.yul\":2263:2268   */\n      0x00\n        /* \"#utility.yul\":2312:2315   */\n      dup3\n        /* \"#utility.yul\":2305:2309   */\n      0x1f\n        /* \"#utility.yul\":2297:2303   */\n      dup4\n        /* \"#utility.yul\":2293:2310   */\n      add\n        /* \"#utility.yul\":2289:2316   */\n      slt\n        /* \"#utility.yul\":2279:2401   */\n      tag_121\n      jumpi\n        /* \"#utility.yul\":2320:2399   */\n      tag_122\n      tag_56\n      jump\t// in\n    tag_122:\n        /* \"#utility.yul\":2279:2401   */\n    tag_121:\n        /* \"#utility.yul\":2437:2443   */\n      dup2\n        /* \"#utility.yul\":2424:2444   */\n      calldataload\n        /* \"#utility.yul\":2462:2541   */\n      tag_123\n        /* \"#utility.yul\":2537:2540   */\n      dup5\n        /* \"#utility.yul\":2529:2535   */\n      dup3\n        /* \"#utility.yul\":2522:2526   */\n      0x20\n        /* \"#utility.yul\":2514:2520   */\n      dup7\n        /* \"#utility.yul\":2510:2527   */\n      add\n        /* \"#utility.yul\":2462:2541   */\n      tag_64\n      jump\t// in\n    tag_123:\n        /* \"#utility.yul\":2453:2541   */\n      swap2\n      pop\n        /* \"#utility.yul\":2269:2547   */\n      pop\n        /* \"#utility.yul\":2207:2547   */\n      swap3\n      swap2\n      pop\n      pop\n      jump\t// out\n        /* \"#utility.yul\":2553:3062   */\n    tag_8:\n        /* \"#utility.yul\":2622:2628   */\n      0x00\n        /* \"#utility.yul\":2671:2673   */\n      0x20\n        /* \"#utility.yul\":2659:2668   */\n      dup3\n        /* \"#utility.yul\":2650:2657   */\n      dup5\n        /* \"#utility.yul\":2646:2669   */\n      sub\n        /* \"#utility.yul\":2642:2674   */\n      slt\n        /* \"#utility.yul\":2639:2758   */\n      iszero\n      tag_125\n      jumpi\n        /* \"#utility.yul\":2677:2756   */\n      tag_126\n      tag_54\n      jump\t// in\n    tag_126:\n        /* \"#utility.yul\":2639:2758   */\n    tag_125:\n        /* \"#utility.yul\":2825:2826   */\n      0x00\n        /* \"#utility.yul\":2814:2823   */\n      dup3\n        /* \"#utility.yul\":2810:2827   */\n      add\n        /* \"#utility.yul\":2797:2828   */\n      calldataload\n        /* \"#utility.yul\":2855:2873   */\n      0xffffffffffffffff\n        /* \"#utility.yul\":2847:2853   */\n      dup2\n        /* \"#utility.yul\":2844:2874   */\n      gt\n        /* \"#utility.yul\":2841:2958   */\n      iszero\n      tag_127\n      jumpi\n        /* \"#utility.yul\":2877:2956   */\n      tag_128\n      tag_55\n      jump\t// in\n    tag_128:\n        /* \"#utility.yul\":2841:2958   */\n    tag_127:\n        /* \"#utility.yul\":2982:3045   */\n      tag_129\n        /* \"#utility.yul\":3037:3044   */\n      dup5\n        /* \"#utility.yul\":3028:3034   */\n      dup3\n        /* \"#utility.yul\":3017:3026   */\n      dup6\n        /* \"#utility.yul\":3013:3035   */\n      add\n        /* \"#utility.yul\":2982:3045   */\n      tag_65\n      jump\t// in\n    tag_129:\n        /* \"#utility.yul\":2972:3045   */\n      swap2\n      pop\n        /* \"#utility.yul\":2768:3055   */\n      pop\n        /* \"#utility.yul\":2553:3062   */\n      swap3\n      swap2\n      pop\n      pop\n      jump\t// out\n        /* \"#utility.yul\":3068:3145   */\n    tag_66:\n        /* \"#utility.yul\":3105:3112   */\n      0x00\n        /* \"#utility.yul\":3134:3139   */\n      dup2\n        /* \"#utility.yul\":3123:3139   */\n      swap1\n      pop\n        /* \"#utility.yul\":3068:3145   */\n      swap2\n      swap1\n      pop\n      jump\t// out\n        /* \"#utility.yul\":3151:3269   */\n    tag_67:\n        /* \"#utility.yul\":3238:3262   */\n      tag_132\n        /* \"#utility.yul\":3256:3261   */\n      dup2\n        /* \"#utility.yul\":3238:3262   */\n      tag_66\n      jump\t// in\n    tag_132:\n        /* \"#utility.yul\":3233:3236   */\n      dup3\n        /* \"#utility.yul\":3226:3263   */\n      mstore\n        /* \"#utility.yul\":3151:3269   */\n      pop\n      pop\n      jump\t// out\n        /* \"#utility.yul\":3275:3497   */\n    tag_11:\n        /* \"#utility.yul\":3368:3372   */\n      0x00\n        /* \"#utility.yul\":3406:3408   */\n      0x20\n        /* \"#utility.yul\":3395:3404   */\n      dup3\n        /* \"#utility.yul\":3391:3409   */\n      add\n        /* \"#utility.yul\":3383:3409   */\n      swap1\n      pop\n        /* \"#utility.yul\":3419:3490   */\n      tag_134\n        /* \"#utility.yul\":3487:3488   */\n      0x00\n        /* \"#utility.yul\":3476:3485   */\n      dup4\n        /* \"#utility.yul\":3472:3489   */\n      add\n        /* \"#utility.yul\":3463:3469   */\n      dup5\n        /* \"#utility.yul\":3419:3490   */\n      tag_67\n      jump\t// in\n    tag_134:\n        /* \"#utility.yul\":3275:3497   */\n      swap3\n      swap2\n      pop\n      pop\n      jump\t// out\n        /* \"#utility.yul\":3503:3625   */\n    tag_68:\n        /* \"#utility.yul\":3576:3600   */\n      tag_136\n        /* \"#utility.yul\":3594:3599   */\n      dup2\n        /* \"#utility.yul\":3576:3600   */\n      tag_66\n      jump\t// in\n    tag_136:\n        /* \"#utility.yul\":3569:3574   */\n      dup2\n        /* \"#utility.yul\":3566:3601   */\n      eq\n        /* \"#utility.yul\":3556:3619   */\n      tag_137\n      jumpi\n        /* \"#utility.yul\":3615:3616   */\n      0x00\n        /* \"#utility.yul\":3612:3613   */\n      dup1\n        /* \"#utility.yul\":3605:3617   */\n      revert\n        /* \"#utility.yul\":3556:3619   */\n    tag_137:\n        /* \"#utility.yul\":3503:3625   */\n      pop\n      jump\t// out\n        /* \"#utility.yul\":3631:3770   */\n    tag_69:\n        /* \"#utility.yul\":3677:3682   */\n      0x00\n        /* \"#utility.yul\":3715:3721   */\n      dup2\n        /* \"#utility.yul\":3702:3722   */\n      calldataload\n        /* \"#utility.yul\":3693:3722   */\n      swap1\n      pop\n        /* \"#utility.yul\":3731:3764   */\n      tag_139\n        /* \"#utility.yul\":3758:3763   */\n      dup2\n        /* \"#utility.yul\":3731:3764   */\n      tag_68\n      jump\t// in\n    tag_139:\n        /* \"#utility.yul\":3631:3770   */\n      swap3\n      swap2\n      pop\n      pop\n      jump\t// out\n        /* \"#utility.yul\":3776:4430   */\n    tag_14:\n        /* \"#utility.yul\":3854:3860   */\n      0x00\n        /* \"#utility.yul\":3862:3868   */\n      dup1\n        /* \"#utility.yul\":3911:3913   */\n      0x40\n        /* \"#utility.yul\":3899:3908   */\n      dup4\n        /* \"#utility.yul\":3890:3897   */\n      dup6\n        /* \"#utility.yul\":3886:3909   */\n      sub\n        /* \"#utility.yul\":3882:3914   */\n      slt\n        /* \"#utility.yul\":3879:3998   */\n      iszero\n      tag_141\n      jumpi\n        /* \"#utility.yul\":3917:3996   */\n      tag_142\n      tag_54\n      jump\t// in\n    tag_142:\n        /* \"#utility.yul\":3879:3998   */\n    tag_141:\n        /* \"#utility.yul\":4065:4066   */\n      0x00\n        /* \"#utility.yul\":4054:4063   */\n      dup4\n        /* \"#utility.yul\":4050:4067   */\n      add\n        /* \"#utility.yul\":4037:4068   */\n      calldataload\n        /* \"#utility.yul\":4095:4113   */\n      0xffffffffffffffff\n        /* \"#utility.yul\":4087:4093   */\n      dup2\n        /* \"#utility.yul\":4084:4114   */\n      gt\n        /* \"#utility.yul\":4081:4198   */\n      iszero\n      tag_143\n      jumpi\n        /* \"#utility.yul\":4117:4196   */\n      tag_144\n      tag_55\n      jump\t// in\n    tag_144:\n        /* \"#utility.yul\":4081:4198   */\n    tag_143:\n        /* \"#utility.yul\":4222:4285   */\n      tag_145\n        /* \"#utility.yul\":4277:4284   */\n      dup6\n        /* \"#utility.yul\":4268:4274   */\n      dup3\n        /* \"#utility.yul\":4257:4266   */\n      dup7\n        /* \"#utility.yul\":4253:4275   */\n      add\n        /* \"#utility.yul\":4222:4285   */\n      tag_65\n      jump\t// in\n    tag_145:\n        /* \"#utility.yul\":4212:4285   */\n      swap3\n      pop\n        /* \"#utility.yul\":4008:4295   */\n      pop\n        /* \"#utility.yul\":4334:4336   */\n      0x20\n        /* \"#utility.yul\":4360:4413   */\n      tag_146\n        /* \"#utility.yul\":4405:4412   */\n      dup6\n        /* \"#utility.yul\":4396:4402   */\n      dup3\n        /* \"#utility.yul\":4385:4394   */\n      dup7\n        /* \"#utility.yul\":4381:4403   */\n      add\n        /* \"#utility.yul\":4360:4413   */\n      tag_69\n      jump\t// in\n    tag_146:\n        /* \"#utility.yul\":4350:4413   */\n      swap2\n      pop\n        /* \"#utility.yul\":4305:4423   */\n      pop\n        /* \"#utility.yul\":3776:4430   */\n      swap3\n      pop\n      swap3\n      swap1\n      pop\n      jump\t// out\n        /* \"#utility.yul\":4436:4535   */\n    tag_70:\n        /* \"#utility.yul\":4488:4494   */\n      0x00\n        /* \"#utility.yul\":4522:4527   */\n      dup2\n        /* \"#utility.yul\":4516:4528   */\n      mload\n        /* \"#utility.yul\":4506:4528   */\n      swap1\n      pop\n        /* \"#utility.yul\":4436:4535   */\n      swap2\n      swap1\n      pop\n      jump\t// out\n        /* \"#utility.yul\":4541:4689   */\n    tag_71:\n        /* \"#utility.yul\":4643:4654   */\n      0x00\n        /* \"#utility.yul\":4680:4683   */\n      dup2\n        /* \"#utility.yul\":4665:4683   */\n      swap1\n      pop\n        /* \"#utility.yul\":4541:4689   */\n      swap3\n      swap2\n      pop\n      pop\n      jump\t// out\n        /* \"#utility.yul\":4695:4941   */\n    tag_72:\n        /* \"#utility.yul\":4776:4777   */\n      0x00\n        /* \"#utility.yul\":4786:4899   */\n    tag_150:\n        /* \"#utility.yul\":4800:4806   */\n      dup4\n        /* \"#utility.yul\":4797:4798   */\n      dup2\n        /* \"#utility.yul\":4794:4807   */\n      lt\n        /* \"#utility.yul\":4786:4899   */\n      iszero\n      tag_152\n      jumpi\n        /* \"#utility.yul\":4885:4886   */\n      dup1\n        /* \"#utility.yul\":4880:4883   */\n      dup3\n        /* \"#utility.yul\":4876:4887   */\n      add\n        /* \"#utility.yul\":4870:4888   */\n      mload\n        /* \"#utility.yul\":4866:4867   */\n      dup2\n        /* \"#utility.yul\":4861:4864   */\n      dup5\n        /* \"#utility.yul\":4857:4868   */\n      add\n        /* \"#utility.yul\":4850:4889   */\n      mstore\n        /* \"#utility.yul\":4822:4824   */\n      0x20\n        /* \"#utility.yul\":4819:4820   */\n      dup2\n        /* \"#utility.yul\":4815:4825   */\n      add\n        /* \"#utility.yul\":4810:4825   */\n      swap1\n      pop\n        /* \"#utility.yul\":4786:4899   */\n      jump(tag_150)\n    tag_152:\n        /* \"#utility.yul\":4933:4934   */\n      0x00\n        /* \"#utility.yul\":4924:4930   */\n      dup5\n        /* \"#utility.yul\":4919:4922   */\n      dup5\n        /* \"#utility.yul\":4915:4931   */\n      add\n        /* \"#utility.yul\":4908:4935   */\n      mstore\n        /* \"#utility.yul\":4757:4941   */\n      pop\n        /* \"#utility.yul\":4695:4941   */\n      pop\n      pop\n      pop\n      jump\t// out\n        /* \"#utility.yul\":4947:5337   */\n    tag_73:\n        /* \"#utility.yul\":5053:5056   */\n      0x00\n        /* \"#utility.yul\":5081:5120   */\n      tag_154\n        /* \"#utility.yul\":5114:5119   */\n      dup3\n        /* \"#utility.yul\":5081:5120   */\n      tag_70\n      jump\t// in\n    tag_154:\n        /* \"#utility.yul\":5136:5225   */\n      tag_155\n        /* \"#utility.yul\":5218:5224   */\n      dup2\n        /* \"#utility.yul\":5213:5216   */\n      dup6\n        /* \"#utility.yul\":5136:5225   */\n      tag_71\n      jump\t// in\n    tag_155:\n        /* \"#utility.yul\":5129:5225   */\n      swap4\n      pop\n        /* \"#utility.yul\":5234:5299   */\n      tag_156\n        /* \"#utility.yul\":5292:5298   */\n      dup2\n        /* \"#utility.yul\":5287:5290   */\n      dup6\n        /* \"#utility.yul\":5280:5284   */\n      0x20\n        /* \"#utility.yul\":5273:5278   */\n      dup7\n        /* \"#utility.yul\":5269:5285   */\n      add\n        /* \"#utility.yul\":5234:5299   */\n      tag_72\n      jump\t// in\n    tag_156:\n        /* \"#utility.yul\":5324:5330   */\n      dup1\n        /* \"#utility.yul\":5319:5322   */\n      dup5\n        /* \"#utility.yul\":5315:5331   */\n      add\n        /* \"#utility.yul\":5308:5331   */\n      swap2\n      pop\n        /* \"#utility.yul\":5057:5337   */\n      pop\n        /* \"#utility.yul\":4947:5337   */\n      swap3\n      swap2\n      pop\n      pop\n      jump\t// out\n        /* \"#utility.yul\":5343:5618   */\n    tag_23:\n        /* \"#utility.yul\":5475:5478   */\n      0x00\n        /* \"#utility.yul\":5497:5592   */\n      tag_158\n        /* \"#utility.yul\":5588:5591   */\n      dup3\n        /* \"#utility.yul\":5579:5585   */\n      dup5\n        /* \"#utility.yul\":5497:5592   */\n      tag_73\n      jump\t// in\n    tag_158:\n        /* \"#utility.yul\":5490:5592   */\n      swap2\n      pop\n        /* \"#utility.yul\":5609:5612   */\n      dup2\n        /* \"#utility.yul\":5602:5612   */\n      swap1\n      pop\n        /* \"#utility.yul\":5343:5618   */\n      swap3\n      swap2\n      pop\n      pop\n      jump\t// out\n        /* \"#utility.yul\":5624:5793   */\n    tag_74:\n        /* \"#utility.yul\":5708:5719   */\n      0x00\n        /* \"#utility.yul\":5742:5748   */\n      dup3\n        /* \"#utility.yul\":5737:5740   */\n      dup3\n        /* \"#utility.yul\":5730:5749   */\n      mstore\n        /* \"#utility.yul\":5782:5786   */\n      0x20\n        /* \"#utility.yul\":5777:5780   */\n      dup3\n        /* \"#utility.yul\":5773:5787   */\n      add\n        /* \"#utility.yul\":5758:5787   */\n      swap1\n      pop\n        /* \"#utility.yul\":5624:5793   */\n      swap3\n      swap2\n      pop\n      pop\n      jump\t// out\n        /* \"#utility.yul\":5799:6022   */\n    tag_75:\n        /* \"#utility.yul\":5939:5973   */\n      0x496e737572616e6365205479706520697320616c726561647920726567697374\n        /* \"#utility.yul\":5935:5936   */\n      0x00\n        /* \"#utility.yul\":5927:5933   */\n      dup3\n        /* \"#utility.yul\":5923:5937   */\n      add\n        /* \"#utility.yul\":5916:5974   */\n      mstore\n        /* \"#utility.yul\":6008:6014   */\n      0x6572656400000000000000000000000000000000000000000000000000000000\n        /* \"#utility.yul\":6003:6005   */\n      0x20\n        /* \"#utility.yul\":5995:6001   */\n      dup3\n        /* \"#utility.yul\":5991:6006   */\n      add\n        /* \"#utility.yul\":5984:6015   */\n      mstore\n        /* \"#utility.yul\":5799:6022   */\n      pop\n      jump\t// out\n        /* \"#utility.yul\":6028:6394   */\n    tag_76:\n        /* \"#utility.yul\":6170:6173   */\n      0x00\n        /* \"#utility.yul\":6191:6258   */\n      tag_162\n        /* \"#utility.yul\":6255:6257   */\n      0x24\n        /* \"#utility.yul\":6250:6253   */\n      dup4\n        /* \"#utility.yul\":6191:6258   */\n      tag_74\n      jump\t// in\n    tag_162:\n        /* \"#utility.yul\":6184:6258   */\n      swap2\n      pop\n        /* \"#utility.yul\":6267:6360   */\n      tag_163\n        /* \"#utility.yul\":6356:6359   */\n      dup3\n        /* \"#utility.yul\":6267:6360   */\n      tag_75\n      jump\t// in\n    tag_163:\n        /* \"#utility.yul\":6385:6387   */\n      0x40\n        /* \"#utility.yul\":6380:6383   */\n      dup3\n        /* \"#utility.yul\":6376:6388   */\n      add\n        /* \"#utility.yul\":6369:6388   */\n      swap1\n      pop\n        /* \"#utility.yul\":6028:6394   */\n      swap2\n      swap1\n      pop\n      jump\t// out\n        /* \"#utility.yul\":6400:6819   */\n    tag_29:\n        /* \"#utility.yul\":6566:6570   */\n      0x00\n        /* \"#utility.yul\":6604:6606   */\n      0x20\n        /* \"#utility.yul\":6593:6602   */\n      dup3\n        /* \"#utility.yul\":6589:6607   */\n      add\n        /* \"#utility.yul\":6581:6607   */\n      swap1\n      pop\n        /* \"#utility.yul\":6653:6662   */\n      dup2\n        /* \"#utility.yul\":6647:6651   */\n      dup2\n        /* \"#utility.yul\":6643:6663   */\n      sub\n        /* \"#utility.yul\":6639:6640   */\n      0x00\n        /* \"#utility.yul\":6628:6637   */\n      dup4\n        /* \"#utility.yul\":6624:6641   */\n      add\n        /* \"#utility.yul\":6617:6664   */\n      mstore\n        /* \"#utility.yul\":6681:6812   */\n      tag_165\n        /* \"#utility.yul\":6807:6811   */\n      dup2\n        /* \"#utility.yul\":6681:6812   */\n      tag_76\n      jump\t// in\n    tag_165:\n        /* \"#utility.yul\":6673:6812   */\n      swap1\n      pop\n        /* \"#utility.yul\":6400:6819   */\n      swap2\n      swap1\n      pop\n      jump\t// out\n        /* \"#utility.yul\":6825:7005   */\n    tag_77:\n        /* \"#utility.yul\":6873:6950   */\n      0x4e487b7100000000000000000000000000000000000000000000000000000000\n        /* \"#utility.yul\":6870:6871   */\n      0x00\n        /* \"#utility.yul\":6863:6951   */\n      mstore\n        /* \"#utility.yul\":6970:6974   */\n      0x22\n        /* \"#utility.yul\":6967:6968   */\n      0x04\n        /* \"#utility.yul\":6960:6975   */\n      mstore\n        /* \"#utility.yul\":6994:6998   */\n      0x24\n        /* \"#utility.yul\":6991:6992   */\n      0x00\n        /* \"#utility.yul\":6984:6999   */\n      revert\n        /* \"#utility.yul\":7011:7331   */\n    tag_44:\n        /* \"#utility.yul\":7055:7061   */\n      0x00\n        /* \"#utility.yul\":7092:7093   */\n      0x02\n        /* \"#utility.yul\":7086:7090   */\n      dup3\n        /* \"#utility.yul\":7082:7094   */\n      div\n        /* \"#utility.yul\":7072:7094   */\n      swap1\n      pop\n        /* \"#utility.yul\":7139:7140   */\n      0x01\n        /* \"#utility.yul\":7133:7137   */\n      dup3\n        /* \"#utility.yul\":7129:7141   */\n      and\n        /* \"#utility.yul\":7160:7178   */\n      dup1\n        /* \"#utility.yul\":7150:7231   */\n      tag_168\n      jumpi\n        /* \"#utility.yul\":7216:7220   */\n      0x7f\n        /* \"#utility.yul\":7208:7214   */\n      dup3\n        /* \"#utility.yul\":7204:7221   */\n      and\n        /* \"#utility.yul\":7194:7221   */\n      swap2\n      pop\n        /* \"#utility.yul\":7150:7231   */\n    tag_168:\n        /* \"#utility.yul\":7278:7280   */\n      0x20\n        /* \"#utility.yul\":7270:7276   */\n      dup3\n        /* \"#utility.yul\":7267:7281   */\n      lt\n        /* \"#utility.yul\":7247:7265   */\n      dup2\n        /* \"#utility.yul\":7244:7282   */\n      sub\n        /* \"#utility.yul\":7241:7325   */\n      tag_169\n      jumpi\n        /* \"#utility.yul\":7297:7315   */\n      tag_170\n      tag_77\n      jump\t// in\n    tag_170:\n        /* \"#utility.yul\":7241:7325   */\n    tag_169:\n        /* \"#utility.yul\":7062:7331   */\n      pop\n        /* \"#utility.yul\":7011:7331   */\n      swap2\n      swap1\n      pop\n      jump\t// out\n        /* \"#utility.yul\":7337:7478   */\n    tag_78:\n        /* \"#utility.yul\":7386:7390   */\n      0x00\n        /* \"#utility.yul\":7409:7412   */\n      dup2\n        /* \"#utility.yul\":7401:7412   */\n      swap1\n      pop\n        /* \"#utility.yul\":7432:7435   */\n      dup2\n        /* \"#utility.yul\":7429:7430   */\n      0x00\n        /* \"#utility.yul\":7422:7436   */\n      mstore\n        /* \"#utility.yul\":7466:7470   */\n      0x20\n        /* \"#utility.yul\":7463:7464   */\n      0x00\n        /* \"#utility.yul\":7453:7471   */\n      keccak256\n        /* \"#utility.yul\":7445:7471   */\n      swap1\n      pop\n        /* \"#utility.yul\":7337:7478   */\n      swap2\n      swap1\n      pop\n      jump\t// out\n        /* \"#utility.yul\":7484:7577   */\n    tag_79:\n        /* \"#utility.yul\":7521:7527   */\n      0x00\n        /* \"#utility.yul\":7568:7570   */\n      0x20\n        /* \"#utility.yul\":7563:7565   */\n      0x1f\n        /* \"#utility.yul\":7556:7561   */\n      dup4\n        /* \"#utility.yul\":7552:7566   */\n      add\n        /* \"#utility.yul\":7548:7571   */\n      div\n        /* \"#utility.yul\":7538:7571   */\n      swap1\n      pop\n        /* \"#utility.yul\":7484:7577   */\n      swap2\n      swap1\n      pop\n      jump\t// out\n        /* \"#utility.yul\":7583:7690   */\n    tag_80:\n        /* \"#utility.yul\":7627:7635   */\n      0x00\n        /* \"#utility.yul\":7677:7682   */\n      dup3\n        /* \"#utility.yul\":7671:7675   */\n      dup3\n        /* \"#utility.yul\":7667:7683   */\n      shl\n        /* \"#utility.yul\":7646:7683   */\n      swap1\n      pop\n        /* \"#utility.yul\":7583:7690   */\n      swap3\n      swap2\n      pop\n      pop\n      jump\t// out\n        /* \"#utility.yul\":7696:8089   */\n    tag_81:\n        /* \"#utility.yul\":7765:7771   */\n      0x00\n        /* \"#utility.yul\":7815:7816   */\n      0x08\n        /* \"#utility.yul\":7803:7813   */\n      dup4\n        /* \"#utility.yul\":7799:7817   */\n      mul\n        /* \"#utility.yul\":7838:7935   */\n      tag_175\n        /* \"#utility.yul\":7868:7934   */\n      0xffffffffffffffffffffffffffffffffffffffffffffffffffffffffffffffff\n        /* \"#utility.yul\":7857:7866   */\n      dup3\n        /* \"#utility.yul\":7838:7935   */\n      tag_80\n      jump\t// in\n    tag_175:\n        /* \"#utility.yul\":7956:7995   */\n      tag_176\n        /* \"#utility.yul\":7986:7994   */\n      dup7\n        /* \"#utility.yul\":7975:7984   */\n      dup4\n        /* \"#utility.yul\":7956:7995   */\n      tag_80\n      jump\t// in\n    tag_176:\n        /* \"#utility.yul\":7944:7995   */\n      swap6\n      pop\n        /* \"#utility.yul\":8028:8032   */\n      dup1\n        /* \"#utility.yul\":8024:8033   */\n      not\n        /* \"#utility.yul\":8017:8022   */\n      dup5\n        /* \"#utility.yul\":8013:8034   */\n      and\n        /* \"#utility.yul\":8004:8034   */\n      swap4\n      pop\n        /* \"#utility.yul\":8077:8081   */\n      dup1\n        /* \"#utility.yul\":8067:8075   */\n      dup7\n        /* \"#utility.yul\":8063:8082   */\n      and\n        /* \"#utility.yul\":8056:8061   */\n      dup5\n        /* \"#utility.yul\":8053:8083   */\n      or\n        /* \"#utility.yul\":8043:8083   */\n      swap3\n      pop\n        /* \"#utility.yul\":7772:8089   */\n      pop\n      pop\n        /* \"#utility.yul\":7696:8089   */\n      swap4\n      swap3\n      pop\n      pop\n      pop\n      jump\t// out\n        /* \"#utility.yul\":8095:8155   */\n    tag_82:\n        /* \"#utility.yul\":8123:8126   */\n      0x00\n        /* \"#utility.yul\":8144:8149   */\n      dup2\n        /* \"#utility.yul\":8137:8149   */\n      swap1\n      pop\n        /* \"#utility.yul\":8095:8155   */\n      swap2\n      swap1\n      pop\n      jump\t// out\n        /* \"#utility.yul\":8161:8303   */\n    tag_83:\n        /* \"#utility.yul\":8211:8220   */\n      0x00\n        /* \"#utility.yul\":8244:8297   */\n      tag_179\n        /* \"#utility.yul\":8262:8296   */\n      tag_180\n        /* \"#utility.yul\":8271:8295   */\n      tag_181\n        /* \"#utility.yul\":8289:8294   */\n      dup5\n        /* \"#utility.yul\":8271:8295   */\n      tag_66\n      jump\t// in\n    tag_181:\n        /* \"#utility.yul\":8262:8296   */\n      tag_82\n      jump\t// in\n    tag_180:\n        /* \"#utility.yul\":8244:8297   */\n      tag_66\n      jump\t// in\n    tag_179:\n        /* \"#utility.yul\":8231:8297   */\n      swap1\n      pop\n        /* \"#utility.yul\":8161:8303   */\n      swap2\n      swap1\n      pop\n      jump\t// out\n        /* \"#utility.yul\":8309:8384   */\n    tag_84:\n        /* \"#utility.yul\":8352:8355   */\n      0x00\n        /* \"#utility.yul\":8373:8378   */\n      dup2\n        /* \"#utility.yul\":8366:8378   */\n      swap1\n      pop\n        /* \"#utility.yul\":8309:8384   */\n      swap2\n      swap1\n      pop\n      jump\t// out\n        /* \"#utility.yul\":8390:8659   */\n    tag_85:\n        /* \"#utility.yul\":8500:8539   */\n      tag_184\n        /* \"#utility.yul\":8531:8538   */\n      dup4\n        /* \"#utility.yul\":8500:8539   */\n      tag_83\n      jump\t// in\n    tag_184:\n        /* \"#utility.yul\":8561:8652   */\n      tag_185\n        /* \"#utility.yul\":8610:8651   */\n      tag_186\n        /* \"#utility.yul\":8634:8650   */\n      dup3\n        /* \"#utility.yul\":8610:8651   */\n      tag_84\n      jump\t// in\n    tag_186:\n        /* \"#utility.yul\":8602:8608   */\n      dup5\n        /* \"#utility.yul\":8595:8599   */\n      dup5\n        /* \"#utility.yul\":8589:8600   */\n      sload\n        /* \"#utility.yul\":8561:8652   */\n      tag_81\n      jump\t// in\n    tag_185:\n        /* \"#utility.yul\":8555:8559   */\n      dup3\n        /* \"#utility.yul\":8548:8653   */\n      sstore\n        /* \"#utility.yul\":8466:8659   */\n      pop\n        /* \"#utility.yul\":8390:8659   */\n      pop\n      pop\n      pop\n      jump\t// out\n        /* \"#utility.yul\":8665:8738   */\n    tag_86:\n        /* \"#utility.yul\":8710:8713   */\n      0x00\n        /* \"#utility.yul\":8665:8738   */\n      swap1\n      jump\t// out\n        /* \"#utility.yul\":8744:8933   */\n    tag_87:\n        /* \"#utility.yul\":8821:8853   */\n      tag_189\n      tag_86\n      jump\t// in\n    tag_189:\n        /* \"#utility.yul\":8862:8927   */\n      tag_190\n        /* \"#utility.yul\":8920:8926   */\n      dup2\n        /* \"#utility.yul\":8912:8918   */\n      dup5\n        /* \"#utility.yul\":8906:8910   */\n      dup5\n        /* \"#utility.yul\":8862:8927   */\n      tag_85\n      jump\t// in\n    tag_190:\n        /* \"#utility.yul\":8797:8933   */\n      pop\n        /* \"#utility.yul\":8744:8933   */\n      pop\n      pop\n      jump\t// out\n        /* \"#utility.yul\":8939:9125   */\n    tag_88:\n        /* \"#utility.yul\":8999:9119   */\n    tag_192:\n        /* \"#utility.yul\":9016:9019   */\n      dup2\n        /* \"#utility.yul\":9009:9014   */\n      dup2\n        /* \"#utility.yul\":9006:9020   */\n      lt\n        /* \"#utility.yul\":8999:9119   */\n      iszero\n      tag_194\n      jumpi\n        /* \"#utility.yul\":9070:9109   */\n      tag_195\n        /* \"#utility.yul\":9107:9108   */\n      0x00\n        /* \"#utility.yul\":9100:9105   */\n      dup3\n        /* \"#utility.yul\":9070:9109   */\n      tag_87\n      jump\t// in\n    tag_195:\n        /* \"#utility.yul\":9043:9044   */\n      0x01\n        /* \"#utility.yul\":9036:9041   */\n      dup2\n        /* \"#utility.yul\":9032:9045   */\n      add\n        /* \"#utility.yul\":9023:9045   */\n      swap1\n      pop\n        /* \"#utility.yul\":8999:9119   */\n      jump(tag_192)\n    tag_194:\n        /* \"#utility.yul\":8939:9125   */\n      pop\n      pop\n      jump\t// out\n        /* \"#utility.yul\":9131:9674   */\n    tag_89:\n        /* \"#utility.yul\":9232:9234   */\n      0x1f\n        /* \"#utility.yul\":9227:9230   */\n      dup3\n        /* \"#utility.yul\":9224:9235   */\n      gt\n        /* \"#utility.yul\":9221:9667   */\n      iszero\n      tag_197\n      jumpi\n        /* \"#utility.yul\":9266:9304   */\n      tag_198\n        /* \"#utility.yul\":9298:9303   */\n      dup2\n        /* \"#utility.yul\":9266:9304   */\n      tag_78\n      jump\t// in\n    tag_198:\n        /* \"#utility.yul\":9350:9379   */\n      tag_199\n        /* \"#utility.yul\":9368:9378   */\n      dup5\n        /* \"#utility.yul\":9350:9379   */\n      tag_79\n      jump\t// in\n    tag_199:\n        /* \"#utility.yul\":9340:9348   */\n      dup2\n        /* \"#utility.yul\":9336:9380   */\n      add\n        /* \"#utility.yul\":9533:9535   */\n      0x20\n        /* \"#utility.yul\":9521:9531   */\n      dup6\n        /* \"#utility.yul\":9518:9536   */\n      lt\n        /* \"#utility.yul\":9515:9564   */\n      iszero\n      tag_200\n      jumpi\n        /* \"#utility.yul\":9554:9562   */\n      dup2\n        /* \"#utility.yul\":9539:9562   */\n      swap1\n      pop\n        /* \"#utility.yul\":9515:9564   */\n    tag_200:\n        /* \"#utility.yul\":9577:9657   */\n      tag_201\n        /* \"#utility.yul\":9633:9655   */\n      tag_202\n        /* \"#utility.yul\":9651:9654   */\n      dup6\n        /* \"#utility.yul\":9633:9655   */\n      tag_79\n      jump\t// in\n    tag_202:\n        /* \"#utility.yul\":9623:9631   */\n      dup4\n        /* \"#utility.yul\":9619:9656   */\n      add\n        /* \"#utility.yul\":9606:9617   */\n      dup3\n        /* \"#utility.yul\":9577:9657   */\n      tag_88\n      jump\t// in\n    tag_201:\n        /* \"#utility.yul\":9236:9667   */\n      pop\n      pop\n        /* \"#utility.yul\":9221:9667   */\n    tag_197:\n        /* \"#utility.yul\":9131:9674   */\n      pop\n      pop\n      pop\n      jump\t// out\n        /* \"#utility.yul\":9680:9797   */\n    tag_90:\n        /* \"#utility.yul\":9734:9742   */\n      0x00\n        /* \"#utility.yul\":9784:9789   */\n      dup3\n        /* \"#utility.yul\":9778:9782   */\n      dup3\n        /* \"#utility.yul\":9774:9790   */\n      shr\n        /* \"#utility.yul\":9753:9790   */\n      swap1\n      pop\n        /* \"#utility.yul\":9680:9797   */\n      swap3\n      swap2\n      pop\n      pop\n      jump\t// out\n        /* \"#utility.yul\":9803:9972   */\n    tag_91:\n        /* \"#utility.yul\":9847:9853   */\n      0x00\n        /* \"#utility.yul\":9880:9931   */\n      tag_205\n        /* \"#utility.yul\":9928:9929   */\n      0x00\n        /* \"#utility.yul\":9924:9930   */\n      not\n        /* \"#utility.yul\":9916:9921   */\n      dup5\n        /* \"#utility.yul\":9913:9914   */\n      0x08\n        /* \"#utility.yul\":9909:9922   */\n      mul\n        /* \"#utility.yul\":9880:9931   */\n      tag_90\n      jump\t// in\n    tag_205:\n        /* \"#utility.yul\":9876:9932   */\n      not\n        /* \"#utility.yul\":9961:9965   */\n      dup1\n        /* \"#utility.yul\":9955:9959   */\n      dup4\n        /* \"#utility.yul\":9951:9966   */\n      and\n        /* \"#utility.yul\":9941:9966   */\n      swap2\n      pop\n        /* \"#utility.yul\":9854:9972   */\n      pop\n        /* \"#utility.yul\":9803:9972   */\n      swap3\n      swap2\n      pop\n      pop\n      jump\t// out\n        /* \"#utility.yul\":9977:10272   */\n    tag_92:\n        /* \"#utility.yul\":10053:10057   */\n      0x00\n        /* \"#utility.yul\":10199:10228   */\n      tag_207\n        /* \"#utility.yul\":10224:10227   */\n      dup4\n        /* \"#utility.yul\":10218:10222   */\n      dup4\n        /* \"#utility.yul\":10199:10228   */\n      tag_91\n      jump\t// in\n    tag_207:\n        /* \"#utility.yul\":10191:10228   */\n      swap2\n      pop\n        /* \"#utility.yul\":10261:10264   */\n      dup3\n        /* \"#utility.yul\":10258:10259   */\n      0x02\n        /* \"#utility.yul\":10254:10265   */\n      mul\n        /* \"#utility.yul\":10248:10252   */\n      dup3\n        /* \"#utility.yul\":10245:10266   */\n      or\n        /* \"#utility.yul\":10237:10266   */\n      swap1\n      pop\n        /* \"#utility.yul\":9977:10272   */\n      swap3\n      swap2\n      pop\n      pop\n      jump\t// out\n        /* \"#utility.yul\":10277:11672   */\n    tag_32:\n        /* \"#utility.yul\":10394:10431   */\n      tag_209\n        /* \"#utility.yul\":10427:10430   */\n      dup3\n        /* \"#utility.yul\":10394:10431   */\n      tag_70\n      jump\t// in\n    tag_209:\n        /* \"#utility.yul\":10496:10514   */\n      0xffffffffffffffff\n        /* \"#utility.yul\":10488:10494   */\n      dup2\n        /* \"#utility.yul\":10485:10515   */\n      gt\n        /* \"#utility.yul\":10482:10538   */\n      iszero\n      tag_210\n      jumpi\n        /* \"#utility.yul\":10518:10536   */\n      tag_211\n      tag_59\n      jump\t// in\n    tag_211:\n        /* \"#utility.yul\":10482:10538   */\n    tag_210:\n        /* \"#utility.yul\":10562:10600   */\n      tag_212\n        /* \"#utility.yul\":10594:10598   */\n      dup3\n        /* \"#utility.yul\":10588:10599   */\n      sload\n        /* \"#utility.yul\":10562:10600   */\n      tag_44\n      jump\t// in\n    tag_212:\n        /* \"#utility.yul\":10647:10714   */\n      tag_213\n        /* \"#utility.yul\":10707:10713   */\n      dup3\n        /* \"#utility.yul\":10699:10705   */\n      dup3\n        /* \"#utility.yul\":10693:10697   */\n      dup6\n        /* \"#utility.yul\":10647:10714   */\n      tag_89\n      jump\t// in\n    tag_213:\n        /* \"#utility.yul\":10741:10742   */\n      0x00\n        /* \"#utility.yul\":10765:10769   */\n      0x20\n        /* \"#utility.yul\":10752:10769   */\n      swap1\n      pop\n        /* \"#utility.yul\":10797:10799   */\n      0x1f\n        /* \"#utility.yul\":10789:10795   */\n      dup4\n        /* \"#utility.yul\":10786:10800   */\n      gt\n        /* \"#utility.yul\":10814:10815   */\n      0x01\n        /* \"#utility.yul\":10809:11427   */\n      dup2\n      eq\n      tag_215\n      jumpi\n        /* \"#utility.yul\":11471:11472   */\n      0x00\n        /* \"#utility.yul\":11488:11494   */\n      dup5\n        /* \"#utility.yul\":11485:11562   */\n      iszero\n      tag_216\n      jumpi\n        /* \"#utility.yul\":11537:11546   */\n      dup3\n        /* \"#utility.yul\":11532:11535   */\n      dup8\n        /* \"#utility.yul\":11528:11547   */\n      add\n        /* \"#utility.yul\":11522:11548   */\n      mload\n        /* \"#utility.yul\":11513:11548   */\n      swap1\n      pop\n        /* \"#utility.yul\":11485:11562   */\n    tag_216:\n        /* \"#utility.yul\":11588:11655   */\n      tag_217\n        /* \"#utility.yul\":11648:11654   */\n      dup6\n        /* \"#utility.yul\":11641:11646   */\n      dup3\n        /* \"#utility.yul\":11588:11655   */\n      tag_92\n      jump\t// in\n    tag_217:\n        /* \"#utility.yul\":11582:11586   */\n      dup7\n        /* \"#utility.yul\":11575:11656   */\n      sstore\n        /* \"#utility.yul\":11444:11666   */\n      pop\n        /* \"#utility.yul\":10779:11666   */\n      jump(tag_214)\n        /* \"#utility.yul\":10809:11427   */\n    tag_215:\n        /* \"#utility.yul\":10861:10865   */\n      0x1f\n        /* \"#utility.yul\":10857:10866   */\n      not\n        /* \"#utility.yul\":10849:10855   */\n      dup5\n        /* \"#utility.yul\":10845:10867   */\n      and\n        /* \"#utility.yul\":10895:10932   */\n      tag_218\n        /* \"#utility.yul\":10927:10931   */\n      dup7\n        /* \"#utility.yul\":10895:10932   */\n      tag_78\n      jump\t// in\n    tag_218:\n        /* \"#utility.yul\":10954:10955   */\n      0x00\n        /* \"#utility.yul\":10968:11176   */\n    tag_219:\n        /* \"#utility.yul\":10982:10989   */\n      dup3\n        /* \"#utility.yul\":10979:10980   */\n      dup2\n        /* \"#utility.yul\":10976:10990   */\n      lt\n        /* \"#utility.yul\":10968:11176   */\n      iszero\n      tag_221\n      jumpi\n        /* \"#utility.yul\":11061:11070   */\n      dup5\n        /* \"#utility.yul\":11056:11059   */\n      dup10\n        /* \"#utility.yul\":11052:11071   */\n      add\n        /* \"#utility.yul\":11046:11072   */\n      mload\n        /* \"#utility.yul\":11038:11044   */\n      dup3\n        /* \"#utility.yul\":11031:11073   */\n      sstore\n        /* \"#utility.yul\":11112:11113   */\n      0x01\n        /* \"#utility.yul\":11104:11110   */\n      dup3\n        /* \"#utility.yul\":11100:11114   */\n      add\n        /* \"#utility.yul\":11090:11114   */\n      swap2\n      pop\n        /* \"#utility.yul\":11159:11161   */\n      0x20\n        /* \"#utility.yul\":11148:11157   */\n      dup6\n        /* \"#utility.yul\":11144:11162   */\n      add\n        /* \"#utility.yul\":11131:11162   */\n      swap5\n      pop\n        /* \"#utility.yul\":11005:11009   */\n      0x20\n        /* \"#utility.yul\":11002:11003   */\n      dup2\n        /* \"#utility.yul\":10998:11010   */\n      add\n        /* \"#utility.yul\":10993:11010   */\n      swap1\n      pop\n        /* \"#utility.yul\":10968:11176   */\n      jump(tag_219)\n    tag_221:\n        /* \"#utility.yul\":11204:11210   */\n      dup7\n        /* \"#utility.yul\":11195:11202   */\n      dup4\n        /* \"#utility.yul\":11192:11211   */\n      lt\n        /* \"#utility.yul\":11189:11368   */\n      iszero\n      tag_222\n      jumpi\n        /* \"#utility.yul\":11262:11271   */\n      dup5\n        /* \"#utility.yul\":11257:11260   */\n      dup10\n        /* \"#utility.yul\":11253:11272   */\n      add\n        /* \"#utility.yul\":11247:11273   */\n      mload\n        /* \"#utility.yul\":11305:11353   */\n      tag_223\n        /* \"#utility.yul\":11347:11351   */\n      0x1f\n        /* \"#utility.yul\":11339:11345   */\n      dup10\n        /* \"#utility.yul\":11335:11352   */\n      and\n        /* \"#utility.yul\":11324:11333   */\n      dup3\n        /* \"#utility.yul\":11305:11353   */\n      tag_91\n      jump\t// in\n    tag_223:\n        /* \"#utility.yul\":11297:11303   */\n      dup4\n        /* \"#utility.yul\":11290:11354   */\n      sstore\n        /* \"#utility.yul\":11212:11368   */\n      pop\n        /* \"#utility.yul\":11189:11368   */\n    tag_222:\n        /* \"#utility.yul\":11414:11415   */\n      0x01\n        /* \"#utility.yul\":11410:11411   */\n      0x02\n        /* \"#utility.yul\":11402:11408   */\n      dup9\n        /* \"#utility.yul\":11398:11412   */\n      mul\n        /* \"#utility.yul\":11394:11416   */\n      add\n        /* \"#utility.yul\":11388:11392   */\n      dup9\n        /* \"#utility.yul\":11381:11417   */\n      sstore\n        /* \"#utility.yul\":10816:11427   */\n      pop\n      pop\n      pop\n        /* \"#utility.yul\":10779:11666   */\n    tag_214:\n      pop\n        /* \"#utility.yul\":10369:11672   */\n      pop\n      pop\n      pop\n        /* \"#utility.yul\":10277:11672   */\n      pop\n      pop\n      jump\t// out\n        /* \"#utility.yul\":11678:11858   */\n    tag_41:\n        /* \"#utility.yul\":11726:11803   */\n      0x4e487b7100000000000000000000000000000000000000000000000000000000\n        /* \"#utility.yul\":11723:11724   */\n      0x00\n        /* \"#utility.yul\":11716:11804   */\n      mstore\n        /* \"#utility.yul\":11823:11827   */\n      0x32\n        /* \"#utility.yul\":11820:11821   */\n      0x04\n        /* \"#utility.yul\":11813:11828   */\n      mstore\n        /* \"#utility.yul\":11847:11851   */\n      0x24\n        /* \"#utility.yul\":11844:11845   */\n      0x00\n        /* \"#utility.yul\":11837:11852   */\n      revert\n        /* \"#utility.yul\":11888:12762   */\n    tag_93:\n        /* \"#utility.yul\":11991:11994   */\n      0x00\n        /* \"#utility.yul\":12028:12033   */\n      dup2\n        /* \"#utility.yul\":12022:12034   */\n      sload\n        /* \"#utility.yul\":12057:12093   */\n      tag_226\n        /* \"#utility.yul\":12083:12092   */\n      dup2\n        /* \"#utility.yul\":12057:12093   */\n      tag_44\n      jump\t// in\n    tag_226:\n        /* \"#utility.yul\":12109:12198   */\n      tag_227\n        /* \"#utility.yul\":12191:12197   */\n      dup2\n        /* \"#utility.yul\":12186:12189   */\n      dup7\n        /* \"#utility.yul\":12109:12198   */\n      tag_71\n      jump\t// in\n    tag_227:\n        /* \"#utility.yul\":12102:12198   */\n      swap5\n      pop\n        /* \"#utility.yul\":12229:12230   */\n      0x01\n        /* \"#utility.yul\":12218:12227   */\n      dup3\n        /* \"#utility.yul\":12214:12231   */\n      and\n        /* \"#utility.yul\":12245:12246   */\n      0x00\n        /* \"#utility.yul\":12240:12406   */\n      dup2\n      eq\n      tag_229\n      jumpi\n        /* \"#utility.yul\":12420:12421   */\n      0x01\n        /* \"#utility.yul\":12415:12756   */\n      dup2\n      eq\n      tag_230\n      jumpi\n        /* \"#utility.yul\":12207:12756   */\n      jump(tag_228)\n        /* \"#utility.yul\":12240:12406   */\n    tag_229:\n        /* \"#utility.yul\":12324:12328   */\n      0xff\n        /* \"#utility.yul\":12320:12329   */\n      not\n        /* \"#utility.yul\":12309:12318   */\n      dup4\n        /* \"#utility.yul\":12305:12330   */\n      and\n        /* \"#utility.yul\":12300:12303   */\n      dup7\n        /* \"#utility.yul\":12293:12331   */\n      mstore\n        /* \"#utility.yul\":12386:12392   */\n      dup2\n        /* \"#utility.yul\":12379:12393   */\n      iszero\n        /* \"#utility.yul\":12372:12394   */\n      iszero\n        /* \"#utility.yul\":12364:12370   */\n      dup3\n        /* \"#utility.yul\":12360:12395   */\n      mul\n        /* \"#utility.yul\":12355:12358   */\n      dup7\n        /* \"#utility.yul\":12351:12396   */\n      add\n        /* \"#utility.yul\":12344:12396   */\n      swap4\n      pop\n        /* \"#utility.yul\":12240:12406   */\n      jump(tag_228)\n        /* \"#utility.yul\":12415:12756   */\n    tag_230:\n        /* \"#utility.yul\":12482:12520   */\n      tag_231\n        /* \"#utility.yul\":12514:12519   */\n      dup6\n        /* \"#utility.yul\":12482:12520   */\n      tag_78\n      jump\t// in\n    tag_231:\n        /* \"#utility.yul\":12542:12543   */\n      0x00\n        /* \"#utility.yul\":12556:12710   */\n    tag_232:\n        /* \"#utility.yul\":12570:12576   */\n      dup4\n        /* \"#utility.yul\":12567:12568   */\n      dup2\n        /* \"#utility.yul\":12564:12577   */\n      lt\n        /* \"#utility.yul\":12556:12710   */\n      iszero\n      tag_234\n      jumpi\n        /* \"#utility.yul\":12644:12651   */\n      dup2\n        /* \"#utility.yul\":12638:12652   */\n      sload\n        /* \"#utility.yul\":12634:12635   */\n      dup2\n        /* \"#utility.yul\":12629:12632   */\n      dup10\n        /* \"#utility.yul\":12625:12636   */\n      add\n        /* \"#utility.yul\":12618:12653   */\n      mstore\n        /* \"#utility.yul\":12694:12695   */\n      0x01\n        /* \"#utility.yul\":12685:12692   */\n      dup3\n        /* \"#utility.yul\":12681:12696   */\n      add\n        /* \"#utility.yul\":12670:12696   */\n      swap2\n      pop\n        /* \"#utility.yul\":12592:12596   */\n      0x20\n        /* \"#utility.yul\":12589:12590   */\n      dup2\n        /* \"#utility.yul\":12585:12597   */\n      add\n        /* \"#utility.yul\":12580:12597   */\n      swap1\n      pop\n        /* \"#utility.yul\":12556:12710   */\n      jump(tag_232)\n    tag_234:\n        /* \"#utility.yul\":12739:12745   */\n      dup4\n        /* \"#utility.yul\":12734:12737   */\n      dup9\n        /* \"#utility.yul\":12730:12746   */\n      add\n        /* \"#utility.yul\":12723:12746   */\n      swap6\n      pop\n        /* \"#utility.yul\":12422:12756   */\n      pop\n      pop\n        /* \"#utility.yul\":12207:12756   */\n    tag_228:\n      pop\n        /* \"#utility.yul\":11995:12762   */\n      pop\n      pop\n        /* \"#utility.yul\":11888:12762   */\n      swap3\n      swap2\n      pop\n      pop\n      jump\t// out\n        /* \"#utility.yul\":12768:13037   */\n    tag_50:\n        /* \"#utility.yul\":12897:12900   */\n      0x00\n        /* \"#utility.yul\":12919:13011   */\n      tag_236\n        /* \"#utility.yul\":13007:13010   */\n      dup3\n        /* \"#utility.yul\":12998:13004   */\n      dup5\n        /* \"#utility.yul\":12919:13011   */\n      tag_93\n      jump\t// in\n    tag_236:\n        /* \"#utility.yul\":12912:13011   */\n      swap2\n      pop\n        /* \"#utility.yul\":13028:13031   */\n      dup2\n        /* \"#utility.yul\":13021:13031   */\n      swap1\n      pop\n        /* \"#utility.yul\":12768:13037   */\n      swap3\n      swap2\n      pop\n      pop\n      jump\t// out\n\n    auxdata: 0xa26469706673582212207f3a6aaf44868e64fc651ed75b8249fbf2989197ea4e9a6fa2bbd1bbafbecc1f64736f6c63430008180033\n}\n",
				"bytecode": {
					"linkReferences": {},
					"object": "608060405234801561000f575f80fd5b506109e48061001d5f395ff3fe608060405260043610610033575f3560e01c8063270e93e6146100375780632934eeea14610073578063a1b920241461008f575b5f80fd5b348015610042575f80fd5b5061005d60048036038101906100589190610406565b6100cb565b60405161006a9190610465565b60405180910390f35b61008d600480360381019061008891906104a8565b6100f2565b005b34801561009a575f80fd5b506100b560048036038101906100b09190610406565b6101b9565b6040516100c29190610465565b60405180910390f35b5f6002826040516100dc919061056e565b9081526020016040518091039020549050919050565b6100fb826101e6565b1561013b576040517f08c379a000000000000000000000000000000000000000000000000000000000815260040161013290610604565b60405180910390fd5b5f82908060018154018082558091505060019003905f5260205f20015f90919091909150908161016b919061081c565b50600181908060018154018082558091505060019003905f5260205f20015f9091909190915055806002836040516101a3919061056e565b9081526020016040518091039020819055505050565b6002818051602081018201805184825260208301602085012081835280955050505050505f915090505481565b5f805f90505f5b5f805490508110156102af575f818154811061020c5761020b6108eb565b5b905f5260205f2001805461021f9061064f565b905084511461022c575f80fd5b5f818154811061023f5761023e6108eb565b5b905f5260205f20016040516020016102579190610998565b604051602081830303815290604052805190602001208460405160200161027e919061056e565b60405160208183030381529060405280519060200120036102a257600191506102af565b80806001019150506101ed565b5080915050919050565b5f604051905090565b5f80fd5b5f80fd5b5f80fd5b5f80fd5b5f601f19601f8301169050919050565b7f4e487b71000000000000000000000000000000000000000000000000000000005f52604160045260245ffd5b610318826102d2565b810181811067ffffffffffffffff82111715610337576103366102e2565b5b80604052505050565b5f6103496102b9565b9050610355828261030f565b919050565b5f67ffffffffffffffff821115610374576103736102e2565b5b61037d826102d2565b9050602081019050919050565b828183375f83830152505050565b5f6103aa6103a58461035a565b610340565b9050828152602081018484840111156103c6576103c56102ce565b5b6103d184828561038a565b509392505050565b5f82601f8301126103ed576103ec6102ca565b5b81356103fd848260208601610398565b91505092915050565b5f6020828403121561041b5761041a6102c2565b5b5f82013567ffffffffffffffff811115610438576104376102c6565b5b610444848285016103d9565b91505092915050565b5f819050919050565b61045f8161044d565b82525050565b5f6020820190506104785f830184610456565b92915050565b6104878161044d565b8114610491575f80fd5b50565b5f813590506104a28161047e565b92915050565b5f80604083850312156104be576104bd6102c2565b5b5f83013567ffffffffffffffff8111156104db576104da6102c6565b5b6104e7858286016103d9565b92505060206104f885828601610494565b9150509250929050565b5f81519050919050565b5f81905092915050565b5f5b83811015610533578082015181840152602081019050610518565b5f8484015250505050565b5f61054882610502565b610552818561050c565b9350610562818560208601610516565b80840191505092915050565b5f610579828461053e565b915081905092915050565b5f82825260208201905092915050565b7f496e737572616e6365205479706520697320616c7265616479207265676973745f8201527f6572656400000000000000000000000000000000000000000000000000000000602082015250565b5f6105ee602483610584565b91506105f982610594565b604082019050919050565b5f6020820190508181035f83015261061b816105e2565b9050919050565b7f4e487b71000000000000000000000000000000000000000000000000000000005f52602260045260245ffd5b5f600282049050600182168061066657607f821691505b60208210810361067957610678610622565b5b50919050565b5f819050815f5260205f209050919050565b5f6020601f8301049050919050565b5f82821b905092915050565b5f600883026106db7fffffffffffffffffffffffffffffffffffffffffffffffffffffffffffffffff826106a0565b6106e586836106a0565b95508019841693508086168417925050509392505050565b5f819050919050565b5f61072061071b6107168461044d565b6106fd565b61044d565b9050919050565b5f819050919050565b61073983610706565b61074d61074582610727565b8484546106ac565b825550505050565b5f90565b610761610755565b61076c818484610730565b505050565b5b8181101561078f576107845f82610759565b600181019050610772565b5050565b601f8211156107d4576107a58161067f565b6107ae84610691565b810160208510156107bd578190505b6107d16107c985610691565b830182610771565b50505b505050565b5f82821c905092915050565b5f6107f45f19846008026107d9565b1980831691505092915050565b5f61080c83836107e5565b9150826002028217905092915050565b61082582610502565b67ffffffffffffffff81111561083e5761083d6102e2565b5b610848825461064f565b610853828285610793565b5f60209050601f831160018114610884575f8415610872578287015190505b61087c8582610801565b8655506108e3565b601f1984166108928661067f565b5f5b828110156108b957848901518255600182019150602085019450602081019050610894565b868310156108d657848901516108d2601f8916826107e5565b8355505b6001600288020188555050505b505050505050565b7f4e487b71000000000000000000000000000000000000000000000000000000005f52603260045260245ffd5b5f81546109248161064f565b61092e818661050c565b9450600182165f8114610948576001811461095d5761098f565b60ff198316865281151582028601935061098f565b6109668561067f565b5f5b8381101561098757815481890152600182019150602081019050610968565b838801955050505b50505092915050565b5f6109a38284610918565b91508190509291505056fea26469706673582212207f3a6aaf44868e64fc651ed75b8249fbf2989197ea4e9a6fa2bbd1bbafbecc1f64736f6c63430008180033",
					"opcodes": "PUSH1 0x80 PUSH1 0x40 MSTORE CALLVALUE DUP1 ISZERO PUSH2 0xF JUMPI PUSH0 DUP1 REVERT JUMPDEST POP PUSH2 0x9E4 DUP1 PUSH2 0x1D PUSH0 CODECOPY PUSH0 RETURN INVALID PUSH1 0x80 PUSH1 0x40 MSTORE PUSH1 0x4 CALLDATASIZE LT PUSH2 0x33 JUMPI PUSH0 CALLDATALOAD PUSH1 0xE0 SHR DUP1 PUSH4 0x270E93E6 EQ PUSH2 0x37 JUMPI DUP1 PUSH4 0x2934EEEA EQ PUSH2 0x73 JUMPI DUP1 PUSH4 0xA1B92024 EQ PUSH2 0x8F JUMPI JUMPDEST PUSH0 DUP1 REVERT JUMPDEST CALLVALUE DUP1 ISZERO PUSH2 0x42 JUMPI PUSH0 DUP1 REVERT JUMPDEST POP PUSH2 0x5D PUSH1 0x4 DUP1 CALLDATASIZE SUB DUP2 ADD SWAP1 PUSH2 0x58 SWAP2 SWAP1 PUSH2 0x406 JUMP JUMPDEST PUSH2 0xCB JUMP JUMPDEST PUSH1 0x40 MLOAD PUSH2 0x6A SWAP2 SWAP1 PUSH2 0x465 JUMP JUMPDEST PUSH1 0x40 MLOAD DUP1 SWAP2 SUB SWAP1 RETURN JUMPDEST PUSH2 0x8D PUSH1 0x4 DUP1 CALLDATASIZE SUB DUP2 ADD SWAP1 PUSH2 0x88 SWAP2 SWAP1 PUSH2 0x4A8 JUMP JUMPDEST PUSH2 0xF2 JUMP JUMPDEST STOP JUMPDEST CALLVALUE DUP1 ISZERO PUSH2 0x9A JUMPI PUSH0 DUP1 REVERT JUMPDEST POP PUSH2 0xB5 PUSH1 0x4 DUP1 CALLDATASIZE SUB DUP2 ADD SWAP1 PUSH2 0xB0 SWAP2 SWAP1 PUSH2 0x406 JUMP JUMPDEST PUSH2 0x1B9 JUMP JUMPDEST PUSH1 0x40 MLOAD PUSH2 0xC2 SWAP2 SWAP1 PUSH2 0x465 JUMP JUMPDEST PUSH1 0x40 MLOAD DUP1 SWAP2 SUB SWAP1 RETURN JUMPDEST PUSH0 PUSH1 0x2 DUP3 PUSH1 0x40 MLOAD PUSH2 0xDC SWAP2 SWAP1 PUSH2 0x56E JUMP JUMPDEST SWAP1 DUP2 MSTORE PUSH1 0x20 ADD PUSH1 0x40 MLOAD DUP1 SWAP2 SUB SWAP1 KECCAK256 SLOAD SWAP1 POP SWAP2 SWAP1 POP JUMP JUMPDEST PUSH2 0xFB DUP3 PUSH2 0x1E6 JUMP JUMPDEST ISZERO PUSH2 0x13B JUMPI PUSH1 0x40 MLOAD PUSH32 0x8C379A000000000000000000000000000000000000000000000000000000000 DUP2 MSTORE PUSH1 0x4 ADD PUSH2 0x132 SWAP1 PUSH2 0x604 JUMP JUMPDEST PUSH1 0x40 MLOAD DUP1 SWAP2 SUB SWAP1 REVERT JUMPDEST PUSH0 DUP3 SWAP1 DUP1 PUSH1 0x1 DUP2 SLOAD ADD DUP1 DUP3 SSTORE DUP1 SWAP2 POP POP PUSH1 0x1 SWAP1 SUB SWAP1 PUSH0 MSTORE PUSH1 0x20 PUSH0 KECCAK256 ADD PUSH0 SWAP1 SWAP2 SWAP1 SWAP2 SWAP1 SWAP2 POP SWAP1 DUP2 PUSH2 0x16B SWAP2 SWAP1 PUSH2 0x81C JUMP JUMPDEST POP PUSH1 0x1 DUP2 SWAP1 DUP1 PUSH1 0x1 DUP2 SLOAD ADD DUP1 DUP3 SSTORE DUP1 SWAP2 POP POP PUSH1 0x1 SWAP1 SUB SWAP1 PUSH0 MSTORE PUSH1 0x20 PUSH0 KECCAK256 ADD PUSH0 SWAP1 SWAP2 SWAP1 SWAP2 SWAP1 SWAP2 POP SSTORE DUP1 PUSH1 0x2 DUP4 PUSH1 0x40 MLOAD PUSH2 0x1A3 SWAP2 SWAP1 PUSH2 0x56E JUMP JUMPDEST SWAP1 DUP2 MSTORE PUSH1 0x20 ADD PUSH1 0x40 MLOAD DUP1 SWAP2 SUB SWAP1 KECCAK256 DUP2 SWAP1 SSTORE POP POP POP JUMP JUMPDEST PUSH1 0x2 DUP2 DUP1 MLOAD PUSH1 0x20 DUP2 ADD DUP3 ADD DUP1 MLOAD DUP5 DUP3 MSTORE PUSH1 0x20 DUP4 ADD PUSH1 0x20 DUP6 ADD KECCAK256 DUP2 DUP4 MSTORE DUP1 SWAP6 POP POP POP POP POP POP PUSH0 SWAP2 POP SWAP1 POP SLOAD DUP2 JUMP JUMPDEST PUSH0 DUP1 PUSH0 SWAP1 POP PUSH0 JUMPDEST PUSH0 DUP1 SLOAD SWAP1 POP DUP2 LT ISZERO PUSH2 0x2AF JUMPI PUSH0 DUP2 DUP2 SLOAD DUP2 LT PUSH2 0x20C JUMPI PUSH2 0x20B PUSH2 0x8EB JUMP JUMPDEST JUMPDEST SWAP1 PUSH0 MSTORE PUSH1 0x20 PUSH0 KECCAK256 ADD DUP1 SLOAD PUSH2 0x21F SWAP1 PUSH2 0x64F JUMP JUMPDEST SWAP1 POP DUP5 MLOAD EQ PUSH2 0x22C JUMPI PUSH0 DUP1 REVERT JUMPDEST PUSH0 DUP2 DUP2 SLOAD DUP2 LT PUSH2 0x23F JUMPI PUSH2 0x23E PUSH2 0x8EB JUMP JUMPDEST JUMPDEST SWAP1 PUSH0 MSTORE PUSH1 0x20 PUSH0 KECCAK256 ADD PUSH1 0x40 MLOAD PUSH1 0x20 ADD PUSH2 0x257 SWAP2 SWAP1 PUSH2 0x998 JUMP JUMPDEST PUSH1 0x40 MLOAD PUSH1 0x20 DUP2 DUP4 SUB SUB DUP2 MSTORE SWAP1 PUSH1 0x40 MSTORE DUP1 MLOAD SWAP1 PUSH1 0x20 ADD KECCAK256 DUP5 PUSH1 0x40 MLOAD PUSH1 0x20 ADD PUSH2 0x27E SWAP2 SWAP1 PUSH2 0x56E JUMP JUMPDEST PUSH1 0x40 MLOAD PUSH1 0x20 DUP2 DUP4 SUB SUB DUP2 MSTORE SWAP1 PUSH1 0x40 MSTORE DUP1 MLOAD SWAP1 PUSH1 0x20 ADD KECCAK256 SUB PUSH2 0x2A2 JUMPI PUSH1 0x1 SWAP2 POP PUSH2 0x2AF JUMP JUMPDEST DUP1 DUP1 PUSH1 0x1 ADD SWAP2 POP POP PUSH2 0x1ED JUMP JUMPDEST POP DUP1 SWAP2 POP POP SWAP2 SWAP1 POP JUMP JUMPDEST PUSH0 PUSH1 0x40 MLOAD SWAP1 POP SWAP1 JUMP JUMPDEST PUSH0 DUP1 REVERT JUMPDEST PUSH0 DUP1 REVERT JUMPDEST PUSH0 DUP1 REVERT JUMPDEST PUSH0 DUP1 REVERT JUMPDEST PUSH0 PUSH1 0x1F NOT PUSH1 0x1F DUP4 ADD AND SWAP1 POP SWAP2 SWAP1 POP JUMP JUMPDEST PUSH32 0x4E487B7100000000000000000000000000000000000000000000000000000000 PUSH0 MSTORE PUSH1 0x41 PUSH1 0x4 MSTORE PUSH1 0x24 PUSH0 REVERT JUMPDEST PUSH2 0x318 DUP3 PUSH2 0x2D2 JUMP JUMPDEST DUP2 ADD DUP2 DUP2 LT PUSH8 0xFFFFFFFFFFFFFFFF DUP3 GT OR ISZERO PUSH2 0x337 JUMPI PUSH2 0x336 PUSH2 0x2E2 JUMP JUMPDEST JUMPDEST DUP1 PUSH1 0x40 MSTORE POP POP POP JUMP JUMPDEST PUSH0 PUSH2 0x349 PUSH2 0x2B9 JUMP JUMPDEST SWAP1 POP PUSH2 0x355 DUP3 DUP3 PUSH2 0x30F JUMP JUMPDEST SWAP2 SWAP1 POP JUMP JUMPDEST PUSH0 PUSH8 0xFFFFFFFFFFFFFFFF DUP3 GT ISZERO PUSH2 0x374 JUMPI PUSH2 0x373 PUSH2 0x2E2 JUMP JUMPDEST JUMPDEST PUSH2 0x37D DUP3 PUSH2 0x2D2 JUMP JUMPDEST SWAP1 POP PUSH1 0x20 DUP2 ADD SWAP1 POP SWAP2 SWAP1 POP JUMP JUMPDEST DUP3 DUP2 DUP4 CALLDATACOPY PUSH0 DUP4 DUP4 ADD MSTORE POP POP POP JUMP JUMPDEST PUSH0 PUSH2 0x3AA PUSH2 0x3A5 DUP5 PUSH2 0x35A JUMP JUMPDEST PUSH2 0x340 JUMP JUMPDEST SWAP1 POP DUP3 DUP2 MSTORE PUSH1 0x20 DUP2 ADD DUP5 DUP5 DUP5 ADD GT ISZERO PUSH2 0x3C6 JUMPI PUSH2 0x3C5 PUSH2 0x2CE JUMP JUMPDEST JUMPDEST PUSH2 0x3D1 DUP5 DUP3 DUP6 PUSH2 0x38A JUMP JUMPDEST POP SWAP4 SWAP3 POP POP POP JUMP JUMPDEST PUSH0 DUP3 PUSH1 0x1F DUP4 ADD SLT PUSH2 0x3ED JUMPI PUSH2 0x3EC PUSH2 0x2CA JUMP JUMPDEST JUMPDEST DUP2 CALLDATALOAD PUSH2 0x3FD DUP5 DUP3 PUSH1 0x20 DUP7 ADD PUSH2 0x398 JUMP JUMPDEST SWAP2 POP POP SWAP3 SWAP2 POP POP JUMP JUMPDEST PUSH0 PUSH1 0x20 DUP3 DUP5 SUB SLT ISZERO PUSH2 0x41B JUMPI PUSH2 0x41A PUSH2 0x2C2 JUMP JUMPDEST JUMPDEST PUSH0 DUP3 ADD CALLDATALOAD PUSH8 0xFFFFFFFFFFFFFFFF DUP2 GT ISZERO PUSH2 0x438 JUMPI PUSH2 0x437 PUSH2 0x2C6 JUMP JUMPDEST JUMPDEST PUSH2 0x444 DUP5 DUP3 DUP6 ADD PUSH2 0x3D9 JUMP JUMPDEST SWAP2 POP POP SWAP3 SWAP2 POP POP JUMP JUMPDEST PUSH0 DUP2 SWAP1 POP SWAP2 SWAP1 POP JUMP JUMPDEST PUSH2 0x45F DUP2 PUSH2 0x44D JUMP JUMPDEST DUP3 MSTORE POP POP JUMP JUMPDEST PUSH0 PUSH1 0x20 DUP3 ADD SWAP1 POP PUSH2 0x478 PUSH0 DUP4 ADD DUP5 PUSH2 0x456 JUMP JUMPDEST SWAP3 SWAP2 POP POP JUMP JUMPDEST PUSH2 0x487 DUP2 PUSH2 0x44D JUMP JUMPDEST DUP2 EQ PUSH2 0x491 JUMPI PUSH0 DUP1 REVERT JUMPDEST POP JUMP JUMPDEST PUSH0 DUP2 CALLDATALOAD SWAP1 POP PUSH2 0x4A2 DUP2 PUSH2 0x47E JUMP JUMPDEST SWAP3 SWAP2 POP POP JUMP JUMPDEST PUSH0 DUP1 PUSH1 0x40 DUP4 DUP6 SUB SLT ISZERO PUSH2 0x4BE JUMPI PUSH2 0x4BD PUSH2 0x2C2 JUMP JUMPDEST JUMPDEST PUSH0 DUP4 ADD CALLDATALOAD PUSH8 0xFFFFFFFFFFFFFFFF DUP2 GT ISZERO PUSH2 0x4DB JUMPI PUSH2 0x4DA PUSH2 0x2C6 JUMP JUMPDEST JUMPDEST PUSH2 0x4E7 DUP6 DUP3 DUP7 ADD PUSH2 0x3D9 JUMP JUMPDEST SWAP3 POP POP PUSH1 0x20 PUSH2 0x4F8 DUP6 DUP3 DUP7 ADD PUSH2 0x494 JUMP JUMPDEST SWAP2 POP POP SWAP3 POP SWAP3 SWAP1 POP JUMP JUMPDEST PUSH0 DUP2 MLOAD SWAP1 POP SWAP2 SWAP1 POP JUMP JUMPDEST PUSH0 DUP2 SWAP1 POP SWAP3 SWAP2 POP POP JUMP JUMPDEST PUSH0 JUMPDEST DUP4 DUP2 LT ISZERO PUSH2 0x533 JUMPI DUP1 DUP3 ADD MLOAD DUP2 DUP5 ADD MSTORE PUSH1 0x20 DUP2 ADD SWAP1 POP PUSH2 0x518 JUMP JUMPDEST PUSH0 DUP5 DUP5 ADD MSTORE POP POP POP POP JUMP JUMPDEST PUSH0 PUSH2 0x548 DUP3 PUSH2 0x502 JUMP JUMPDEST PUSH2 0x552 DUP2 DUP6 PUSH2 0x50C JUMP JUMPDEST SWAP4 POP PUSH2 0x562 DUP2 DUP6 PUSH1 0x20 DUP7 ADD PUSH2 0x516 JUMP JUMPDEST DUP1 DUP5 ADD SWAP2 POP POP SWAP3 SWAP2 POP POP JUMP JUMPDEST PUSH0 PUSH2 0x579 DUP3 DUP5 PUSH2 0x53E JUMP JUMPDEST SWAP2 POP DUP2 SWAP1 POP SWAP3 SWAP2 POP POP JUMP JUMPDEST PUSH0 DUP3 DUP3 MSTORE PUSH1 0x20 DUP3 ADD SWAP1 POP SWAP3 SWAP2 POP POP JUMP JUMPDEST PUSH32 0x496E737572616E6365205479706520697320616C726561647920726567697374 PUSH0 DUP3 ADD MSTORE PUSH32 0x6572656400000000000000000000000000000000000000000000000000000000 PUSH1 0x20 DUP3 ADD MSTORE POP JUMP JUMPDEST PUSH0 PUSH2 0x5EE PUSH1 0x24 DUP4 PUSH2 0x584 JUMP JUMPDEST SWAP2 POP PUSH2 0x5F9 DUP3 PUSH2 0x594 JUMP JUMPDEST PUSH1 0x40 DUP3 ADD SWAP1 POP SWAP2 SWAP1 POP JUMP JUMPDEST PUSH0 PUSH1 0x20 DUP3 ADD SWAP1 POP DUP2 DUP2 SUB PUSH0 DUP4 ADD MSTORE PUSH2 0x61B DUP2 PUSH2 0x5E2 JUMP JUMPDEST SWAP1 POP SWAP2 SWAP1 POP JUMP JUMPDEST PUSH32 0x4E487B7100000000000000000000000000000000000000000000000000000000 PUSH0 MSTORE PUSH1 0x22 PUSH1 0x4 MSTORE PUSH1 0x24 PUSH0 REVERT JUMPDEST PUSH0 PUSH1 0x2 DUP3 DIV SWAP1 POP PUSH1 0x1 DUP3 AND DUP1 PUSH2 0x666 JUMPI PUSH1 0x7F DUP3 AND SWAP2 POP JUMPDEST PUSH1 0x20 DUP3 LT DUP2 SUB PUSH2 0x679 JUMPI PUSH2 0x678 PUSH2 0x622 JUMP JUMPDEST JUMPDEST POP SWAP2 SWAP1 POP JUMP JUMPDEST PUSH0 DUP2 SWAP1 POP DUP2 PUSH0 MSTORE PUSH1 0x20 PUSH0 KECCAK256 SWAP1 POP SWAP2 SWAP1 POP JUMP JUMPDEST PUSH0 PUSH1 0x20 PUSH1 0x1F DUP4 ADD DIV SWAP1 POP SWAP2 SWAP1 POP JUMP JUMPDEST PUSH0 DUP3 DUP3 SHL SWAP1 POP SWAP3 SWAP2 POP POP JUMP JUMPDEST PUSH0 PUSH1 0x8 DUP4 MUL PUSH2 0x6DB PUSH32 0xFFFFFFFFFFFFFFFFFFFFFFFFFFFFFFFFFFFFFFFFFFFFFFFFFFFFFFFFFFFFFFFF DUP3 PUSH2 0x6A0 JUMP JUMPDEST PUSH2 0x6E5 DUP7 DUP4 PUSH2 0x6A0 JUMP JUMPDEST SWAP6 POP DUP1 NOT DUP5 AND SWAP4 POP DUP1 DUP7 AND DUP5 OR SWAP3 POP POP POP SWAP4 SWAP3 POP POP POP JUMP JUMPDEST PUSH0 DUP2 SWAP1 POP SWAP2 SWAP1 POP JUMP JUMPDEST PUSH0 PUSH2 0x720 PUSH2 0x71B PUSH2 0x716 DUP5 PUSH2 0x44D JUMP JUMPDEST PUSH2 0x6FD JUMP JUMPDEST PUSH2 0x44D JUMP JUMPDEST SWAP1 POP SWAP2 SWAP1 POP JUMP JUMPDEST PUSH0 DUP2 SWAP1 POP SWAP2 SWAP1 POP JUMP JUMPDEST PUSH2 0x739 DUP4 PUSH2 0x706 JUMP JUMPDEST PUSH2 0x74D PUSH2 0x745 DUP3 PUSH2 0x727 JUMP JUMPDEST DUP5 DUP5 SLOAD PUSH2 0x6AC JUMP JUMPDEST DUP3 SSTORE POP POP POP POP JUMP JUMPDEST PUSH0 SWAP1 JUMP JUMPDEST PUSH2 0x761 PUSH2 0x755 JUMP JUMPDEST PUSH2 0x76C DUP2 DUP5 DUP5 PUSH2 0x730 JUMP JUMPDEST POP POP POP JUMP JUMPDEST JUMPDEST DUP2 DUP2 LT ISZERO PUSH2 0x78F JUMPI PUSH2 0x784 PUSH0 DUP3 PUSH2 0x759 JUMP JUMPDEST PUSH1 0x1 DUP2 ADD SWAP1 POP PUSH2 0x772 JUMP JUMPDEST POP POP JUMP JUMPDEST PUSH1 0x1F DUP3 GT ISZERO PUSH2 0x7D4 JUMPI PUSH2 0x7A5 DUP2 PUSH2 0x67F JUMP JUMPDEST PUSH2 0x7AE DUP5 PUSH2 0x691 JUMP JUMPDEST DUP2 ADD PUSH1 0x20 DUP6 LT ISZERO PUSH2 0x7BD JUMPI DUP2 SWAP1 POP JUMPDEST PUSH2 0x7D1 PUSH2 0x7C9 DUP6 PUSH2 0x691 JUMP JUMPDEST DUP4 ADD DUP3 PUSH2 0x771 JUMP JUMPDEST POP POP JUMPDEST POP POP POP JUMP JUMPDEST PUSH0 DUP3 DUP3 SHR SWAP1 POP SWAP3 SWAP2 POP POP JUMP JUMPDEST PUSH0 PUSH2 0x7F4 PUSH0 NOT DUP5 PUSH1 0x8 MUL PUSH2 0x7D9 JUMP JUMPDEST NOT DUP1 DUP4 AND SWAP2 POP POP SWAP3 SWAP2 POP POP JUMP JUMPDEST PUSH0 PUSH2 0x80C DUP4 DUP4 PUSH2 0x7E5 JUMP JUMPDEST SWAP2 POP DUP3 PUSH1 0x2 MUL DUP3 OR SWAP1 POP SWAP3 SWAP2 POP POP JUMP JUMPDEST PUSH2 0x825 DUP3 PUSH2 0x502 JUMP JUMPDEST PUSH8 0xFFFFFFFFFFFFFFFF DUP2 GT ISZERO PUSH2 0x83E JUMPI PUSH2 0x83D PUSH2 0x2E2 JUMP JUMPDEST JUMPDEST PUSH2 0x848 DUP3 SLOAD PUSH2 0x64F JUMP JUMPDEST PUSH2 0x853 DUP3 DUP3 DUP6 PUSH2 0x793 JUMP JUMPDEST PUSH0 PUSH1 0x20 SWAP1 POP PUSH1 0x1F DUP4 GT PUSH1 0x1 DUP2 EQ PUSH2 0x884 JUMPI PUSH0 DUP5 ISZERO PUSH2 0x872 JUMPI DUP3 DUP8 ADD MLOAD SWAP1 POP JUMPDEST PUSH2 0x87C DUP6 DUP3 PUSH2 0x801 JUMP JUMPDEST DUP7 SSTORE POP PUSH2 0x8E3 JUMP JUMPDEST PUSH1 0x1F NOT DUP5 AND PUSH2 0x892 DUP7 PUSH2 0x67F JUMP JUMPDEST PUSH0 JUMPDEST DUP3 DUP2 LT ISZERO PUSH2 0x8B9 JUMPI DUP5 DUP10 ADD MLOAD DUP3 SSTORE PUSH1 0x1 DUP3 ADD SWAP2 POP PUSH1 0x20 DUP6 ADD SWAP5 POP PUSH1 0x20 DUP2 ADD SWAP1 POP PUSH2 0x894 JUMP JUMPDEST DUP7 DUP4 LT ISZERO PUSH2 0x8D6 JUMPI DUP5 DUP10 ADD MLOAD PUSH2 0x8D2 PUSH1 0x1F DUP10 AND DUP3 PUSH2 0x7E5 JUMP JUMPDEST DUP4 SSTORE POP JUMPDEST PUSH1 0x1 PUSH1 0x2 DUP9 MUL ADD DUP9 SSTORE POP POP POP JUMPDEST POP POP POP POP POP POP JUMP JUMPDEST PUSH32 0x4E487B7100000000000000000000000000000000000000000000000000000000 PUSH0 MSTORE PUSH1 0x32 PUSH1 0x4 MSTORE PUSH1 0x24 PUSH0 REVERT JUMPDEST PUSH0 DUP2 SLOAD PUSH2 0x924 DUP2 PUSH2 0x64F JUMP JUMPDEST PUSH2 0x92E DUP2 DUP7 PUSH2 0x50C JUMP JUMPDEST SWAP5 POP PUSH1 0x1 DUP3 AND PUSH0 DUP2 EQ PUSH2 0x948 JUMPI PUSH1 0x1 DUP2 EQ PUSH2 0x95D JUMPI PUSH2 0x98F JUMP JUMPDEST PUSH1 0xFF NOT DUP4 AND DUP7 MSTORE DUP2 ISZERO ISZERO DUP3 MUL DUP7 ADD SWAP4 POP PUSH2 0x98F JUMP JUMPDEST PUSH2 0x966 DUP6 PUSH2 0x67F JUMP JUMPDEST PUSH0 JUMPDEST DUP4 DUP2 LT ISZERO PUSH2 0x987 JUMPI DUP2 SLOAD DUP2 DUP10 ADD MSTORE PUSH1 0x1 DUP3 ADD SWAP2 POP PUSH1 0x20 DUP2 ADD SWAP1 POP PUSH2 0x968 JUMP JUMPDEST DUP4 DUP9 ADD SWAP6 POP POP POP JUMPDEST POP POP POP SWAP3 SWAP2 POP POP JUMP JUMPDEST PUSH0 PUSH2 0x9A3 DUP3 DUP5 PUSH2 0x918 JUMP JUMPDEST SWAP2 POP DUP2 SWAP1 POP SWAP3 SWAP2 POP POP JUMP INVALID LOG2 PUSH5 0x6970667358 0x22 SLT KECCAK256 PUSH32 0x3A6AAF44868E64FC651ED75B8249FBF2989197EA4E9A6FA2BBD1BBAFBECC1F64 PUSH20 0x6F6C634300081800330000000000000000000000 "
				},
				"gasEstimates": {
					"creation": {
						"codeDepositCost": "506400",
						"executionCost": "541",
						"totalCost": "506941"
					},
					"external": {
						"getInsuranceAmountPayable(string)": "infinite",
						"insuranceAmountPayable(string)": "infinite",
						"setInsuranceType(string,uint256)": "infinite"
					},
					"internal": {
						"isInsuranceTypeRegistered(string memory)": "infinite"
					}
				},
				"methodIdentifiers": {
					"getInsuranceAmountPayable(string)": "270e93e6",
					"insuranceAmountPayable(string)": "a1b92024",
					"setInsuranceType(string,uint256)": "2934eeea"
				}
			},
			"storageLayout": {
				"storage": [
					{
						"astId": 4,
						"contract": "DeFiInsurance/Insurance.sol:Insurance",
						"label": "insuranceTypes",
						"offset": 0,
						"slot": "0",
						"type": "t_array(t_string_storage)dyn_storage"
					},
					{
						"astId": 7,
						"contract": "DeFiInsurance/Insurance.sol:Insurance",
						"label": "amountsPayable",
						"offset": 0,
						"slot": "1",
						"type": "t_array(t_uint256)dyn_storage"
					},
					{
						"astId": 11,
						"contract": "DeFiInsurance/Insurance.sol:Insurance",
						"label": "insuranceAmountPayable",
						"offset": 0,
						"slot": "2",
						"type": "t_mapping(t_string_memory_ptr,t_uint256)"
					}
				],
				"types": {
					"t_array(t_string_storage)dyn_storage": {
						"base": "t_string_storage",
						"encoding": "dynamic_array",
						"label": "string[]",
						"numberOfBytes": "32"
					},
					"t_array(t_uint256)dyn_storage": {
						"base": "t_uint256",
						"encoding": "dynamic_array",
						"label": "uint256[]",
						"numberOfBytes": "32"
					},
					"t_mapping(t_string_memory_ptr,t_uint256)": {
						"encoding": "mapping",
						"key": "t_string_memory_ptr",
						"label": "mapping(string => uint256)",
						"numberOfBytes": "32",
						"value": "t_uint256"
					},
					"t_string_memory_ptr": {
						"encoding": "bytes",
						"label": "string",
						"numberOfBytes": "32"
					},
					"t_string_storage": {
						"encoding": "bytes",
						"label": "string",
						"numberOfBytes": "32"
					},
					"t_uint256": {
						"encoding": "inplace",
						"label": "uint256",
						"numberOfBytes": "32"
					}
				}
			},
			"userdoc": {
				"kind": "user",
				"methods": {},
				"version": 1
			}
		}
	}
}