{
  "_format": "hh-sol-artifact-1",
  "contractName": "DegenToken",
  "sourceName": "contracts/DegenToken.sol",
  "abi": [
    {
      "inputs": [],
      "stateMutability": "nonpayable",
      "type": "constructor"
    },
    {
      "anonymous": false,
      "inputs": [
        {
          "indexed": true,
          "internalType": "address",
          "name": "owner",
          "type": "address"
        },
        {
          "indexed": true,
          "internalType": "address",
          "name": "spender",
          "type": "address"
        },
        {
          "indexed": false,
          "internalType": "uint256",
          "name": "value",
          "type": "uint256"
        }
      ],
      "name": "Approval",
      "type": "event"
    },
    {
      "anonymous": false,
      "inputs": [
        {
          "indexed": true,
          "internalType": "address",
          "name": "previousOwner",
          "type": "address"
        },
        {
          "indexed": true,
          "internalType": "address",
          "name": "newOwner",
          "type": "address"
        }
      ],
      "name": "OwnershipTransferred",
      "type": "event"
    },
    {
      "anonymous": false,
      "inputs": [
        {
          "indexed": true,
          "internalType": "address",
          "name": "from",
          "type": "address"
        },
        {
          "indexed": true,
          "internalType": "address",
          "name": "to",
          "type": "address"
        },
        {
          "indexed": false,
          "internalType": "uint256",
          "name": "value",
          "type": "uint256"
        }
      ],
      "name": "Transfer",
      "type": "event"
    },
    {
      "inputs": [
        {
          "internalType": "address",
          "name": "",
          "type": "address"
        }
      ],
      "name": "_balances",
      "outputs": [
        {
          "internalType": "uint256",
          "name": "",
          "type": "uint256"
        }
      ],
      "stateMutability": "view",
      "type": "function"
    },
    {
      "inputs": [
        {
          "internalType": "address",
          "name": "owner",
          "type": "address"
        },
        {
          "internalType": "address",
          "name": "spender",
          "type": "address"
        }
      ],
      "name": "allowance",
      "outputs": [
        {
          "internalType": "uint256",
          "name": "",
          "type": "uint256"
        }
      ],
      "stateMutability": "view",
      "type": "function"
    },
    {
      "inputs": [
        {
          "internalType": "address",
          "name": "spender",
          "type": "address"
        },
        {
          "internalType": "uint256",
          "name": "amount",
          "type": "uint256"
        }
      ],
      "name": "approve",
      "outputs": [
        {
          "internalType": "bool",
          "name": "",
          "type": "bool"
        }
      ],
      "stateMutability": "nonpayable",
      "type": "function"
    },
    {
      "inputs": [
        {
          "internalType": "address",
          "name": "account",
          "type": "address"
        }
      ],
      "name": "balanceOf",
      "outputs": [
        {
          "internalType": "uint256",
          "name": "",
          "type": "uint256"
        }
      ],
      "stateMutability": "view",
      "type": "function"
    },
    {
      "inputs": [
        {
          "internalType": "uint256",
          "name": "amount",
          "type": "uint256"
        }
      ],
      "name": "burn",
      "outputs": [],
      "stateMutability": "nonpayable",
      "type": "function"
    },
    {
      "inputs": [
        {
          "internalType": "address",
          "name": "account",
          "type": "address"
        },
        {
          "internalType": "uint256",
          "name": "amount",
          "type": "uint256"
        }
      ],
      "name": "burnFrom",
      "outputs": [],
      "stateMutability": "nonpayable",
      "type": "function"
    },
    {
      "inputs": [
        {
          "internalType": "uint256",
          "name": "_value",
          "type": "uint256"
        }
      ],
      "name": "burnTokens",
      "outputs": [],
      "stateMutability": "payable",
      "type": "function"
    },
    {
      "inputs": [],
      "name": "decimals",
      "outputs": [
        {
          "internalType": "uint8",
          "name": "",
          "type": "uint8"
        }
      ],
      "stateMutability": "pure",
      "type": "function"
    },
    {
      "inputs": [
        {
          "internalType": "address",
          "name": "spender",
          "type": "address"
        },
        {
          "internalType": "uint256",
          "name": "subtractedValue",
          "type": "uint256"
        }
      ],
      "name": "decreaseAllowance",
      "outputs": [
        {
          "internalType": "bool",
          "name": "",
          "type": "bool"
        }
      ],
      "stateMutability": "nonpayable",
      "type": "function"
    },
    {
      "inputs": [],
      "name": "displayStoreItems",
      "outputs": [
        {
          "internalType": "string",
          "name": "",
          "type": "string"
        }
      ],
      "stateMutability": "pure",
      "type": "function"
    },
    {
      "inputs": [],
      "name": "getBalance",
      "outputs": [
        {
          "internalType": "uint256",
          "name": "",
          "type": "uint256"
        }
      ],
      "stateMutability": "view",
      "type": "function"
    },
    {
      "inputs": [
        {
          "internalType": "address",
          "name": "spender",
          "type": "address"
        },
        {
          "internalType": "uint256",
          "name": "addedValue",
          "type": "uint256"
        }
      ],
      "name": "increaseAllowance",
      "outputs": [
        {
          "internalType": "bool",
          "name": "",
          "type": "bool"
        }
      ],
      "stateMutability": "nonpayable",
      "type": "function"
    },
    {
      "inputs": [
        {
          "internalType": "address",
          "name": "to",
          "type": "address"
        },
        {
          "internalType": "uint256",
          "name": "amount",
          "type": "uint256"
        }
      ],
      "name": "mint",
      "outputs": [],
      "stateMutability": "nonpayable",
      "type": "function"
    },
    {
      "inputs": [],
      "name": "name",
      "outputs": [
        {
          "internalType": "string",
          "name": "",
          "type": "string"
        }
      ],
      "stateMutability": "view",
      "type": "function"
    },
    {
      "inputs": [],
      "name": "owner",
      "outputs": [
        {
          "internalType": "address",
          "name": "",
          "type": "address"
        }
      ],
      "stateMutability": "view",
      "type": "function"
    },
    {
      "inputs": [
        {
          "internalType": "uint256",
          "name": "_option",
          "type": "uint256"
        }
      ],
      "name": "redeemTokens",
      "outputs": [],
      "stateMutability": "payable",
      "type": "function"
    },
    {
      "inputs": [],
      "name": "renounceOwnership",
      "outputs": [],
      "stateMutability": "nonpayable",
      "type": "function"
    },
    {
      "inputs": [],
      "name": "symbol",
      "outputs": [
        {
          "internalType": "string",
          "name": "",
          "type": "string"
        }
      ],
      "stateMutability": "view",
      "type": "function"
    },
    {
      "inputs": [],
      "name": "totalSupply",
      "outputs": [
        {
          "internalType": "uint256",
          "name": "",
          "type": "uint256"
        }
      ],
      "stateMutability": "view",
      "type": "function"
    },
    {
      "inputs": [
        {
          "internalType": "address",
          "name": "to",
          "type": "address"
        },
        {
          "internalType": "uint256",
          "name": "amount",
          "type": "uint256"
        }
      ],
      "name": "transfer",
      "outputs": [
        {
          "internalType": "bool",
          "name": "",
          "type": "bool"
        }
      ],
      "stateMutability": "nonpayable",
      "type": "function"
    },
    {
      "inputs": [
        {
          "internalType": "address",
          "name": "from",
          "type": "address"
        },
        {
          "internalType": "address",
          "name": "to",
          "type": "address"
        },
        {
          "internalType": "uint256",
          "name": "amount",
          "type": "uint256"
        }
      ],
      "name": "transferFrom",
      "outputs": [
        {
          "internalType": "bool",
          "name": "",
          "type": "bool"
        }
      ],
      "stateMutability": "nonpayable",
      "type": "function"
    },
    {
      "inputs": [
        {
          "internalType": "address",
          "name": "newOwner",
          "type": "address"
        }
      ],
      "name": "transferOwnership",
      "outputs": [],
      "stateMutability": "nonpayable",
      "type": "function"
    },
    {
      "inputs": [
        {
          "internalType": "address",
          "name": "_receiver",
          "type": "address"
        },
        {
          "internalType": "uint256",
          "name": "_value",
          "type": "uint256"
        }
      ],
      "name": "transferTokens",
      "outputs": [],
      "stateMutability": "nonpayable",
      "type": "function"
    }
  ],
  "bytecode": "0x60806040523480156200001157600080fd5b506040518060400160405280600581526020017f446567656e0000000000000000000000000000000000000000000000000000008152506040518060400160405280600381526020017f44474e000000000000000000000000000000000000000000000000000000000081525081600390816200008f919062000412565b508060049081620000a1919062000412565b505050620000c4620000b8620000ca60201b60201c565b620000d260201b60201c565b620004f9565b600033905090565b6000600560009054906101000a900473ffffffffffffffffffffffffffffffffffffffff16905081600560006101000a81548173ffffffffffffffffffffffffffffffffffffffff021916908373ffffffffffffffffffffffffffffffffffffffff1602179055508173ffffffffffffffffffffffffffffffffffffffff168173ffffffffffffffffffffffffffffffffffffffff167f8be0079c531659141344cd1fd0a4f28419497f9722a3daafe3b4186f6b6457e060405160405180910390a35050565b600081519050919050565b7f4e487b7100000000000000000000000000000000000000000000000000000000600052604160045260246000fd5b7f4e487b7100000000000000000000000000000000000000000000000000000000600052602260045260246000fd5b600060028204905060018216806200021a57607f821691505b60208210810362000230576200022f620001d2565b5b50919050565b60008190508160005260206000209050919050565b60006020601f8301049050919050565b600082821b905092915050565b6000600883026200029a7fffffffffffffffffffffffffffffffffffffffffffffffffffffffffffffffff826200025b565b620002a686836200025b565b95508019841693508086168417925050509392505050565b6000819050919050565b6000819050919050565b6000620002f3620002ed620002e784620002be565b620002c8565b620002be565b9050919050565b6000819050919050565b6200030f83620002d2565b620003276200031e82620002fa565b84845462000268565b825550505050565b600090565b6200033e6200032f565b6200034b81848462000304565b505050565b5b8181101562000373576200036760008262000334565b60018101905062000351565b5050565b601f821115620003c2576200038c8162000236565b62000397846200024b565b81016020851015620003a7578190505b620003bf620003b6856200024b565b83018262000350565b50505b505050565b600082821c905092915050565b6000620003e760001984600802620003c7565b1980831691505092915050565b6000620004028383620003d4565b9150826002028217905092915050565b6200041d8262000198565b67ffffffffffffffff811115620004395762000438620001a3565b5b62000445825462000201565b6200045282828562000377565b600060209050601f8311600181146200048a576000841562000475578287015190505b620004818582620003f4565b865550620004f1565b601f1984166200049a8662000236565b60005b82811015620004c4578489015182556001820191506020850194506020810190506200049d565b86831015620004e45784890151620004e0601f891682620003d4565b8355505b6001600288020188555050505b505050505050565b6121e880620005096000396000f3fe6080604052600436106101405760003560e01c80636ebcf607116100b6578063a457c2d71161006f578063a457c2d714610451578063a6e158f81461048e578063a9059cbb146104aa578063bec3fa17146104e7578063dd62ed3e14610510578063f2fde38b1461054d57610140565b80636ebcf6071461034157806370a082311461037e578063715018a6146103bb57806379cc6790146103d25780638da5cb5b146103fb57806395d89b411461042657610140565b806323b872dd1161010857806323b872dd1461022e578063313ce5671461026b578063395093511461029657806340c10f19146102d357806342966c68146102fc5780636d1b229d1461032557610140565b806306fdde0314610145578063095ea7b31461017057806312065fe0146101ad578063178fb088146101d857806318160ddd14610203575b600080fd5b34801561015157600080fd5b5061015a610576565b60405161016791906115ff565b60405180910390f35b34801561017c57600080fd5b50610197600480360381019061019291906116ba565b610608565b6040516101a49190611715565b60405180910390f35b3480156101b957600080fd5b506101c261062b565b6040516101cf919061173f565b60405180910390f35b3480156101e457600080fd5b506101ed6106ac565b6040516101fa91906115ff565b60405180910390f35b34801561020f57600080fd5b506102186106cc565b604051610225919061173f565b60405180910390f35b34801561023a57600080fd5b506102556004803603810190610250919061175a565b6106d6565b6040516102629190611715565b60405180910390f35b34801561027757600080fd5b50610280610705565b60405161028d91906117c9565b60405180910390f35b3480156102a257600080fd5b506102bd60048036038101906102b891906116ba565b61070a565b6040516102ca9190611715565b60405180910390f35b3480156102df57600080fd5b506102fa60048036038101906102f591906116ba565b610741565b005b34801561030857600080fd5b50610323600480360381019061031e91906117e4565b610757565b005b61033f600480360381019061033a91906117e4565b61076b565b005b34801561034d57600080fd5b5061036860048036038101906103639190611811565b6107ce565b604051610375919061173f565b60405180910390f35b34801561038a57600080fd5b506103a560048036038101906103a09190611811565b6107e6565b6040516103b2919061173f565b60405180910390f35b3480156103c757600080fd5b506103d061082e565b005b3480156103de57600080fd5b506103f960048036038101906103f491906116ba565b610842565b005b34801561040757600080fd5b50610410610862565b60405161041d919061184d565b60405180910390f35b34801561043257600080fd5b5061043b61088c565b60405161044891906115ff565b60405180910390f35b34801561045d57600080fd5b50610478600480360381019061047391906116ba565b61091e565b6040516104859190611715565b60405180910390f35b6104a860048036038101906104a391906117e4565b610995565b005b3480156104b657600080fd5b506104d160048036038101906104cc91906116ba565b610a98565b6040516104de9190611715565b60405180910390f35b3480156104f357600080fd5b5061050e600480360381019061050991906116ba565b610abb565b005b34801561051c57600080fd5b5061053760048036038101906105329190611868565b610b21565b604051610544919061173f565b60405180910390f35b34801561055957600080fd5b50610574600480360381019061056f9190611811565b610ba8565b005b606060038054610585906118d7565b80601f01602080910402602001604051908101604052809291908181526020018280546105b1906118d7565b80156105fe5780601f106105d3576101008083540402835291602001916105fe565b820191906000526020600020905b8154815290600101906020018083116105e157829003601f168201915b5050505050905090565b600080610613610c2b565b9050610620818585610c33565b600191505092915050565b60003073ffffffffffffffffffffffffffffffffffffffff166370a08231336040518263ffffffff1660e01b8152600401610666919061184d565b602060405180830381865afa158015610683573d6000803e3d6000fd5b505050506040513d601f19601f820116820180604052508101906106a7919061191d565b905090565b606060405180608001604052806055815260200161215e60559139905090565b6000600254905090565b6000806106e1610c2b565b90506106ee858285610dfc565b6106f9858585610e88565b60019150509392505050565b600090565b600080610715610c2b565b90506107368185856107278589610b21565b6107319190611979565b610c33565b600191505092915050565b6107496110fe565b610753828261117c565b5050565b610768610762610c2b565b826112d2565b50565b80610775336107e6565b10156107b6576040517f08c379a00000000000000000000000000000000000000000000000000000000081526004016107ad90611a1f565b60405180910390fd5b6107c03382610608565b506107cb3382610842565b50565b60066020528060005260406000206000915090505481565b60008060008373ffffffffffffffffffffffffffffffffffffffff1673ffffffffffffffffffffffffffffffffffffffff168152602001908152602001600020549050919050565b6108366110fe565b610840600061149f565b565b6108548261084e610c2b565b83610dfc565b61085e82826112d2565b5050565b6000600560009054906101000a900473ffffffffffffffffffffffffffffffffffffffff16905090565b60606004805461089b906118d7565b80601f01602080910402602001604051908101604052809291908181526020018280546108c7906118d7565b80156109145780601f106108e957610100808354040283529160200191610914565b820191906000526020600020905b8154815290600101906020018083116108f757829003601f168201915b5050505050905090565b600080610929610c2b565b905060006109378286610b21565b90508381101561097c576040517f08c379a000000000000000000000000000000000000000000000000000000000815260040161097390611ab1565b60405180910390fd5b6109898286868403610c33565b60019250505092915050565b60018114806109a45750600281145b806109af5750600381145b6109ee576040517f08c379a00000000000000000000000000000000000000000000000000000000081526004016109e590611b69565b60405180910390fd5b600060018203610a015760329050610a18565b60028203610a125760289050610a17565b601e90505b5b60007370997970c51812dc3a010c7d01b50e0d17dc79c8905081610a3b336107e6565b1015610a7c576040517f08c379a0000000000000000000000000000000000000000000000000000000008152600401610a7390611a1f565b60405180910390fd5b610a863383610608565b50610a923382846106d6565b50505050565b600080610aa3610c2b565b9050610ab0818585610e88565b600191505092915050565b80610ac5336107e6565b1015610b06576040517f08c379a0000000000000000000000000000000000000000000000000000000008152600401610afd90611a1f565b60405180910390fd5b610b103382610608565b50610b1c3383836106d6565b505050565b6000600160008473ffffffffffffffffffffffffffffffffffffffff1673ffffffffffffffffffffffffffffffffffffffff16815260200190815260200160002060008373ffffffffffffffffffffffffffffffffffffffff1673ffffffffffffffffffffffffffffffffffffffff16815260200190815260200160002054905092915050565b610bb06110fe565b600073ffffffffffffffffffffffffffffffffffffffff168173ffffffffffffffffffffffffffffffffffffffff1603610c1f576040517f08c379a0000000000000000000000000000000000000000000000000000000008152600401610c1690611bfb565b60405180910390fd5b610c288161149f565b50565b600033905090565b600073ffffffffffffffffffffffffffffffffffffffff168373ffffffffffffffffffffffffffffffffffffffff1603610ca2576040517f08c379a0000000000000000000000000000000000000000000000000000000008152600401610c9990611c8d565b60405180910390fd5b600073ffffffffffffffffffffffffffffffffffffffff168273ffffffffffffffffffffffffffffffffffffffff1603610d11576040517f08c379a0000000000000000000000000000000000000000000000000000000008152600401610d0890611d1f565b60405180910390fd5b80600160008573ffffffffffffffffffffffffffffffffffffffff1673ffffffffffffffffffffffffffffffffffffffff16815260200190815260200160002060008473ffffffffffffffffffffffffffffffffffffffff1673ffffffffffffffffffffffffffffffffffffffff168152602001908152602001600020819055508173ffffffffffffffffffffffffffffffffffffffff168373ffffffffffffffffffffffffffffffffffffffff167f8c5be1e5ebec7d5bd14f71427d1e84f3dd0314c0f7b2291e5b200ac8c7c3b92583604051610def919061173f565b60405180910390a3505050565b6000610e088484610b21565b90507fffffffffffffffffffffffffffffffffffffffffffffffffffffffffffffffff8114610e825781811015610e74576040517f08c379a0000000000000000000000000000000000000000000000000000000008152600401610e6b90611d8b565b60405180910390fd5b610e818484848403610c33565b5b50505050565b600073ffffffffffffffffffffffffffffffffffffffff168373ffffffffffffffffffffffffffffffffffffffff1603610ef7576040517f08c379a0000000000000000000000000000000000000000000000000000000008152600401610eee90611e1d565b60405180910390fd5b600073ffffffffffffffffffffffffffffffffffffffff168273ffffffffffffffffffffffffffffffffffffffff1603610f66576040517f08c379a0000000000000000000000000000000000000000000000000000000008152600401610f5d90611eaf565b60405180910390fd5b610f71838383611565565b60008060008573ffffffffffffffffffffffffffffffffffffffff1673ffffffffffffffffffffffffffffffffffffffff16815260200190815260200160002054905081811015610ff7576040517f08c379a0000000000000000000000000000000000000000000000000000000008152600401610fee90611f41565b60405180910390fd5b8181036000808673ffffffffffffffffffffffffffffffffffffffff1673ffffffffffffffffffffffffffffffffffffffff16815260200190815260200160002081905550816000808573ffffffffffffffffffffffffffffffffffffffff1673ffffffffffffffffffffffffffffffffffffffff168152602001908152602001600020600082825401925050819055508273ffffffffffffffffffffffffffffffffffffffff168473ffffffffffffffffffffffffffffffffffffffff167fddf252ad1be2c89b69c2b068fc378daa952ba7f163c4a11628f55a4df523b3ef846040516110e5919061173f565b60405180910390a36110f884848461156a565b50505050565b611106610c2b565b73ffffffffffffffffffffffffffffffffffffffff16611124610862565b73ffffffffffffffffffffffffffffffffffffffff161461117a576040517f08c379a000000000000000000000000000000000000000000000000000000000815260040161117190611fad565b60405180910390fd5b565b600073ffffffffffffffffffffffffffffffffffffffff168273ffffffffffffffffffffffffffffffffffffffff16036111eb576040517f08c379a00000000000000000000000000000000000000000000000000000000081526004016111e290612019565b60405180910390fd5b6111f760008383611565565b80600260008282546112099190611979565b92505081905550806000808473ffffffffffffffffffffffffffffffffffffffff1673ffffffffffffffffffffffffffffffffffffffff168152602001908152602001600020600082825401925050819055508173ffffffffffffffffffffffffffffffffffffffff16600073ffffffffffffffffffffffffffffffffffffffff167fddf252ad1be2c89b69c2b068fc378daa952ba7f163c4a11628f55a4df523b3ef836040516112ba919061173f565b60405180910390a36112ce6000838361156a565b5050565b600073ffffffffffffffffffffffffffffffffffffffff168273ffffffffffffffffffffffffffffffffffffffff1603611341576040517f08c379a0000000000000000000000000000000000000000000000000000000008152600401611338906120ab565b60405180910390fd5b61134d82600083611565565b60008060008473ffffffffffffffffffffffffffffffffffffffff1673ffffffffffffffffffffffffffffffffffffffff168152602001908152602001600020549050818110156113d3576040517f08c379a00000000000000000000000000000000000000000000000000000000081526004016113ca9061213d565b60405180910390fd5b8181036000808573ffffffffffffffffffffffffffffffffffffffff1673ffffffffffffffffffffffffffffffffffffffff1681526020019081526020016000208190555081600260008282540392505081905550600073ffffffffffffffffffffffffffffffffffffffff168373ffffffffffffffffffffffffffffffffffffffff167fddf252ad1be2c89b69c2b068fc378daa952ba7f163c4a11628f55a4df523b3ef84604051611486919061173f565b60405180910390a361149a8360008461156a565b505050565b6000600560009054906101000a900473ffffffffffffffffffffffffffffffffffffffff16905081600560006101000a81548173ffffffffffffffffffffffffffffffffffffffff021916908373ffffffffffffffffffffffffffffffffffffffff1602179055508173ffffffffffffffffffffffffffffffffffffffff168173ffffffffffffffffffffffffffffffffffffffff167f8be0079c531659141344cd1fd0a4f28419497f9722a3daafe3b4186f6b6457e060405160405180910390a35050565b505050565b505050565b600081519050919050565b600082825260208201905092915050565b60005b838110156115a957808201518184015260208101905061158e565b60008484015250505050565b6000601f19601f8301169050919050565b60006115d18261156f565b6115db818561157a565b93506115eb81856020860161158b565b6115f4816115b5565b840191505092915050565b6000602082019050818103600083015261161981846115c6565b905092915050565b600080fd5b600073ffffffffffffffffffffffffffffffffffffffff82169050919050565b600061165182611626565b9050919050565b61166181611646565b811461166c57600080fd5b50565b60008135905061167e81611658565b92915050565b6000819050919050565b61169781611684565b81146116a257600080fd5b50565b6000813590506116b48161168e565b92915050565b600080604083850312156116d1576116d0611621565b5b60006116df8582860161166f565b92505060206116f0858286016116a5565b9150509250929050565b60008115159050919050565b61170f816116fa565b82525050565b600060208201905061172a6000830184611706565b92915050565b61173981611684565b82525050565b60006020820190506117546000830184611730565b92915050565b60008060006060848603121561177357611772611621565b5b60006117818682870161166f565b93505060206117928682870161166f565b92505060406117a3868287016116a5565b9150509250925092565b600060ff82169050919050565b6117c3816117ad565b82525050565b60006020820190506117de60008301846117ba565b92915050565b6000602082840312156117fa576117f9611621565b5b6000611808848285016116a5565b91505092915050565b60006020828403121561182757611826611621565b5b60006118358482850161166f565b91505092915050565b61184781611646565b82525050565b6000602082019050611862600083018461183e565b92915050565b6000806040838503121561187f5761187e611621565b5b600061188d8582860161166f565b925050602061189e8582860161166f565b9150509250929050565b7f4e487b7100000000000000000000000000000000000000000000000000000000600052602260045260246000fd5b600060028204905060018216806118ef57607f821691505b602082108103611902576119016118a8565b5b50919050565b6000815190506119178161168e565b92915050565b60006020828403121561193357611932611621565b5b600061194184828501611908565b91505092915050565b7f4e487b7100000000000000000000000000000000000000000000000000000000600052601160045260246000fd5b600061198482611684565b915061198f83611684565b92508282019050808211156119a7576119a661194a565b5b92915050565b7f596f7520646f206e6f74206861766520656e6f75676820446567656e20546f6b60008201527f656e730000000000000000000000000000000000000000000000000000000000602082015250565b6000611a0960238361157a565b9150611a14826119ad565b604082019050919050565b60006020820190508181036000830152611a38816119fc565b9050919050565b7f45524332303a2064656372656173656420616c6c6f77616e63652062656c6f7760008201527f207a65726f000000000000000000000000000000000000000000000000000000602082015250565b6000611a9b60258361157a565b9150611aa682611a3f565b604082019050919050565b60006020820190508181036000830152611aca81611a8e565b9050919050565b7f53656c656374696f6e206f7574206f6620626f756e64732e20506c656173652060008201527f73656c6563742077697468696e2074686520617070726f766564206f7074696f60208201527f6e73000000000000000000000000000000000000000000000000000000000000604082015250565b6000611b5360428361157a565b9150611b5e82611ad1565b606082019050919050565b60006020820190508181036000830152611b8281611b46565b9050919050565b7f4f776e61626c653a206e6577206f776e657220697320746865207a65726f206160008201527f6464726573730000000000000000000000000000000000000000000000000000602082015250565b6000611be560268361157a565b9150611bf082611b89565b604082019050919050565b60006020820190508181036000830152611c1481611bd8565b9050919050565b7f45524332303a20617070726f76652066726f6d20746865207a65726f2061646460008201527f7265737300000000000000000000000000000000000000000000000000000000602082015250565b6000611c7760248361157a565b9150611c8282611c1b565b604082019050919050565b60006020820190508181036000830152611ca681611c6a565b9050919050565b7f45524332303a20617070726f766520746f20746865207a65726f20616464726560008201527f7373000000000000000000000000000000000000000000000000000000000000602082015250565b6000611d0960228361157a565b9150611d1482611cad565b604082019050919050565b60006020820190508181036000830152611d3881611cfc565b9050919050565b7f45524332303a20696e73756666696369656e7420616c6c6f77616e6365000000600082015250565b6000611d75601d8361157a565b9150611d8082611d3f565b602082019050919050565b60006020820190508181036000830152611da481611d68565b9050919050565b7f45524332303a207472616e736665722066726f6d20746865207a65726f20616460008201527f6472657373000000000000000000000000000000000000000000000000000000602082015250565b6000611e0760258361157a565b9150611e1282611dab565b604082019050919050565b60006020820190508181036000830152611e3681611dfa565b9050919050565b7f45524332303a207472616e7366657220746f20746865207a65726f206164647260008201527f6573730000000000000000000000000000000000000000000000000000000000602082015250565b6000611e9960238361157a565b9150611ea482611e3d565b604082019050919050565b60006020820190508181036000830152611ec881611e8c565b9050919050565b7f45524332303a207472616e7366657220616d6f756e742065786365656473206260008201527f616c616e63650000000000000000000000000000000000000000000000000000602082015250565b6000611f2b60268361157a565b9150611f3682611ecf565b604082019050919050565b60006020820190508181036000830152611f5a81611f1e565b9050919050565b7f4f776e61626c653a2063616c6c6572206973206e6f7420746865206f776e6572600082015250565b6000611f9760208361157a565b9150611fa282611f61565b602082019050919050565b60006020820190508181036000830152611fc681611f8a565b9050919050565b7f45524332303a206d696e7420746f20746865207a65726f206164647265737300600082015250565b6000612003601f8361157a565b915061200e82611fcd565b602082019050919050565b6000602082019050818103600083015261203281611ff6565b9050919050565b7f45524332303a206275726e2066726f6d20746865207a65726f2061646472657360008201527f7300000000000000000000000000000000000000000000000000000000000000602082015250565b600061209560218361157a565b91506120a082612039565b604082019050919050565b600060208201905081810360008301526120c481612088565b9050919050565b7f45524332303a206275726e20616d6f756e7420657863656564732062616c616e60008201527f6365000000000000000000000000000000000000000000000000000000000000602082015250565b600061212760228361157a565b9150612132826120cb565b604082019050919050565b600060208201905081810360008301526121568161211a565b905091905056fe4f7074696f6e20313a204d61646f6e61204e4654200a204f7074696f6e20323a204d69726163756c6f7573204d6564616c200a204f7074696f6e20333a20506f727472616974206f662048696c6465722042616369a2646970667358221220c2207dfd53c83d60be2c25a26a6bf8d37effc0c9f8c1bddcf4f13c19a990f0a764736f6c63430008140033",
  "linkReferences": {},
  "deployedLinkReferences": {}
}